:020000040001F9
:108000003050002079C201008BC201000D810100B7
:108010000000000000000000000000000000000060
:108020000000000000000000000000008FC20100FE
:10803000000000000000000091C2010093C2010096
:1080400095C2010095C2010095C2010095C20100D0
:1080500095C201000000000095C2010095C2010018
:1080600095C2010095C2010095C2010095C20100B0
:1080700095C2010095C2010095C2010095C20100A0
:1080800095C2010095C20100AFA6010095C2010092
:1080900095C2010095C2010083D2010095C2010082
:1080A00095C2010095C20100000000000000000020
:1080B00000000000000000000000000000000000C0
:1080C0000348854605F0C0F900480047FF820100DB
:1080D0003050002010B508E0032205231B070724B9
:1080E00024021B1984001A51401C8842F4D910BD87
:1080F0000121022000F0A2FA0021032000F09EFAE4
:1081000000BFFEE7FFF7F4FFFFF7F2FFFFF7F0FF16
:1081100010B50446204600F0DDFB204600F05EFA74
:1081200010BDF0B59DB0044600BF01200007B04966
:108130008860C86000BF00262078030005F0C0F901
:1081400005280416B7B6BA00A0880122A16800F07D
:1081500054FB054600BF2F46002F05D000BFA5A247
:10816000A6213846FFF7D0FF00BFA3E0A088012278
:10817000A16800F042FB054600BF2F46002F05D046
:1081800000BF9CA2B5213846FFF7BEFF00BF91E0BB
:10819000A0889B4A115C88424ED1A0889949085C0E
:1081A000002809D1A0680078A188974A505401207E
:1081B000A188944A505409E0A0889249085C01289B
:1081C00004D1A0680078A188904A5054A0888F49B3
:1081D000085CA1888C4A515C884204DCA0888B49E9
:1081E000085C002828D18A480088FF212D31884268
:1081F00002D1002086490880A0888349085C85490F
:10820000834A12888854A088800083490858401CFB
:10821000A1888900804A505080480068401C7F49EE
:1082200008607B480088401C79490880A08877490D
:10823000085CA188744A5054A0880122A16800F00B
:10824000DCFA054600BF2F46002F06D000BF69A20A
:10825000FF2107313846FFF757FF00BFE08AA168CA
:108260000978A2681278A3690093019202910390A1
:10827000A3886BA2962104A805F0F8F806463246BA
:1082800004A9002004F029FA15200123834019468F
:10829000574B5B68C340DA07D20F002A02D1544B18
:1082A000996001E0524BD96000BF03E000BF00F0CD
:1082B0001EF900BF00BF1DB0F0BD10B5182115207C
:1082C000FFF708FF002007E00146153101228A4030
:1082D000474B9A6000BF401C0428F5D320210020A2
:1082E000FFF7F8FE10BD00205949486001208107C2
:1082F000886000BF564840680028FBD0704790B0A7
:10830000FFF7DBFF10203A49886000BF00234822B6
:108310005049052004F06DFF054600BF2E46002E93
:1083200006D000BF33A2FF2176313046FFF7ECFEC6
:1083300000BF00BF484804F092FF484804F098FF8F
:1083400000200DE02E49085400212E4A11542E4AD7
:1083500011542E4A115482002F4B9950411CC8B21F
:108360006928EFDB3E480B9064200D90262108A879
:10837000017405200E90002108A801770F98009045
:108380000BA80FC800F06CF9044600BF2546002D6D
:1083900006D000BF17A2FF2192312846FFF7B4FE96
:1083A00000BF09A871DF044600BF2546002D06D096
:1083B00000BF10A2FF2197312846FFF7A5FE00BF9E
:1083C00004F031FB00200123DB02264A26A10090A5
:1083D00004F07AFA0BE002A800F0C2FA002805D1F6
:1083E00002A8FFF79EFE02A800F0E2FA48DFF2E7DB
:1083F000000500502E2E5C6D61696E2E630000003A
:108400004C2A0020B52A00201E2B0020872B00209C
:108410000020002020290020884600200420002081
:10842000204D3A2068646C202564203C25643E2061
:108430005278203C25643E20747820766572203C7A
:1084400025643E2076646C7461203C25643E0A00FD
:1084500000010040F02B002011810100ED88010097
:10846000D6BE898E202100205570427566666572E1
:108470003000000010B50446208850280BD0512849
:1084800002D0522808D100E007E0A08800231A4655
:108490001946A9DF01E000E000BF00BF10BD70B5C4
:1084A000044620881038030005F00AF80906071E64
:1084B0000A1E1E1E1D1C1E0017E0534873DF14E029
:1084C00000BFA0880023514A19467FDF0546002DD2
:1084D00006D000BF4EA272212846FFF715FE00BF4E
:1084E00000BF02E001E000E000BF00BF70BD70B55A
:1084F00096B00020159010A9087414A860DF0446F7
:10850000002C0DD0082C0BD000BF2646002E06D024
:1085100000BF3FA28F213046FFF7F6FD00BF00BF2E
:10852000062530213F4804F043FF3E48C570022035
:108530003C4908703C480068139011A871DF04465C
:1085400000BF2646002E06D000BF31A29F21304634
:10855000FFF7DAFD00BF00BF11A84079000211A9A2
:1085600089790843024631A101A804F095FF01A8CA
:1085700004F029FF86B2324601A913A87CDF044625
:1085800000BF2646002E06D000BF21A2A6213046FD
:10859000FFF7BAFD00BF00BF0021224804F084FDB0
:1085A000044600BF2646002E06D000BF18A2AA210E
:1085B0003046FFF7A9FD00BF00BF134873DF044634
:1085C00000BF2646002E06D000BF11A2AE213046C5
:1085D000FFF79AFD00BF00BF16B070BD10B504468E
:1085E0002088F0210840102802D0502808D103E04C
:1085F0002046FFF754FF04E02046FFF73BFF00E072
:1086000000BF00BF10BD0000082000202020002077
:108610002E2E5C6E72665F6164765F636F6E6E2E87
:1086200063000000382C00206CD801007262635F88
:108630006D6573682023256400000000002906D1C1
:108640000246153201239340044A936005E0024636
:10865000153201239340014AD36070470005005052
:108660000FB4FEB50021029102A812DF6846007A1D
:10867000002804D10220FEBC08BC04B01847DF4823
:108680000078002801D00820F5E70A98052803D3D0
:10869000DB490A98884201D90720ECE703F08FFDF7
:1086A00002F01BF802F09AFC08AD2979089801F055
:1086B000B8FD2B7C2A797D26F6000A9D7543284655
:1086C000089902F0FFF90446002C01D02046D2E7B9
:1086D000002000900190019069460870684660DFB4
:1086E0000446002C03D0082C01D02046C3E708AB79
:1086F00019790A9A089801F03DFB0446002C01D034
:108700002046B8E70B9800F095FFBE49089808602E
:1087100008A80079BC490870BC490A980860012083
:10872000B64908700820BA498860BA4808601C2019
:10873000486000204861084601F078FE01F036F8F4
:10874000002098E7AD480078704710B5AB48007836
:10875000022801D0082010BD01F028F80120A74907
:1087600008700020F7E710B5A4480078012801D070
:10877000082010BD00F0A0FF0220A04908700020D2
:10878000F7E710B50446A448844201DD102010BD6F
:10879000204602F09EFBFAE710B504469E4884424C
:1087A00001DD102010BD204602F0A8FBFAE770B5ED
:1087B00004460D4691480078002801D1082070BD7C
:1087C0009548844201DD1020F9E72946204602F051
:1087D000CFFBF4E770B504460D46884800780028C2
:1087E00001D1082070BD8C48844201DD1020F9E7DA
:1087F0002946204602F039FBF4E770B505460E46DF
:1088000014467E480078002801D1082070BD8248B7
:10881000854201DD1020F9E7E2B23146284601F039
:10882000D9FAE2B23146284602F0ACFAEEE770B56A
:1088300004460D4616467848844201DD102070BD7E
:1088400032462946204602F0D6FAF8E701466B4840
:108850000078002801D1082070476A480068086045
:108860000020F9E7014665480078002801D108207A
:1088700070476548007808700020F9E701465F48B6
:108880000078002801D1082070476048006808601F
:108890000020F9E770B504460D465F48844201DDCB
:1088A000102070BD2946204602F078FBF9E770B52C
:1088B00004460D465848844201DD102070BD29460B
:1088C000204602F0ECFAF9E710B50446204602F023
:1088D00028F910BD10B5044648480078002800D19A
:1088E00010BD204601F098FA00BFF9E710B5044624
:1088F000204600F088FD10BD70B504463F48007862
:10890000002801D1082070BD002C01D10E20FAE70B
:1089100021463F4801F09BFD0546002D1ED1A06871
:1089200000281BD02078002807D0012806D0022874
:1089300002D0042810D108E000BF00BFA0680028C2
:1089400002D0A06802F090FB07E0A068002802D0E7
:10895000A06802F089FB00E000BF00BF2846D2E714
:1089600010B5044625480078002801D1082010BD24
:108970002146274801F09FFD002801D00520F6E799
:108980000020F4E710B504461C480078002801D107
:10899000082010BD002C01D10E20FAE721461C480A
:1089A00001F0F2FD002801D00520F2E70020F0E7F9
:1089B00010B504462078002806D0012806D00228E9
:1089C00003D0042810D108E000BF00BFA068002831
:1089D00002D0A06802F075FB07E0A068002802D072
:1089E000A06802F06EFB00E000BF00BF10BD10B534
:1089F0000446204601F0EEFC10BD000028200020B7
:108A000060EA00002C2000203020002034200020CC
:108A1000682C0020802C0020EFFF00000020D349AC
:108A20000860401ED24988600120D24908610220B6
:108A3000D149087000BF00BF70477CB5CF4801F036
:108A40006BFD044622E06946CC4801F09DFD0028FC
:108A50001AD168464079022816D10021C74801F092
:108A60002AFDFFF7DBFF00BFC54800690028FBD1E6
:108A7000C449C86064230022D2430021C24D00983B
:108A80002D68A847641E00E002E000BF012CDAD880
:108A900000BF7CBD0EB50A2805DC4100091DB84A9F
:108AA000403A916015E0242805DC4100891DB44A54
:108AB000403A91600DE0B54B0ECB029301920091CC
:108AC0000146253989006A465158AD4A403A9160BD
:108AD00000BF4106490EAA4A51610EBD10B50446B9
:108AE0001320A2490860A079FFF7D4FFA4494039B8
:108AF0002068486008209E4948600020A149C8605D
:108B0000A3480068000E9E4940398862A04800686A
:108B10000002000A00020862607900280BD100BF41
:108B200000BF2079C862E079C860012091490860DF
:108B30009149087015E000BF00BF9548006895494D
:108B4000884204D003208E494039086303E00120A5
:108B50008B494039086301208649486000208649D6
:108B6000087010BD70B504460D46164600208A49AF
:108B7000C8630120C863002081494039C8600320D0
:108B800008610220886025207D4948618E207C494B
:108B9000403948628148C8617D480068000E88629B
:108BA0007B4800680002000A000208620020C862D8
:108BB000012008637A4848617A4888617A48886366
:108BC000FF20043048637948C86394206C494860AA
:108BD0006948007803280BD10820684988607448E8
:108BE00008600820486000204861084601F01EFC2B
:108BF00002206149087000206249C86001200121FB
:108C000081406C4A116000BF00BF012181406A4A67
:108C1000116000BF694804605B48056068480660F1
:108C2000564801F0BDFC002803D064480068804726
:108C300006E000F0B8FD002802D0012000F08DF819
:108C400070BD53490860704770B50446002C01D1CF
:108C50000E2070BD6079002804D12079012801DD43
:108C60001020F6E72146454801F0F1FB002801D02D
:108C70000420EEE7EFF31080C507ED0F72B600F0A9
:108C800092FD002802D0012000F067F8002D00D1ED
:108C900062B60020DDE7FEB53A48C068002843D040
:108CA00048480068002801D0012000E00020029020
:108CB0004448C56864263348C069002805D00020B0
:108CC0003049C8612E488068C6B200202D49C8606E
:108CD00069462A4801F0EFFB044600BF2746002FF3
:108CE00007D000BF38A2FF2149313846FFF70CFA00
:108CF00000BF00BF68464079012803D0684640792C
:108D0000022807D133462A461F4F029900983F6830
:108D1000B84703E02A4900980968884700BF00BFA8
:108D200002201549087001E0FFF787FE124800781D
:108D3000022803D01048007803280DD101A90F485C
:108D400001F022FC002803D101A8FFF7C7FE02E0D2
:108D50001A480068804700BFFEBDC206D20E01213E
:108D60009140144A803A11607047000000120040A0
:108D7000001300400010004038200020602D00202B
:108D800040150040001100404020002070D8010034
:108D900048200020D6BE898EC01F004000D6BE8964
:108DA00006010200250003025B0600005555550030
:108DB000782D002080E200E000E100E03C2000206F
:108DC00044200020001400402E2E5C2E2E5C2E2EFF
:108DD0005C7262635F6D6573685C7372635C726121
:108DE00064696F5F636F6E74726F6C2E6300000056
:108DF00070B504460D4600BF022C01DA012000E0E8
:108E000000200646002E05D100BFF6A24421FFF740
:108E10007BF900BF00BF2046103001218140F94896
:108E20004160F948152189014018A10045500021F1
:108E3000F648A2008150A100405870BD10B500F066
:108E400035FA0024F248007800280DD00021EF48C0
:108E5000C1600121EC48C164152189014018C06836
:108E6000EC490968441801E0EB48046800F026FA70
:108E7000204610BDF0B585B0002441E0E348A100D4
:108E8000405800283BD0A000E4490D5800BF002DF9
:108E900001D0012000E000200746002F05D100BFCF
:108EA000D0A26221FFF730F900BF00BF0020A1006F
:108EB000DA4A50502046103001218140D14881606B
:108EC000FFF7BCFF0646D648005D02210840002897
:108ED00002D03046A84708E0002069460870019596
:108EE0000296684601F023FC00BF0021C748A2009B
:108EF0008150A1004058002C00D103E000BF641C49
:108F0000032CBBD300BF05B0F0BDF8B504460D4639
:108F100017461E46032C01DB0720F8BDB007800F63
:108F2000B04201D00A20F8E700F0C0F9A000BB4928
:108F30000F50A000BB490D50B94806550020A100B4
:108F4000B94A5050B2480078002810D0B1480068A3
:108F5000281AB64A904203D9AE480068401B02E086
:108F6000AC480068281A01462046FFF741FF00F090
:108F7000A5F90020D1E7FFB581B004460D461E4695
:108F80000A9F032C02DB072005B0F0BDB807800F55
:108F9000B84201D00A20F7E700F088F9A1009F4A03
:108FA00003985050A0009F490D50A0009E490E50BC
:108FB0009B4807559648007800282AD095480068B5
:108FC000281A9A4A904203D992480068401B02E04E
:108FD00090480068281A01462046FFF709FF8B4891
:108FE000A1004118924851221201821820460830EF
:108FF000C00011508E485121090141182046083007
:10900000C000081846602046083001218140894888
:10901000416000F053F90020B6E7F8B504460F466A
:1090200016461D46032C01DB0720F8BDE807C00FDC
:10903000A84201D00A20F8E700F038F9A0007949E9
:109040000F50A00078490E507548055570480078BB
:10905000002819D06D48A10041187548512212010D
:10906000821820460830C000115071485121090172
:10907000411820460830C0000818466020460830D5
:10908000012181406B48416000F018F90020CCE7D5
:1090900010B50446032C01DB072010BDA000624977
:1090A0000858002806D1A0005C490858002801D1C2
:1090B0000520F2E700F0FAF8032C15DA0020A100F1
:1090C000564A5050564908555148007800280BD050
:1090D00020461030012181404A48816020460830F6
:1090E000012181405348816000F0E8F80020D4E776
:1090F00070B586B005460024A7E00020424915223D
:1091000092018918A200885000214048A200815095
:10911000A1004058A000434908583E490968401A38
:109120004249884206D9A0003E4908583949096891
:10913000081A05E0A0003B49085836490968401A5A
:1091400029467831334A1268891A384A914204D93B
:1091500030490968491B783104E0294678312D4AA5
:109160001268891A88422BD2A0002C49085800287E
:1091700018D0A0000E580020A100284A50502848BE
:10918000005D02210840002802D02846B04708E0D0
:109190000020694608710296039501A801F0C7FAFC
:1091A00000BF00BFA0002049085800284CD0012073
:1091B000A1001D4A515808600020A100505043E012
:1091C000A0001649085800283ED0A200154B9A5816
:1091D000521B164B9A422FD9A200124B9A58AA1A28
:1091E0002EE000002E2E5C2E2E5C2E2E5C72626312
:1091F0005F6D6573685C7372635C74696D65722E14
:109200006300000000830040008000404081004077
:10921000582000205020002054200020B82D00208D
:109220004C200020D02D0020C42D0020FFFFFF7F08
:1092300000F0014000F50140A200234B9A58521B58
:109240001146E0B2FFF7D4FD641C032C00D254E7B2
:109250001E480068002806D10820012181401C4AD0
:10926000116000BF00BF1B48056001201A4908704B
:1092700006B070BD10B5014600200FE0174A125C21
:10928000D207D20F002A08D00022144B1A548300B0
:10929000134CE2508300134CE250401C0328EDD3E2
:1092A0001148016000200C4A107010BDEFF31080CF
:1092B000C007C00F72B605490860704703480068D0
:1092C000002800D162B67047D02D00205C2000201D
:1092D00000E100E050200020582000204C20002019
:1092E000B82D0020C42D00205420002010B5FE49C8
:1092F0000968FE4A126851430846FD4903F0ECFF35
:109300007D21C900401810BD10B50446F948007809
:10931000002807D0F84884600320F8490870F64810
:10932000486001E0F44850DFEF48046010BDF149A7
:10933000097800290DD0EC4909680918F04A9142D2
:1093400002D9E9490968501A0121EC4A1170114605
:1093500048607047F0B585B0EA4844680025EA489F
:109360000068002801D1E94830C0E84903C92A460D
:10937000201A8A410AD2E548E5490368426800207C
:10938000C91A90410E1907466F4105E02846DF4A89
:1093900006CA661A90410746D54900206A4683C22C
:1093A000039630463946009B019A03F0ABFF49040F
:1093B000C00B0843D74909684018D6490860D3480C
:1093C00030C005B0F0BDD4480078002800D1704707
:1093D000C5480068CF4909684018F8E710B5FFF79D
:1093E0001DFBFFF7F0FF0446FFF744FF0020CA49CA
:1093F0000870C0490870C94908700420C849C8608D
:109400008020C86010BD70B50446201F030004F022
:1094100057F8050D1C11040C2000C24800780128E3
:1094200002D0C148FFF770FF14E013E0BF48FFF718
:109430006BFF0FE000BF002500BFBDA2E0210020B0
:10944000FEF762FE00BF00BF04E0B748FFF75CFF15
:1094500000E000BF00BF70BD0121B04A117070472D
:10946000AC480068704770B504468020AC498860FD
:109470000120A0490870AB480078012802D00228DA
:1094800014D109E002209D49087000209E4908601F
:10949000FFF7A4FF994870BDA348FFF735FFFFF71A
:1094A0009DFF00209F4908709448F4E700BF00BF6B
:1094B000002092490870230004F002F805043D3AA8
:1094C00081409100042096498860012092490870EB
:1094D0000020924908709F490860FFF73BFF01F0A8
:1094E00052F98C480068FFF703FE00F0A5FE8E4895
:1094F00099490860FFF7B4FF7B4909684618FFF7F0
:10950000F5FE351A0323954A29460020FFF7FDFC96
:1095100091480068FFF70BFF7B480068401C7A49C0
:109520000860002803D108460068401C086062E01B
:10953000FFF7B1FB5FE0FFF79DFC5CE06A48006865
:109540008749096840186849086000208449086014
:1095500080480068401C7F4908600020FFF798FDA4
:10956000FFF77EFF604909684618FFF7BFFE351A0E
:1095700003237A4A29460020FFF7C7FC00205F49F1
:1095800008706148006801280CD15748006872498A
:10959000096840186449884210D26F480068FFF794
:1095A000C6FE0BE0504800686B49096840185449F2
:1095B000884203D268480068FFF7B9FE1BE066489E
:1095C0000068400864490860084600687D21C900B9
:1095D000884203D960480068FFF7A9FE0BE000BF8E
:1095E000002500BF52A2FF215F310020FEF78CFD55
:1095F00000BF00BF00BF00BF48480078002805D06A
:109600004948FFF781FEFFF7E9FE0BE03B48007891
:10961000012804D1394840685149086002E000201F
:109620004F49086000203349087080203C49C860D9
:10963000324830E700B501464A480078002801D09A
:10964000082000BD0B0003F03BFF09271A120A0691
:10965000231F160E27006420244A106020E0962065
:10966000224A10601CE01420204A106018E0FA2002
:109670001E4A106014E01E201C4A106010E0FF20FB
:10968000F5301A4A10600BE03220184A106007E0EB
:109690004B20164A106003E0FA20144A106000BF05
:1096A00000BF0020134A107001202E4A10701E487F
:1096B0000D4A10600020C4E770B500BF4FDF0546BB
:1096C000002D07D000BF1AA2FF21CF312846FEF798
:1096D0001BFD00BF00BF012012490870EFF310808E
:1096E000C407E40F72B63FE0782000208C200020F1
:1096F00040420F00842000206020002070200020C5
:109700008096980000B5004090200020982000200E
:10971000FFFFFF007C200020852000208720002004
:10972000000500508820002010270000701700005E
:109730002E2E5C2E2E5C2E2E5C7262635F6D657326
:10974000685C7372635C74696D65736C6F742E63AF
:1097500000000000A4200020802000205994010077
:10976000A02000208620002034480078002802D065
:10977000012000F05CF8002C00D162B670BD10B57D
:1097800002202F490870EFF31080C407E40F72B66F
:109790002A480078002802D0012000F048F8002C68
:1097A00000D162B610BD25480078704710B500BFE3
:1097B00024484EDF0446002C07D000BF224AFF2178
:1097C000ED312046FEF7A0FC00BF00BF00201C4981
:1097D0000870FFF7E8FF002801D0082010BD1B48E3
:1097E000FFF792FD0020F9E710B514480078002833
:1097F00000D110BDFFF722FB15490968154A126810
:109800008918081A1449884208D9FFF717FB10492C
:109810000968104A12688918401AEAE7FFF70EFB38
:109820000B4909680B4A12688918081AE1E7C20651
:10983000D20E01219140094A116070478520002015
:109840008820002067940100309701001027000055
:10985000782000207C200020FFFFFF7F00E200E056
:109860000146087BFF2801D0012070470020FCE75B
:1098700070B504462046FFF7F3FF00280ED0002005
:109880002073201D03F0BCFD06462046083003F07F
:10989000B7FD3518211D284603F0BCFD70BDFEB58F
:1098A00004460D467A480068281A7A49884201D948
:1098B0007748056876480560774801F04DFD0190CE
:1098C0002046083003F09CFD4608201D03F098FD5B
:1098D00087193146019803F0FFFC78182146009063
:1098E00003F098FDFEBD70B504460D46201D03F043
:1098F00087FD281A674988422FD82046FFF7B0FF16
:1099000000282AD02046083003F07AFD6349096810
:10991000634A1268514388420AD22046083003F055
:109920006FFD460021460831304603F073FD09E023
:109930005A4909685A4A1268514308462146083173
:1099400003F068FD002020732046083003F058FD26
:109950004619211D304603F05DFD70BD70B5064609
:109960000C4615464E4806604C4804604D4805704C
:10997000494801F031FD70BD70B504460D462046E2
:10998000FFF76EFF002812D008204749886000BF0B
:1099900000BF08204449C86029462046FFF7A3FFBE
:1099A000207B401CFF2802D0207B401C207370BD10
:1099B00070B504460D46211D284603F02BFD2146B7
:1099C00008313748006803F025FD29462046FFF797
:1099D00066FF2046FFF74CFF70BD70B504460D468C
:1099E00010203149886000BF00BF10202E49C86098
:1099F0002046083003F004FD29490968884203D94C
:109A000029462046FFF7D4FF70BD70B505460C46C9
:109A1000281D03F0F5FC001B1E49884203D9291DAF
:109A2000204603F0F7FC21462846FFF738FF70BDBB
:109A300070B505460C4616462846FFF711FF00286C
:109A400001D1207013E0287B16490978884201DA99
:109A5000012000E00020207031462846FFF743FF38
:109A60002078002803D131462846FFF718FF70BD43
:109A7000FF210173704710B50446207BFF2805D1F4
:109A80000020207300212046FFF792FF10BD000048
:109A9000B4200020FFFFFF7FDC2D0020AC20002041
:109AA000A8200020B02000200005005030B587B06D
:109AB0000446FE480088FE49884202D1FD4807B0AE
:109AC00030BDFD488078002802D1FA48401EF6E7F4
:109AD00006A862DFC5B2002D01D01120EFE768466D
:109AE000007E002802D1F348801CE8E7F248818913
:109AF000684601810121817200218181207802283C
:109B00000FD004DC002807D0012811D108E011286B
:109B10000BD012280CD105E0E078001D01900AE07E
:109B200000BF00BF0520019005E00320019002E086
:109B30000120019000BF00BF01A80490059402A974
:109B4000DA480088A6DFBAE730B587B004460D468C
:109B500011216846017044708570FFF7A7FF07B0B8
:109B600030BD30B593B004460020129000BF10A85D
:109B7000007A01090901491C10A80172007AF0213C
:109B80008843103010A9087200BF00BF10A8407AA7
:109B900001090901491C10A84172407AF02188434B
:109BA000103010A9487200BF10A8807A062188439F
:109BB000811C10A881721C210BA803F0F9FB08A8D6
:109BC000007B02218843811C08A80173007B1021BF
:109BD0008843411808A8017300200E9012A8109025
:109BE00000200C900F900A9008A8007AF02188437A
:109BF0000146103108A80172007A01090901491CC7
:109C000008A80172407AF02188430146103108A863
:109C10004172407A01090901491C08A84172807A01
:109C200008218843014608A88172807A1021884360
:109C3000014608A88172807A4108490008A881720B
:109C4000807A06218843811C08A881729B4801788C
:109C500008A88171042168468184206806906068A4
:109C60000790217A08A80170142101A803F0A0FB35
:109C70000921684681810021C1810921018209A849
:109C8000019006A805900AA802908B4908880B1D30
:109C900001AA0BA9A2DF0546002D02D0032013B0B4
:109CA00030BD0020FBE710B590B01C2109A803F0DF
:109CB0007FFB08A8007904218843011D08A80171D1
:109CC000007910218843411808A8017100200E90E6
:109CD0000F900A900D90089008A84078F0218843D2
:109CE0000146103108A84170407801090901491C5A
:109CF00008A84170807806218843811C08A88170DB
:109D0000807808218843014608A881708078102156
:109D10008843014608A88170807841084900491CA1
:109D200008A881706548017868468177052181839C
:109D300000210191142102A803F03AFB0121684699
:109D40000182002141821B21818208A8039007A87B
:109D5000029001A80690584908880B460C3302AAC5
:109D600009A9A2DF0446002C02D0032010B010BDC8
:109D70000020FBE7F0B585B005460E461746019575
:109D8000029768460673012181704D4901804A4A55
:109D900069460120A0DF0446002C02D0032005B054
:109DA000F0BD4649474863DF0446002C01D02046F9
:109DB000F5E701A8FFF7D5FE0446002C01D02046A8
:109DC000EDE7FFF770FF0446002C01D02046E6E7E0
:109DD0000020E4E770B588B005460E461446172CFF
:109DE00002DD092008B070BD304800883049884243
:109DF00010D00021684601714571290A817101A8BE
:109E0000C4702246314602A803F0B9FA01A8FFF750
:109E10004DFEE7E72748E5E7F0B589B00546288815
:109E2000502875D1E88824498989884271D12C4607
:109E300020342078002804D001284FD0022869D18E
:109E40009EE0A1786278080210431949884204D143
:109E50002078F221FFF778FEFAE0E278A3786778BD
:109E6000190239430846211D00F08CFF0646002EDA
:109E70002FD169460872201D0490E17802A8017371
:109E8000A17862780802104369468881012102A8FE
:109E9000C182FEF7D3FF089002A8FEF72DFD00282F
:109EA00012D02078F021FFF74FFE11E0BA200020F9
:109EB000FFFF000002300000EC2D0020B820002041
:109EC000E4FE00007CD8010020788021FFF73CFEF2
:109ED00003E02078F021FFF737FEB9E0E0780028B2
:109EE00002D0012845D11BE02279002A01D00122AD
:109EF00000E000221146A37866781802304301F092
:109F000037F8002807D02078F221FFF71DFE35E052
:109F1000BEE09FE097E020788021FFF715FE2DE05E
:109F20002079002812D0A2786378110219430846DC
:109F300000F0CFFF002804D02078F221FFF704FEC4
:109F40001CE020788021FFF7FFFD11E0A278637804
:109F500011021943084600F0D1FF002804D02078F0
:109F6000F221FFF7F1FD09E020788021FFF7ECFDF9
:109F700004E02078F321FFF7E7FD00BF00BF67E0B2
:109F8000E078002802D0012856D131E0A17862782B
:109F9000080210434649884204D12078F221FFF795
:109FA000D3FD4EE000200890A27863781102194397
:109FB000084608A900F0F2FF002804D02078F1211B
:109FC000FFF7C2FD3DE0122168460171A17860787B
:109FD0000902014368464171090A8171E17801A8CB
:109FE000C17008A8017801A80171FFF75FFD28E0A2
:109FF000A278637811021943084608A900F097FF78
:10A00000002804D02078F221FFF79EFD19E01221EC
:10A0100068460171A1786078090201436846417180
:10A02000090A8171E17801A8C17008A8017801A826
:10A030000171FFF73BFD04E02078F321FFF784FD79
:10A0400000BF00BF04E02078F421FFF77DFD00BFD2
:10A0500000BF2BE0E88817498988884209D12C463F
:10A060002034217A206800F0CEF8606800F053FDBB
:10A070001CE0E9880F48008A814217D12020405D0A
:10A08000002801D0012000E000200A4988700DE07E
:10A090002888102803D1A8880749088006E0288866
:10A0A000112803D10020C0430349088009B0F0BD46
:10A0B000FFFF0000EC2D0020BA2000201CB502217B
:10A0C00068464171C54801796846817100F08FFF8B
:10A0D000002800D11CBD6846FEF7B6FD002802D05E
:10A0E000009800F0EEFF00BFF4E7F0B585B004463D
:10A0F0000E4615461F46002E22D0607825281FDC0C
:10A1000003206946087001940295FEF797FE0390BC
:10A110006846077400F00BFB002808D00120AF4907
:10A120004871AF480068401CAD49086007E0204610
:10A1300000F09AFFAA484068401CA949486008E01E
:10A1400001200006854204D2A5488068401CA4492D
:10A150008860204600F0B5FF05B0F0BD70B588B04E
:10A1600005462E46304601F043F804460020009094
:10A17000002C24D0617922790902114308466946EE
:10A1800000F08DFE00281AD168460078002816D00D
:10A190000420694608716079217900020843694604
:10A1A00008812046083003902078C01FC1B201A862
:10A1B0000173FEF743FE059001A8FEF79DFB3046B4
:10A1C00000F07FFF08B070BD10B586B004461422C1
:10A1D000844901A803F0D3F8039401A800F0A7FA7A
:10A1E000002802D1204600F03FFF204600F069FF22
:10A1F00006B010BD10B579484079002801D1FFF7AD
:10A200005DFF10BD704770B505460C46282C07DA77
:10A210007248056004712846FEF713FDFFF7AFFA98
:10A2200070BD70B504460D4600206F490860294690
:10A230002046FFF7E8FF70BD10B56C4A6C496D48C9
:10A24000FEF790FC10BD7CB504460D4601206A491E
:10A25000886000BF00BF01206749C86000200090EF
:10A260000190207830218843207020788021884315
:10A2700020700020A07000942978684601716978E8
:10A28000817100214171E978C17100261EE0A87832
:10A290000121B140084000280CD0204600F0E4FE27
:10A2A0006846FEF7D1FC002809D0204600F009FFDF
:10A2B00004207CBDA8783041002800D108E0684621
:10A2C0008079401CC1B268468171761C202EDED395
:10A2D00000BF0020EDE7FFB58BB00646154600BF76
:10A2E000002E01D0012000E00020079007980028F0
:10A2F00006D100BF41A2FF211831FDF705FF00BFC5
:10A3000000BF20203C49886034466078252806DD5F
:10A310002020C860204600F0D4FE0FB0F0BD3248C7
:10A320000068002823D069460E980872204609303C
:10A3300003906078801FC1B2684641720622E11C1A
:10A34000401C03F01CF820784006C10F68460170DD
:10A350000C98049020780107090F6846C17100200D
:10A3600006950790684620490968884700BF06227D
:10A37000E11C08A8013003F002F820784006C00F65
:10A3800008A90870204600F033FF0746002F10D0C0
:10A3900078793979000208432349884205DC294647
:10A3A00020460E9A00F0C0FB03E029463846FFF72E
:10A3B00029FF204600F085FE08484079002804D097
:10A3C000FFF77CFE00200549487120200A49C8603B
:10A3D00000BFA2E70449086070470000BC200020CD
:10A3E000002E00208CD80100C4200020C9A101004B
:10A3F000EBA00100F5A10100000500502E2E5C2EFF
:10A400002E5C2E2E5C7262635F6D6573685C737286
:10A41000635C7472616E73706F72745F636F6E747D
:10A42000726F6C2E63000000EFFF0000202100BF60
:10A430004B1E19468268DA40D207D20F002AF7D0A5
:10A4400001228A4082600022C26002617047F8B532
:10A4500004460E46002E01D10E20F8BDEFF3108009
:10A46000C507ED0F72B6A16820694018E1688842FF
:10A4700004D1002D00D162B60420EEE7A168491E88
:10A48000E06808406168484321684718606900280F
:10A4900004D0314638466269904704E03146384678
:10A4A000626802F06CFFE068401CE060002D00D1A3
:10A4B00062B60020D1E7F8B504460D46EFF31080F0
:10A4C000C607F60F72B6E1682069884204D1002EF3
:10A4D00000D162B60E20F8BD002D15D0A168491E2E
:10A4E000206908406168484321684718606900286E
:10A4F00004D0394628466269904704E03946284628
:10A50000626802F03CFF00BF2069401C2061002E01
:10A5100000D162B60020DEE701460A69C868801AE9
:10A520007047F8B504460D461646002D01D10E20A1
:10A53000F8BDEFF31080C707FF0F72B62046FFF794
:10A54000EBFFB04204D8002F00D162B60E20EFE737
:10A5500020698019A168491E084061684843216844
:10A56000401800906069002804D06269284600996C
:10A57000904704E062682846009902F000FF002F2F
:10A5800000D162B60020D3E770B504460D46002224
:10A5900029462046FFF7C5FF70BDC16801617047BD
:10A5A0000146CA680869904201D101207047002025
:10A5B000FCE7000070B504462078030002F080FF3D
:10A5C0000504401C343A59000321C90360688842DD
:10A5D00004D3012149076068884209D900BF1025CA
:10A5E00000BFABA242211020FDF78EFD00BF00BFCF
:10A5F0006168A06888473DE00321C903606888421C
:10A6000004D3012149076068884209D900BF102599
:10A6100000BF9FA246211020FDF776FD00BF00BFBE
:10A620006168A068884725E0237C201D07C8FFF7E4
:10A6300052FE1FE0E279A179A08801F081FA19E0C9
:10A640000321C9036068884204D301214907606877
:10A65000884209D900BF102500BF8DA255211020C6
:10A66000FDF752FD00BF00BF6268E168A068904737
:10A6700000E000BF00BF70BD30B585B0044640208B
:10A680008D49886069462046FFF715FF0546002D75
:10A6900008D16846FFF78EFF40208749C860012037
:10A6A00005B030BD40208449C8600020F8E710B5EF
:10A6B00010E000248148FFF7DFFF0443FFF773F841
:10A6C000002803D07E48FFF7D7FF0443002C00D1B9
:10A6D00001E000BFEDE700BF10BD10B5794800787C
:10A6E000002800D010BD08207449886076480860B2
:10A6F00014204860002048610846FFF797FE0820B4
:10A700006F498860714808601420486000204861E3
:10A710000846FFF78BFE122000F070F8032112208C
:10A7200000F07CF801206749087000BFDAE770B5D7
:10A730000446002C01D10E2070BD002620780300B5
:10A7400002F0BEFE0509070405060B0000BF00BFAE
:10A7500000BF5A4E03E05A4E01E00720ECE700BF6D
:10A7600021463046FFF773FE0546002D01D02846EE
:10A77000E2E7122000F04AF80020DDE710B550486B
:10A78000FFF70BFF10BD10B54C48FFF709FF00287D
:10A7900004D04B48FFF704FF002802D1122000F03C
:10A7A00035F810BDEFF31080C107C90F72B64848E5
:10A7B00002680068401C464B1860002A06D112202F
:10A7C00001228240434B1A6000BF00BF002900D124
:10A7D00062B6704710B5EFF31080C407E40F72B68D
:10A7E0003B480068401E3A490860002802D1122008
:10A7F00000F004F8002C00D162B610BDC206D20EE3
:10A8000001219140334A803A11607047C206D20E4E
:10A81000012191402F4A80321160704710B5002805
:10A8200019DA2D4A03071B0F083B9B089B00D258DF
:10A830008307DC0EFF23A3409A438B071B0E84077C
:10A84000E40EA3401A43244B0407240F083CA40839
:10A85000A4001A511AE01F4A803A03231B02D2189F
:10A8600083089B00D2588307DC0EFF23A3409A4342
:10A870008B071B0E8407E40EA3401A43154B803B45
:10A88000032424021B198408A4001A5110BD0000DF
:10A890002E2E5C2E2E5C2E2E5C7262635F6D6573B5
:10A8A000685C7372635C6576656E745F68616E6424
:10A8B0006C65722E63000000000500500C2E002015
:10A8C000C42E0020C8200020242E0020DC2E0020D2
:10A8D000CC20002080E100E01CED00E00246C82A08
:10A8E00008DAFA481018884201DD881A00E0F748B3
:10A8F00000B27047C82909DAF4480818904201DD0F
:10A90000881A01E0F148C04300B2F2E7914201DB4E
:10A91000881A00E0501A0346EC48834208D98A425C
:10A9200003DD1046C83082B202E00846C83081B26A
:10A93000881A00B2DDE770B504460D46002C05D03C
:10A94000002D03D020782978884201D0012070BDE5
:10A950002078C21F294608312046083002F03AFD0F
:10A96000002801D00120F2E70020F0E7F0B589B01F
:10A970000646FF200130D64988600720019001AAD1
:10A9800002A9304601F07EFA00900098002861D1BB
:10A9900000245CE0A10002AA5058CE49FFF753FC06
:10A9A0000090009800284CD1A10002AA505800F055
:10A9B0001FFC0546002D39D0002021E069792A7955
:10A9C000090211430722121A1141C907C90F0029B0
:10A9D0000AD001214906BE4A916000BF00BF012193
:10A9E0004906BB4AD16009E001210907B84A9160D4
:10A9F00000BF00BF01210907B54AD160411CC8B2A0
:10AA00000828DBDB00BF69792A790902114308466F
:10AA1000314601F0A1FA0746002F06D000BFAEA2D2
:10AA2000A2213846FDF770FB00BF09E000BF0B27ED
:10AA300000BFA9A2A6210B20FDF766FB00BF00BF47
:10AA400000BFA10002AA505800F03BFB641C019813
:10AA500084429FD3FF2001309D49C860304600F0FA
:10AA600012F809B0F0BD10B586B004460120694661
:10AA70000871A348029003940021049101A8FFF7F4
:10AA800056FE06B010BD38B50546684601F0CFF950
:10AA9000044668460078002800D138BD7D20C000FB
:10AAA0002818844203D22046FFF7DDFF08E0214644
:10AAB000944801F0AEFB002802D02046FFF7D3FFF8
:10AAC00000BFEAE7FFB581B00C4615461E46019867
:10AAD00000F048FF0746002F02D0384605B0F0BD11
:10AAE0000020884908618648486000208860C86066
:10AAF0008548844201D0012000E00020754908709B
:10AB000008464570012088700846C67001207F49BC
:10AB100008700020E2E710B50446204600F010FF60
:10AB200010BD6C49C8707047F7B58CB00746384601
:10AB300000F05EFB0446002C02D10B200FB0F0BDEC
:10AB4000617922790902114308460AA900F09AFFA7
:10AB50000546E279A37912021A4311466A46108D1E
:10AB6000FFF7BCFE064603A8C68238784006C10F30
:10AB700003A881730622F91C0F3002F000FC0E9826
:10AB8000404241B203A84173204608300590207826
:10AB9000C01FC1B203A80173607921790002084384
:10ABA0006A4610820D980990052D49D10220694608
:10ABB000087303A8C6826179227909021143084605
:10ABC0000AA900F004FE0546002D04D00B9800F001
:10ABD00078FA2846B2E7384600F084FBE079A1799C
:10ABE0000002084369468880029703A8FDF784FEA7
:10ABF000002821D100BF617922790902114308465A
:10AC000001A900F0E4FD00900098002807D000BFE3
:10AC100031A2FF2107310098FDF776FA00BF00BF8F
:10AC20002178C91FCAB261792379090219430846FC
:10AC300021460831FFF7CEF80D98FFF714FF9CE08E
:10AC4000002E0BDA617922790902114308460D9929
:10AC500001F0CAF80D98FFF706FF8EE0002E20D114
:10AC6000002002900B98002803D00B9800F0C0FA47
:10AC70000290029800280BD021460298FFF75BFE55
:10AC8000002805D001206946087303A8FDF734FEAB
:10AC9000617922790902114308460D9901F081F882
:10ACA0006BE000206946087303A8C68261792279A7
:10ACB0000902114308460AA900F089FD0546002D46
:10ACC00026D00B9800F0FDF9284637E7FF7F0000FB
:10ACD00000050050D12000202E2E5C2E2E5C2E2E42
:10ACE0005C7262635F6D6573685C7372635C7665EA
:10ACF0007273696F6E5F68616E646C65722E63005B
:10AD00006DA901007C2F0020D6BE898ED0200020A6
:10AD1000384600F0E7FAE079A17900020843694675
:10AD20008880029703A8FDF7E7FD002821D100BF26
:10AD30006179227909021143084601A900F047FD13
:10AD400000900098002807D000BFA14AFF2145319C
:10AD50000098FDF7D9F900BF00BF2178C91FCAB21A
:10AD60006179237909021943084621460831FFF722
:10AD700031F80D98FFF777FE00BF0B9800F0A1F9AE
:10AD80000020DBE6FEB505460E46174691480078E2
:10AD9000002801D10820FEBD0020019001A800F08C
:10ADA00026F9002801D10420F5E73346012229467F
:10ADB0000097019800F0E3F90446002C04D00198B4
:10ADC00000F07FF92046E6E7019800F0A0FE044677
:10ADD000002C04D1FEF732F80090FFF744FE0198F2
:10ADE00000F06FF92046D6E710B5FEF727F80446C5
:10ADF000FFF739FE10BDF7B582B0164675480078EA
:10AE0000002802D1082005B0F0BD6946029800F084
:10AE100039FE0746002F01D03846F4E70198002894
:10AE200001D10520EFE7019800F0E2F90446002C7B
:10AE300004D1019800F045F90520E4E72078C01F0F
:10AE400085B23088A84204DA019800F03AF9092066
:10AE5000D9E72A4621460831039802F090FA358056
:10AE6000019800F02EF90020CDE770B504460D469C
:10AE700058480078002801D1082070BD5648844207
:10AE800001D11020F9E7FFF78DFC2A460121204669
:10AE900000F03BFF0646FFF79DFC3046EDE770B53E
:10AEA00004460D464B480078002801D1082070BDAB
:10AEB0004948844201D11020F9E7FFF773FC2A4684
:10AEC0000121204600F031FF0646FFF783FC3046A3
:10AED000EDE770B504463F480078002801D108200E
:10AEE00070BD3D48844201D11020F9E700220221C3
:10AEF000204600F00AFF05462846F1E770B50446F3
:10AF000034480078002801D1082070BD32488442BE
:10AF100001D11020F9E7FFF745FC0122022120466C
:10AF200000F0F3FE0546FFF755FC2846EDE770B547
:10AF300005460C4627480078002801D1082070BD3E
:10AF40002548854201D11020F9E7FFF72BFC224666
:10AF50000221284600F0E9FE06462078002801D1AB
:10AF6000012000E000202070FFF734FC3046E6E7C7
:10AF700070B504460D4617480078002801D1082016
:10AF800070BD1548844201D11020F9E72A460021FE
:10AF9000204600F0BAFE06463046F1E770B504469A
:10AFA0000D460C480078002801D1082070BD0A48E1
:10AFB000844201D11020F9E7FFF7F4FB2A46002173
:10AFC000204600F0B2FE0646FFF704FC3046EDE7EF
:10AFD000D8AC0100D0200020FFFF0000002003E0DB
:10AFE0000021D04A1154401C2528F9D3704770B570
:10AFF0000546002119E0EFF31080C407E40F72B694
:10B00000C848405C00280CD10120C64A5054282072
:10B010004843C54A80182860002C00D162B6012040
:10B0200070BD002C00D162B6491C2529E3D300BFB6
:10B03000042600BFBDA244210420FDF765F800BF2F
:10B0400000BF0020ECE770B50446B749601A28211C
:10B0500002F042F90546252D04D228206843B24962
:10B06000401870BD0020FCE7F8B50546AE49681AE7
:10B07000282102F031F90446252C01D30020F8BD27
:10B08000EFF31080C607F60F72B6A648005D0028E1
:10B0900003D0A448005DFF2809D100BF042700BFEA
:10B0A000A2A262210420FDF72FF800BF00BF9D4837
:10B0B000005D401C9B490855002E00D162B601205E
:10B0C000DDE7F8B506469849701A282102F004F920
:10B0D0000446252C01D30020F8BDEFF31080C507EE
:10B0E000ED0F72B68F48005D00280ED100BF082713
:10B0F00000BF8EA276210820FDF706F800BF00BF32
:10B10000002D00D162B60020E6E78648005D401EB3
:10B1100084490855002D00D162B68248005D0028A0
:10B1200001DD0120D8E70020D6E770B504467E494E
:10B13000601A282102F0D0F80546252D01D3002001
:10B1400070BD7848405DFBE77CB50446684671DF1A
:10B150000546002D01D028467CBD2078402188433B
:10B16000694609788901402211400843207006226F
:10B1700000A90131E01C02F002F90020ECE7FFB564
:10B1800081B005461F460A9E002D02D10E2005B053
:10B19000F0BD2C460934172E01DD0920F7E72846BB
:10B1A000FFF7D2FF30460E306870287800090001A2
:10B1B000801C2870F01D2070162060706448A070FC
:10B1C000000AE07002982071000A60710398A07173
:10B1D000000AE071002E09DD002F07D0172E05DCD4
:10B1E000324639462046083002F0C9F80020CEE742
:10B1F0000246002A00D170471146093150780628CE
:10B2000002DD5078252801DD0020F4E70FE00B78FF
:10B2100010460930081A1B185078801F834201D944
:10B220000020E8E70878401C4301181A09184878FC
:10B230001628ECD1C8788B7800021843444B98420A
:10B24000E5D10846D7E730B504462046FFF7D0FFE2
:10B250000546002D01D10B2030BD20460930854226
:10B260000ED02878401CC1B2002004E02B5C22469E
:10B2700009321354401C8842F8D32546093500BFD3
:10B280002878C01D60700020E6E730B505462846E6
:10B29000FFF7AEFF0446002C01D12E4830BD607987
:10B2A000217900020843F9E702461146093110E00E
:10B2B0004878162806D1C8788B7800021843244BAA
:10B2C000984201D0012070470878401C4301181AA9
:10B2D00009185078C01F13460933C0188842E7D8B0
:10B2E0000020F0E710B504462046FFF7DDFF0028F8
:10B2F00002D02046FFF7A7FF2046FFF725FF10BD2D
:10B3000070B504460849601A282101F0E5FF05469A
:10B31000252D04D2282068430349401870BD002021
:10B32000FCE7000058350020902F00202E2E5C2EC8
:10B330002E5C2E2E5C7262635F6D6573685C737247
:10B34000635C6D6573685F7061636B65742E630029
:10B35000E4FE0000FFFF000001460879C0064B68CC
:10B360005B0918430B681A1A088940048B68DB0BC9
:10B3700018434B6858400860CB688868C01848601C
:10B38000C8688018886008688018C860C8687047F6
:10B39000F8B507460D4600241AE000BF684639DFBD
:10B3A000684600780028F9D0281B69460978884249
:10B3B00002D2281BC0B200903819694609783ADFDA
:10B3C0000646002E01D00320F8BD684600782418F8
:10B3D000AC42E2D30020F7E7F8B504460020009025
:10B3E00004216846FFF7D4FF0546002D01D028460A
:10B3F000F8BD09482060009860600098A06000983F
:10B40000E060002603E02046FFF7A6FF761C142E1E
:10B41000F9D30020ECE70000ED5EEAF10188F94A7B
:10B42000914202D1C821018002E00188491C0180BB
:10B43000704710B50446002C00D110BD20690028CB
:10B4400004D02069FFF73DFE002020612046FEF772
:10B4500012FB00BFF1E770B58020EB49886000BFA8
:10B4600000BF8020E849C860E848068815E014203D
:10B470007043E7494018006900280DD11421714339
:10B48000E34A88180021FEF793FAE0480088401C40
:10B49000DE490880B0B270BD761C0A2EE7D3DD48C5
:10B4A00004680CE000BF0A206043DB494018C088F4
:10B4B0004404640C00BF0A2C01D10A20EBE70A20E7
:10B4C0006043D549401800890A28EBD00A20604320
:10B4D0004018C088C00B0028E4D10A2060434018FF
:10B4E000058900BF0A2D01D2012000E00020064698
:10B4F000002E05D100BFC9A28E21FCF705FE00BFBA
:10B5000000BF0A2108466043C34A80180181142104
:10B510006943BF4A8818FFF78CFF14216943BC4A6E
:10B5200088180021FEF744FAA8B2B4E770B50546C2
:10B530000E46FFF737F9002E14D0C2480088A84203
:10B5400010D1C14800880A280CDABF4800880A21B7
:10B550004843B149085AA84204D1FFF73BF9BA4819
:10B56000008870BDB948008884B210E0A94800681E
:10B57000A04203D1FFF72EF90A20F2E700BF0A200C
:10B580006043A549401880884404640C00BF0A2029
:10B590006043A149085AA842E8D1002E03D0A94827
:10B5A0000580A9480480FFF715F92046D9E770B552
:10B5B000054601212846FFF7B9FF04460A2C43D16E
:10B5C0009448008884B20CE000BF0A20604392498E
:10B5D0004018C0884404640C00BF0A2C01D12046E6
:10B5E00070BD0A2060438C494018C088C00B0028F9
:10B5F000EAD10A2060430D520A2060434018808837
:10B600000121C90388430A216143834A891888803C
:10B6100000210A206043801841800A2060431146BF
:10B62000401800890A280FD00A2161438918098926
:10B6300014225143764A8818FFF7FBFE0A21084678
:10B640006043754A8018018172480068844225D0A1
:10B650007E480068844237D00A2060436E49401813
:10B6600080884004400C0A2148436B494018C08838
:10B67000C00BC0030A216143674A8918C98849047D
:10B68000490C08430A216143891889884904490CF7
:10B690000A225143604A8918C88015E00A20604395
:10B6A0005D494018C0884004400C5A4908600A208F
:10B6B0006043594940188088C00BC0030A300A21F2
:10B6C0006143554A891888806048006884425AD08E
:10B6D0000A20604350494018C0884004400C0A28A2
:10B6E0001FD00A2060434018C0884004400C0A2143
:10B6F0004843494940188088C00BC0030A21614370
:10B70000454A891889884904490C08430A2161433C
:10B710008918C9884904490C0A2251433E4A8918AC
:10B7200088800A2060433C494018C088C00BC00391
:10B730000A300A216143384A8918C8800A206043C8
:10B74000114640188088C00BC0034049098849044D
:10B75000490C08430A216143891888803B480068E6
:10B760000A21484311464018C088C00BC003610439
:10B77000490C0843354909680A225143264A891869
:10B78000C88032480460314800680A214843224991
:10B790004018C088C00BC0030A302C4909680A222F
:10B7A00051431D4A8918C8801A4800680A21484335
:10B7B000114640188088C00BC0030A30154909683B
:10B7C0000A225143144A89188880204608E7F8B5B0
:10B7D00007460E46002E01D10E20F8BD09488742CB
:10B7E00001D11020F9E701213846FFF79FFE0446FA
:10B7F0000A2C2DD13846FFF7DAFE04460A2C27D151
:10B800000420EAE7FFFF000000050050E0200020D0
:10B81000E4350020DC200020803500202E2E5C2E18
:10B820002E5C2E2E5C7262635F6D6573685C737252
:10B83000635C68616E646C655F73746F7261676589
:10B840002E630000E4200020E2200020D820002009
:10B850000A206043F749401805890A2D0BD1FFF7EC
:10B86000FAFD05460A2D01D10420B6E70A206043FF
:10B87000F04940180581FDF7E1FA14216943EE4AC9
:10B88000009088180099FEF793F831880A206043E9
:10B89000E84A8018418014206843E749401800694D
:10B8A000002806D014216943E34A89180869FFF784
:10B8B00008FC7068FFF7D8FB0A206043DD4A801857
:10B8C000008914225043DC4A80187168016100200D
:10B8D00083E7FEB505462E463046FFF789FC044651
:10B8E000002C29D0E079A17900020843694608803C
:10B8F0000196617922790902114308460121FFF777
:10B9000015FE07460A2F09D00A207843C949401876
:10B910004088694608806846FFF780FD68460088D1
:10B92000A071000AE0716179227909021143084689
:10B930006946FFF74CFF00BF3046FFF7C2FBFEBD74
:10B9400010B50446BD48844202D3BD48844201D9A3
:10B95000072010BD03220121C9022046FDF7FEFF8A
:10B960000020F6E770B50546FEF71CFF2846FFF7F6
:10B97000E7FF0446002C03D0FEF72CFF204670BDE5
:10B98000002006E0002214214143AB4BC9180A6194
:10B99000401C0A28F6D3002046E00022D2430A21A8
:10B9A0004143A44B5A5200220A214143C9184A80FC
:10B9B0000A2141431A468918C9880122D2039143BA
:10B9C0000A224243D218D1800A2141431A468918DB
:10B9D00089880122D20391430A224243D2189180DE
:10B9E0000A2211464143C9180A810A2141431A46D5
:10B9F0008918C988C90BC903421E5204520C11434D
:10BA00000A224243D218D1800A2141431A4689189A
:10BA10008988C90BC903421C5204520C11430A22E3
:10BA20004243D2189180401C0A28B6D30020854991
:10BA30000860092084490860824800680A21484358
:10BA40007C494018C088C00BC0030A307D49096892
:10BA50000A225143774A8918C8807B4800680A2126
:10BA60004843114640188088C00BC0030A3076490D
:10BA700009680A2251436F4A89188880FEF7AAFE96
:10BA800000207CE770B506460D46002D01D10E2042
:10BA900070BD0020286068606C48864201D110208B
:10BAA000F6E7FEF77FFE00213046FFF73FFD044634
:10BAB0000A2C03D1FEF78EFE0520E9E70A20604339
:10BAC0005C494018408828800A206043401800895B
:10BAD0000A2818D00A216143564A89180989142274
:10BAE0005143554A89180869FFF7BEFA00280AD061
:10BAF0000A2060434F4940180089142148434E49A9
:10BB0000401800696860FEF765FE0020C0E730B5A8
:10BB100085B00446002C02D10E2005B030BD0220B5
:10BB20006946087002944A4801906846FEF7FFFD96
:10BB30000546002D02D12046FFF796FA2846ECE78D
:10BB4000F7B582B00E461546032E02DB072005B07E
:10BB5000F0BD3E490298884201D11020F7E701214B
:10BB60000298FFF7E3FC0446002E04D0012E1FD0FC
:10BB7000022E5ED139E00A2C07D10298FFF717FD9B
:10BB800004460A2C01D10420E1E70A206043294938
:10BB90004018C0880121C9038843E9030122D20368
:10BBA000114008430A216143224A8918C880A9E04C
:10BBB0000A2C07D10298FFF7FAFC04460A2C01D19F
:10BBC0000420C4E70A2060431A49401880880121F4
:10BBD000C9038843E9030122D203114008430A2123
:10BBE0006143144A891888808CE0002D18D00A2CF3
:10BBF00001D10020ABE70A2060430E4940180089BC
:10BC00000A2801D10020A2E70A216143094A8918C4
:10BC1000098914225143084A8818FDF729FF6EE06C
:10BC20000020019001A8FFF7E2F9002812D10420BA
:10BC30008DE765E080350020E435002088130000A2
:10BC400000879303D8200020DC200020FFFF0000A5
:10BC5000D3B80100002003460246009002990198E3
:10BC6000FFF78DFA0746002F04D00198FFF729FA55
:10BC700038466CE70A2C04D10198FFF72AFE002011
:10BC800065E70A206043C649401800890A280FD199
:10BC9000FFF7E1FB0A216143C14A891808810A20A4
:10BCA00060431146401800890A2801D104204EE75C
:10BCB0000A206043BA494018008914214843B94911
:10BCC00040180069002803D00198FFF7FAF90AE04C
:10BCD0000A206043B24A8018008914225043B14AB6
:10BCE0008018019901610A216143AD4A89180989C7
:10BCF00014225143AB4A8818FDF7BDFE00BF01E096
:10BD0000072024E700BF002021E770B586B0044675
:10BD10000E461546042168460171048101A886710A
:10BD2000C571FEF704FD06B070BDF8B507460E46B6
:10BD30001546032E01DB0720F8BD002D01D10E2092
:10BD4000FAE79948874201D11020F5E7FEF72AFD6E
:10BD500000213846FFF7EAFB04460A2C03D1FEF720
:10BD600039FD0520E8E7002E02D0012E10D107E0B2
:10BD70000A2060438A494018C088C00B28700BE035
:10BD80000A206043864940188088C00B287003E071
:10BD9000FEF720FD0720CFE700BFFEF71BFD0020C8
:10BDA000CAE7F8B506460F467F48864201D1102003
:10BDB000F8BD01213046FFF7B9FB04460A2C01D13A
:10BDC0000520F5E70A2060437549401805890A2DCA
:10BDD00001D10520ECE714216943724A88183946DD
:10BDE000FDF7CAFD0020E3E7F8B506460F466E48AA
:10BDF000864201D11020F8BD01213046FFF796FBA5
:10BE000004460A2C01D10520F5E70A206043644965
:10BE1000401805890A2D01D10520ECE7142169435A
:10BE2000604A88183946FDF7D8FD0020E3E770B571
:10BE3000054600260020287000241FE014216143DD
:10BE4000584A8818FDF70CFD002816D014206043CE
:10BE500054494018006900280FD02878002806D0DF
:10BE6000142060430858801B5049884205D901209E
:10BE70002870142060434B490E58641C0A2CDDD3F3
:10BE8000304670BDF7B582B004461546002600273F
:10BE90005DE004E0464800880A3845490880444887
:10BEA00000880A28F6DA42480088142148433D49B0
:10BEB00040180069002844D03D49098814225143A4
:10BEC000384A8818FDF7CCFC00283AD0384800885A
:10BED0001421484333490858201A3449884230D83D
:10BEE0000021019132490988142251432D4A8818B2
:10BEF000224601A9FDF79CFD6846007900281FD065
:10BF00002B49098814225143264A89180869FFF7EA
:10BF1000ABF8274800881421484322494018026999
:10BF20003046761C8100039842502868B04207D101
:10BF30001F480088401C1E490880002005B0F0BD45
:10BF400000BF1B480088401C194908807F1C0A2F2D
:10BF50009FD32E600020F1E7F8B506460F46124841
:10BF6000864201D11020F8BD01213046FFF7DEFAEC
:10BF700004460A2C01D10520F5E70A206043084950
:10BF8000401805890A2D01D10520ECE714216943E9
:10BF9000044A88183946FDF738FD0020E3E7000021
:10BFA00080350020E4350020FFFF0000FFFFFF7F09
:10BFB000E6200020A94A1268002A07D0A74B026891
:10BFC0001B681B68D21AA64B9A4205D9A34A12686D
:10BFD0000261A24A10607047A04A116800E0096936
:10BFE0000A69002A06D00A6912680368D21A9C4BB3
:10BFF0009A42F4D80A690261086100BFEBE7014682
:10C0000096480068884205D1944B08691860002062
:10C01000086170479148026808E01069884204D1BD
:10C020000869106100200861F3E71269002A09D04D
:10C030001069002806D0086813691B68C01A884B6D
:10C040009842EAD90520E4E730B585B00546834833
:10C050004068002801D005B030BD27E07F48046863
:10C0600001206946087060680190E16803910295BB
:10C070006846FEF75CFB002800D0ECE777492069B2
:10C08000086000202061A06800280ED000BFA168D1
:10C09000206840182060284664302168081A7049DA
:10C0A0008842F4D82046FFF785FF00BF6B48006840
:10C0B000002808D069480068016828466430081ADA
:10C0C00067498842CAD800BFC5E710B50446204674
:10C0D000FFF7BAFF204600F001F810BD10B5044686
:10C0E0005E480068002816D05C4800680068201A86
:10C0F0005B49884208D9594800680023594A0168B9
:10C100000120FCF702FF06E00023564A2146643175
:10C110000120FCF7FAFE10BD70B504460820524914
:10C12000886000BF00BF08204F49C8602546FCF763
:10C1300085FE06462846FFF73DFF3046FFF784FFA1
:10C140003046FFF7CBFF70BD70B504460820464966
:10C15000886000BF00BF08204349C860FCF76EFE3E
:10C1600005462046FFF74BFF2846FFF7B7FF70BD97
:10C1700070B5044608203C49886000BF00BF082015
:10C180003949C860FCF75AFE06462046FFF737FFDC
:10C190002046FFF70FFFEFF31080C507ED0F72B6D3
:10C1A0002E484068401E2D494860002D00D162B6DF
:10C1B0003046FFF749FF3046FFF790FF70BD002083
:10C1C00026490860704710B586B00446002C02D19D
:10C1D0000E2006B010BD00202061022069460871C3
:10C1E00022480290039401A8FEF7A1FAF1E710B5E6
:10C1F00086B00446002C02D10E2006B010BD0220ED
:10C20000694608711A480290039401A8FEF78FFA54
:10C21000F3E7F0B585B004460E46002C02D10E209F
:10C2200005B0F0BD022069460870124801900294E2
:10C23000EFF31080C707FF0F72B66846FEF777FA74
:10C240000546002D05D105484068401C034948605B
:10C250002660002F00D162B62846E1E7E8200020E2
:10C26000FFFFFF7FCBC001000005005019C1010096
:10C2700049C1010071C101000748026803210A4356
:10C2800002600648804706480047FEE7FEE7FEE7F3
:10C29000FEE7FEE7FEE700002405004049C3010079
:10C2A000C180010032483349086070473248008C31
:10C2B000C0B2012812D13048808C0007000F00283E
:10C2C0000CD12D48806AF0210840402806D12A4828
:10C2D000C06A0840002801D1012070470020FCE717
:10C2E0002548008CC0B201282CD12348808C00073F
:10C2F000000F002826D12048806AF021084000283D
:10C3000006D11D48C06A0840002801D101207047AD
:10C310001948806AF0210840102806D11648C06AE2
:10C320000840002801D10120F1E71348806AF0217C
:10C330000840302806D11048C06A0840002801D1C2
:10C340000120E4E70020E2E710B5FFF7C9FF00286D
:10C3500005D00A480A494860C8130A498861FFF7AE
:10C36000A5FF002802D001200749886010BD000009
:10C370000024F400F0200020C00F00F0DFFF07C011
:10C3800000050040006C00400006004010B5F74C6E
:10C39000022020616061F6A0A061F849E1610121FD
:10C3A000C90221620021A1626162E162F0A0A06481
:10C3B000F349E164102121650021A1656165E16512
:10C3C000F0A1E01D01F013F8EFA1204601F00FF8F5
:10C3D0002020A07110BDF7B582B00446174600209A
:10C3E0000190E56800BF206900900098A84203D939
:10C3F0000098401B461E04E0A1680098281A401CC3
:10C400000E1AA068401BB04201D9304601E0A06876
:10C41000401B0646BE4201D2304600E03846064682
:10C42000616848193246039900F0A9FF0198801904
:10C430000190039880190390BF1BAD19A068A84212
:10C4400000D10025E560002FCDD1019805B0F0BDE9
:10C45000F7B582B004461546E668A068871BAF4270
:10C4600008D9616888192A46039900F088FF701975
:10C47000E06010E0019761688819019A039900F063
:10C480007EFFE81B0190039AD1196068019A00F0C1
:10C4900076FF0198E06005B0F0BD38B505460C4662
:10C4A000FF2168460170BA48015D6846417002226A
:10C4B00069462846FFF78FFF38BD10B501460A6967
:10C4C000CB689A4204D88C68641EE41AA01801E074
:10C4D000D41A601E10BDF7B584B0174600BFA3483C
:10C4E0000078002801D1FFF751FF00BF1821049800
:10C4F00048439E4948314618059801903569F068CF
:10C500000290002003900298854219D9B068441B1C
:10C51000BC4201D2204600E038460446706841190A
:10C520002246019800F02BFF039800190390019810
:10C53000001901903F1B2D19B068A84200D10025B9
:10C540000298441BBC4201D2204600E03846044613
:10C55000002C0DD0706841192246019800F00FFFA1
:10C560000398001903900198001901903F1B2D19A1
:10C570000398002800D03561039807B0F0BDF8B5E6
:10C5800004460D461646324629462046FFF7A3FFCD
:10C5900007463846F8BDF7B584B0154605980390B0
:10C5A00018210498484371491831441820690290B1
:10C5B000E6680298B0423ED8A068401E871BAF4292
:10C5C00012D360688119761900BF0398007808704B
:10C5D0000398401C491C0390681E051EF5D1701974
:10C5E000E060012007B0F0BD02983F18AF4231D3A0
:10C5F000A068801B01900198A84208D96168881939
:10C600002A46039900F0BBFE7019E06011E06168F2
:10C610008819019A039900F0B2FE01982A1A019B29
:10C620000398C1186068009000F0A9FE0198281ACC
:10C63000E0600120D6E70298801B471EAF4209D375
:10C64000616888192A46039900F099FE7019E06024
:10C650000120C7E70020C5E7F7B582B007461646B8
:10C6600003980190182078434049183140180090F1
:10C6700000984069002804D0012811D0022826D152
:10C680001EE00098FFF719FF0546B54201D20024CD
:10C6900005E03446324601990098FFF7D9FE18E0CC
:10C6A0000098FFF70AFF0546B54201D2284600E090
:10C6B00030460446224601990098FFF7C9FE08E07B
:10C6C000324601990098FFF786FE044601E00024F7
:10C6D00000BF00BF204605B0F0BDF8B504460D46CA
:10C6E000164600BF21480078002801D1FFF74EFE12
:10C6F00000BF324629462046FFF7AEFF07463846C0
:10C70000F8BD70B505460C46204600F05CFE0646B6
:10C71000324621462846FFF7E0FF70BD38B50122BA
:10C7200069460020FFF72BFF0446012C02D1684622
:10C73000047801E00024E443204638BD10B500BF72
:10C74000FFF7ECFF0028FBDB10BD70B500BF07480A
:10C750000078002801D1FFF719FE00BF0348856D5E
:10C76000406DA84216D0012415E00000BC3E002018
:10C770005465726D696E616C00000000AC3600207B
:10C78000AC3E0020525454005345474745520000E8
:10C79000F42000200024204670BD10B5014618206A
:10C7A0004843F84C0219D3681069181A10BDFFB538
:10C7B00081B005460E46174600BFF248483800785B
:10C7C000002801D1FFF7E2FD00BF002400BF1820C0
:10C7D0006043EC4940184068002800D105E0641C23
:10C7E000E84848384069A042F1DC00BFE5484838D5
:10C7F0004069A0421BDD18206043E2490D5018201B
:10C80000604340184660182060434018876000224B
:10C810001820604340180261182060434018C2602D
:10C8200018206043D74A80180499416101E0002430
:10C83000E443204605B0F0BDFFB581B005460E4685
:10C84000174600BFCF4848380078002801D1FFF7CD
:10C850009DFD00BF002400BF18206043C949303946
:10C8600040184068002800D105E0641CC5484838DD
:10C870000069A042F0DC00BFC24848380069A0420D
:10C880001DDD18206043BF4930390D50182060432A
:10C890004018466018206043401887600022182026
:10C8A000604340180261182060434018C26018209D
:10C8B0006043B44A303A80180499416101E0002491
:10C8C000E443204605B0F0BDFFB581B004460E46F6
:10C8D000174600BFAB4848380078002801D1FFF761
:10C8E00055FD00BFA74848380069A04225D9002C53
:10C8F0001AD018206043A34930390E5018206043E5
:10C9000040184760182161439E4A303A89180498BC
:10C9100088600022182060439A493039401802612B
:10C92000182060434018C26018206043954A303A8E
:10C9300080180A994161002501E00025ED43284651
:10C9400005B0F0BDFFB581B004460E46174600BFE6
:10C950008C4848380078002801D1FFF717FD00BF48
:10C96000884848384069A04221D9002C17D01820A7
:10C97000604384490E5018206043401847601821D6
:10C980006143804A89180498886000221820604317
:10C990007C4940180261182060434018C26018208A
:10C9A0006043784A80180A994161002501E000251A
:10C9B000ED43284605B0F0BD70B504460E4600BFF5
:10C9C000704848380078002801D1FFF7DFFC00BF2D
:10C9D0006C4848380069A04206D91820604369496C
:10C9E00030390E50002501E00025ED43284670BD8A
:10C9F00070B504460E4600BF6248483800780028EB
:10CA000001D1FFF7C3FC00BF5E4848384069A0422F
:10CA100005D9182060435B490E50002501E0002530
:10CA2000ED43284670BD10B500BF56484838007821
:10CA3000002801D1FFF7AAFC00BF10BDF8B50446DD
:10CA400000BF504848380078002801D1FFF79EFC0D
:10CA500000BF0027FF2069460870102C21DA4A48E1
:10CA6000005D4870474D303D287D8007800F0228CB
:10CA700006D14648047002222846FFF7ACFC12E0BB
:10CA80002846FFF71AFD0646022E07D33F480470DA
:10CA9000022269462846FFF7DBFC04E00027FF433B
:10CAA00001E00027FF433846F8BDF3B581B00746E3
:10CAB00000BF344848380078002801D1FFF766FCF1
:10CAC00000BF102F59DA2F4830380090029800F03C
:10CAD0007AFC06460098FFF7F0FC05460098007DBA
:10CAE0008007800F002804D0012817D0022840D1E9
:10CAF0002FE0301D854201D200240EE03946009817
:10CB0000FFF7CBFC324602990098FFF764FC04461D
:10CB10001E4801780098FFF7C0FC2DE0042D02D2DA
:10CB20000024E44314E039460098FFF7B6FC281FC0
:10CB3000B04201D9304600E0281F02460299009811
:10CB4000FFF749FC0446114801780098FFF7A5FC5F
:10CB500012E039460098FFF7A0FC3246029900988F
:10CB6000FFF739FC0446094801780098FFF795FC67
:10CB700002E00024E44300BF01E00024E443204637
:10CB8000FEBD0000043F0020F4200020042100200E
:10CB9000F7B584B004460F4606980678B01C1F28E7
:10CBA00003DC6078801C1F2802DD0C2007B0F0BD7C
:10CBB0001F20801B801E85B20295B11C781802A927
:10CBC0007DDF03900398002801D00398EEE72078DA
:10CBD000022808D168460089A84204DC0920019097
:10CBE000684605890BE0082001906078002804D091
:10CBF0006078A84201DC657801E068460589681C18
:10CC0000C2B23046711CCEB23A543046721CD6B213
:10CC10000199395406980178A81C0818C1B20698E1
:10CC200001700020C2E7F8B505460C462078001DCB
:10CC30001F2801DD0C20F8BD684679DF0646002E6E
:10CC400001D03046F7E703212278501C2070A95408
:10CC500019212278501C2070A95420784119684667
:10CC6000008800F05EFA2178401820700020E2E78A
:10CC700030B503461078C01C1F2801DD0C2030BDE4
:10CC800002241578681C10704C550A241578681C0D
:10CC900010704C551578681C10704B550020EEE74D
:10CCA000FFB587B006461D46109C002006902078F0
:10CCB0000590002747E0B900706841180A88684667
:10CCC000028149884181002203A902A865DF0490FE
:10CCD0000498002802D004980BB0F0BD6846017B90
:10CCE000099881422ED10698002801D0002000E04A
:10CCF0000220019020786946097B411801980818A4
:10CD00001F2801DD0C20E7E70698002809D12078CC
:10CD1000401C20702278511C08982170A8540120D2
:10CD200006902078421903A902A865DF04900498B0
:10CD3000002801D00498CFE720786946097B401885
:10CD4000207000BF7F1C3088B842B4DC06980028F1
:10CD500006D021780598401C081AC1B205982954BC
:10CD60000020B9E7FFB581B0074615460A9E009638
:10CD700002223846049B0299FFF792FF0446002CDA
:10CD800002D0204605B0F0BD009610222946384654
:10CD9000049BFFF785FF0446002C01D02046F1E7F5
:10CDA0000020EFE701460888062808DB08881922DA
:10CDB000D201904205DD0888DE4A904201D007206A
:10CDC00070474888062808DB48881922D20190421B
:10CDD00005DD4888D74A904201D00720F0E708884F
:10CDE000D44A904208D04888904205D008884A88A2
:10CDF000904201DD0720E3E70020E1E7F8B50646B1
:10CE00000D4614462078801D1F2801D90C20F8BD3E
:10CE10003046FFF7C7FF0746002F01D03846F6E738
:10CE200005212278501C2070A95412212278501C10
:10CE30002070A95422785119308800F072F92178B5
:10CE40004018207022785119708800F06AF9217812
:10CE5000401820700020DAE7F8B505460E46144663
:10CE60002879801CC7B22078801CC0191F2801DDDA
:10CE70000C20F8BD781CC1B22278501C2070B1542F
:10CE8000FF212278501C2070B154227891192888F3
:10CE900000F047F9217840182070A88800280EDD9E
:10CEA000A868002801D10720E3E7AA882378981909
:10CEB000A96800F064FA20782979401820700020D1
:10CEC000D7E7FEB507460E461446B86A002801D1DA
:10CED0000720FEBD0020019032E0B96A0C220198C3
:10CEE00050430D182879801CC0B200900098401C57
:10CEF000C1B22278501C2070B15416212278501CE7
:10CF00002070B15422789119288800F00AF921780C
:10CF100040182070A88800280EDDA868002801D1DC
:10CF20000720D6E7AA8823789819A96800F027FA7D
:10CF300020782979401820700198401CC0B20190D7
:10CF40002C20C15D01988142C7DC0020C1E7F8B503
:10CF500004460F4615460026002028702078002839
:10CF600009D02A4639462046FFF712FE0646002E13
:10CF700001D03046F8BDA078002808D029463846B0
:10CF8000FFF751FE0646002E01D03046F2E7E0786A
:10CF900000280ED002212A78501C2870B954012193
:10CFA0002A78501C2870B954E1782A78501C2870CF
:10CFB000B954606800280BD00020616808562A46E2
:10CFC0003946FFF755FE0646002E01D03046D1E720
:10CFD000208900280CDD3B4606220221204608302D
:10CFE0000095FFF7BFFE0646002E01D03046C1E790
:10CFF000208A00280CDD3B46072203212046103002
:10D000000095FFF7AFFE0646002E01D03046B1E78F
:10D01000208B00280CDD3B461522142120461830B9
:10D020000095FFF79FFE0646002E01D03046A1E78F
:10D03000206A002809D02A463946206AFFF7DEFE1A
:10D040000646002E01D0304694E7606A002809D0D9
:10D050002A463946606AFFF7FFFE0646002E01D0D9
:10D06000304687E72C20005D002809DD2A46394636
:10D070002046FFF726FF0646002E01D0304679E70E
:10D08000304677E70146C87804221040002801D1D5
:10D09000072070470020FCE70146C878002801D02F
:10D0A000072070470020FCE7F3B593B00D46002140
:10D0B000129111911398002814D01398FFF7E2FFF2
:10D0C0000446002C02D0204615B0F0BD12AA09A9D2
:10D0D0001398FFF73CFF0446002C01D02046F3E7ED
:10D0E00009AE00E00026002D13D02846FFF7D4FF3C
:10D0F0000446002C01D02046E6E711AA01A92846E3
:10D10000FFF725FF0446002C01D02046DCE701AFE5
:10D1100000E0002710A803793A46017A304672DF12
:10D12000D2E702460A70FF20000210400012487049
:10D1300002207047FFFF000070B506460C461546FA
:10D1400029462046C046C04670BDF8B55A4800780A
:10D15000002800D1F8BD59480068002801D10120FD
:10D1600000E00020054656480068002801D1012053
:10D1700000E00020064600BF002D14D1684651DFB4
:10D180000446052C01D101250CE0002C06D000BF7F
:10D190004C4A65212046FAF7B7FF03E0474900985B
:10D1A0000968884700BF002E1AD1474800880090C0
:10D1B00069464648006861DF0446052C01D1012616
:10D1C0000DE0002C06D000BF3E4A7C212046FAF735
:10D1D0009BFF04E03D48006839490968884700BF63
:10D1E000002D02D0002E00D000E0C5E700BF00BF38
:10D1F000B0E7FFB581B00C4616461F46002C02D1A1
:10D20000072005B0F0BD20468107890F002901D114
:10D21000012100E00021002901D10720F1E72B487E
:10D220000460294806802A4807602A49019810DFCF
:10D230000546002D01D02846E3E701201E4908706D
:10D2400016202EDFDDE710B511DF0446002C01D0DB
:10D25000012000E0002018490870204610BD01465A
:10D26000002901D10E207047154801600020FAE71F
:10D270000146002901D10E207047104801600020AE
:10D28000FAE770B512480068002811D0104800680D
:10D290008047044600BF2546002D07D000BF094A3D
:10D2A000FF212A312846FAF72FFF00BF00BF01E017
:10D2B000FFF74BFF70BD00000C2100201C21002057
:10D2C00018210020A0D801001421002010210020E6
:10D2D0000821002039D1010030B50B46014600205D
:10D2E0002022012409E00D46D5409D4205D31D466C
:10D2F0009540491B2546954040191546521E002D64
:10D30000F1DC30BDF0B51FB486B000200090019074
:10D3100002900698069980B204900798090C0204BE
:10D320000014114307900027089D099806913E4676
:10D330003C4603900398A9B20204000C03900498A1
:10D340002D0C154348430021224600F06CF8C71904
:10D35000714110340E46402CECDB3846029A00F046
:10D3600062F8009A019B801800905941029801913F
:10D37000103002904028CCDB00980BB0F0BD034683
:10D380000B439B0703D009E008C9121F08C0042AF9
:10D39000FAD203E00B780370401C491C521EF9D2EC
:10D3A0007047D2B201E00270401C491EFBD27047A8
:10D3B0000022F6E710B513460A4604461946FFF761
:10D3C000F0FF204610BD421C0178401C0029FBD113
:10D3D000801A704730B504460020034600E05B1C0D
:10D3E000934203D2E05CCD5C401BF8D030BD0346D5
:10D3F0000A780270401C491C002AF9D1184670476F
:10D400000321001D401E037812021A43491EF9D55C
:10D4100010467047034603220870000A491C521E3A
:10D42000FAD51846704710B5202A04DB0146203A89
:10D430009140002010BD914020239C1A0346E340F8
:10D440001943904010BD0000064C0125064E05E032
:10D45000E36807CC2B430C3C98471034B442F7D315
:10D46000FAF732FEF8D8010018D901000FB41CB544
:10D470000A46521E0192009007A9064B6A4606987A
:10D4800000F03CF8009A002111701CBC08BC04B0EC
:10D49000184700004DD801000FB410B504A9074B80
:10D4A00002AA039800F02AF8044602A9002000F01E
:10D4B000D8F9204610BC08BC04B0184763D8010056
:10D4C00030B47446641E2578641CAB4204D3635D9B
:10D4D0005B00E31830BC18471D46F8E702E008C8B7
:10D4E000121F08C1002AFAD170477047002001E0DE
:10D4F00001C1121F002AFBD170470000FFB58FB099
:10D500000546002606E025280AD0129A1199904770
:10D510006D1C761C28780028F5D1304613B0F0BD7C
:10D52000002402940121B54A009400E004436D1CDC
:10D530002B780846203B98401042F7D128782A28BB
:10D540000ED00222287801463039092916D80299CE
:10D550000A2359433039401814436D1C0290F1E7F7
:10D56000109802C802911090002904DA01204003AB
:10D57000044348420290022004436D1C28782E2860
:10D5800017D10420044368786D1C2A280CD1109808
:10D590006D1C02C8009110900BE000990A225143C3
:10D5A000303940186D1C009028780146303909291F
:10D5B000F3D928786C2810D006DC4C281AD06828BB
:10D5C0000ED06A2817D104E0742813D07A2812D11B
:10D5D00010E00120400504430CE00121090501E0B1
:10D5E000032109050C436978814203D1012000051C
:10D5F00024186D1C6D1C2878692874D006DC00285E
:10D600008BD0632827D0642806D16CE06E2808D020
:10D6100073282CD0752878D0129A11999047761CCF
:10D620005FE06002400F022809D003280DD00428D3
:10D63000109801680DD00E60001D109051E01098F8
:10D64000F21701680E604A60F6E7109801680E80D4
:10D65000F2E70E70F0E710986A4601781173001D2A
:10D6600010900020507303A80190012005E010984D
:10D6700002C8019110900020C04361070CD500271B
:10D6800000E07F1C00998F420FDA8742F9DB019995
:10D69000C95D0029F5D108E0002700E07F1C874222
:10D6A000FCDB0199C95D0029F8D102982146C01B15
:10D6B0000290129B119A00F0B3F88019C61907E086
:10D6C000019801990078491C0191129A119990478B
:10D6D0007F1EF5D22146129B119A029800F090F815
:10D6E00086196D1C16E70A200190109901C9109146
:10D6F0006102490F032900D100B2042900D140B2D0
:10D70000002803DA40422D2103E00DE0210504D575
:10D710002B216A461173012103E0E10711D020217A
:10D72000F7E70CAF0C9114E00A200190109901C9A1
:10D7300010916102490F032900D180B2042900D160
:10D74000C0B20021EDE70199FFF7C6FD30317F1E21
:10D7500039700028F7D104A8C01B20300190600761
:10D7600004D5012000048443009801E001200090CA
:10D770000199884201DD401A00E000204118009024
:10D780000C9809180298401A0290E00306D421462A
:10D79000129B119A029800F043F8861900200D9010
:10D7A00008E003A9085C129A119990470D98401C53
:10D7B000761C0D900C998842F3DBE0030CD52146D2
:10D7C000129B119A029800F02BF8861904E0129A25
:10D7D000302011999047761C0099481E009000292E
:10D7E000F5DC05E03878129A7F1C11999047761C79
:10D7F0000199481E01900029F4DC6BE7092801001B
:10D80000F8B5044600251E461746880404D405E0F2
:10D8100039462020B0476D1C641EF9D52846F8BD56
:10D82000FFB50446002581B01E46C80301D5302748
:10D8300000E02027880404D505E038460399B04766
:10D840006D1C641EF9D5284605B0F0BD4A68002A53
:10D8500006D00A68531C0B6010704868401E486070
:10D8600070470A68531C0B6010707047110000006D
:10D87000020000001A000000500000001ECD000051
:10D880008CB9A88B82D851FDA1771E2A0200000016
:10D890005DA1010000000000000000000000000089
:10D8A0002E2E5C2E2E5C2E2E5C2E2E5C2E2E5C2EB2
:10D8B0002E5C636F6D706F6E656E74735C736F66F4
:10D8C000746465766963655C636F6D6D6F6E5C73C0
:10D8D0006F66746465766963655F68616E646C65C4
:10D8E000725C736F66746465766963655F68616EA8
:10D8F000646C65722E63000018D9010000200020BE
:10D9000020010000DCD4010038DA010020210020D1
:10D91000102F0000ECD40100000000000000000007
:10D9200000000000000000000000000000000000F7
:10D9300040010000000000000C0710000000000083
:10D9400000000000000000000000000000000000D7
:10D9500003000000000000000000000000000000C4
:10D96000D6BE898E0000000000000000000000000C
:10D9700000000000000000000000000000010000A6
:10D980001027000050C3000000000000000000004D
:10D990000000000000000000102700000000000050
:10D9A00000000000FA00000000000000000000007D
:10D9B0000000000000000000000000000000000067
:10D9C0000000000000000000000000000000000057
:10D9D0000000FFFF00000000000000000000000049
:10D9E0000000000000000000000000000000000037
:10D9F000000000000000000000000A00FFFF00001F
:10DA000000000000000000000024F4003031323338
:10DA1000343536373839414243444546000000002A
:10DA200000000000000000000000000000000000F6
:08DA30000000000000000000EE
:04000005000180C1B5
:00000001FF
