:020000040007F3
:108000004829002021910700299107005584070085
:108010002D9107002F91070031910700000000000B
:108020000000000000000000000000003391070085
:1080300035910700000000003791070039910700D3
:108040003B910700B5860700099F07003B91070099
:108050003B9107003B9107003B9107003B910700D4
:108060003B9107003B9107003B91070045890700C2
:108070003B9107003B9107003B9107003B910700B4
:108080003B9107003B9107003B9107003B910700A4
:10809000838607009D9E0700BD890700C1890700F0
:1080A0003B9107003B9107003B9107003B91070084
:1080B0003B9107003B91070000000000000000001A
:1080C0003B9107003B9107003B9107003B91070064
:1080D0003B9107003B9107003B9107000000000027
:1080E0000000000000000000000000000000000090
:1080F0000000000000000000000000000000000080
:10810000000000000000000000000000000000006F
:10811000000000000000000000000000000000005F
:10840000DFF80CD004F000FC004800475B84070054
:1084100048290020056885F308884068FF2464B275
:10842000EFF30585002D01D1A646004725460646F7
:1084300021273FBAF0B40024002500260027F0B41D
:10844000F92040B20047000072B600BEFEE772B6E7
:1084500000BEFEE772B600BEFEE71F4802680121BB
:10846000C006002432B90160D0F80021002AFBD0F8
:10847000C0F80041184A0C3212683AB9C0F8081026
:10848000D0F80421002AFBD0C0F80441C0F8101035
:10849000D0F80C110029FBD0C0F80C410F49402046
:1084A00081F800044FF0E0210004C1F8000162B639
:1084B00000F052FC00E020BF04F0F9F90028FAD1E6
:1084C000074D286810B9002000F0F7FA2C6000F082
:1084D00085FC20BFFDE700000804004016E000E036
:1084E0001C05004070B50446807BE0B1022835D001
:1084F0000125F84800F096FF014640F6CD4015FBF7
:1085000000F0B1FBF0F200FB1211627B084441F66F
:108510009A1315FB03F3A16802FB0311084420F032
:108520007F40606070BD627B40F6CD4101FA02F091
:10853000521C9140A0F6CD45A1F6CD41481B20F03C
:108540007F46E44800F06EFF7108B0FBF1F201FBDA
:108550001200A16800EB56002944DFE70A25C8E7AE
:108560001CB502208DF80500684601F063F910B9CA
:108570000420FFF769FF00208DF8040025208DF806
:108580000600684601F084FB002802D0684601F02E
:108590009FF91CBD4FF6F071884208D301211030BD
:1085A0008140CD484088014201D001207047002021
:1085B000704710B588B0044601F0F7F9020013D0F7
:1085C00090884FF6F07188420ED3FFF7E3FF58B161
:1085D000B6208DF801009088ADF8020003208DF8D8
:1085E0000000684601F071FC08B02046BDE810406C
:1085F00001F06EB91FB529B1B6486946983800F048
:1086000067FF18B1009801F063F91FBD4FF0E0213A
:108610004FF48010C1F800021FBDAF480078002859
:1086200000D09DE77047F0B5AC480168AC4C481EDF
:1086300020F07F400346002204EB02152E6856B15D
:108640006D68471A6E1A26F07F4627F07F47BE42B4
:1086500001D225F07F40521C082AEDD3A14A4FF4E5
:10866000803483420AD0C2F804430023C2F8403168
:108670009A4A3C32106098488160F0BDC2F80843C5
:10868000F0BD38B5944C0DE0009801F042F9012896
:1086900002D00020FFF7D8FE616800988847009854
:1086A00001F016F98E486946803000F039FF002845
:1086B000EAD038BD01F00EBB0120704710B58649E5
:1086C00000240C7048604C808021854804F073FAC7
:1086D00080498039A1F11800016004214160202106
:1086E0004461816000F0E6FE01F09CF8794800F0FA
:1086F000C2FE08B1FFF7A8FE0221142000F012F913
:10870000142000F0F9F80021012000F00BF9BDE879
:108710001040754A7549764801F043BA6E480178B1
:10872000002902D1012101701AE770472DE9F041BB
:108730001D001646074601D10C2E02D80FB108299C
:1087400002D30020BDE8F081EFF3108000F00108B3
:1087500072B6634800EB0114206808B101F0B8F864
:10876000384601F097F827602673002060735B4855
:108770000068A060A5732046FFF7B4FEFFF753FF23
:10878000B8F1000F00D162B60120DBE710B5082870
:108790000CD2534901EB0010002141734F49096885
:1087A0008160FFF79FFEBDE810403CE710BD10B5AB
:1087B00004460B2000F0ABF8082C05D2484800EB2B
:1087C0000410C17B491CC173BDE810400B2000F0B0
:1087D00093B810B504460B2000F099F8082C0CD281
:1087E0003F4800EB0414206801F072F8002020607C
:1087F0006060A060E060FFF716FFBDE810400B204E
:1088000000F07AB82DE9FC41344806680025344F61
:10881000A846B61C07EB05142068E8B32E4A616829
:108820009268711AB21A21F07F4122F07F42914280
:1088300039D88DF8058000908DF80480E07B0328FE
:1088400011D225208DF80600684601F021FA10B9F2
:10885000206801F01FF89DF80600401CC0B28DF89A
:1088600006002728F0D984F80F80607B411CC9B22C
:108870006173FF2805D11F48A268104420F07F4093
:10888000A060207B814214D3FF2812D0206801F021
:108890001FF8C4F8008000E005E0C4F80480C4F8C4
:1088A0000880C4F80C806D1C082DB3D3BDE8FC41D2
:1088B000B9E62046FFF716FEF5E7012210308240A8
:1088C0000548438811B11A4342807047934343805F
:1088D00070470000580100200400002004B500404B
:1088E0004000002000B00040B3850700F585070078
:1088F0001B860700009A190000F01F020121914019
:108900004009800000F1E020C0F80011E0E700F02D
:108910001F02012191404009800000F1E020C0F8D1
:108920008011D5E74907090E002806DA00F00F008C
:1089300000F1E02080F8141DCAE700F1E02080F883
:108940000014C5E770B51A4CD4F84001002538B1C1
:10895000D4F80403C00303D5C4F84051FFF752FF15
:10896000D4F8440100280DD0D4F80403800309D5BD
:10897000C4F844514FF40030C4F80803BDE8704017
:1089800000F082BA70BD0B490020086008484FF41F
:108990004031C0F844130121816001600649202064
:1089A00081F800044FF0E0218001C1F80001704718
:1089B00000B0004008B500400BE000E000F0F7BE5A
:1089C00030B58FB000244FF0005542E09DF8100004
:1089D000641C0128059806D00699A8422FD3FF22CF
:1089E00004F0E2F82DE0800702D00020FFF72CFD14
:1089F0000798800702D00020FFF726FD0698800721
:108A000002D00020FFF720FD0598A8420DD30146B3
:108A1000002006E0069B0A781B5C1A4001F8012B37
:108A2000401C079A8242F5D804E0DDE906120023D3
:108A300001F06EF860208DF82000069805E001F046
:108A400035F861208DF820000598099008A801F0FC
:108A5000B5FB04A9FE4800F063FD0028B6D02CB198
:108A600062208DF8200008A801F0A8FBF84800F06B
:108A7000AAFDF8490978084205D0122001F057FEF6
:108A8000006801F087FB0FB030BD00B587B000F083
:108A90008CFF00280FD081884FF6EF7291420AD9DF
:108AA00002218DF80010011D01910078C01E029076
:108AB000684601F083FB07B000BD7FB50546122074
:108AC00001F035FE0446062D08D003DC35B1012D3A
:108AD0003ED103E0082D38D00A2D39D1002C30D0FA
:108AE00003F0B9FA00282CD0D94800F06CFD012120
:108AF00040B34FF0E020D0F80031002201FA02F03C
:108B000018420AD050B200F01F0601FA06F54009DB
:108B1000800000F1E020C0F88051521C202AEDD3E3
:108B2000CD4B0FCB8DE80F00684618DF08B1FFF77B
:108B30008BFC206813DF08B1FFF786FC206801F08A
:108B400029FB7FBDC34801707FBD0020FFF77CFC7F
:108B500072B6FEE701F032BB10B50446007888B06B
:108B600025286FD00EDC22286DD006DC02286BD0C1
:108B7000202819D0212814D170E023287ED0242861
:108B80000FD1B6E00021612849D006DC502876D00C
:108B9000512875D0602804D10CE062283BD07028A1
:108BA00053D0062008B010BD2079FFF786FF03F0F0
:108BB000FBF8CFE06846009100F03CFE002876D03C
:108BC000009800F0B2FE0098017821F00F01891C96
:108BD00000F8011B217A0A3100F8091B162100F860
:108BE000011BE42100F8011BFE2100F80319217A82
:108BF000C91C00F8041BD4E9011203F0C3FF237B56
:108C0000627BA17B0098FFF791FD0446009800F07D
:108C10005FFEACB19EE02079FFF7DBFD9AE07820A3
:108C20008DF80100D4E901120DF1020003F0AAFF52
:108C3000207A401C8DF80000684601F046F9A8BB78
:108C40000320AFE75AE033E027E0A068834A410CF5
:108C5000C003002303F056FF02214CE000F054F95A
:108C60007B482021183801704FF0FF310161617994
:108C70000171D4F80610C0F8051002E035E064E098
:108C800045E0D4F80A10C0F80910E189A0F80D10E9
:108C900008B0BDE8104001F091BA2079022859D1FE
:108CA00003F0D9F910B9022003F0CAFD52E04AE0FE
:108CB000207902284ED100F027F921208DF80000FC
:108CC000D4F80700CDF80500D4F80B00CDF8090062
:108CD000B4F80F00ADF80D00A0798DF804006069BC
:108CE0000490684601F06AFA34E001214FF4203024
:108CF00001E00121C80300F0F4F82BE060790428BA
:108D000001D0012826D10020FFF7D7FE22E02079EC
:108D1000800702D1207A800701D0102042E7207B13
:108D2000800701D009203DE75FF00100241D8DF888
:108D3000000094E8070001AB83E807006946444857
:108D400000F0C6FB18B104202CE70220EEE7172044
:108D500000F0BCF8002025E770B588B0FFF713FEDF
:108D600018213B4803F027FF3949394818310825B5
:108D700001601021C0E9011500F09CFB384960201A
:108D800081F800044FF0E021280501260024C1F8F5
:108D9000000101F0B5FA33488DF80C6002908DF8AF
:108DA0000D508DF800408DF804608DF80E40684637
:108DB00001F004FA08B1FFF747FB00F0CEFC2A49A6
:108DC0002A48FFF77BFC06A803F01CFD9DF818005D
:108DD000002801D02648046008B070BD30B589B0C5
:108DE00000F0C7FC01208DF80C0003A801F0E6F9A3
:108DF000FFF794FC03F02FF930B103214FF4A020CA
:108E000000F06FF809B030BD022003F019FD002812
:108E1000F8D003F0FAF80500F4D003F011FD0528AE
:108E2000F0D1022001F083FC040001D1FFF70CFB1C
:108E3000012D1FD0042D21D00B20FFF705FB00BF13
:108E40004FF0FF326946284602F0C0FFDAE7000023
:108E5000800100201000002060CC070040420F007D
:108E600017E000E0598B0700D6BE898E8B8A070079
:108E70001C0500402088ADF80000E1E7241D94E8BF
:108E800007008DE80700DBE730B5244C002587B0EC
:108E90006078012812D002280AD0032812D00820B6
:108EA000FFF7D2FA6570684601F088F907B030BD67
:108EB00003208DF800008DF80450F3E723208DF88F
:108EC0000000EFE70020FFF7F8FDEFE700F01F02DA
:108ED000012191404009800000F1E020C0F800121B
:108EE00070470F4A0023C2F844310E4B1B681844E8
:108EF0000C4B20F07F40403318604FF40030C2F834
:108F0000040306484170704705494FF40030C1F82A
:108F1000080302490020487070470000100000203C
:108F200000B0004004B500407449734808607047C1
:108F300070B573480023021D0178101D0125062914
:108F400007D11478240704D10478C4F30314032C44
:108F500002D0062904D00FE06B4E6A4C74670EE015
:108F60001478240708D10478C4F30314032C06D022
:108F7000042C04D0052C02D0062909D010E04FF0B3
:108F80008054D4F84442614EC4F34234346002E069
:108F90001478240704D10478C4F30314032C02D0FA
:108FA000062906D011E05A4C266826F08076266005
:108FB0000EE01478240708D10478C4F30314032CBA
:108FC00006D0042C04D0052C02D006290AD011E0CA
:108FD0004FF08044C4F80C31C4F810314B4C241FBE
:108FE000236002E01478240704D10478C4F3031446
:108FF000032C02D0062905D00CE0444A0321643238
:1090000011600AE01478240704D10478C4F303142F
:10901000032C02D006290DD06AE03E4A05211160DA
:109020003C4978310D603B4908310B603F21121DEE
:10903000116002E0117809075AD10078C0F30310DB
:10904000052855D134480068344908603248001D6D
:109050000068091D0860304808300068091D086074
:109060002D480C300068091D08602B48103000683E
:10907000091D0860284814300068091D086026484A
:109080001830006825492031086023481C300068EA
:10909000091D0860204820300068091D08601E482E
:1090A00024300068091D08601B4828300068091D2D
:1090B000086019482C300068091D086016483030D7
:1090C0000068164940310860134834300068091DB3
:1090D0000860114838300068091D08600E483C30AF
:1090E0000068091D08600C4840300068091D0860D0
:1090F00002490148086070BD0090D00314000020B0
:10910000E00F00F00DF0ADBA00C007403C05004094
:10911000FCED00E0105600400404001020C50040A3
:109120000648804706480047FEE7FEE7FEE7FEE701
:10913000FEE7FEE7FEE7FEE7FEE7FEE7318F07000A
:10914000018407002DE9F04FC8B0002213466F4696
:10915000CC181B1D2568E4782DBA25F0FF052543A2
:1091600047F82250521C102AF2D31BE007EB820171
:1091700051F8083C4FEA734484EAF34484EA9324A8
:1091800051F83C3C4FEAF31585EAB34585EAD30331
:10919000234451F81C4C51F8401C2144194447F811
:1091A0002210521C402AE1D3036D4793416D469132
:1091B000846D4594C26D44929246026E4392456E10
:1091C0004295A946856E4195C66E4096B3460026E7
:1091D0004FEAB21787EAF22787EA726C02EA0907B8
:1091E00025EA020887EA0807BC44854F57F826801D
:1091F00008EB0B07BC445DF82670AB460CEB070E82
:109200004FEAB30787EA733787EAB35C81EA04075A
:109210004D4601EA040891461F400AEB0E02A246A1
:1092200087EA08070C46BC441946761C0EEB0C0373
:10923000402ECDD3479E33440365469B1944416578
:1092400045992144816544995144C165439911442C
:109250000166429949444166419929448166409991
:109260005944C16648B0BDE8F08FA8B1002101643F
:10927000C0E912116349016563494165634981652C
:109280006349C16563490166634941666349816613
:109290006349C166002070470E2070472DE9F041F8
:1092A00016460F46040004D006B317B10025A846A1
:1092B0001AE00E20BDE8F081216C785D6054206CCE
:1092C000401C206440280ED121460846FFF73AFF93
:1092D000D4E912014FF40072801841F10001C4F882
:1092E0004080C4E912016D1CB542E5D30020E1E7DE
:1092F00070B516460D46040007D035B1206C8022AB
:1093000000213828225403D307E00E2070BD2154D9
:10931000401C3828FBD30BE02154401C4028FBD3D1
:1093200021460846FFF70EFF3821204603F043FC94
:10933000216CD4E912304A0FC90038345918504111
:10934000C4E90410227CE2710A0A42EA0062A271B6
:109350000A0C42EA00426271020242EA1160207184
:109360006069E070010AA170010C6170000E04F8E0
:10937000380921460846FFF7E5FE4FF00002EEB13E
:10938000E06ED100C840A854A36ECB40A81803716A
:10939000636ECB400372236ECB400373E36DCB400F
:1093A0000374A36DCB400375636DCB400376236DCF
:1093B000CB40521C0377042AE2D31FE0182350420B
:1093C000216D03EBC000C140A954666DC640A918C9
:1093D0000E71A66DC6400E72E66DC6400E73266E07
:1093E000C6400E74666EC6400E75A66EC6400E76FA
:1093F000E66EC640521C0E77042AE0D3002070BDF2
:1094000070CC070067E6096A85AE67BB72F36E3CF5
:109410003AF54FA57F520E518C68059BABD9831F3F
:1094200019CDE05B10B5D0E900128468A1EB721190
:1094300082EAF4330360C26814440A441944446065
:10944000C0E90221084610BD70B5174A0123136018
:109450000024164E0AE000BFD2F80051002DFBD0C8
:109460003568491E89B24554C2F800410029F3D13C
:109470005360002070BD38B50446002000900421E0
:109480006846FFF7E1FF00280DD1094820600098E9
:109490006060A0600025E0602046FFF7C3FF6D1C00
:1094A000142DF9D3002038BD00D0004008D500406D
:1094B000ED5EEAF182682021491E22FA01F3DB0702
:1094C000FAD001228A400021C0E9022101617047DF
:1094D00070B5044661B1EFF3108000F0010572B67B
:1094E000A26820698318E068834206D115B102E0C2
:1094F0000E2070BD62B6042070BD521E1040D4E92B
:10950000003202FB003063690BB1984701E003F0C1
:1095100039FBE068401CE06005B962B6002070BD10
:1095200070B50B460446EFF3108000F0010572B6EB
:10953000D4E90310884203D105B962B60E2070BD8C
:109540006BB1A1686669491E0840D4E9001202FBAC
:10955000001118460EB1B04701E003F013FB20697B
:10956000401C206105B962B6002070BD70B50B00CB
:109570000BD0EFF3108101F0010472B6D0E9035172
:109580006D1A954203D804B962B60E2070BD11441D
:109590008268521E1140D0E9005202FB0151456918
:1095A00018460DB1A84701E003F0ECFA04B962B621
:1095B000002070BD0022D9E7C16801617047D0E981
:1095C0000310081A70470169C068814201D1012067
:1095D0007047002070470000072811D008DC0028E1
:1095E0000DD0022816D0052812D0062806D10BE08F
:1095F000082807D0092809D011280BD080207047EF
:1096000085207047832070478220704784207047F0
:10961000902070478620704710B504464378822119
:10962000032284208EB0762B38D004DC022B10D09D
:109630000E2B04D11CE0772B51D0782B76D08DF8EF
:10964000010060788DF802008DF800208DF803107D
:1096500030E08DF8011020788DF800002278012A82
:1096600028D9A11C0DF10200521E03F08BFA21E053
:1096700000F0D6FC66494FF0FF30086065490120D4
:109680000860BFF34F8F64480168644A01F4E061E9
:1096900011430160BFF34F8F00BFFDE78DF801005C
:1096A00061788DF802108DF800202178052906D008
:1096B0008DF80300684600F008FC0EB010BD20795C
:1096C00008B1012801D0072025E0607908B1012107
:1096D00000E000216088FFF7F0F800201BE08DF823
:1096E000010061788DF8021007218DF800102178B3
:1096F0000429DDD12179002081B1012911D0072170
:109700008DF800206288ADF8042022798DF80620BB
:109710008DF807000846FFF75FFFC9E70721F1E76B
:1097200004E06088FEF736FF0021EBE78DF80100CA
:1097300060788DF8020005208DF8000002208DF879
:109740002000A01C09902078401E0A9008A8FFF76E
:1097500001FA6188ADF80410DDE73149602081F835
:1097600000044FF0E0214FF40010C1F8000100F0B8
:10977000FFBB00B589B004208DF8000081208DF872
:10978000010001208DF8020021480068C0F3C000EC
:109790008DF8030000F040FC8DF80400684600F0EE
:1097A00094FB10B1002009B000BD0420FBE700B518
:1097B00089B002E06846FFF72FFF684600F044FCDE
:1097C0000028F7D1EFE700B5017889B0D9B10129B8
:1097D00004D0022904D0042905D116E0B52100E007
:1097E000B3218DF80110017BC91C8DF80010818810
:1097F000ADF80210027B816801A803F0C3F9684646
:1098000000F063FBCFE7B421EBE7B621E9E7000006
:10981000000400401C0500400CED00E00400FA05C7
:1098200015E000E000209E4902460A54401C202812
:10983000FBD3704710B59A4B002100BFEFF31082A5
:1098400002F0010272B65C5C0CB162B10CE0012462
:109850005C54944B01EB810103EBC101016002B93F
:1098600062B6012010BD62B6491C2029E6D304204F
:10987000FEF7EAFD002010BD8A492822401AB0FBFD
:10988000F2F0202804D200EB800001EBC00070470A
:109890000020704770B58349401A2821B0FBF1F4CD
:1098A000202C01D3002070BDEFF3108000F00106E2
:1098B00072B67B4D285D08B1FF2802D10420FEF767
:1098C000C3FD285D401C285506B962B6012070BD55
:1098D000744910B5401A2821B0FBF1F0202816D2A7
:1098E000EFF3108101F0010472B66D490A5C22B1F8
:1098F000521ED2B20A5434B106E00820FEF7A4FD8D
:109900002CB962B603E062B60AB1012010BD002096
:1099100010BD6449401A2821B0FBF1F0202801D382
:10992000002070475E49085C70475F490A68C0F8CC
:1099300003208988A0F807104FF08051D1F8A010BB
:10994000027861F386120270002070472DE9F04121
:109950001746069D8C46060006D006F10904172D11
:1099600004D90920BDE8F0810E20FBE73046FFF75F
:10997000DCFF05F10E007070307820F00F00801CC5
:109980003070E81D2070162060704FF6E460608033
:10999000A4F804C0E78035B12BB12A46194604F17A
:1099A000080003F0EFF80020DCE770B501000ED0EE
:1099B0004A7801F10900062A09D9252A07D80DE0BD
:1099C0000378451A093D5E19951FAE4201D9002062
:1099D00070BDC3EB431318441F3001E04FF6E4643D
:1099E0004378162BECD14388A342E9D170BD70B502
:1099F0000446FFF7DAFF40B104F1090290420DD0AE
:109A00000178491CCBB2002105E00B2070BD455CFC
:109A10006618491C75729942F9D310460078C01D2A
:109A20006070002070BD00B5FFF7BFFF08B18088EF
:109A300000BD4FF6FF7000BD00F10901821C4078A7
:109A40004FF6E46310440CE04A78162A02D14A88A3
:109A50009A4201D0012070470A78C2EB42121144A9
:109A60001F318842F0D80020704710B50446FFF738
:109A7000E3FF10B12046FFF7BAFF2046BDE81040D3
:109A800053E708492822401AB0FBF2F0202804D2FC
:109A900000EB800001EBC000704700207047000021
:109AA0001807002018020020A4000010F0B54FF0A5
:109AB0008052136911FA83F11369491E9BB2B1FBFD
:109AC000F3F100232D4CCDB202262D49271D9C46D3
:109AD0001BE02660D1F800E0BEF1000FFAD038603C
:109AE000D1F800E0BEF1000FFAD0C4F800C000BF0A
:109AF000D1F800E0BEF1000FFAD0D2F810E05B1C04
:109B0000CEF38D0E00EB8E00DBB2AB42E1D3F0BDA5
:109B10002DE9F043002423F00303034425462046A7
:109B2000184EDFF85890164F23E000BF11F801CB14
:109B300006F804C0641C65EA0C08E4B208F0FF05EE
:109B4000042C15D100248DB10125CC46C9F8005054
:109B50003D68002DFCD035681D603D68002DFCD0AF
:109B60000025CCF800503D68002DFCD000251B1DC1
:109B7000401C9042DAD3BDE8F083000004E50140C8
:109B800000E4014018000020B8480021C0F800128D
:109B9000491EC0F8081301210161B549022008706F
:109BA00070472DE9F0478846B2490025914607469F
:109BB0000D6001200860B0490D60AF4A0321121DFD
:109BC0001160AD490226091F0E60AB4A25214832BB
:109BD0001160A94A8E2118321160A74AA749103294
:109BE0001160A34CA44B61680A0E1C331A60A24A90
:109BF000090214321160191D0D60091D08609E498B
:109C00009F4808310860091D9E4808609A4940F243
:109C10005B602C310860091F40F203100860964910
:109C20009948303108609449942038310860207890
:109C3000032809D19548082100F118024561816087
:109C4000C0E90021FFF736FC884804F8086BC0F82B
:109C50000C514FF0E020C0F88062C0F8006184E849
:109C600080038A48083CFFF7AEFC18B1A068BDE845
:109C7000F0470047FEF720FD002804D0BDE8F0477C
:109C8000012000F09AB8BDE8F08779494860704734
:109C900010B510B1417911B106E00E2010BD017967
:109CA000012901D9102010BD01467848FFF710FCAA
:109CB00008B1042010BDEFF3108000F0010472B66B
:109CC000FEF7FAFC10B1012000F077F804B962B693
:109CD000002010BD2DE9FC47644DD5F80C01644C03
:109CE000002770B36A48006800B1012081466848C7
:109CF0000C30D0F80080D5F81C01642628B1C5F8D6
:109D00001C715D483C300068C6B2C5F80C716946EC
:109D10005E48FFF705FC08B1FEF796FB9DF80500CD
:109D2000012807D0022805D0216900988847022021
:109D3000207035E0E5683346424649460098A8471A
:109D4000F5E7FFE75148FFF73AFCDFF82C910646AC
:109D500009F14409B8464FF0FF3A1AE069464B480A
:109D6000FFF728FCB8B99DF80500022813D100219F
:109D70004648FFF7D5FBFFF707FF48460168002973
:109D8000FCD1C5F80C81E768642352460098B847B7
:109D9000761E012EE2D82078022801D0032806D1B1
:109DA00069463A48FFF706FC18B1A0688047BDE84D
:109DB000FC87684600F00CF8F9E700F01F0201216B
:109DC00091404009800000F1E020C0F80012704787
:109DD0007EB5264A1321C2F80012274B81791B1F3A
:109DE0000A2901D8042402E0242903D8062404EB1C
:109DF000410408E0274E70CE8DE870006C4604EBFD
:109E0000810454F8944C1C601B4B01F07F014833D3
:109E10001960194B0168083B19600821C2F8041346
:109E20000025C2F80C511249134E4B681C0E1C360B
:109E30003460114E1C0214363460467901243EB160
:109E40000D48154E2430B3420CD0032303600AE0C2
:109E5000094D037920352B60074BC07918601460D9
:109E60000C707EBD046054600D707EBD001000401B
:109E70001C000020FC1F00400C15004000D6BE89CD
:109E80000601020025000302555555003807002041
:109E90000014004070CD0700D6BE898EB54910B5BC
:109EA000A1F5A870FFF73CFB00280DD1B148B249DD
:109EB000B24B4278801C00248A60C3F81C41012404
:109EC0009C60AF4B1A60C86010BD10B504468AB0E4
:109ED000AC4802F0BAFE00284FF0000012D18DF815
:109EE0000000227821460DF10100521C02F04AFECA
:109EF0006946A448FFF7ECFA9F48007808B900F0DB
:109F0000D5F801200AB010BD70B59D4E00259B4CC0
:109F1000361F07E0C4F80851D4F808013068C0B211
:109F200000F0D1F8D4F808010028F3D1D4F81C01CE
:109F300000280DD0C4F81C518F488168491E8160EB
:109F4000491C06D0C1688E4B11F8012B1A60C16004
:109F500070BD0121E1600178012900D005708948B8
:109F6000FFF731FB0028F3D1BDE8704000F09EB848
:109F700070B5844804250024856000F1B4012726CB
:109F80004461C0E90016FFF795FA7E48183800F1E1
:109F9000300185604461C0E90016FFF78BFA76480E
:109FA00003214470082000F078F8774860260660A6
:109FB000052000F068F80321072000F06EF8062065
:109FC00000F061F86E490620103908606C490820DD
:109FD000083908600720091F0860694905201439FD
:109FE00008606748012150300160654A67480832BF
:109FF000106063481C38056060488422C0F8042360
:10A00000C0F80841C0F81C410160614880F8006454
:10A01000801EC0F8005170BD5A481838FFF7CFBAFB
:10A0200070B5EFF3108000F0010572B60120524CBC
:10A03000607001E0FFF768FF20780028FAD16070B7
:10A04000002D00D162B670BD10B504464D488AB0EF
:10A0500069461838FFF764FA08B1002052E79DF806
:10A0600001202AB120460DF10101521C02F08AFDA7
:10A0700041480178012904D1002101703F490120A4
:10A08000086001203EE71CB5002100910B4601222B
:10A090000191114600F05DF81CBD1CB500220B4675
:10A0A00000921146019200F054F81CBD32484178EC
:10A0B000002907D10178022904D00221017015205E
:10A0C00000F03CB8704730B52B4C89B02D4D61681D
:10A0D000403D01F8010B481B401E6160272805D256
:10A0E000012829D96978491C814225D82549403958
:10A0F00001F12800FFF7ECF978B103208DF800009A
:10A1000084208DF80100A8788DF8020086208DF853
:10A1100003006846FFF7D9FE02E0162000F00EF8B3
:10A120001848183802F091FD18B114490120207028
:10A13000486014483F38606009B030BD00F01F022D
:10A14000012191404009800000F1E020C0F8001298
:10A15000704730B541EA4201DDE9034541EA830138
:10A16000800041EA042100F1A04041EA0541C0F825
:10A17000001730BD200900203000002000200040E2
:10A180001C250040D00700200805005000E0D70142
:10A1900002E000E0FEF73EB98B49496801B108478B
:10A1A000082070478AB001238DF8003001AB83E8A6
:10A1B00007006846FFF7F0FF72B6FEE730B50446C9
:10A1C000007889B04FF4FE2523286BD012DC7E493D
:10A1D00004284DD007DC10B301283CD002283DD024
:10A1E000032817D141E020284ED0212852D0222820
:10A1F00010D155E032286CD006DC242855D0302808
:10A2000057D0312806D15BE0602866D061286AD03B
:10A2100062286DD0002211460620FFF7C3FFA06818
:10A220004860A07B48B100200870207B10B1607BA3
:10A23000022804D2072009B030BD0120F4E74FF412
:10A24000FC21284600F02FFA08B10320F3E7607BD9
:10A2500001F095FD52E001F0A7FD4FE020890122B9
:10A2600081B2606801F0E2FDE5E701F0A8FE45E09B
:10A270000020241D8DF800001DCC01AD85E81D00D7
:10A28000496868468847D6E72079611D226901F050
:10A290009DFDD0E72079611D226901F0ADFDCAE77F
:10A2A0000620C8E701F0EFFE28E0207902F0C8FAA6
:10A2B000C1E7A08800F03BFAA060F8B90520BAE732
:10A2C000D4E90212A08800F04DFAA84216D210205C
:10A2D000B1E7A08800F0C5FA10E0606802F047F925
:10A2E0000120616801E00220616800F0CEFA05E01B
:10A2F00000F0F7FA02F0D0FA01F0C7FE00209AE76A
:10A300004FF08050D0F80C01304901EB8020AFF2C3
:10A31000531101602C49012008700020704700B5DE
:10A3200089B020218DF804008DF800106846FFF7F1
:10A3300033FF09B000BD70B58AB016460D4604461D
:10A3400024222349684602F01DFC01A9684681E8E1
:10A350007000FFF721FF0AB070BD30B50D461C49F3
:10A3600089B0044624222431684602F00BFC68467A
:10A37000CDE90145FFF710FF5DE700B589B0702119
:10A380000290002001908DF800106846FFF704FF4E
:10A39000CFE700B589B071208DF800000020019052
:10A3A0006846FFF7F9FEC4E700B589B062218DF871
:10A3B00004008DF800106846FFF7EEFEB9E702488A
:10A3C000007880F00100704700900020FCFFFF1F24
:10A3D0007CCD0700F0B502460078FF2815D0104468
:10A3E0000024438847F6FF754FF4006602F580525B
:10A3F0000EE0078800EB8700904206D8AB4201D1FF
:10A400008B4202D1641CB44201D90020F0BD4388C4
:10A410008B42EED1001DF0BD2DE9F041FE4C05460A
:10A420002069854204D0002211461020FFF7BAFEB1
:10A43000EFF3108000F0010272B620694FF6FF734F
:10A440000088984204D1E1680888401C088004E034
:10A45000E0682E880188314401802888EF4905EBA7
:10A460008000A1F180052061884200D1256120692A
:10A470004688A6F5FE47FF3F07D106889E4204D1D5
:10A48000001D2061884200D12561002A00D162B6FA
:10A49000BDE8F0810188E14A00EB8101DE4891428C
:10A4A000C16002D1A2F18001C1600269914209D06C
:10A4B000501AC0F38F0008808A4201D220300880F1
:10A4C0000020488070472DE9F0410746EFF31080E7
:10A4D00000F0010672B6D048C568B5F800C0B7EB09
:10A4E0008C0F01D8698819B106B962B60020CFE790
:10A4F000CA4C01690023803CC7F38F028D4204D10E
:10A50000C46004610FE062B614E0611B80318F42C9
:10A5100012D9C1EB8C0CBC45E6D347F6FF776F80B0
:10A5200089082980C460228063802046FFF7B2FF3B
:10A53000002EE8D02046ABE72A802846FFF7AAFF86
:10A5400006B962B62846A3E710B5B44C022004222F
:10A550002070D4E90101FFF7EEFE002801D00120B0
:10A56000207610BD70B5AD4C28E04888A0F57F423C
:10A57000FF3A29D0E8B109888D0012F5004100D1D9
:10A58000042520694119606800F58050814204D992
:10A59000002211460320FFF705FED4E903102A46E6
:10A5A000FFF7C9FE002813D1E068606120692844E4
:10A5B0002061E068018800EB8100E060D4E90201DD
:10A5C00000F580508142D0D30120207604202070F5
:10A5D00070BD70B5914C22780AB1082070BDC4E9F5
:10A5E0000101012121708C490125497819B92903FC
:10A5F000FFF7B3FE00B12576002070BD70B5864A26
:10A600000C4605461278012A04D000221146104655
:10A61000FFF7C8FD21462846FFF7DCFE00F08CF965
:10A6200018B1BDE8704000F077B9052070BD2DE984
:10A63000F047DB1C089E824623F0030505EB8600ED
:10A6400091468846001DFFF73EFF040029D046B121
:10A6500060190746FF22082102F0A6FA47F6FF70AC
:10A66000F880EF1DB8082080A4F802802A464946E9
:10A67000201D02F087FA27F0030000EB8602154642
:10A6800021465046FFF757FE40B12A462146504624
:10A69000FFF751FE00221146FFF784FD0020BDE8C0
:10A6A000F0870420FBE770B55B4C0022227040EA83
:10A6B0000102120501D0102070BDC4E90101574903
:10A6C00020228039E16021610A8000F042F9606156
:10A6D00020BBA06800F03DF9050023D04FF4805660
:10A6E00031466068FFF739FE38B131466068FFF7E0
:10A6F00034FE00221146FFF755FDA16860686A1A12
:10A70000121DFFF718FE48B1A16860686A1A121D91
:10A71000FFF711FE00221146FFF744FD01202070D3
:10A72000002070BD0B2070BD3B484068704701465B
:10A730004FF4FE204EE610B5374C2078012804D0A7
:10A74000002211461046FFF72DFD0420207061689D
:10A75000081D6061A068FFF73CFF002801D10321BC
:10A76000217010BD2DE9F8432B4C81461746207807
:10A770008846012804D0002211461046FFF712FD3A
:10A78000542F04D9002211461046FFF70BFD207DFF
:10A79000800704D0002211461046FFF703FD6069D0
:10A7A000B0F5FE2F04D8002211461046FFF7FAFC40
:10A7B0004846FFF7BCFF00F0BFF86569064655B193
:10A7C0006168E819083001F58051884207D30022FA
:10A7D000114608201BE0002211460E2017E0012040
:10A7E000607000903B46424649462846FFF71FFFEF
:10A7F00050B9FF1D616927F00300084460617EB114
:10A80000304600F089F858B1002211460420FFF7C5
:10A81000C9FC0020BDE8F88308900020B890002013
:10A8200060696168583001F58051884201D3FFF7B3
:10A8300082FF281DEEE738B50C460546FFF777FF87
:10A8400000F07AF858B101886FF0030202EB81033F
:10A850000021009122462946FFF7E9FE38BD052078
:10A8600038BD01464FF4FE20C8E654480078012860
:10A8700000D00020704751480178012901D140786B
:10A8800008B1002070470120704770B505460C469E
:10A89000012808D14A48844205D38030844202D23C
:10A8A0000846FFF7B9FD2146284600F05DF8444808
:10A8B0008030007800280BD1404C2078032808D045
:10A8C000052805D1606800F044F86061012020701F
:10A8D00070BDD4E90101FFF77CFE0028F8D1052006
:10A8E000F5E736480021364A4170C260026102F144
:10A8F000800051800278002A0DD0037E002B0AD000
:10A900000176012A02D0022A05D11DE640684FF4E3
:10A910008051FFF722BD704710B50446800704D070
:10A92000002211461020FFF73DFC2046BDE81040F4
:10A9300004222449FFF7FFBC48B1B0F5002F06D030
:10A940001E4949684978494200EB81007047002060
:10A95000704710B547F6FF71FFF73CFD002802D0A5
:10A96000BDE81040E8E710BD154A30B48032134608
:10A9700014785B68012C0ED0022C12D0032C1BD053
:10A98000042C06D1012804D15069884201D100204D
:10A99000107030BC70470228FBD18B42F9D130BC1B
:10A9A000D2E50128F5D190688842F2D10321001D3B
:10A9B00011701B1DC2E9030330BCD3E508900020D1
:10A9C00038900020C4CD0700491E03D450F8212040
:10A9D000002AF9D0491C05D000EB8100002250F874
:10A9E000040C03E0002070474008521C0028FBD1F3
:10A9F000480120381044704770B5054600200346D2
:10AA000051F8236052F8234034440444A64205D050
:10AA100002D94FF0010001E04FF0000045F823405B
:10AA200003F10103082BEBD370BD70B50546002080
:10AA30004FEA000351F8236052F82340341B241AD4
:10AA4000A64205D002D24FF0010001E04FF0000015
:10AA500045F8234003F10103082BEBD370BDF0B59B
:10AA60001D681468A0FB0167E0FB0145DDF814C018
:10AA7000A11B75EB0701DCF8000001D2012100E009
:10AA800000210844CCF800001D601460F0BD2DE9E1
:10AA9000FF4706460020174688460390019004466B
:10AAA00005460DF108098246029001E000250CE000
:10AAB000601BCDF8009057F8201058F8250001AB26
:10AAC00003AAFFF7CCFF50466D1CA542F0D90399AD
:10AAD00046F82410019903910299CDE90110641CF4
:10AAE000082CE3D30824CA460125814601E0E51F6E
:10AAF0000CE0601BCDF800A057F8201058F8250096
:10AB000001AB03AAFFF7ABFF48466D1C082DF0D33D
:10AB1000039946F82410019903910299CDE9011097
:10AB2000641C0F2CE3D30398F063BDE8FF87F0B5F6
:10AB300089B00C46064600F0D0FB00250295019531
:10AB40000095E06A0390206B0490606B0590A06B09
:10AB50000690E06B6A46114607900846FFF74CFFE7
:10AB6000074631466A460846FFF746FF0744206B12
:10AB70000390606B0490A06B0590E06BCDE9060537
:10AB80006A4611460846FFF737FF074431466A46D2
:10AB90000846FFF731FF0744206A0090606A019081
:10ABA000A06ACDE9020505950495A06B0690E06BBF
:10ABB000314607906A460846FFF71EFF0744606A61
:10ABC0000090A06A0190E06A0290606B0390A06B15
:10ABD0000490E06B0590606B0690206A3146079008
:10ABE0006A460846FFF708FF0744E06A0090206BBA
:10ABF0000190606BCDE9020505950495206A0690E9
:10AC0000A06A314607906A460846FFF70EFF3F1AD2
:10AC1000206B0090606B0190A06B0290E06B05953B
:10AC2000CDE90305606A0690E06A314607906A46FE
:10AC30000846FFF7FAFE3F1A606B0090A06B019088
:10AC4000E06B0290206A0390606A0490A06ACDE9EC
:10AC50000505206B314607906A460846FFF7E5FE7A
:10AC60003F1AA06B0090E06BCDE90105606A03908C
:10AC7000A06A0490E06ACDE90505606B3146079053
:10AC80006A460846FFF7D1FE3C1A0ED53146FC4A0B
:10AC90000846FFF7B1FE0419F8D409B0F0BD3146FB
:10ACA000F74A0846FFF7C1FE241A002CF7D13146B7
:10ACB000F34800F01BFB0128F1D1EEE770B5054623
:10ACC000A0B014460E46084600F0F2FA20B128461D
:10ACD00000F0E6FA20B070BD3146684600F0FDFA9B
:10ACE000214608A800F0F9FA10A800F0D9FA0120CE
:10ACF000109018A800F0D4FA68E00099C9072ED087
:10AD00000899C90731D0002837DD694608AA0846E6
:10AD1000FFF78BFE684600F0FCFA18A910A800F0B7
:10AD2000E5FA002804DA10A922460846FFF764FE77
:10AD300010A918AA0846FFF778FE1098C00712D08D
:10AD400010A922460846FFF757FE064610A800F055
:10AD5000E0FADEB3179840F00040179036E06846FE
:10AD600000F0D7FAE9E710A804E008A800F0D1FA4B
:10AD70001BE018A800F0CDFA28E008A96A460846AA
:10AD8000FFF753FE08A800F0C4FA10A918A800F0B5
:10AD9000ADFA002804DA18A922460846FFF72CFE6F
:10ADA00018A910AA0846FFF740FE1898C007E0D07F
:10ADB00018A922460846FFF71FFE064618A800F00D
:10ADC000A8FA1EB11F9840F000401F9008A96846DD
:10ADD00000F08CFA002890D110A9284600F07DFAE6
:10ADE00078E7F0B5044691B00E461546104600F0DF
:10ADF0005FFA00287ED132461146684600F0BAFA62
:10AE00006A46214608A800F0B5FA6A461146084687
:10AE100000F0B0FA31462A46084600F0ABFA2A465E
:10AE20001146084600F0A6FA2146954B2A460846E8
:10AE300000F07DFA2A461146914B084600F077FA59
:10AE40002A468F4B2146104600F085FA21462A46B5
:10AE5000084600F08FFA2246894B1146284600F03A
:10AE600066FA2146864B2A46084600F060FA002121
:10AE7000204600F029FA68B12146814A0846FFF7CA
:10AE8000BBFD0746204600F044FAE06940EAC7707F
:10AE9000E06102E0204600F03CFA224611462846D6
:10AEA00000F068FA2946764B08AA084600F053FAE3
:10AEB0002946734B08AA084600F04DFA08A9704BC2
:10AEC0002A46084600F047FA214608AA084600F03C
:10AED00051FA6A466A4B2146104600F03CFA294670
:10AEE000204600F0FAF93146284600F0F6F96946A6
:10AEF000304600E001E000F0F0F911B0F0BD70B5AF
:10AF000088B00E46044615461146684600F032FAEF
:10AF100021466A46084600F02DFA69462A46084648
:10AF200000F028FA31466A46084600F023FA08B0D5
:10AF300070BDF0B5174689B01E460C460546024660
:10AF40004F4B3946684600F006FA6A4611460846F5
:10AF500000F010FA29466A46084600F00BFA394616
:10AF60006A46084600F006FA3146454B2246084636
:10AF700000F0F1F932461146684600F0FBF96946E7
:10AF80003F4B2A46084600F0E6F969463C4B3A46F4
:10AF9000084600F0E0F93946394B2A46084600F0E9
:10AFA000DAF921463A46084600F0E4F9344B6A469D
:10AFB0002946384600F0CFF931463A46084600F0B7
:10AFC000D9F931462E4B2246084600F0C4F96946AD
:10AFD000384600F082F960E62DE9F047BCB08146C2
:10AFE0002AA8139019A81490FFF751FD244908A826
:10AFF0006031824600F071F9684600F051F9012491
:10B0000000250DF14C0800BFC4F1010158F824706F
:10B0100058F8213000216E464FEA010057F820C051
:10B0200056F82020ACEB0202521A944505D002D209
:10B030004FF0010101E04FF0000143F8202000F142
:10B0400001001028EAD38C4201D1012400E0002441
:10B05000304600F05EF9DDE9070140EAC170079073
:10B06000504600F056F96D1CB5F5807FCCDD58F8E0
:10B070002410484600F031F93CB0BDE8F0870000EC
:10B08000C8CD0700F0B5F9B00F46002406460146CA
:10B090001546519420A8619400F078F906F120013A
:10B0A00028A8064600F072F929464AA800F06EF971
:10B0B00005F120015AA800F069F94AA800F0F8F853
:10B0C00000287CD15AA800F0F3F80028F9D14AA949
:10B0D000B74800F00BF90128F3D15AA9B44800F0A1
:10B0E00005F90128EDD1B24A5AA96846FFF7E6FDF5
:10B0F000394641A8489400F049F941A96A460846F2
:10B10000FFF76AFF6A464AA962A8FFF765FF20A910
:10B1100008A800F0E2F810A83146044600F0DDF877
:10B12000A34939A8403900F0D8F8A14952A82039DC
:10B1300000F0D3F89E4B39AA603B08A9684600F09E
:10B140000AF9234608AA52A939A8FFF7F2FE984A3D
:10B150006946603A0846FFF7B1FD6A46214608A8ED
:10B16000FFF7CDFE92492031D1E90001CDE96A0116
:10B1700020A86C9008A86D90082141A8FFF724FC36
:10B180000446082162A8FFF71FFC844200DD204628
:10B190000446411E41A800F097F808B1012500E0DF
:10B1A0000025611E62A800F08FF800B1012045EA79
:10B1B00040006AAE56F8205018A8294600E06AE020
:10B1C00000F08BF805F1200131A800F086F8684600
:10B1D00000F066F801200090A41E39D46A4631A917
:10B1E00018A8FFF7FEFD214641A800F06DF808B150
:10B1F000012500E00025214662A800F065F800B1B5
:10B20000012045EA400056F82050FDB1294639A8F2
:10B2100000F063F805F1200152A800F05EF86A46DC
:10B2200052A939A8FFF76BFE614B39AA603B18A9F8
:10B230006EA800F090F831AB18AA52A939A8FFF710
:10B2400078FE69466EAA084600F094F8641EC5D5DB
:10B25000574A6946603A0846FFF730FD6A4631A909
:10B2600018A8FFF74CFE18A9514800F03FF8012834
:10B2700004D018A94E4A0846FFF7D7FB002118ABA7
:10B280004AAA072053F8204052F820506C4021432E
:10B29000401EF7D511B1002079B0F0BD0120FBE7C9
:10B2A00000210A4640F82120491C0829FAD370479A
:10B2B0005FF0000150F821200AB100207047491CBE
:10B2C0000829F7D3012070474A1150F8220001F0F5
:10B2D0001F020121914008407047002251F822309E
:10B2E00040F82230521C082AF8D3704710B50722C4
:10B2F00050F8223051F82240A34202D94FF0010009
:10B3000010BD02D24FF0FF3010BD521EF0D500200C
:10B3100010BD002200F1200104E00B6842EA530254
:10B320000A60DA070B46091F8342F6D8704770B5EA
:10B330001C460546FFF760FB28B921462846FFF763
:10B34000D5FF002806DB29462246BDE870400846A6
:10B35000FFF76BBB70BD70B51C460546FFF765FB7C
:10B36000002806D029462246BDE870400846FFF76F
:10B3700043BB70BD10B590B004466846FFF787FB2D
:10B3800069462046FFF7D3FB10B010BD10B5002270
:10B39000C2F1070301EB83031C68DB7824BA24F0B5
:10B3A000FF041C4340F82240521C082AF0D310BD71
:10B3B00028CE070010B50420FFF7B9F9FA4C206138
:10B3C0000220FFF7B4F920601220FFF7B0F9E06027
:10B3D0001120FFF7ACF9A0601020FFF7A8F960601A
:10B3E0000120FFF7A4F9606121694FF4FE2081423A
:10B3F0000BD32168814208D3E168814205D361689B
:10B40000814202D3A168814204D2BDE810400820E5
:10B41000FEF785BF10BD01468068421C00D10020A8
:10B42000CA6800F00F0000EB82000122401E098A6A
:10B4300002EB101009B100EB1110B0F5803F01D301
:10B440004FF6FF70704710B58AB060248DF8004049
:10B45000CDE90101D54C8DF80C208DF80D306078C8
:10B460008DF80E006846FEF797FE6078401CC0B26B
:10B470006070E178884201D3012060700AB010BD8D
:10B4800030B5C94DA5B06869E8B3A5F17404E069A9
:10B49000002839D06846FDF7E8FE0122611D6846A4
:10B4A000FDF7FCFE042204F110016846FDF7F6FEEC
:10B4B000042204F118016846FDF7F0FE00208DF823
:10B4C0009000012224A96846FDF7E8FE607904F1A6
:10B4D000660101281AD0022818D0042803D10A22B4
:10B4E0006846FDF7DBFE684601F02BF800221CA938
:10B4F0006846FDF7FDFEAC4A1CA9543A6869FFF79F
:10B50000C1FD002800D0012025B030BD0222E7E7B0
:10B51000F0B58FB005461821684601F04CFBFF27B7
:10B5200002260024681E022824D89F494FF6FD7089
:10B53000ADF8000074399DF803000A7991F8713074
:10B5400062F3020063F3C3008DF803000B680193FC
:10B55000964B1B78072B17D020F010008DF80300B6
:10B5600051F8660F0290486803900889ADF8100002
:10B5700002B1012628006D4609D0012813D0022807
:10B5800018D003281ED136E040F01000E6E74FF651
:10B59000FE70ADF80000844810240E220168A81C3B
:10B5A00001F0F0FA0EE09DF80200122420F00F00E6
:10B5B000001D05E09DF802000A2420F00F00401C49
:10B5C0008DF8020060208DF81800CDE907548DF841
:10B5D00024608DF8257000208DF8260006A8FEF75F
:10B5E000DBFD61208DF81800CDE9075406A8FEF7B1
:10B5F000D3FD0FB0F0BD9DF802000A2420F00F002B
:10B60000801CDDE770B5684B0024743B05461C7157
:10B610009C614FF6FF709C60A3F86200A3F8644041
:10B6200083F87040DC611C605D712A4603F166009E
:10B6300001F04AF95D4902200870284600F050FDEB
:10B64000BDE8704064E72DE9F0475849A8B00420F0
:10B6500008700146FF22684601F0A6FA524C743C7D
:10B660006079012804D0022849D0042808D103E0D9
:10B67000009820F0010002E0009820F00400009003
:10B68000D4E90201DFF820914FF00108814269D02E
:10B690002120FFF74CF815902220FFF748F816906C
:10B6A0002420FFF744F84FF0FF36002515AF179020
:10B6B00057F82500E0B103C8A369E26801F010FA69
:10B6C00080B108FA05F000F1200A1FFA8AF0FFF7AE
:10B6D000C8F838B11FFA8AF0FFF7C3F80022114604
:10B6E000FEF760FD57F825000068B04200D206461C
:10B6F0006D1C032DDCD3A169E06801442EE00098A5
:10B7000020F00200BBE70268521C26D0D9F80430B2
:10B710004D461A68824207D25B681A44824203D9B6
:10B72000009A22F001020092AB681A68824207D2A6
:10B730005B681A44824203D9009A22F00202009206
:10B74000D9F80C301A68824207D25B681A448242E8
:10B7500003D9009A22F004020092001D814201D90F
:10B76000B042D0D3104DD4E902010E3D88420CD135
:10B77000D9F810004E46D8B169460420FFF75BF8AF
:10B7800018B160792946FFF73DFF94F87030D4E98D
:10B790000201A26900F0BAFD88B160792946FFF77D
:10B7A00031FF28B0BDE8F0874891002020900020AC
:10B7B000042269461046FEF7D5FF3061E5E76220B6
:10B7C0008DF8780000208DF87C001EA8FEF7E4FCC0
:10B7D00023208DF854008DF8588060798DF8590039
:10B7E000D4F86600CDF85A00D4F86A00CDF85E00AF
:10B7F000B4F86E00ADF8620015A8FEF7CDFCD0E7F6
:10B800002DE9F047FF4C064600256079894604F192
:10B810007408012811D0022812D004280AD000226E
:10B8200011460620FEF7BEFCB0682061B768781CA0
:10B8300009D009E0D8F80C50F6E7D8F80450F3E73F
:10B84000D8F80850F0E72F683046FFF7E4FDA4F879
:10B850006200A4F86400A760F06810218000A06175
:10B86000308AE061B07CC0F3C00084F87000002032
:10B87000606184F86000E3489C3001F09CF901F0BD
:10B8800025F9E0684FF01021421C06D0A2694969F1
:10B890001044884216D90C201EE06079022801D09D
:10B8A000A0680EE0D8F80C00D0E9002010444A69E6
:10B8B000824200D24869A1696FF30B01401AA0F5DA
:10B8C0008050E060D4E9020290420BD0A1690B469F
:10B8D00001F006F930B10D20FEF721FDBDE8F0477B
:10B8E00000F061BCA168286881420BD3A2691144B1
:10B8F0006A681044814205D8FFF7A5FE012189F846
:10B9000000104FE7706801F0AEF86079BDE8F047CD
:10B91000BC49663176E62DE9F74FBA4C0646DFF8AA
:10B92000E8A2B4F86400E26988B0A0EB1213708852
:10B93000A1F1080506F108074FF001094FF0000BCF
:10B9400083420FD39AF80420904201D18AF804B0C0
:10B95000A16801F045F8AAB2394600F00FFD0700D2
:10B9600065D11BE0C01A401EB0EB121F06D294F83E
:10B97000602009FA00F812EA080F01D0082756E003
:10B9800004EB00102A463946203001F0FBF894F809
:10B990006000002740EA080084F86000B4F86410F2
:10B9A0007088623400F0AAFB20885D46401E24F8AF
:10B9B00062090A99D04681F80090CDF800B0CDF820
:10B9C00004B09AF8040070BB01AA6946606900F0EF
:10B9D00085FD40B3A06820F00F010098401A65EB88
:10B9E00005050009718840EA0570401CA1F10102BB
:10B9F000904203D3B4F864208A4218D14FF6FB7109
:10BA0000ADF80810ADF80A00206803900323012266
:10BA1000082102A8FFF717FD00986061BDF80A0031
:10BA200010B1012101E002E0002188F804100BB000
:10BA30003846BDE8F08F2DE9F041724C8846054646
:10BA4000406821688AB088427BD1284601F016F808
:10BA5000002876D16C4E00278DF8007030780328CE
:10BA600007D0042815D0012707282CD008285DD13D
:10BA70004EE0688840B1206800F0F5FF61496079C8
:10BA80006631FFF7BFFD51E069462846FFF7B8FE73
:10BA90004CE0688840B1B4F86410884204D86A4623
:10BAA00041462846FFF737FFB4F8620078BB7020A4
:10BAB0008DF804005548CDE9027001A8FEF76CFB33
:10BAC0000520307032E0688820B92846FFF7A3FCD3
:10BAD000A4F86400082030700020FEF765FC2320E5
:10BAE0008DF8040002208DF8080054F8660FCDF898
:10BAF0000A006068CDF80E002089ADF8120014F835
:10BB0000610C8DF8090001A8FEF746FB0CE00DE082
:10BB1000688820B92846FFF77EFCA4F86400B4F8D2
:10BB20006410688800F0EAFA8DF80070284600F08A
:10BB3000BCFF9DF80000002803D04146284600F0D5
:10BB4000EAFA0AB0BDE8F0812DE9F0472E4E02274F
:10BB50002C4D32788AB0044600F1080A4FF02208D2
:10BB6000012A2DD0294601F166094979022A5BD0C4
:10BB7000032A59D0072A55D1A07800F00F0081423E
:10BB800050D10A465146484600F0AEFE002849D042
:10BB9000E178287901F00701884204D342D128686E
:10BBA000616888423ED260682860E07800F0070053
:10BBB0002871687900F094FA0AB0BDE8F047A7E46C
:10BBC000E07840072ED0A07800F00F006871A068E0
:10BBD000C5F86600E068C5F86A00208AA5F86E001E
:10BBE000204600F0ADFEE0B321208DF80000A078E3
:10BBF00000F00F008DF8050030788DF80400A07873
:10BC000006E00000D49000202090002080841E00D8
:10BC100000F00F0251460DF1060000F055FE684697
:10BC2000FEF7BAFA0AB0BDE5E0782A7900F007001D
:10BC3000904204D8F6D160682A689042F2D94A4608
:10BC4000204600F0B6FE18B9204600F079FEA0B1FB
:10BC5000A07800F00F006871A068C5F86600E06881
:10BC600000E016E0C5F86A00208AA5F86E000AB068
:10BC70002046BDE8F04700F0A4BAA0786A7900F049
:10BC80000F00824205D14946504600F041FE00288F
:10BC9000C8D18DF800808DF80470A07800F00F00F6
:10BCA0008DF80600A068CDF80700E068CDF80B001D
:10BCB000208AADF80F0030788DF80500E07800F0AC
:10BCC00007008DF8110060680590A8E7F0B50546FB
:10BCD0004168FF4887B0006881424ED1FD4F3878F7
:10BCE000082811D00024FA4EB5F8021020469C36E0
:10BCF00036F820208A4213D106EB80046088411C6C
:10BD00006180082839D30EE0284600F0B7FE0028ED
:10BD100033D107B02846BDE8F040082100F0FBB958
:10BD2000401C0428E4D3EA4869888068012904D0CB
:10BD300020F00F0000EB01101038102202A900F0D3
:10BD40009CFB70B14FF6FA70ADF800006888ADF852
:10BD50000200686801900323002218216846FFF75B
:10BD600072FB44B9B87800F00301401C06EB810473
:10BD7000B870688820800020608007B0F0BD70B582
:10BD8000D44C0546002020707421D14800F013FFE8
:10BD9000CF4810219C3000F00EFF0020A070E5700D
:10BDA000BDE87040FFF706BB10B57421C84800F02D
:10BDB00002FFFFF7FFFA00F0B9F900F078FD002864
:10BDC00003D1BDE8104000F0EEB910BDC14B10B575
:10BDD0001B78012B01D0082010BD4FF010235B69A8
:10BDE000934203D8531C01D0102010BDB84BDA6029
:10BDF000FFF708FC002010BDB64B10B51C78012CD5
:10BE000003D0022C01D0082010BD07241C70B04CB8
:10BE100060712260024604F1660000F055FD607911
:10BE200000F05EF9FFF774FB002010BD70B50288CA
:10BE3000A2F57F42FA3A052A28D2DFE802F00F0C79
:10BE40000906030000F0E9F920E0FFF77DFE1DE0A0
:10BE5000FFF7F1FD1AE0FFF739FF17E004469D48B0
:10BE60000D46007808282046F2D100F007FE68B998
:10BE70009748B0F86410B0F86200081A401C80B20D
:10BE800000F03CF92946204600F045F9002070BD3D
:10BE9000F0B58F4DABB074350E2215A8296800F0AF
:10BEA00071FE8B4C002704F12006D4E90201814287
:10BEB00035D0FF225421684600F076FE627904F105
:10BEC000660102A800F000FDA0690190E068009002
:10BED000FF208DF8130000208DF81200E069142275
:10BEE00040B14022314605A800F04CFE01208DF8FB
:10BEF00012005422607901280ED0022807D00428AD
:10BF000002D00B202BB0F0BD6946242001E0694629
:10BF10002220FEF727FC42E069462120F9E7286944
:10BF200020B9002211460E20FEF73CF9286900686E
:10BF300000906079012812D0022837D0042817D148
:10BF4000D4F866001690D4F86A001790B4F86E0022
:10BF5000ADF8600000981C2740F0040007E0B4F83A
:10BF60006600ADF8540000981A2740F001000090D8
:10BF7000E06920B1402231463846FEF7F3FB02204B
:10BF8000401C0E28FCD30E2215A90220FEF7EAFB66
:10BF90000422286069461046FEF7E4FB28614D49FB
:10BFA00006200870FEF7C7FB0020ABE7B4F8660078
:10BFB000ADF8560000981B2740F00200D7E745482F
:10BFC00010B5007809281FD2DFE800F01E0507072A
:10BFD00009111E1C1C00012010E005200EE03C4849
:10BFE0003B494079BDE810406631FFF70BBBFFF7D6
:10BFF00047FA10B1BDE810404AE70420BDE8104000
:10C00000FEF78DB90020F9E710BD70B50220FEF7EC
:10C010008EFB06460420FEF78AFB04461020FEF73E
:10C0200086FB05461220FEF782FB318831B121786C
:10C03000C9070CD029680968491C08D0217849072C
:10C0400007D500680068401C03D0002070BD0120A7
:10C0500070BD042070BD10B50220FEF768FB80B1F2
:10C060001B497431C96809684A1C0AD00968491C0F
:10C0700007D0D0F80A0020B100F0E5FC08B101209B
:10C0800010BD002010BD00F08EB800B5114889B079
:10C090000078062822D1FEF7EEFB00281ED02520CE
:10C0A0008DF8000001208DF80400094800F16601B8
:10C0B00042798DF805200DF1060000F005FC684678
:10C0C000FEF76AF800F049FAFFF774F904E000009F
:10C0D000D490002020900020FFF766FE09B000BD3C
:10C0E000012809D0022805D0042801D0002070477B
:10C0F00001207047032070470220704700B589B0C7
:10C100002422ADF804008DF80020ADF80610684632
:10C11000FEF742F8E2E710B5044603230022FFF7DA
:10C1200092F92046BDE8104000F0BFBCF0B561496F
:10C1300091B00BAED1E90001CDE90B015EA0006822
:10C1400010905E480068811CCDE90D10001D002490
:10C15000CDF83C0036F81400FEF7E9FA05001DD0D2
:10C1600002208DF8080010AF05F108013A5D8DF846
:10C170000C200DF10E0000F0A7FB0DA83A5D50F861
:10C18000241006A800F0A0FB2868099068680A90AF
:10C19000A87C8DF80D0002A8FDF7FEFF641C032C9F
:10C1A000D8D311B0F0BD10B50020FFF7B1F9444964
:10C1B0000120087041487421BDE81040743800F037
:10C1C000FABC70B5044600883C4DA0F57F41743D33
:10C1D000FD3908D1E078400705D0A078697900F0F2
:10C1E0000F00884204D0002211460720FDF7DAFF35
:10C1F00060682860E078324900F007002871E07834
:10C20000C0F3C00085F87100032008706879FFF75B
:10C2100067FFBDE87040FFF77BB970B5284D044655
:10C220008AB02878012830D1A088ADF800000098A5
:10C2300000F0F7FB212658B102208DF800608DF840
:10C24000050020798DF8060060798DF8070016E06A
:10C25000A01D00F0CFFB002817D06088A0F57F411B
:10C26000FE3914D015490968098888420FD0012089
:10C270008DF800608DF805006088ADF8060028781C
:10C280008DF804006846FDF787FF0AB070BD0420F2
:10C290008DF800608DF8050028788DF8040054F8BA
:10C2A000060FCDF806006068CDF80A002089ADF8C9
:10C2B0000E00E7E758CE0700020104004891002075
:10C2C0002090002010B5B94C218E814210D30A1A5B
:10C2D000D1170020D2F1400388410BD30120002167
:10C2E00000F041FCD4E9062310401940084301D076
:10C2F000012010BD002010BD10B53821AB4800F062
:10C300005AFCAA494FF6FF70088610BD2DE9F04788
:10C310009946164688460546FFF7EEFF701920F04D
:10C320000F0025F00F01401AC0F30F1745EA08006F
:10C33000000502D01020BDE8F0879C4CB8F1000F3A
:10C340001AD0C4F8048000BF06F6FF70010B6068C5
:10C3500009036FF30B00FEF700F82560278184F8CE
:10C360000A900021C4E90611C4E903654FF6FF7085
:10C37000608621860846DEE76560E5E72DE9F74F30
:10C380008A4C06464FF6FF70218E934681424BD071
:10C39000310708D12168B14205D8E2688B1806EB55
:10C3A0000B02934202D21020BDE8FE8FBBF1100FAA
:10C3B00002D85FEA8B7201D00920F5E7628E8242D3
:10C3C00001D01120F0E721F00F010020711A60EB7D
:10C3D0000000020742EA1110401C87B23846FFF7FE
:10C3E00071FF08B37148008EB8422ED2381A82B25B
:10C3F0006E4D90460120002100F0B5FBB0F101091F
:10C4000041F1FF31D5E906454020D8EB00028A46CC
:10C41000484600F0A8FB20402940084306D00320EE
:10C4200000F0BEF80520BFE70820BDE742462046E1
:10C43000294600F098FB40EA090020F001025B4821
:10C4400041EA0A01C0E906210786584C5A4604F120
:10C45000200067860546019900F094FBD4E900109E
:10C46000711A08445A462946FDF765FF00289BD0FB
:10C47000072000F095F8032096E72DE9F0414B4C9A
:10C480000D461646218EA1F57F42FF3A11D0226853
:10C49000002322F00F02801A63EB0303000940EA35
:10C4A0000370401C87B2B94203D33846FFF70AFF36
:10C4B00010B10020BDE8F08165B15EB1012F0BD055
:10C4C000606820F00F0000EB071110393246284653
:10C4D00000F058FB0120EDE76168F7E72DE9F74F21
:10C4E000824632488B46018EA1F57F428846FF3A4C
:10C4F00025D0D0E9064607683F2527F00F092A46D0
:10C500000120002100F02FFB04EA000206EA0100EE
:10C51000024312D0A8EB050080B201280BD009EB32
:10C5200000101038504508D3CBF8000002981021B5
:10C530000160012038E73846F4E76D1EDFD50020A2
:10C5400032E71A490A8EA2F57F43FF3B03D0CA683F
:10C550004968FCF7A3BE0820704710B5382113487E
:10C5600000F029FB11494FF6FF70088610BD0F49F6
:10C5700010B52031884212D10C48012490F83010B7
:10C5800090F832208B1AF0E906129C40E3431940E0
:10C5900002EAE372C0E900124FF6FF71418310BD59
:10C5A000024A4FF6FF711186FDF7B9BE8091002057
:10C5B0002DE9F043C14DC3B06C68002C1AD0542251
:10C5C000214604A800F0DEFAE17C01264FF00009C4
:10C5D000F8297CD0FC291DD02846FE2900780CD0F3
:10C5E000FF2907D16E70FE218DF8231004A9203099
:10C5F000FEF721F943B0BDE8F0834FF0FC080128B5
:10C6000030D0022812D004284ED0002211460B2030
:10C61000FDF7C8FD0220FEF78AF880460420FEF7E9
:10C6200086F80746B8F1000F7ED090E01120FEF7A3
:10C630007EF80168D4E9000200F0C8FA68B1CDF8CC
:10C64000649020681A90606880081B9019A818DF11
:10C650000028CFD019A818DF1DE08DF8238004A989
:10C6600022201EE01020FEF762F80168D4E90002E3
:10C6700000F0ACFA00285FD0199620681A90606824
:10C6800080081C904FF480501B9019A818DF0028D8
:10C69000B0D019A818DF00224FEA0201FDF782FD91
:10C6A000A8E7FEF7C8F8B5E7FDF789FEA0B14FF09F
:10C6B0000F1034DF002108463ADFBFF34F8F804868
:10C6C0000168804A01F4E0611143016000E081E00B
:10C6D000BFF34F8F00BFFDE71220FEF728F80700D9
:10C6E00004D1002211461046FDF75CFD3888000594
:10C6F00004D0002211461046FDF754FD50208DF85D
:10C70000640038681A90606800F6FF706FF30B00E1
:10C710001B9019A8FDF740FD98BB51208DF86400CF
:10C7200020681B90606800E00CE01C9038681A904C
:10C7300019A8FDF731FD20BB8DF82380287804A9C6
:10C740002030AEE7002211461046FDF72BFD0E22E9
:10C7500041462EA800F016FA38681990287801286A
:10C7600007D002280ED004283BD0002211460B200F
:10C7700094E72089ADF8B80019981A2740F0010015
:10C780000AE02CE0207A8DF8BA00607A8DF8BB00C0
:10C7900019981B2740F0020019900E222EA90220A2
:10C7A000FDF7E0FFD8B1A07C30B1402204F11401C4
:10C7B0003846FDF7D7FF90B1042219A91046FDF7BE
:10C7C000D1FF60B1F8208DF82300287804A920302B
:10C7D000FEF731F828782030FEF743F878B16E7014
:10C7E00008E7A0682F90A089ADF8C000D4F80E002B
:10C7F000CDF8C20019981C2740F00400CCE7C5F81A
:10C800000490F7E670B52D4E0546012404F1200092
:10C8100080B2FDF78CFF50B1C17CFF2907D0347086
:10C820007060FFF7C5FE002D09D0012006E064000E
:10C83000042CEBD900207060002D00D0287070BD52
:10C8400070B50446012805D0042C03D0022C01D079
:10C85000072070BD194D686808B1082070BD04F14B
:10C860002000FDF764FF48B101680968491C05D044
:10C870002C706860FFF79CFE002070BD052070BD25
:10C8800010B52030FDF753FF10B1C07CFF2801D058
:10C89000002010BD012010BD08484168002905D0C6
:10C8A0004178002902D00021417081E67047034899
:10C8B0004068002800D00120704700002890002028
:10C8C0000CED00E00400FA05012A0AD0022A08D083
:10C8D000042A05D10A6802604A6842600989018118
:10C8E000704709880180704710B5012A08D0022AD4
:10C8F00002D0042A0AD10A2200F068F920B105E02A
:10C9000000880988884201D1012010BD002010BD97
:10C91000012A0DD0022A0ED0042A0FD182888B88DA
:10C920009A420BD100680968884207D101207047FC
:10C9300000880988F8E700780978F5E70020704753
:10C9400010B504460220FDF7F2FEA17801F00F01B8
:10C95000012919D002290ED004291BD1A1890289ED
:10C96000914217D1A1684268914213D1D4F80E10B8
:10C97000D0F80A0005E0217A827891420AD1617AE2
:10C98000C078814204D805E021890088814201D124
:10C99000012010BD002010BD584A002152F821305E
:10C9A000834201D101207047491C0829F6D3002099
:10C9B000704770B5044680780D4600F00F001646AB
:10C9C000A84200D01DB96068FFF7E6FF08B100205B
:10C9D00070BD2A46314604F10800BDE8704083E787
:10C9E000012805D0000121F00F01103808447047DC
:10C9F0000846704710B504460220FDF798FEA1884E
:10CA0000028991420BD121684268914207D1D4F842
:10CA10000610D0F80A00814201D9012010BD002083
:10CA200010BD10B504460220FDF781FE8278E1B208
:10CA3000914206D1C078C4F30721814201D9012077
:10CA400010BD002010BD10B50420FDF770FE30B100
:10CA50000068C10705D0410703D5800701D5012033
:10CA600010BD002010BD264A10B51178234C01F0EE
:10CA70000703491C44F82300117010BD30B51F4A4C
:10CA80000021038812F1200232F821409C4207D194
:10CA900002EB810445886488AC4201D1012030BD9D
:10CAA000491C1029F0D3002030BD30B5144A134B77
:10CAB00005885168203301F00F04491C23F82450E5
:10CAC00003EB840340885880516030BD0B4810B59B
:10CAD0004021203000F06FF809490020486010BD67
:10CAE000904202D31344834204D8824204D30844C0
:10CAF000904201D30120704700207047B891002078
:10CB0000309000202DE9F05F0546002092469B46BC
:10CB100088460646814640241BE028464146474653
:10CB2000224600F060F853465A46C01A914110D38D
:10CB300011461846224600F016F82D1A67EB010838
:10CB40004F4622460120002100F00DF817EB0009A6
:10CB50004E41201EA4F10104DFDC484631462A463E
:10CB60004346BDE8F09F202A04DB203A00FA02F198
:10CB7000002070479140C2F1200320FA03F31943CB
:10CB80009040704740EA01039B0703D009E008C9C1
:10CB9000121F08C0042AFAD203E011F8013B00F882
:10CBA000013B521EF9D27047D2B201E000F8012BCE
:10CBB000491EFBD270470022F6E710B513460A461D
:10CBC00004461946FFF7F0FF204610BD30B5044675
:10CBD0000020034600E05B1C934203D2E05CCD5C86
:10CBE000401BF8D030BD202A04DB203A21FA02F0A5
:10CBF0000021704721FA02F3D040C2F12002914097
:10CC00000843194670470000064C074D06E0E068EF
:10CC100040F0010394E8070098471034AC42F6D383
:10CC2000FBF7F2FB60CE0700A0CE070002E008C8C9
:10CC3000121F08C1002AFAD170477047002001E096
:10CC400001C1121F002AFBD1704782680169C068C8
:10CC50001144814201D1012070470020704700003B
:10CC600002000000000000000000000000000000C2
:10CC7000982F8A4291443771CFFBC0B5A5DBB5E947
:10CC80005BC25639F111F159A4823F92D55E1CABBB
:10CC900098AA07D8015B8312BE853124C37D0C5549
:10CCA000745DBE72FEB1DE80A706DC9B74F19BC191
:10CCB000C1699BE48647BEEFC69DC10FCCA10C2481
:10CCC0006F2CE92DAA84744ADCA9B05CDA88F97665
:10CCD00052513E986DC631A8C82703B0C77F59BFCF
:10CCE000F30BE0C64791A7D55163CA0667292914FB
:10CCF000850AB72738211B2EFC6D2C4D130D385398
:10CD000054730A65BB0A6A762EC9C281852C729259
:10CD1000A1E8BFA24B661AA8708B4BC2A3516CC787
:10CD200019E892D1240699D685350EF470A06A10C0
:10CD300016C1A419086C371E4C774827B5BCB0340F
:10CD4000B30C1C394AAAD84E4FCA9C5BF36F2E68AD
:10CD5000EE828F746F63A5781478C8840802C78C3C
:10CD6000FAFFBE90EB6C50A4F7A3F9BEF27871C63F
:10CD7000020000001A0000005000000051000000F6
:10CD800000000000000000000000000000000000A3
:10CD90000000000000000000000000000000000093
:10CDA0005000000000000000000000000000000033
:10CDB0000000000000000000000000000000000073
:10CDC00000000000FFFF0000FFFFFFFFFFFFFFFF6D
:10CDD000FFFFFFFF00000000000000000000000057
:10CDE00001000000FFFFFFFF96C298D84539A1F46B
:10CDF000A033EB2D817D0377F240A463E5E6BCF818
:10CE000047422CE1F2D1176BF551BF376840B6CBE2
:10CE1000CE5E316B5733CE2B169E0F7C4AEBE78EDE
:10CE20009B7F1AFEE242E34F512563FCC2CAB9F36D
:10CE3000849E17A7ADFAE6BCFFFFFFFFFFFFFFFFD1
:10CE400000000000FFFFFFFF00000000E8CD07002A
:10CE5000000000000000000022002100240000006B
:10CE6000A0CE0700040000203C0000002CCC0700EE
:10CE7000DCCE070000900020380000002CCC07001A
:10CE8000DCCE070040000020082900003CCC070051
:10CE900014CF070038900020E00100003CCC0700D0
:10CEA0000000000000000000000000000000000082
:10CEB0000090D0030000000003000000D6BE898E61
:10CEC0000000000000000000000000000000000062
:10CED000910700200000000000000000000000009A
:10CEE0000000000000000000000000000000000042
:10CEF0000000000000000000000000000101000030
:10CF00000000000000000000000000000000000021
:04CF1000000000001D
:020000041000EA
:041014000080070051
:04000005000784016B
:00000001FF
