:020000040003F7
:10A00000800F002039AC03004BAC03000FA103000C
:10A010000000000000000000000000000000000040
:10A020000000000000000000000000004FAC030032
:10A03000000000000000000051AC030053AC03001E
:10A0400055AC03005FA3030055AC030055AC0300FF
:10A0500055AC03000000000055AC030055AC0300F4
:10A0600055AC030055AC030055AC030065A50300D7
:10A0700055AC030055AC030055AC030055AC0300D0
:10A0800055AC030055AC030055AC030055AC0300C0
:10A090001FA3030055AC030055AC0300E1A503006A
:10A0A00055AC030055AC03000000000000000000A8
:10A0B00000000000000000000000000000000000A0
:10A0C0000348854604F014F90048004715A1030031
:10A0D000800F0020056885F308884068FF2464B27B
:10A0E000EFF30585002D01D1A6460047254606461B
:10A0F00021273FBAF0B40024002500260027F0B441
:10A10000F92040B20047000072B600BEFEE772B60A
:10A1100000BEFEE71C4B9D681A0501211B48002468
:10A12000002D04D111600568002DFCD004605B692E
:10A13000002B04D191604368002BFCD04460116176
:10A14000C1680029FCD0C46011490868FF221204CC
:10A1500090430122D205104308600E495010086058
:10A1600062B600F0F7FB00E020BF03F065FE0028B8
:10A17000FAD1094DE869002801D100F0B7FAEC6185
:10A1800000F02CFC20BFFDE700040040000100406F
:10A1900014E400E000E100E0000500408307FF2236
:10A1A000DB0E9A408907090E994000280BDA000758
:10A1B000000F08388308D7489B001818C3699343D9
:10A1C0000B43C36170478308D3489B001B18186872
:10A1D000904308431860704770B50446807B0028A0
:10A1E00018D002282ED00125CC4800F0A5FECC497D
:10A1F0002A464A431646314603F0CEFFC94A607BE1
:10A200005543A26868438919801808180002000A9B
:10A21000606070BDC249607B0B4683404A429D1816
:10A22000401C81408818401B0602360ABB4800F0DB
:10A2300083FE7608314603F0AFFF8819A1684919FB
:10A240004018E3E70A25CFE71CB5022069464871AC
:10A25000684600F05FFF002100280BD068460171BE
:10A260002521817101F023F9002802D0684600F011
:10A2700095FF1CBDAC4801701CBD10B500F08EFFF1
:10A2800010BD1FB5002906D0A4486946983800F0D3
:10A29000ADFE002803D0009800F080FF1FBD012014
:10A2A000A249000508601FBD9F480078002800D023
:10A2B000CAE77047F0B59E4841689E4B481E0002B1
:10A2C000000A0446002215015E59002E0BD0ED183D
:10A2D0006D68471A6E1A36023F02360A3F0ABE42BE
:10A2E00001D22802000A521C082AECD301221204CF
:10A2F000914B844209D05A60904B00221A608C4ADC
:10A300004032106088488160F0BD9A60F0BD864898
:10A310000178002902D10121017095E7704738B515
:10A32000814C0FE0009800F061FF012804D084A266
:10A33000C5210020FFF7E8FE616800988847009873
:10A3400000F02CFF7B486946803000F07BFE00283F
:10A35000E8D02078002801D1FFF7D9FF38BD10B52B
:10A3600001F0CDF810BD0120704738B56E490024CA
:10A370000C7048604C8080216E4803F07CFF674978
:10A380008039084618380160042141602021446169
:10A39000816000F01DFE00F0B5FE604800F0F7FDA2
:10A3A0000090002803D066A2EF21FFF7ADFE022146
:10A3B0001420FFF7F3FE0120654900050860002125
:10A3C0000120FFF7EBFE634A6349644801F01BF884
:10A3D00038BDF8B51D001646074601D10C2E03D82E
:10A3E000002F01D0082901D30020F8BDEFF3108021
:10A3F000C007C00F72B6009008014E49441820688B
:10A40000002801D000F0CAFE384600F0A3FE276005
:10A4100026730020607346484068A060A5732046FC
:10A42000FFF7DAFEFFF746FF0098002800D162B67A
:10A430000120F8BD70B501253C49ED0280390D6061
:10A4400008280CD23B4900014418206800F0A6FE01
:10A45000002020606060A060E060FFF72BFF3C48B8
:10A46000056070BDFEB5324847680025BF1C314B02
:10A470002E019859002843D02B4AF418616892683D
:10A48000791ABA1A09021202090A120A914237D835
:10A4900000216A46517100901171D171E07B03284F
:10A4A00012D2252011469071084601F000F80028CC
:10A4B00003D12048805900F04DFE69468879401C40
:10A4C000C0B288712728EFD90021E173617B194858
:10A4D0004A1CD2B26273FF2905D1214BA168C91869
:10A4E0000902090AA160217B8A420FD3FF290DD0FE
:10A4F000805900F053FE002020606060A060E060A2
:10A500006D1C082DB3D3FFF7D5FEFEBD2046FFF727
:10A5100063FEF5E700ED00E000E400E04801002004
:10A52000CD0C00009A1900000400002000E200E0B9
:10A5300000B500403000002000B3004040B10040B2
:10A540002E2E5C7472616E73706F72742E630000D5
:10A5500000E100E07BA2030083A20300A9A20300A4
:10A56000009A190070B5184D28680026174C00286D
:10A5700005D06068C00302D52E60FFF773FF6868DE
:10A58000002808D06068800305D56E600120400473
:10A59000A06000F0BAFA70BD0D4900208860032069
:10A5A0000A490004403148600A4901208860086077
:10A5B000094801680902090AC206114301600749F6
:10A5C000D01408607047000040B1004000B3004064
:10A5D00000B5004000B0004008E400E000E100E009
:10A5E00030B5002401258BB06D0748E0684600783F
:10A5F000641C0128019806D00299A84235D3FF2295
:10A6000003F032FE33E0800704D0FEA29121002047
:10A61000FFF77AFD0398800704D0FAA29221002068
:10A62000FFF772FD0298800704D0F6A29321002064
:10A63000FFF76AFD0198A8420DD30146002006E00D
:10A64000029B0A781B5C401C1A400A70491C039A42
:10A650008242F5D804E00023039A029900F04EFEEE
:10A66000602069460874029805E000F01DFE612034
:10A67000694608740198059004A800F0FDFF69463A
:10A68000E44800F0DFFC0028B0D0002C05D06220A8
:10A690006946087404A800F0EFFFDE4800F029FDC9
:10A6A000DD490978084205D0122001F09BFA0068C4
:10A6B00000F0CCFF0BB030BD00B587B000F0B6FDA8
:10A6C000002811D04179027909021143D34A9142FD
:10A6D0000AD902216A461170011D01910078C01E3D
:10A6E0000290684600F0C8FF07B000BD30B50546CF
:10A6F00085B0122001F076FA0446062D09D004DC5C
:10A70000002D06D0012D37D103E0082D2ED00A2DC3
:10A7100032D1002C24D002F00BFF002820D0BD48FD
:10A7200000F0E7FC00281DD003F01CFDBC496D467D
:10A730000FC90FC5684618DF0490002804D08D218A
:10A74000B0A28900FFF7E0FC206813DF0490002826
:10A7500003D0ACA2B349FFF7D7FC206800F076FF26
:10A7600005B030BDAC4901200870F9E7AD49A5A29C
:10A7700016310020FFF7C8FC72B6FEE7F0B50446BC
:10A780000078012587B025287ED00EDC22287CD0D9
:10A7900006DC02287AD020281BD0212816D159E0C7
:10A7A000232874D0242811D1A3E00021612848D0A7
:10A7B00008DC9D4E9D4F50286AD0512869D06028F2
:10A7C00004D10CE0622838D070283AD0062007B0B7
:10A7D000F0BD2079FFF78AFF02F042FDB8E068463D
:10A7E000009100F097FC00287ED0009800F00BFD4F
:10A7F0000098017809090901891C0170217A0A3140
:10A80000417016218172E421C172FE210173217A07
:10A81000C91C41720D30A268616803F013FD237BEF
:10A82000627BA17B0098FFF7D4FD0446009800F0FE
:10A83000B5FC002C04D10320C9E72079FFF7FAFD0D
:10A8400086E0A0687A4A410CC003002303F0BAFCFA
:10A85000022151E000F090F92079022802D001286D
:10A8600007D075E0232069460870684600F004FFB1
:10A87000257168482021183801700021C943016101
:10A88000617901710A2205E039E017E00BE02CE064
:10A8900059E03DE0A11D401D03F0D4FC5D4818388F
:10A8A00000F0EAFE93E72079022851D102F040FE41
:10A8B00000284DD1022003F092FA49E020790228C5
:10A8C00046D100F059F92121684601700A22E11DA4
:10A8D000401D03F0B7FCA1796846017160690490DE
:10A8E000684600F0C9FE33E02BE00121052040045A
:10A8F00002E005200121000400F02CF928E0607935
:10A90000042801D0012823D10020FFF7EFFE1FE02B
:10A910002079800702D1207A800701D0102056E7E5
:10A92000207B800701D0092051E768460570241D6F
:10A9300007CC01AB07C36946364800F057FB002837
:10A9400005D0042043E7022069460870EFE73E6027
:10A9500000203CE770B588B0FFF71EFE18212D4897
:10A9600003F089FC2B492B48183101600825102180
:10A970008560416000F02CFB2E480168032209022B
:10A98000090A9207114301602B4928050126086036
:10A9900000F01DFF002468460471067227480390EA
:10A9A000684606744574847401A800F065FE07903B
:10A9B000002804D0FF2113A2BE31FFF7A5FB2049D8
:10A9C0002048FFF7D2FC684603F0EAF968460078B1
:10A9D000002801D01C48C46108B070BDF0B58DB02E
:10A9E000012069460870684600F046FEFFF78FFCBC
:10A9F00002F09EFD00282BD005200321000400F06A
:10AA0000A9F823E02E2E5C626F6F746C6F61646531
:10AA1000722E63007001002010000020EFFF000084
:10AA20007CE30300370200000000800000E200E049
:10AA300040420F0014E400E000E100E07DA70300C5
:10AA4000D6BE898EB9A60300000500400DB0F0BD4A
:10AA5000042001F0C7F80546122001F0C3F80746AC
:10AA6000102001F0BFF80446022003F0B8F90028D6
:10AA7000C7D00026F64307962878400705D53868E2
:10AA80000068401C01D1401F07902878C0070AD0F9
:10AA900020680068401C06D16068002803D0079831
:10AAA0004008400007900798401C03D007A90420E5
:10AAB00001F025F902F015FD0500A2D003F08FF991
:10AAC00005289ED1022001F08DF8040003D12E4A02
:10AAD0002E49FFF719FB012D0ED0042D10D00B20AD
:10AAE0008521294A89000B90FFF70EFB324608A901
:10AAF000284602F0D0FB84E7208869460884F5E701
:10AB0000241D07CC08AB07C3F0E730B5204C002567
:10AB1000607887B0012815D002280ED0032815D000
:10AB20001A490820184A5E310690FFF7EDFA657061
:10AB3000684600F0A1FD07B030BD032168460170F2
:10AB40000571F4E7232069460870F0E70020FFF75D
:10AB5000CDFDF0E70F4B00225A600F4A52681018E3
:10AB600000020D4A000A4032506001200B4A4004A6
:10AB700050600748417070470120084940048860D0
:10AB8000034900204870704704AA0300090200002E
:10AB90001000002040B1004000B5004000B300406C
:10ABA00010B500F01DF8002805D01F491D48486069
:10ABB000C8131E4988611E48018CC9B201290ED1F3
:10ABC000818C09070BD1018D0906090F042906D1D3
:10ABD000808D0006000F02D116490120886010BD4B
:10ABE0001348018CC9B2012917D1818C090714D1EE
:10ABF000018D09060A0F03D1828D1206120F0ED0A5
:10AC0000090F012903D1828D1206120F07D00329E3
:10AC100003D1808D0006000F01D000207047012075
:10AC200070470000DFFF07C000050040006C0040D7
:10AC3000C00F00F0000600400748026803210A43E5
:10AC400002600648804706480047FEE7FEE7FEE749
:10AC5000FEE7FEE7FEE7000024050040A1AB03008D
:10AC6000C1A00300F3B50025CDB004462E464E9892
:10AC70008719384603F017FB00BA010AF878090271
:10AC80000143AA000CA86D1C361D8150102DEED377
:10AC900021E0A8000CA94318803B996F844611223B
:10ACA0000846D04113220E46D6417040890A4840DA
:10ACB000596C07270E46F94132461227FA414A409D
:10ACC000F1084A4080181A6C596E8918421860467B
:10ACD0000CA90A506D1C402DDBD3206D0B90616DCB
:10ACE0000A91A76D0997E26D06920092226E089272
:10ACF000636E07939E46A36E05930193E36E0493E0
:10AD0000029300239C4606261346F3410B26154664
:10AD1000F5416B4019261546F5416B40019E75467D
:10AD2000154096436E409E1963469B00794D0393F0
:10AD3000ED58029BEB18F618039B0CADEB5805463B
:10AD4000F318039302260346F3410D26F5415D40B7
:10AD500016260346F3415D400B467B400E460340FA
:10AD60003E407340ED18019B029373469646009A4D
:10AD70000193039B00970F460146D218581963466A
:10AD80005B1C9C46402BBED30B9B181820650A9871
:10AD9000401860650998C019A06500990698401888
:10ADA000E0650898801820660798704460660199ED
:10ADB00005984018A066029904984018E0664FB0C4
:10ADC000F0BD002815D0002101648164C16452499E
:10ADD000016552494165524981655249C1655249EF
:10ADE000016652494166524981665249C166002056
:10ADF00070470E207047F8B516460F46040005D080
:10AE0000002E1ED0002F01D0002518E00E20F8BD26
:10AE1000216C785D6054206C401C206440280DD16A
:10AE200021460846FFF71EFF0123A16C5B020022AA
:10AE3000E06CC91822645041A164E0646D1CB54205
:10AE4000E6D30020F8BD70B50D46040008D0002DF3
:10AE500006D0206C802200213828225403D307E03A
:10AE60000E2070BD2154401C3828FBD30BE0215428
:10AE7000401C4028FBD321460846FFF7F3FE38214B
:10AE8000204603F0F8F9226CA36C510FD200E06C5D
:10AE90009A1848412146A2640606130A2031E0644C
:10AEA0003343CA778B770604130C33434B77030283
:10AEB000100E18430877E06CC876020A8A76020CF6
:10AEC0004A76000E087621460846FFF7CBFE0021A1
:10AED0001823C800226D181AC2406A54666DC64015
:10AEE0006A181671A66DC6401672E66DC6401673D6
:10AEF000266EC6401674666EC6401675A66EC640AF
:10AF00001676E66EC640491C16770429E1D3002068
:10AF100070BD00008CE3030067E6096A85AE67BB7D
:10AF200072F36E3C3AF54FA57F520E518C68059B2B
:10AF3000ABD9831F19CDE05B30B5416805240A46C3
:10AF40000368E2419A1A83680F251C46EC41614070
:10AF50000160C4681B194360A31889188360C1602D
:10AF6000084630BDF0B5164C01232360154A002673
:10AF7000154F07E01568002DFCD0BD68491E89B249
:10AF8000455416600029F5D163600020F0BD38B546
:10AF900004460020009004216846FFF7E3FF0028E4
:10AFA0000DD10A48206000986060A0600025E06034
:10AFB0002046FFF7C1FF6D1C142DF9D3002038BDCA
:10AFC00000D0004000D1004000D50040ED5EEAF125
:10AFD000826820211346491ECB40DB07FAD00122AC
:10AFE0008A400021C16082600161704770B50446EB
:10AFF00000290DD0EFF31080C507ED0F72B6A268DF
:10B0000020698318E068834207D1002D02D002E056
:10B010000E2070BD62B6042070BD521E10406268E2
:10B0200023685043C0186369002B01D0984701E0A2
:10B0300003F008F9E068401CE060002D00D162B622
:10B04000002070BD70B50B460446EFF31080C507B5
:10B05000ED0F72B6E1682069884204D1002D00D15D
:10B0600062B60E2070BD002B0ED0A1686268491E2A
:10B07000084021685043411866691846002E01D0E7
:10B08000B04701E003F0DEF82069401C2061002D8C
:10B0900000D162B6002070BD70B50B000CD0EFF38C
:10B0A0001081CC07E40F72B6C56801696D1A95422C
:10B0B00004D8002C00D162B60E2070BD89188268B9
:10B0C0000568521E114042685143491945691846A6
:10B0D000002D01D0A84701E003F0B4F8002C00D106
:10B0E00062B6002070BD0022D6E7C1680069081A68
:10B0F00070470169C068814201D10120704700207A
:10B100007047000000205B4902460A54401C20287A
:10B11000FBD3704710B5574B0021EFF31082D207D5
:10B12000D20F72B65C5C002C02D0002A0CD00CE06E
:10B1300001245C54282359434F4BC9180160002A4D
:10B1400000D162B6012010BD62B6491C2029E4D3AB
:10B15000002010BDF8B54849401A282103F01CF81A
:10B160000446202801D30020F8BDEFF31080C60765
:10B17000F60F72B63F4D285D002801D0FF2805D19B
:10B1800004203EA261210090FEF7BEFF285D401C16
:10B190002855002E00D162B60120F8BD38B53649D9
:10B1A000401A282102F0F8FF20281DD2EFF3108169
:10B1B000CC07E40F72B62F490A5C002A05D0521E54
:10B1C000D2B20A54002C0AD00AE008202BA2752122
:10B1D0000090FEF799FF002C06D162B604E062B63B
:10B1E000002A01D0012038BD002038BD224910B509
:10B1F000401A282102F0D0FF202801D3002010BDE2
:10B200001C49085C10BD10B5044606222449C01C28
:10B2100003F018F822482438006ABF22C007410E04
:10B220002078104008432070002010BD70B5010048
:10B230000ED008464A780930062A09D9252A07D8A7
:10B240000DE00378451A093D5E19951FAE4201D9FC
:10B25000002070BD5D01EB1A18181F3000E0114C82
:10B260004378162BEDD1C37885781B022B43A3427C
:10B27000E7D170BD08070020080200202E2E5C2EAA
:10B280002E5C7262635F6D6573685C7372635C6D84
:10B290006573685F7061636B65742E630000000006
:10B2A000A4000010E4FE0000F8B5012405462407C0
:10B2B00020690A4681B2206980B28018401E02F0DF
:10B2C0006BFFC3B2002224482449164613E002272C
:10B2D00047600F68002FFCD085600F68002FFCD0FE
:10B2E00046600F68002FFCD027693F04BF0CBF00E9
:10B2F0007D19521CD2B29A42E9D3F8BDF0B50024B0
:10B300009B089B001B182546204622E00F78491C0D
:10B31000FE432E43F5B2124E3755641CE4B2042CA2
:10B3200016D10024002D11D00B4D01276F600B4D5D
:10B330002F68002FFCD036681E602E68002EFCD0CF
:10B34000054E002777602E68002EFCD000251B1DBF
:10B35000401C9042DAD3F0BD00E5014000E401401A
:10B36000180000209E49002008609E49401E886009
:10B370009D49012008619D49022008707047FEB573
:10B38000974A13211160827999490A2A02D85300F9
:10B390001B1D0EE0242A02D853009B1D09E0954D89
:10B3A0006E4638CD38C693006C461B19FF3B013BF7
:10B3B000DB6E8B6052068E4B520E40335A61026830
:10B3C0004A60884B08225A608B4A0026D660874A1A
:10B3D0005468230E8B6223020B624779824D01234E
:10B3E000002F05D08548844209D00320086307E078
:10B3F0000479CC62C079C8602B601370FEBD0B630A
:10B400006B601670FEBDF7B57D480025C563012150
:10B41000C1637748C5600322026102278760744ACE
:10B420002523403253618E234362764BC3616F4CB8
:10B4300063681E0E86621B020362C5620163724965
:10B4400041617249816172498163FF210431416325
:10B450007049C163942050602078032809D16E4858
:10B460000821024681601832456102604160FFF7A1
:10B47000AFFD614827703E46C56068480760684870
:10B4800007600098A0600198E0600298206162481F
:10B49000FFF72FFE002802D0A0688047FEBDFEF710
:10B4A00062FF0028FAD05D4880380660FEBD10B506
:10B4B000002803D04179002902D006E00E2010BDFB
:10B4C0000179012901D9102010BD01465248FFF72A
:10B4D0008DFD002801D0042010BDEFF31080C407BB
:10B4E000E40F72B6FEF73FFF002803D04B4902205D
:10B4F00080390860002C00D162B6002010BDF0B584
:10B500003D4D85B0E8680027384C002830D04548CC
:10B510000168002900D001210191C0680090E8690C
:10B520006426002804D0EF61314840308068C6B2FC
:10B53000EF6002A93848FFF785FD0490002804D089
:10B54000FF2139A24931FEF7DFFD6846407B012823
:10B5500007D0022805D02169029888470220207070
:10B560002FE0E5683346009A01990298A847F5E76D
:10B570002948FFF7BAFD06461CE069462648FFF752
:10B58000B2FD002818D168464079022814D1002164
:10B590002148FFF757FDFFF7E5FE154840300169E8
:10B5A0000029FCD10020E8606423E7684A1E009867
:10B5B000B847761E012EE0D82078022801D0032853
:10B5C00007D169461448FFF78EFD002803D0A06814
:10B5D000804705B0F0BD6846FFF7D1FEF9E70000EF
:10B5E0000012004000130040001000401C0000202A
:10B5F000001500408CE4030000110040D6BE898E87
:10B60000C01F004000D6BE890601020025000302CB
:10B610005B060000555555002807002080E200E039
:10B6200000E100E0001400402E2E5C2E2E5C7262C1
:10B63000635F6D6573685C7372635C726164696F8C
:10B640005F636F6E74726F6C2E63000010B5FEF74F
:10B6500041FD10BD82494968002900D008470820F3
:10B6600070478AB001236C46237001AB07C368465C
:10B67000FFF7F0FF72B6FEE730B504460078FF250D
:10B68000AD0289B023286FD013DC7549042851D04E
:10B6900008DC002822D001283FD0022840D003280F
:10B6A00017D144E0202850D0212854D0222810D18E
:10B6B00057E0322872D006DC242858D030285AD0DF
:10B6C000312806D15FE060286CD0612872D06228F2
:10B6D00075D0002211460620FFF7C3FFA06848601E
:10B6E000A07B00280AD000200870207B002802D010
:10B6F000607B022804D2072009B030BD0120F3E7A7
:10B700007F21C902284600F01CFA002801D003203E
:10B71000F2E7607B01F090FD57E001F0A1FD54E0FD
:10B720002089012281B2606801F0E4FDE4E701F0C4
:10B73000B4FE4AE000206A461070241D1DCC01AD05
:10B740001DC5496868468847D6E72079611D22698A
:10B7500001F0A1FDD0E72079611D226901F0B0FD63
:10B76000CAE70620C8E7FFE701F00CFF2DE02079CB
:10B7700002F035FBC0E7A08800F034FAA060002892
:10B7800023D10520B8E7A088E268A16800F045FA57
:10B79000A8421AD21020AFE700E003E0A08800F032
:10B7A000C3FA12E0606802F09DF90120616803E0CD
:10B7B00000E004E00220616800F0C5FA05E000F056
:10B7C000EEFA02F02EFB01F0E1FE002094E70120EA
:10B7D0000007816B406B41432248081822490160F1
:10B7E0001F49012008700020704700B589B0202251
:10B7F00069460A7008716846FFF72CFF09B000BD62
:10B8000070B58AB016460D4604462422174968468C
:10B8100002F018FD01A970C16846FFF71BFF0AB0CE
:10B8200070BD30B50D46114989B00446242224313B
:10B83000684602F007FD684602950194FFF70AFF8B
:10B840005AE700B589B0622269460A7008716846F5
:10B85000FFF700FFD2E70248012100784840704717
:10B86000007D0020FCFFFF1F79B6030098E4030071
:10B8700070B502460078FF2815D001248018A40274
:10B88000121900230125FE4C6D020EE00688B60059
:10B890003018904207D84688A64201D18E4202D184
:10B8A0005B1CAB4201D9002070BD46888E42EDD1B1
:10B8B000001D70BDF8B5F34C05462069854204D0E3
:10B8C000002211461020FFF7CCFEEFF31080C207D4
:10B8D000D20F72B62069EC490088884204D1E3682F
:10B8E0001888401C188004E0E0682E8803889B19A3
:10B8F00003802888E54B800040191D46803D20616B
:10B90000984200D125612069DD4F4688BE4207D1AB
:10B9100006888E4204D1001D2061984200D1256125
:10B92000002A00D162B6F8BD0188D84A89000918FA
:10B93000D4489142C16002D111468039C160026988
:10B94000914209D0501A8003000C08808A4201D22B
:10B9500020300880002048807047F8B50146EFF39A
:10B960001080C607F60F72B6C64FFD6828888300A0
:10B970008B4202D36888002804D0002E00D162B622
:10B980000020F8BDC14C8A033869120C803C854206
:10B9900004D1FC603C610EE062B614E0601B8030B4
:10B9A000814212D91B1A8B42E7D3B54980036980C3
:10B9B000000C2880FC602280002060802046FFF779
:10B9C000B3FF002EE8D02046F8BD2A802846FFF7B6
:10B9D000ABFF002E00D162B62846F8BD10B5AB4CC7
:10B9E000022020700422A1686068FFF709FF002888
:10B9F00001D00120207610BD70B50126A34CB602FF
:10BA000027E04888A04A904228D000281CD0098806
:10BA10008D005110884200D10425206961684019C9
:10BA20008919884204D9002211460320FFF719FE24
:10BA30002A46E1682069FFF7E3FE002812D1E0689A
:10BA40006061206940192061E06801888900081858
:10BA5000E060A068E16880198142D2D3012020769D
:10BA60000420207070BD70B5884C2278002A01D067
:10BA7000082070BDA160606001212170814901250D
:10BA80004978002904D1A902FFF7CBFE002800D095
:10BA90002576002070BD70B57A4A0C4612780546AE
:10BAA000012A04D0002211461046FFF7DAFD214694
:10BAB0002846FFF7DDFE00F09DF9002802D000F0D7
:10BAC0008AF970BD052070BDFFB581B0DB1C0A9EF0
:10BAD0009D08AD00B7007819001DFFF73EFF040078
:10BAE0002DD0002E07D06619FF220821304602F023
:10BAF000BBFB6348F0800721A80389034018000CB2
:10BB00002080029860802A46201D039902F09AFB4B
:10BB1000ED1DA8088000C219154621460198FFF7BF
:10BB20006FFE002808D02A4621460198FFF768FEDC
:10BB300000221146FFF795FD002005B0F0BD04205E
:10BB4000FBE770B500254F4C02460A43257092056D
:10BB500001D0102070BDA160064660604B48802176
:10BB6000803802F088FB494820218038E06020615D
:10BB70000180304600F04CF9064660611C214348C4
:10BB800002F079FB6570002E26D1A06800F040F924
:10BB9000050025D00126B60231466068FFF741FE58
:10BBA000002807D031466068FFF73BFE00221146AF
:10BBB000FFF757FDA16860686A1A121DFFF720FEA3
:10BBC000002809D0A16860686A1A121DFFF718FEE4
:10BBD00000221146FFF745FD01202070002070BDB6
:10BBE0000B2070BD0146FF20800241E610B5254CB8
:10BBF0002078012804D0002211461046FFF731FDBD
:10BC0000042020706168081D6061A068FFF72BFFA9
:10BC1000002801D10321217010BDF7B5194C82B065
:10BC200020781746012804D0002211461046FFF75D
:10BC300018FD542F04D9002211461046FFF711FDBC
:10BC4000207D800704D0002211461046FFF709FD31
:10BC5000FF2160698902884204D8002211461046FB
:10BC6000FFF7FFFC0298FFF7BDFF00F0C3F865691E
:10BC70000646002D14D0E81901218902626807E008
:10BC8000FF7F0000087D0020FFFF0000B87D00203E
:10BC900051180830884207D30022114608201EE0C0
:10BCA000002211460E201AE00120607000903B46F1
:10BCB0002846039A0299FFF707FF00280CD1FF1DC1
:10BCC000B8086169800040186061002E0BD03046D2
:10BCD00000F081F8002806D0002211460420FFF76A
:10BCE000C0FC002029E701216268606989025118BF
:10BCF0005830884201D3FFF779FF281D1DE738B57A
:10BD00000C460546FFF76EFF00F074F8002809D0D6
:10BD1000018822468B000021009129461B1FFFF756
:10BD2000D3FE38BD052038BD0146FF208002B2E6B3
:10BD300051480178012902D14078002801D0002023
:10BD400070470120704770B505460C46012808D1A0
:10BD50004A48844205D38030844202D20846FFF725
:10BD6000A9FD2146284600F05CF844488030007860
:10BD700000280BD1404C2078032808D0052805D195
:10BD8000606800F045F860610120207070BDA16816
:10BD90006068FFF768FE0028F8D10520F5E710B5C8
:10BDA000354800214170C0684180344880300278B5
:10BDB000002A09D0037E002B06D00176012A04D088
:10BDC000022A01D1FFF70AFE10BD01214068890255
:10BDD000FFF727FD10BD10B50446800704D00022F0
:10BDE00011461020FFF73DFC042225492046FFF7AD
:10BDF00007FD10BD002803D001218904884201D12C
:10BE0000002070471C49496849788900401A7047EA
:10BE100010B51C49FFF72CFD002801D0FFF7EAFF01
:10BE200010BD164A10B58032147813465B68012C99
:10BE30000DD0022C12D0032C1BD0042C06D10128CB
:10BE400004D15069884201D10020107010BD022831
:10BE5000FCD18B42FAD1FFF7C1FD10BD0128FCD106
:10BE600090688842F9D1032111701B1D001D1361D8
:10BE7000D060FFF7C1FD10BD087D0020387D002097
:10BE8000E0E40300FF7F0000491E03D48B00C2588A
:10BE9000002AF9D0491C05D08A0010188038C06FDC
:10BEA000002203E0002070474008521C0028FBD10C
:10BEB000480120388018704710B5072294000359B4
:10BEC0000C59A34201D9012010BDA34202D2002087
:10BED000C04310BD521EF1D5002010BDF0B506467E
:10BEE000002003469C000D591759EF193F18BD4219
:10BEF00004D0BD4201D9012000E000205B1C375175
:10BF0000082BEFD3F0BDF0B50646002003469C0099
:10BF10000D591759EF1B3F1ABD4204D0BD4201D243
:10BF2000012000E000205B1C3751082BEFD3F0BD4F
:10BF3000F8B51D46174602F0EDF93B682A681C1853
:10BF40004A41069B16461B68201A8E4101D20120E9
:10BF500000E000201918069801602A603C60F8BDD6
:10BF6000F7B50646002084B01746039001900446BA
:10BF70000546029001E000250DE002A80090601B3C
:10BF8000800039580598AA00805801AB03AAFFF732
:10BF9000CFFF00206D1CA542EFD9A2000399B1503C
:10BFA000019903910299641C01910290082CE2D33B
:10BFB0000824012501E0E51F0DE002A80090601BA8
:10BFC000800039580598AA00805801AB03AAFFF7F2
:10BFD000AFFF00206D1C082DEFD3A2000399B150D4
:10BFE000019903910299641C019102900F2CE2D3F4
:10BFF0000398F06307B0F0BDF0B589B00C46064673
:10C0000000F0D3FB0025029501950095E06A0390AE
:10C01000206B0490606B0590A06B0690E06B6A4605
:10C02000114607900846FFF759FF074631466A4612
:10C030000846FFF753FFC719206B0390606B04900D
:10C04000A06B0590E06B6A4611460690079508467E
:10C05000FFF744FFC71931466A460846FFF73EFF1F
:10C06000C719206A0090606A0190A06A059504953E
:10C0700003950290A06B0690E06B314607906A46EC
:10C080000846FFF72BFFC719606A0090A06A01906D
:10C09000E06A0290606B0390A06B0490E06B0590E7
:10C0A000606B0690206A314607906A460846FFF7A3
:10C0B00015FFC719E06A0090206B0190606B059531
:10C0C000049503950290206A0690A06A3146079075
:10C0D0006A460846FFF717FF3F1A206B0090606B17
:10C0E0000190A06B0290E06B059504950390606A47
:10C0F0000690E06A314607906A460846FFF703FF5C
:10C100003F1A606B0090A06B0190E06B0290206A78
:10C110000390606A0490A06A06950590206B3146F2
:10C1200007906A460846FFF7EEFE3F1AA06B0090A4
:10C13000E06B02950190606A0390A06A0490E06A47
:10C1400006950590606B314607906A460846FFF7F2
:10C15000DAFE3C1A0ED53146FB4A0846FFF7BEFE12
:10C160000419F8D409B0F0BD3146F74A0846FFF784
:10C17000CAFE241A002CF7D13146F348FFF79CFE83
:10C180000128F1D1EEE7F0B50646A1B015460C4600
:10C19000084600F0F5FA002804D0304600F0E8FA2E
:10C1A00021B0F0BD2146684600F0FFFA294608A8F4
:10C1B00000F0FBFA10A800F0DBFA0120109018A89C
:10C1C00000F0D6FA0124E40768E00099C9072ED0F0
:10C1D0000899C90731D0002837DD694608AA084602
:10C1E000FFF791FE684600F0E9FA18A910A8FFF7DA
:10C1F00063FE002804DA10A92A460846FFF76EFEFF
:10C2000010A918AA0846FFF77EFE1098C00712D0A2
:10C2100010A92A460846FFF761FE074610A800F05D
:10C22000CDFA002F3AD017982043179036E0684691
:10C2300000F0C4FAE9E710A804E008A800F0BEFA8C
:10C240001BE018A800F0BAFA28E008A96A460846D8
:10C25000FFF759FE08A800F0B1FA10A918A8FFF7D7
:10C260002BFE002804DA18A92A460846FFF736FEF6
:10C2700018A910AA0846FFF746FE1898C007E0D094
:10C2800018A92A460846FFF729FE074618A800F015
:10C2900095FA002F02D01F9820431F9008A96846E6
:10C2A000FFF70AFE002890D110A9304600F07DFA71
:10C2B00076E7F0B5044691B00E461546104600F0FC
:10C2C0005FFA00287ED132461146684600F0A5FA92
:10C2D0006A46214608A800F0A0FA6A4611460846B8
:10C2E00000F09BFA31462A46084600F096FA2A46A4
:10C2F0001146084600F091FA2146934B2A4608461B
:10C3000000F06BFA2A4611468F4B084600F065FA9A
:10C310002A468D4B2146104600F072FA21462A46E5
:10C32000084600F07AFA2246874B1146284600F06C
:10C3300054FA2146844B2A46084600F04EFA002162
:10C34000204600F029FA00280DD021467E4A0846F2
:10C35000FFF7C4FD0746204600F030FAE069F90710
:10C360000843E06102E0204600F028FA2246114628
:10C37000284600F052FA2946734B08AA084600F0F6
:10C380003FFA2946704B08AA084600F039FA08A976
:10C390006D4B2A46084600F033FA214608AA0846A3
:10C3A00000F03BFA6A46684B2146104600F028FA36
:10C3B0002946204600F0F9F93146284600F0F5F903
:10C3C000694600E002E0304600F0EFF911B0F0BD40
:10C3D00070B588B00E46044615461146684600F012
:10C3E0001CFA21466A46084600F017FA69462A46B2
:10C3F000084600F012FA31466A46084600F00DFA87
:10C4000008B070BDF0B5174689B01E460C4605460B
:10C4100002464D4B3946684600F0F2F96A4611462D
:10C42000084600F0FAF929466A46084600F0F5F990
:10C4300039466A46084600F0F0F93146424B22463A
:10C44000084600F0DDF932461146684600F0E5F98D
:10C4500069463D4B2A46084600F0D2F969463A4BF8
:10C460003A46084600F0CCF93946374B2A4608468A
:10C4700000F0C6F921463A46084600F0CEF9324BA4
:10C480006A462946384600F0BBF931463A46084626
:10C4900000F0C3F931462C4B2246084600F0B0F9B3
:10C4A0006946384600F081F95CE6F7B5B4B023A8D8
:10C4B000109013A81190FFF753FD234908A860318D
:10C4C000129000F072F9684600F052F9012400253C
:10C4D0000120001B810010A841586E468E46A10025
:10C4E00040588446002001468B006746FA58F758AA
:10C4F000D71B3F1ABA4204D0BA4201D2012000E051
:10C5000000207246491CD7501029EDD3844201D136
:10C51000012400E00024304600F050F90899079803
:10C52000C90708430790129800F048F9FF2001302E
:10C530006D1C8542CCDDA10010A84158349800F054
:10C5400034F937B0F0BD0000E4E40300F0B5F5B015
:10C550000F46002406460146154617943CA81F9432
:10C5600000F067F9314644A82031064600F061F931
:10C57000294610A800F05DF92946203118A800F0DE
:10C5800058F910A800F0FCF800287DD118A800F098
:10C59000F7F80028F9D110A9B148FFF78DFC012860
:10C5A000F3D118A9AE48FFF787FC0128EDD1AC4ABA
:10C5B00018A96846FFF7E7FD394608A80F9400F070
:10C5C00038F908A96A460846FFF76FFF6A4610A9BE
:10C5D0005CA8FFF76AFF3CA924A800F0E6F82CA8A5
:10C5E0003146044600F0E1F89D494CA8403900F07E
:10C5F000DCF89B4954A8203900F0D7F8984B4CAA96
:10C60000603B24A9684600F0FBF8234624AA54A9FD
:10C610004CA8FFF7F7FE924A6946603A0846FFF7D2
:10C62000B2FD6A46214624A8FFF7D2FE8C4920318C
:10C6300003C920903CA8229024A82191239008218E
:10C6400008A8FFF721FC044608215CA8FFF71CFCA2
:10C65000844200DD20460446411E08A800F09CF8F4
:10C66000002801D0012500E00025611E5CA800F033
:10C6700093F8002800D0012040000543A80020AE18
:10C68000355834A8294600E06DE000F08EF82946C0
:10C69000203164A800F089F8684600F069F80120AC
:10C6A0000090A41E3CD46A4664A934A8FFF701FE9A
:10C6B000214608A800F070F8002801D0012500E00C
:10C6C000002521465CA800F067F8002800D0012072
:10C6D00040000543A8003558002D1FD029464CA81E
:10C6E00000F063F82946203154A800F05EF86A464D
:10C6F00054A94CA8FFF76CFE594B4CAA603B34A9D7
:10C700006CA800F07DF864AB34AA54A94CA8FFF7DC
:10C7100079FE69466CAA084600F07FF8641EC2D50F
:10C720004F4A6946603A0846FFF72DFD6A4664A9FC
:10C7300034A8FFF74DFE34A94948FFF7BDFB012897
:10C7400004D034A9464A0846FFF7DDFB002034AC8C
:10C7500010AB07218A00A5589A5855402843491E16
:10C76000F8D5002802D0002075B0EBE60120FBE7E9
:10C7700000210A468B00491CC2500829FAD3704791
:10C7800000218A008258002A01D000207047491CED
:10C790000829F6D3012070474A1192008058CA0632
:10C7A000D20E012191400840704710B5002293003D
:10C7B000CC58521CC450082AF9D310BD10B5002221
:10C7C0000146203104E00B685C081443DA070C6072
:10C7D0000B46091F8342F6D810BD70B51C460546AE
:10C7E000FFF77CFB002805D121462846FFF764FBB4
:10C7F000002804DB294622460846FFF784FB70BD6B
:10C8000070B51C460546FFF77EFB002804D029467C
:10C8100022460846FFF762FB70BD10B590B0044693
:10C820006846FFF79DFB69462046FFF7E5FB10B021
:10C8300010BDF8B50E46074600240720001B8000F7
:10C840008519284601F02FFD00BA000AE978000298
:10C850000843A100641C7850082CEED3F8BD0000FA
:10C8600044E5030010B50420FFF7BCF9FA4C206141
:10C870000220FFF7B7F920601220FFF7B3F9E0605C
:10C880001120FFF7AFF9A0601020FFF7ABF960604F
:10C890000120FFF7A7F96061FF2021698002814232
:10C8A0000BD32168814208D3E168814205D36168D6
:10C8B000814202D3A168814202D20820FEF795FF8F
:10C8C00010BD70B50546083001F0EDFC0446401C73
:10C8D00000D1002428460C3001F0E5FC210780003F
:10C8E000090F4018697C401E00092A7C0902401C7F
:10C8F000114301D009090818D849884200D90846CF
:10C9000070BD70B5D64C8AB06578E678B54201D274
:10C91000002D01D10125657060266D462E700291B3
:10C9200001902A736B736078A8736846FEF792FED5
:10C93000002802D16178491C61700AB070BD30B521
:10C94000C54DA7B0686900283BD02C46743CE0690F
:10C95000002837D002A8FEF734FA0122611D02A890
:10C96000FEF749FA21460422103102A8FEF743FAE5
:10C9700021460422183102A8FEF73DFA002069463C
:10C980000870012202A8FEF736FA60792146663166
:10C99000012819D0022817D0042803D10A2202A89E
:10C9A000FEF729FA02A801F08FF81EA902A8FEF7E7
:10C9B0004AFAA94A1EA9543A6869FFF7C7FD002838
:10C9C00000D0012027B030BD0222E8E7F0B591B0D9
:10C9D00005461821684601F04EFCFF200F90022604
:10C9E0000024681E022827D8E01E6A4610809A4953
:10C9F000D07874390F79C0087A07C000520F1043FD
:10CA0000F72210400A466032527CD207120F1043C0
:10CA10006A46D0700968019191490978072915D0B3
:10CA2000EF210840D0708C490A220E3902A801F08B
:10CA300009FC002F00D001266F46002D09D0012DE2
:10CA400012D0022D17D0032D1CD12BE0102108434A
:10CA5000E8E70120C04338807F48102401680E2297
:10CA6000B81C01F0EFFB0DE0B878122400090001BA
:10CA70003946001D05E0B8780A240009000139464E
:10CA8000401C887060216846017608A807970894C2
:10CA900006710F9941710021817106A8FEF7DAFD38
:10CAA00011B0F0BDB8780A24000900013946801C95
:10CAB000E7E770B5684C0023743C05462371A36119
:10CAC00020465A1E4030A360428483842030037481
:10CAD000E361236065712A46801D01F0B9F9604960
:10CAE00002200870284600F074FDFFF76FFF70BD4C
:10CAF000F0B55B49A7B0042008700146FF2212A8D8
:10CB000001F0B2FB544C743C6079012845D00228F6
:10CB10004BD0042846D0002211460720FEF7A1FD85
:10CB2000E168A068814272D02120FFF75BF8009095
:10CB30002220FFF757F801902420FFF753F8002632
:10CB4000F64300250290AF006946C85900281DD061
:10CB500003C8A369E26801F0F7FA002810D00120A9
:10CB6000A8402030039080B2FFF7DEF8002807D0FD
:10CB7000039880B2FFF7D8F800221146FEF771FD46
:10CB80006846C0590068B04200D206466D1C032DAD
:10CB9000D9D3A169E068411835E0129840084000F7
:10CBA0001290BDE70420129901E0129902208143FE
:10CBB0001291B5E70268521C24D0274B5D682A68A1
:10CBC000824207D26D685219824203D9129A5208E2
:10CBD000520012929A681568854207D25268AA18C4
:10CBE000824203D9129D022295431295DB681A688E
:10CBF000824207D25B68D218824203D9129B042278
:10CC000093431293001D814201D9B042D2D3124DF9
:10CC1000E168A0680E3D88420DD10F4E30690028B2
:10CC200020D012A90420FFF76AF8002803D0607909
:10CC30002946FFF73EFF0848A2691438037CE168E3
:10CC4000A06800F023FE002813D060792946FFF782
:10CC500030FF27B0F0BD0000487E0020FFFF00003D
:10CC6000207D0020042212A91046FEF7D6FF306175
:10CC7000E1E7622108A801710021017209A8FEF70D
:10CC8000E9FC23216846017001210171617941713C
:10CC90000A222946801D01F0D5FA6846FEF7DAFC23
:10CCA000D7E770B5044680788AB00107204608307F
:10CCB000090F064601F04AF9F74D002812D021214C
:10CCC00068460170A0780107090F6846417129780C
:10CCD0000171A0783146020701A8120F023001F05D
:10CCE000B7F81AE022216846017002210171A0788C
:10CCF0000A220107090F684681713146C01D01F003
:10CD0000A1FA297868464171E0784107490F6846E1
:10CD10004174201D01F0C7FA05906846FEF79AFCA1
:10CD20000BE6F3B5DD4E05467079374600247437BF
:10CD300081B0012818D0022818D0042812D000226F
:10CD400011460620FEF78DFC28460830009001F0C1
:10CD5000AAFAD2490861009801F0A5FA0646401CDB
:10CD600006D006E0FC68EFE77C68EDE7BC68EBE71F
:10CD700026682846FFF7A5FDC849403148848884C5
:10CD80003046C64EB06028460C3001F08CFA800068
:10CD9000B061687C297C00020843F061A87C000730
:10CDA000C10F3046603001740021716101701021A3
:10CDB0003C3001F060FA01F0BDF9F168B8484A1C56
:10CDC00006D0B26940698918814216D90C201FE04B
:10CDD0007179022901D0B0680EE0F9680A684968E3
:10CDE000511842698A4200D24169B069800A8002C2
:10CDF000081A01218902401AF060F268B068904276
:10CE00000BD0B1690B4601F09FF9002805D00D2029
:10CE1000FEF7EBFC00F03DFCFEBDB16820688142EE
:10CE20000BD3B269891862688018814205D8FFF770
:10CE30005FFE029801210170FEBD281D01F033FA4A
:10CE400001F03EF9954970796631FFF732FEFEBD7B
:10CE5000F7B504460E46C078A17800028E4F08430D
:10CE6000B9888AB0884208D10020B8806222694619
:10CE70000A7008716846FEF7EDFB8848874DC16966
:10CE80004035AA8C0909531A8C46E278A17812021F
:10CE90000A432146083E08310196009193420BD384
:10CEA0008168104601F0BEF801998AB2009900F03D
:10CEB00020FD060030D119E0D11A491E8C4507D952
:10CEC000764E0122603633788A401342029201D0B6
:10CED000082621E0090108182030019A009901F084
:10CEE000B1F930780299084330700026E078A278D2
:10CEF0000002A98C104300F07AFB688C401E688405
:10CF00000C9901200870B888002805D1E078A17834
:10CF10000002084300F0F8FB30460DB09AE6F3B586
:10CF200006468DB0001D01F0BEF95C4C21688842B8
:10CF300002D00B200FB08DE6304601F0CBF8002870
:10CF400001D00020F6E7002069460872524F53488E
:10CF5000397866300190032909D00546263D042919
:10CF600018D0072936D0082959D0082476E0F0785F
:10CF7000B1780002084308D0206801F0A1F8607978
:10CF80000199FFF796FD082460E002A93046FFF7FB
:10CF9000C8FE57E0F078B1780002084309D0A98CA8
:10CFA000884206D802AA30460E99FFF751FF0024A6
:10CFB00000E00B24688C00282ED17020694608738D
:10CFC000384805900020049003A8FEF743FB052095
:10CFD000387021E0F078B1780002084303D1304680
:10CFE000FFF76FFCA884082038700020FEF729FCAA
:10CFF000232168460173022101740A22123001992B
:10D0000001F020F961796846417403A8FEF722FB1C
:10D010000446012168460172002C14D016E0F07815
:10D02000B1780002084303D13046FFF74AFCA884D8
:10D03000F078B2780002A98C104300F0D8FA0120F1
:10D04000694608720024304601F05FF86846007AAD
:10D05000002803D030460E9900F0D4FA204669E744
:10D06000F8B504460C48007801280DD00B4D274632
:10D070002E46083766366979022817D0032815D05E
:10D08000072841D00820F8BDE07840070CD02046A2
:10D09000FFF707FEF8BD0000207D0020D47D0020B2
:10D0A00000100010404B4C000620F3E732462046AB
:10D0B00000F092FF00281AD0E07829794007400F4D
:10D0C000884207D8884246D1201D01F0ECF8296833
:10D0D000884240D9A0780A220007000F68713946BB
:10D0E000304601F0AFF8204600F0DFFA33E0A078D8
:10D0F0006A790007000F8242C9D13146384600F0F4
:10D10000D9FE0028C3D026E0A0780007000F814296
:10D1100021D10A463946304600F0B1FE00281AD027
:10D12000E17828794907490F884207D3884212D10C
:10D13000201D01F0B8F8296888420CD9201D01F0A3
:10D14000B2F82860E0784007400F2871687900F055
:10D1500040FAFFF73BFC00209CE7F0B5054687B09E
:10D16000001D01F0A0F80146FE480068814261D12F
:10D17000FD4F3878082813D0FA4EE97800249C3601
:10D18000AA780902204611438200B25A8A4214D179
:10D19000800084196188481C6080082905D30FE04D
:10D1A000284600F097FF002802D0002007B051E584
:10D1B0000821284600F026FAF8E7401C0428E3D3AB
:10D1C000E878AA780102E74811438068012904D071
:10D1D00000090001090140181038102202A900F0CE
:10D1E00012FC002814D00520C04369460880E87866
:10D1F000A9780002084369464880281D01F053F8C9
:10D2000001900323002218216846FFF77AFB00E013
:10D210000520014621430AD1B9788A07120F9419D3
:10D22000491CB970E978AA780902114321800021CC
:10D230006180BBE70B20B9E770B50546CA4C0020FA
:10D2400020707421C74801F016F8C64810219C30A0
:10D2500001F011F80020A070E570FFF703FB70BD2E
:10D2600010B57421BF4801F006F8BE4810219C306B
:10D2700001F001F8BC48002181708180FFF7F2FACB
:10D2800000F0CDF900F056FF00F0D6FD002801D1E6
:10D2900000F0FFF910BD10B5B34B1B78012B01D086
:10D2A000082010BDB14B5B69934203D8531C01D0D9
:10D2B000102010BDAB4BDA60FFF7FBFB002010BD68
:10D2C00010B5A94B1C78012C03D0022C01D00820EA
:10D2D00010BD07241C70A34C6071226002462046DA
:10D2E000663000F0B5FD607900F073F9FFF76EFB72
:10D2F000002010BD70B54278037812021A439C4B8F
:10D30000D218130001F01EF805100D0A07042B00B7
:10D3100000F03BFA70BDFFF7A3FE70BDFFF7FFFD05
:10D3200070BDFFF71AFF70BD04468F480D460078A8
:10D3300008282046F2D100F0CDFE002801D00020C0
:10D3400070BD88484030818C408C081A401C80B2E7
:10D3500000F04DF92946204600F054F970BD0B202D
:10D3600070BDF0B57F4DABB074350E2215A829689D
:10D3700000F068FF7B4C0027204606462030E2681C
:10D38000A16866362A908A4234D0FF22542168462A
:10D3900000F06AFF6279314602A800F059FDA069E9
:10D3A0000190E0680090FF216846C17400218174FB
:10D3B000E0691422002808D0402205A82A9900F02C
:10D3C00041FF0120694688745422607901280ED0FB
:10D3D000022807D0042802D00B202BB03AE469467B
:10D3E000242001E069462220FEF717FC3FE0694651
:10D3F0002120F9E72869002804D1002211460E20D7
:10D40000FEF72FF92869006800905648617962306C
:10D4100001290CD0022939D0042910D10A22314621
:10D4200016A800F00FFF1C270421009805E0808853
:10D4300010A988821A270098012108430090E0690A
:10D44000002804D0402238462A99FEF7E6FB022045
:10D45000401C0E28FCD30E2215A90220FEF7DDFB8E
:10D460000422286069461046FEF7D7FB28613E4932
:10D4700006200870FEF7BAFB002805D0FEF7B6FBC1
:10D4800000221146FEF7EDF80020A6E7808810A9DB
:10D49000C8821B2702210098CFE710B532480078D8
:10D4A000030000F04FFF09100608080A11101A1AAD
:10D4B0001000012012E0052010E02A482949407997
:10D4C0006631FFF7F6FA10BDFFF739FA002802D0EF
:10D4D000FFF747FF10BD042000E00020FEF785F9AC
:10D4E00010BD70B50220FEF77DFB06460420FEF756
:10D4F00079FB04461020FEF775FB05461220FEF767
:10D5000071FB3188002906D02178C9070CD0296821
:10D510000968491C08D02178490707D500680068C8
:10D52000401C03D0002070BD012070BD042070BDE0
:10D5300010B50220FEF756FB04461220FEF752FB00
:10D54000002C1DD000281BD00068411C18D000689A
:10D55000401C15D020460A3000F0A5FE00280FD050
:10D5600008E00000D47D0020207D00200010001085
:10D570000600FFFF00F093FD002801D0012010BD40
:10D58000002010BD10B500F084F810BD00B5A8480B
:10D5900089B0007806281AD1FEF7CAFB002816D0F9
:10D5A00025216846017001210171A248A1494279F3
:10D5B000684642716631801D00F04AFC6846FEF7FD
:10D5C00049F800F08EFAFFF74DF9FFF749FE09B070
:10D5D00000BD012809D0022805D0042801D0002070
:10D5E000704701207047032070470220704700B544
:10D5F00089B024236A4613709080D1806846FEF774
:10D6000029F8E4E770B5054603230022FFF779F90E
:10D61000040002D1284600F078FD204670BDF0B528
:10D62000854993B003C90B900C9184A000681190B8
:10D6300080480BAE743000680E90811C001D0D9167
:10D6400000240F906000305AFEF7CCFA05001BD082
:10D6500002216846017111AF3A5D02722946083114
:10D660000A3000F0F5FBA0000DA909583A5D05A8A5
:10D6700000F0EEFB2868089068680990A97C68466D
:10D68000417201A8FDF7E6FF641C032CDAD313B046
:10D69000F0BD10B50020FFF799F965490120087029
:10D6A0007421644800F0E7FD10BD70B50446407871
:10D6B00021780002084362495E4D884208D1E07833
:10D6C000400705D0A07869790007000F884204D090
:10D6D000002211460720FDF7C4FF201D00F0E3FDE6
:10D6E0002860E0784007400F2871E0780007C10FFC
:10D6F0005048603041744E49032008706879FFF744
:10D7000068FFFFF763F970BD70B592B00024494D12
:10D7100006460F94109410AA0FA9686900F0A3F9A7
:10D72000002830D0A868224601090F980901401A44
:10D73000A241010912071143491C701E814204D302
:10D7400028464030808CB0421DD10422D243684626
:10D750008284C18428680A9060216846017009A803
:10D76000019008200290022168460173FF21417355
:10D770008473FDF76FFF002805D10F986861684634
:10D780002B49C08C888012B070BD70B5284D0446FE
:10D7900028788AB0012802D008200AB070BD21790B
:10D7A0006846017061794170009800F066FC21269E
:10D7B000002808D0684606700221417121798171E4
:10D7C0006179C1711FE0A01D00F036FC00282CD04B
:10D7D000E078A178000208431949491C884217D013
:10D7E000144974310A685178127809021143884249
:10D7F0000ED06846067001214171E078A2780102DE
:10D8000011436846C18029780171FDF723FFC4E701
:10D810006846067004214171297801710A22A11D10
:10D82000801D00F00FFD6846EFE70B20B5E7000014
:10D83000207D0020D47D002074E503000201040057
:10D84000FDFF000010B5B04C218D814210D30A1AA3
:10D85000D117402300209B1A88410BD301200021BF
:10D8600000F0E0FC2269636910401940084301D0D0
:10D87000012010BD002010BD10B53021A24800F0DD
:10D88000FAFC0020A049C043088510BDFFB581B057
:10D8900016460C460546FFF7EFFF701900092909E7
:10D8A00000010901401A0003070C284620438005A7
:10D8B00002D0102005B0F0BD9348002C17D0446072
:10D8C0009249044640687118890A800A89028002D8
:10D8D000FDF7A7FF256027810498A0720021216130
:10D8E000E660481E6161608521850846E2E7456083
:10D8F000E6E7F7B5844C0646218D854884B0814221
:10D900004BD0310708D12168B14205D8E2688B18A5
:10D91000069AB218934202D2102007B0F0BD069AC0
:10D92000102A01D8920701D00920F6E7628D8242C1
:10D9300001D01120F1E7090909010022711A924171
:10D94000120708091043401C87B23846FFF77AFFD8
:10D95000002822D06C48008DB84230D2381A82B2EA
:10D96000694D01200021029200F05CFC401E002263
:10D97000D24351410090029A019140202C69821AB1
:10D980006D69009800F04EFC20402940084306D005
:10D99000032000F0B0F80520BFE70820BDE72046CF
:10D9A0002946029A00F03EFC009A019B104342086F
:10D9B0001943554852000261416107850BE0C31BC2
:10D9C000514901249C40E34308694A69DC17184027
:10D9D00022404A6108614C4C678520461830054654
:10D9E000069A059900F02EFC21686068711A4018AB
:10D9F0002946069AFDF704FF00288ED0072000F084
:10DA00007AF8032089E7F8B53F4C17460E46228D79
:10DA10003F498A4211D0236800251B091B01C01A07
:10DA2000AD41290700090843401C85B2AA4204D32E
:10DA30002846FFF707FF002801D00020F8BD002E80
:10DA40000DD0002F0BD0012D0BD0606829010009EB
:10DA50000001411810393A46304600F0F3FB01202E
:10DA6000F8BD6168F7E7F7B52748294A018D82B00C
:10DA70000191914226D00768466904693F2538091B
:10DA8000000100902A460120002100F0CBFB20403D
:10DA90003140084314D00198401B80B201280DD0BA
:10DAA00000990001081810380299884208D3039998
:10DAB00008600498102101600120FBE63846F3E776
:10DAC0006D1EDFD50020F5E610B50F49104B0A8D0D
:10DAD0009A4201D1082010BDCA684968FDF78BF948
:10DAE00010BDC9E608491831884203D10020C0435F
:10DAF00018394885704710B50021034AC94311857C
:10DB0000FDF773FE10BD0000807E0020FF030000C3
:10DB1000FFFF0000F3B5CB4E044630788BB0C04316
:10DB2000099009A90420FEF7EAF8307801270128B6
:10DB30002DD0022810D004284AD0002211460B20F4
:10DB4000FDF78FFD0C98FC21C17430780C992030C2
:10DB5000FEF7D5F80DB0F0BD1120FEF743F80168CF
:10DB600005CC083C00F092FB0028EBD000F0FAFA5C
:10DB700062B60020009020680190606880080290E2
:10DB8000684618DF0028E5D0684618DF1BE0102043
:10DB9000FEF728F8016805CC083C00F077FB002868
:10DBA000D0D000F0DFFA62B600972068019060687C
:10DBB00080080390012000030290684618DF0028C7
:10DBC000C8D0684618DF00221146FDF74AFDC1E7BC
:10DBD000FDF741FE002808D000F0C4FA62B69A486A
:10DBE0003EDF002044DF35DFACE71220FDF7FAFF0F
:10DBF000050004D1002211461046FDF732FD2888A9
:10DC0000800504D0002211461046FDF72AFD502061
:10DC100069460870286801908C49606840188843FC
:10DC200002906846FDF716FD00280DD15120694687
:10DC30000870206802906068039028680190684628
:10DC4000FDF708FD0028CFD0777083E7F0B57D4C55
:10DC5000C1B06568002D74D0EFF31080C007C00F0D
:10DC600072B6542240902946684600F0EBFAE87CF0
:10DC70000126F8285AD0FC2812D0FE280AD0FF2806
:10DC80005BD16670FE206946C87420782030FEF7AC
:10DC900036F852E0667069462846FFF73BFF4CE0D5
:10DCA0000220FDF79FFF3F900420FDF79BFF0746F2
:10DCB0003F98002804D1002211461046FDF7D1FC00
:10DCC0000E2215A83F9900F0BDFA002F3BD038680E
:10DCD0002A90207801283CD0022841D004284AD03C
:10DCE00000273A4639460B20FDF7BBFC0E2215A94A
:10DCF0000220FDF792FF00281ED0A87C002807D044
:10DD00002946402214313846FDF787FF002813D0FA
:10DD100004222AA91046FDF780FF00280CD0F82025
:10DD20006946C87420782030FDF7E9FF207820305C
:10DD3000FDF7FAFF002830D066704098002800D127
:10DD400062B641B0F0BDFF2204212AA800F08CFA8F
:10DD5000BFE7288910A988822A981A27304308E04B
:10DD6000297A10A88175697AC1751B2702212A9822
:10DD700011E02A90BAE7A8681690A88910A98883AC
:10DD800028460E3000F08FFA17A9023100F095FAFC
:10DD90001C272A9804210843EBE700206060CCE7A9
:10DDA00070B5284E054601242046203080B2FDF78C
:10DDB00019FF00280AD0C17CFF2907D03470706099
:10DDC000FFF744FF002D09D0012006E06400042C79
:10DDD000EAD900207060002D00D0287070BD70B5A9
:10DDE0000446012805D0042C03D0022C01D00720C2
:10DDF00070BD144D6868002801D0082070BD204611
:10DE00002030FDF7EFFE002809D001680968491CA1
:10DE100005D02C706860FFF719FF002070BD052049
:10DE200070BD08484168002905D04178002902D01A
:10DE3000002141700AE7704702484068002800D07E
:10DE400001207047287D00200F000F00FF03000015
:10DE500010B5012A07D0022A0CD0042A02D10A22C6
:10DE600000F0F0F910BD4A780B78110219430170E7
:10DE7000090A02E00A7802704978417010BD10B5B5
:10DE8000012A09D0022A02D0042A11D10A2200F064
:10DE9000FDF900280AD00BE04278037810021843FD
:10DEA0004A780B7811021943884201D1012010BD34
:10DEB000002010BD70B50C46012A16D0022A1DD0D4
:10DEC000042A21D141790279090211436279237927
:10DED00012021A43914217D100F0E5F90546204697
:10DEE00000F0E1F985420DD00EE041780278080299
:10DEF0001043617822780902114301E00078097823
:10DF0000884201D1012070BD002070BD70B50C4663
:10DF1000012A0ED0022A15D0042A01D0002070BD9B
:10DF2000801D00F0C0F90546A01D00F0BCF9281ABC
:10DF300070BD4178027808021043617822780902A6
:10DF4000114301E000780978401A70BD70B50546AC
:10DF50000E460220FDF746FE0446012E24D0022E76
:10DF600019D0042E29D16879297900020843218922
:10DF7000884222D1284600F096F9616888421CD177
:10DF8000A81D00F090F9054620460A3000F08BF9F4
:10DF9000854210D811E02878A17888420DD16878A0
:10DFA000E178884207D808E06878297800020843B9
:10DFB0002188884201D1012070BD002070BD734AC4
:10DFC00000218B00D358834201D101207047491CA6
:10DFD0000829F6D30020704770B5054680780C46B6
:10DFE0000007000F1646A04201D0002C18D1281DB2
:10DFF00000F059F9FFF7E3FF002811D12846083057
:10E00000224631460546FFF755FF002808D0224634
:10E0100031462846FFF77AFF002801DB012070BD5A
:10E02000002070BD012805D0000109090901103840
:10E03000401870470846704770B505460220FDF746
:10E04000D1FD044668792979000208432189884274
:10E0500011D1284600F027F9616888420BD1A81D2C
:10E0600000F021F9054620460A3000F01CF98542EF
:10E0700001D9012070BD002070BD01B50220FDF75F
:10E08000B1FD694609788278914206D1694649789E
:10E09000C078814201D9012008BD002008BD10B51B
:10E0A0000420FDF79FFD002806D00068C10705D0B9
:10E0B000410703D5800701D5012010BD002010BD08
:10E0C00010B5334A314C11784B07DB0EE050491C38
:10E0D000117010BD70B54278047813022B4A0021EC
:10E0E000234320328C00155B9D4209D1A41865881A
:10E0F000C478867824023443A54201D1012070BD42
:10E10000491C1029EED3002070BD70B5417802780B
:10E110000D0215431E4A1D4C516820340B079B0EFF
:10E12000E552C5788678280230431B195880491C6F
:10E13000516070BD154810B54021203000F09BF8AB
:10E1400013490020486010BD904202D3D318834287
:10E1500004D8824204D34018904201D30120704772
:10E160000020704730B50B4802680A4B002001219F
:10E1700080330C468440144204D0C506ED0E0C4694
:10E18000AC401C60401C2028F3D330BDB07E002082
:10E19000307D002000E100E030B50B460146002054
:10E1A0002022012409E00D46D5409D4205D31D469D
:10E1B0009540491B2546954040191546521E002D95
:10E1C000F1DC30BDF0B51FB40646002082B0054634
:10E1D0004024019100901BE0019922460F463046F1
:10E1E00000F074F8049A059B801A994110D31046E8
:10E1F0001946224600F016F8361A8F41019722463A
:10E2000001200021009F00F00DF838184D410090CA
:10E210002046641E0028DFDC019B00982946324618
:10E2200007B0F0BD10B5202A04DB0146203A91402A
:10E23000002010BD914020239C1A0346E34019435F
:10E24000904010BD03460B439B0703D009E008C96B
:10E25000121F08C0042AFAD203E00B780370401C96
:10E26000491C521EF9D27047D2B201E00270401C24
:10E27000491EFBD270470022F6E710B513460A4646
:10E2800004461946FFF7F0FF204610BD30B504469E
:10E290000020034600E05B1C934203D2E05CCD5CAF
:10E2A000401BF8D030BD0321001D401E0378120230
:10E2B0001A43491EF9D510467047034603220870D9
:10E2C000000A491C521EFAD51846704710B5202A7C
:10E2D00004DB0846203AD040002110BD0B46D34055
:10E2E000D0402024A21A91400843194610BD0000D6
:10E2F000064C0125064E05E0E36807CC2B430C3C99
:10E3000098471034B442F7D3FBF7DEFE7CE50300F8
:10E31000BCE50300F8B5040C8BB2264682B25E431E
:10E320000D0C1046370C58433604801900217941F2
:10E3300016466E43370C36048019794126466E43E3
:10E340008919F8BD30B47446641E2578641CAB424C
:10E3500000D21D46635D5B00E31830BC184702E045
:10E3600008C8121F08C1002AFAD170477047002060
:10E3700001E001C1121F002AFBD17047020000001A
:10E38000000000000000000000000000982F8A42FA
:10E3900091443771CFFBC0B5A5DBB5E95BC25639F7
:10E3A000F111F159A4823F92D55E1CAB98AA07D80F
:10E3B000015B8312BE853124C37D0C55745DBE7232
:10E3C000FEB1DE80A706DC9B74F19BC1C1699BE4B2
:10E3D0008647BEEFC69DC10FCCA10C246F2CE92D42
:10E3E000AA84744ADCA9B05CDA88F97652513E9866
:10E3F0006DC631A8C82703B0C77F59BFF30BE0C66D
:10E400004791A7D55163CA0667292914850AB727FA
:10E4100038211B2EFC6D2C4D130D385354730A6597
:10E42000BB0A6A762EC9C281852C7292A1E8BFA26E
:10E430004B661AA8708B4BC2A3516CC719E892D1D6
:10E44000240699D685350EF470A06A1016C1A41959
:10E45000086C371E4C774827B5BCB034B30C1C3958
:10E460004AAAD84E4FCA9C5BF36F2E68EE828F7417
:10E470006F63A5781478C8840802C78CFAFFBE9031
:10E48000EB6C50A4F7A3F9BEF27871C6020000004D
:10E490001A000000500000005100000000000000C1
:10E4A000000000000000000000000000000000006C
:10E4B000000000000000000000000000500000000C
:10E4C000000000000000000000000000000000004C
:10E4D000000000000000000000000000000000003C
:10E4E000FFFF0000FFFFFFFFFFFFFFFFFFFFFFFF3A
:10E4F000000000000000000000000000010000001B
:10E50000FFFFFFFF96C298D84539A1F4A033EB2D49
:10E51000817D0377F240A463E5E6BCF847422CE135
:10E52000F2D1176BF551BF376840B6CBCE5E316B79
:10E530005733CE2B169E0F7C4AEBE78E9B7F1AFE3D
:10E54000E242E34F512563FCC2CAB9F3849E17A788
:10E55000ADFAE6BCFFFFFFFFFFFFFFFF000000007A
:10E56000FFFFFFFF0000000004E5030000000000C3
:10E57000000000002200210024000000BCE5030090
:10E58000040000202C0000005EE30300E8E5030027
:10E59000007D0020380000005EE30300E8E5030092
:10E5A00030000020500F00006EE3030020E603005F
:10E5B000387D0020D80100006EE303000000000059
:10E5C0000000000000000000000000000024F40033
:10E5D0000000000003000000D6BE898E000000008D
:10E5E000000000000000000000000000000000002B
:10E5F000000000000000000000000000000000001B
:10E600000000000000000000010100000000000008
:10E6100000000000000000000000000000000000FA
:020000041000EA
:0410140000A0030035
:040000050003A0C193
:00000001FF
