:020000040001F9
:10A00000800F002041AC010053AC01000FA1010002
:10A010000000000000000000000000000000000040
:10A0200000000000000000000000000057AC01002C
:10A03000000000000000000059AC01005BAC010012
:10A040005DAC010069A301005DAC01005DAC0100E5
:10A050005DAC0100000000005DAC01005DAC0100E2
:10A060005DAC01005DAC01005DAC010071A50100BB
:10A070005DAC01005DAC01005DAC01005DAC0100B8
:10A080005DAC01005DAC01005DAC01005DAC0100A8
:10A0900025A301005DAC01005DAC0100EDA5010050
:10A0A0005DAC01005DAC010000000000000000009C
:10A0B00000000000000000000000000000000000A0
:10A0C0000348854604F0E0F80048004715A1010068
:10A0D000800F0020056885F308884068FF2464B27B
:10A0E000EFF30585002D01D1A6460047254606461B
:10A0F00021273FBAF0B40024002500260027F0B441
:10A10000F92040B20047000072B600BEFEE772B60A
:10A1100000BEFEE71C4DA9682B0501221B48002448
:10A12000002904D11A6001680029FCD00460696923
:10A13000002904D19A6041680029FCD044601A616A
:10A14000C1680029FCD0C46011480168FF221204D4
:10A1500091430122D205114301600E49501008605D
:10A1600062B600F011FC00E020BF03F031FE0028D1
:10A17000FAD1094DE869002801D100F0CFFAEC616D
:10A1800000F06AFC20BFFDE7000400400001004031
:10A1900014E400E000E100E0000500408307FF2236
:10A1A000DB0E9A408907090E994000280BDA000758
:10A1B000000F08388308DA489B001818C3699343D6
:10A1C0000B43C36170478308D6489B001818036887
:10A1D00093430B430360704770B50446807B0028AF
:10A1E0001AD0022830D00125CF4800F0A9FE02463F
:10A1F000CE492846484306463146104603F098FFAC
:10A20000CB4A607B5543A2686843891980180818B7
:10A210000002000A606070BDC449607B0B46834049
:10A220004A429D18401C81408818401B0602360A8D
:10A23000BD4800F085FE7608314603F079FF8819A5
:10A24000A16849194018E3E70A25CDE71CB50220AB
:10A2500069464871684600F061FF002100280CD073
:10A260006A46117125209071684601F024F9002892
:10A2700002D0684600F096FF1CBDAE4801701CBDC0
:10A2800010B500F08FFF10BD1FB5002906D0A648FD
:10A290006946983800F0AEFE002803D0009800F020
:10A2A00081FF1FBD0120A449000508601FBDA14812
:10A2B0000078002800D0C9E77047F0B59F48426891
:10A2C0009F4D501E0102090A0C4600200301EE5862
:10A2D000002E0BD05B195B688F1A9E1A36023F0264
:10A2E000360A3F0ABE4201D21902090A401C082858
:10A2F000ECD301200004934B8C4209D05860924B60
:10A30000002018608D48403001608A488260F0BDAE
:10A310009860F0BD87480178002902D101210170C1
:10A3200094E7704738B5834C11E0009800F062FF65
:10A33000012800D00020002803D184A2C521FFF706
:10A34000E3FE616800988847009800F02BFF7C4886
:10A350006946803000F07AFE0028E6D02078002898
:10A3600001D1FFF7D7FF38BD10B501F0CCF810BD13
:10A370000120704738B56F4900240C7048604C804C
:10A3800080216F4803F043FF674980390846183839
:10A3900001600421416020214461816000F01CFEC5
:10A3A00000F0B4FE604800F0F6FD0090002803D0F5
:10A3B00066A2EF21FFF7A8FE02211420FFF7EEFEB0
:10A3C000012066490005086000210120FFF7E6FE34
:10A3D000634A6449644801F01AF838BDF8B51D00B5
:10A3E0001646074601D10C2E03D8002F01D00829AC
:10A3F00001D30020F8BDEFF31080C007C00F72B684
:10A40000009008014E4944182068002801D000F04F
:10A41000C9FE384600F0A2FE276026730020607354
:10A4200046484068A060A5732046FFF7D5FEFFF7B9
:10A4300044FF0098002800D162B60120F8BD70B535
:10A4400001253D49ED0280390D6008280CD23C49B8
:10A4500000014418206800F0A5FE00202060606024
:10A46000A060E060FFF729FF3C48056070BDFEB5C5
:10A47000324847680025BF1C314B2E0198590028EF
:10A4800043D02C4AF41861689268791ABA1A090202
:10A490001202090A120A914237D800216A46517104
:10A4A00000901171D171E07B032812D22520114652
:10A4B0009071084600F0FFFF002803D12048805922
:10A4C00000F04CFE69468879401CC0B2887127288C
:10A4D000EFD90020E073607B194A411CC9B2617357
:10A4E000FF2805D1214BA068C0180002000AA06017
:10A4F000207B81420FD3FF280DD0905900F052FEEF
:10A50000002020606060A060E0606D1C082DB3D367
:10A51000FFF7D3FEFEBD2046FFF75EFEF5E7000025
:10A5200000ED00E000E400E048010020CD0C000058
:10A530009A1900000400002000E200E000B500408D
:10A540003000002000B3004040B100402E2E5C746B
:10A5500072616E73706F72742E63000000E100E030
:10A5600081A2010089A20100AFA20100009A190096
:10A5700070B5184C20680026174D002805D0686873
:10A58000C00302D52660FFF772FF6068002808D07C
:10A590006868800305D5666001204004A86000F06B
:10A5A000B8FA70BD0D490020886003200A490004F4
:10A5B000403148600A490120886008600948016804
:10A5C0000902090AC206114301600749D014086054
:10A5D0007047000040B1004000B3004000B50040AB
:10A5E00000B0004008E400E000E100E030B50024E5
:10A5F00001258BB06D075AE068460078641C01287D
:10A60000019806D00299A84247D3FF2203F0F8FD33
:10A6100045E0800703D00020002802D006E001209A
:10A62000FAE7FBA291210020FFF76EFD0398800757
:10A6300003D00020002802D006E00120FAE7F4A2AF
:10A6400092210020FFF760FD0298800703D00020D0
:10A65000002802D006E00120FAE7EDA293210020B5
:10A66000FFF752FD0198A8420DD30146002006E0F5
:10A67000029B0A781B5C401C1A400A70491C039A12
:10A680008242F5D804E00023039A029900F03AFED2
:10A69000602069460874029805E000F009FE612018
:10A6A000694608740198059004A800F0E9FF69461E
:10A6B000DB4800F0CBFC00289ED0002C05D06220A7
:10A6C0006946087404A800F0DBFFD54800F015FDCA
:10A6D000D4490978084205D0122001F077FA0068C1
:10A6E00000F0B8FF0BB030BD00B587B000F0A2FDA0
:10A6F000002811D04179027909021143CA4A9142D6
:10A700000AD902216A461170011D01910078C01E0C
:10A710000290684600F0B4FF07B000BD30B50446B3
:10A7200085B0122001F052FA0546062C09D004DC4F
:10A73000002C06D0012C37D103E0082C2ED00A2C97
:10A7400032D1002D24D002F006FF002820D0B448DA
:10A7500000F0D3FC00281DD003F0D0FCB3486C46B9
:10A760000FC80FC4684618DF0490002803D0A8A2C1
:10A77000AF49FFF7C9FC286813DF0490002804D014
:10A780008B21A3A28900FFF7BFFC286800F062FFBD
:10A7900005B030BDA34901200870F9E7A4499CA287
:10A7A00019310020FFF7B0FC72B6FEE7F0B50446A1
:10A7B0000078012587B025287ED00EDC22287CD0A9
:10A7C00006DC02287AD020281BD0212816D159E097
:10A7D000232874D0242811D1A7E00021612848D073
:10A7E00008DC944E944F50286AD0512869D06028D4
:10A7F00004D10CE0622838D070283AD0062007B087
:10A80000F0BD2079FFF78AFF02F03EFDB6E0684612
:10A81000009100F083FC00287DD0009800F0F7FC48
:10A820000098017809090901891C0170217A0A310F
:10A83000417016218172E421C172FE210173217AD7
:10A84000C91C41720D30A268616803F0C7FC237B0C
:10A85000627BA17B0098FFF7C1FD0446009800F0E1
:10A86000A1FC002C04D10320C9E72079FFF7E7FD04
:10A8700084E0A068714A410CC003002303F06EFC21
:10A8800002214FE000F07CF92079022802D0012853
:10A8900007D073E0232069460870684600F0F0FE98
:10A8A00025715F482021183801700021C9430161DA
:10A8B000617901710A2205E03BE017E00BE02EE030
:10A8C0005EE03FE0A11D401D03F088FC54481838AD
:10A8D00000F0D6FE93E7207902284FD102F03BFE2C
:10A8E00000284BD1022003F046FA47E020790228E5
:10A8F00044D100F045F921206946087001A80A22D8
:10A90000E11D013003F06AFCA079694608716069B5
:10A910000490684600E02EE000F0B2FE2EE0052034
:10A920000121400400F01AF928E00121052000046B
:10A93000F8E76079042801D001281FD10020FFF733
:10A94000EDFE1BE02079800702D1207A800701D03C
:10A95000102054E7207B800701D009204FE768468C
:10A960000570241D07CC01AB07C369462C4800F0D5
:10A9700041FB002801D0042041E73E6000203EE773
:10A98000022069460870ECE770B588B0FFF70AFE50
:10A990001821234803F03BFC21492148183101606C
:10A9A000082510218560416000F016FB24480168ED
:10A9B00003220902090A920711430160214928056F
:10A9C0000126086000F007FF002468460471067243
:10A9D0001D480390684606744574847401A800F00D
:10A9E0004FFE0790002804D0FF2109A2BE31FFF7D7
:10A9F0008BFB16491648FFF7BDFC684603F09CF92F
:10AA000068460078002801D01248C46108B070BDC3
:10AA10002E2E5C626F6F746C6F616465722E6300C2
:10AA20007001002010000020EFFF000014E301007F
:10AA3000290200000000800000E200E040420F0018
:10AA400014E400E000E100E0ADA70100D6BE898E6D
:10AA5000E9A601000005004030B58BB00120694631
:10AA6000087303A800F00CFEFFF754FC02F073FD1E
:10AA7000002805D005200321000400F06FF831E61E
:10AA8000042001F0A3F80446122001F09FF80546C7
:10AA9000022003F070F90028F1D02078400709D592
:10AAA00028680068401C05D1401F009069460420BA
:10AAB00001F019F902F028FD0500E0D003F05BF980
:10AAC0000528DCD1022001F081F8041E00D001200D
:10AAD000002804D1FF212E4AFF31FFF715FB012D7D
:10AAE0000ED0042D10D00B20294A2A490990FFF7D7
:10AAF0000BFB0022D2436946284602F0E0FBF1E559
:10AB0000208869460880F4E7241D07CC6B4607C3FC
:10AB1000EFE730B5204D0024687887B0012815D0C4
:10AB200002280ED0032815D008209721184A890042
:10AB30000690FFF7E9FA6C70684600F0A1FD07B0D7
:10AB400030BD0320694608700C71F4E72320694684
:10AB50000870F0E70020FFF7E1FDF0E70F4B00225F
:10AB60005A600F4A5268101800020D4A000A40321B
:10AB7000506001200B4A4004506007484170704704
:10AB8000012008494004886003490020487070474C
:10AB900010AA0100090200001000002040B100408E
:10ABA00000B5004000B3004010B500F01DF80028CB
:10ABB00005D01F491D4848601E48C91381611E48C1
:10ABC000018CC9B201290ED1818C09070BD1018DED
:10ABD0000906090F042906D1808D0006000F02D155
:10ABE00016490120886010BD1349088CC0B20128A5
:10ABF00017D1888C000714D1088D0006020F03D1ED
:10AC00008A8D1206120F0ED0000F012803D18A8DF3
:10AC10001206120F07D0032803D1888D0006000FFB
:10AC200001D000207047012070470000DFFF07C0FF
:10AC300000050040006C0040C00F00F0000600401E
:10AC40000748026803210A43026006488047064815
:10AC50000047FEE7FEE7FEE7FEE7FEE7FEE700004F
:10AC600024050040A9AB0100C1A00100F3B50025F7
:10AC7000CDB004462E464E988019074603F0DFFA01
:10AC800000BA010AF87809020143AA000CA86D1C59
:10AC9000361D8150102DEED321E0A80084460CA96A
:10ACA00040188038816F11230A46DA4113230E467B
:10ACB000DE417240890A4A40416C07270B46FB413E
:10ACC00012270E46FE417340C9084B40D118426E10
:10ACD000006C10180A1860460CA90A506D1C402D13
:10ACE000DBD3206D0B90626D0A92A76D0997E16D21
:10ACF00006910191216E0891636E05930093A36EF6
:10AD000007939E46E36E0493029300239C4606231A
:10AD10000D46DD410B260B46F3415D4019260B46DF
:10AD2000F3415D40009B0E461E4073468B435E40E0
:10AD3000AE1963469B00794D0393ED58029BEB18C7
:10AD4000F618039B0CADEB580225F318039303464A
:10AD5000EB410D260546F5415D4016260346F341BD
:10AD60005D4013467B40164603403E407340ED185D
:10AD700073460293009B009101999E46039B0197A5
:10AD800017460246C918581963465B1C9C46402B5F
:10AD9000BDD30B9B181820650A9880186065099828
:10ADA000C019A065019A06988018E06508984018B7
:10ADB0002066009905984018606607987044A06660
:10ADC000029904984018E0664FB0F0BD002815D0F5
:10ADD000002101648164C1645149016551494165A3
:10ADE000514981655149C1655149016651494166E1
:10ADF000514981665149C166002070470E20704755
:10AE0000F8B516460F46040005D0002E01D0002FDD
:10AE100001D0002518E00E20F8BD216C785D60544B
:10AE2000206C401C206440280DD121460846FFF7C5
:10AE30001DFF0123A16C5B020022E06CC918226493
:10AE40005041A164E0646D1CB542E6D30020F8BD1A
:10AE500070B50D46040008D0002D06D0206C80226D
:10AE600000213828225403D307E00E2070BD21545E
:10AE7000401C3828FBD30BE02154401C4028FBD356
:10AE800021460846FFF7F2FE3821204603F0BFF9BD
:10AE9000206CA26C430FC0001218E16C204659418F
:10AEA000A2640E06130A2030E1643343C27783772D
:10AEB0000E04130C334343770B02110E1943017731
:10AEC000E16CC1760A0A82760A0C4276090E017696
:10AED00021460846FFF7CAFE00221826D000216D41
:10AEE000301AC140A954636DC340A9180B71A36DFA
:10AEF000C3400B72E36DC3400B73236EC3400B74EE
:10AF0000636EC3400B75A36EC3400B76E36EC34004
:10AF1000521C0B77042AE1D3002070BD24E301000A
:10AF200067E6096A85AE67BB72F36E3C3AF54FA5DA
:10AF30007F520E518C68059BABD9831F19CDE05B06
:10AF400030B54268052411460368E141591A836807
:10AF50000F251C46EC4162400260C4681B19436027
:10AF6000631851188360C160084630BDF0B5164DB6
:10AF700001242C60154A0027154E07E01368002BAA
:10AF8000FCD0B368491E89B2435417600029F5D13B
:10AF90006C600020F0BD38B505460020009004210B
:10AFA0006846FFF7E3FF00280DD10A4828600098A3
:10AFB0006860A8600024E8602846FFF7C1FF641CB1
:10AFC000142CF9D3002038BD00D0004000D100403F
:10AFD00000D50040ED5EEAF1836820211A46491E43
:10AFE000CA40D207FAD001228A400021C1608260A3
:10AFF0000161704770B5044600290DD0EFF3108051
:10B00000C507ED0F72B6A26820698318E068834215
:10B0100007D1002D02D002E00E2070BD62B60420E0
:10B0200070BD521E1040626823685043C0186369A7
:10B03000002B01D0984701E003F0D0F8E068401CF5
:10B04000E060002D00D162B6002070BD70B50E46E4
:10B050000446EFF31080C507ED0F72B6E168206972
:10B06000884204D1002D00D162B60E2070BD002EA2
:10B070000ED0A1686268491E0840216850434118FB
:10B0800063693046002B01D0984701E003F0A6F831
:10B090002069401C2061002D00D162B6002070BDE7
:10B0A000C1680069081A704770B50D000CD0EFF345
:10B0B0001081CC07E40F72B6C36801695B1A934232
:10B0C00004D8002C00D162B60E2070BD89188268A9
:10B0D0000368521E114042685143C918436928460B
:10B0E000002B01D0984701E003F078F8002C00D144
:10B0F00062B6002070BD0022D6E70169C0688142B7
:10B1000001D10120704700207047000000205B4AF9
:10B1100001461154401C2028FBD3704710B5574BF3
:10B120000021EFF31082D207D20F72B65C5C002CC4
:10B1300002D0002A0CD00CE001245C54282359438F
:10B140004F4BC9180160002A00D162B6012010BD22
:10B1500062B6491C2029E4D3002010BDF8B5484947
:10B16000401A282102F0E4FF0446202801D30020E1
:10B17000F8BDEFF31080C507ED0F72B63F4E305D9E
:10B18000002801D0FF2805D104203EA261210090B3
:10B19000FEF7BAFF305D401C3055002D00D162B67D
:10B1A0000120F8BD38B53649401A282102F0C0FF09
:10B1B00020281DD2EFF31081CC07E40F72B62F4A7E
:10B1C000115C002905D0491EC9B21154002C0AD0C7
:10B1D0000AE008202BA275210090FEF795FF002CB5
:10B1E00006D162B604E062B6002901D0012038BD64
:10B1F000002038BD224910B5401A282102F098FFDE
:10B20000202801D3002010BD1C49085C10BD10B5DA
:10B21000044606222449C01C02F0E0FF22482438DC
:10B22000006A2178C007BF22400E114001432170FF
:10B23000002010BD70B502000ED0104653780930C2
:10B24000062B09D9252B07D80DE00178851A093D71
:10B250004E199D1FAE4201D9002070BD4D01691AE3
:10B2600008181F3000E0114C41781629EDD1C17843
:10B27000857809022943A142E7D170BD0807002063
:10B28000080200202E2E5C2E2E5C7262635F6D65BC
:10B2900073685C7372635C6D6573685F7061636B28
:10B2A00065742E6300000000A4000010E4FE00009E
:10B2B000F8B5012504462D0728690A4681B2286998
:10B2C00080B28018401E02F033FF0021C3B2244E2A
:10B2D000244A0F4613E00220706010680028FCD05A
:10B2E000B46010680028FCD0776010680028FCD09B
:10B2F00028690004800C80000419491CC9B29942D5
:10B30000E9D3F8BDF0B5944600249A0892001318CA
:10B3100025462046134E20E00F78491CFA432A4365
:10B32000D5B2114A1755641CE4B2042C14D1002480
:10B33000002D0FD00A4F01257D603568002DFCD00F
:10B3400012681A603268002AFCD000227A603268E3
:10B35000002AFCD000251B1D401C6045DCD3F0BD3D
:10B3600000E5014000E40140180000209E49002053
:10B3700008609E49401E88609D49012008619D49E2
:10B38000022008707047FEB5974A13211160817939
:10B39000994B0A2902D84A00121D0EE0242902D82E
:10B3A0004A00921D09E0954A6E4634CA34C68A00A6
:10B3B0006C461219FF3A013AD26E9A6049068E4ADB
:10B3C000490E4032516101685960884A0821516034
:10B3D0008B490025CD60874A51680C0E9C620C0297
:10B3E0001C624779824E0124002F05D08548814296
:10B3F00009D00320186307E00179D962C079D860C9
:10B4000034601470FEBD1C6374601570FEBDF7B52A
:10B410007D480024C4630123C3637748C4600321CB
:10B42000016102278760744E2521403671618E21AB
:10B4300041627649C1616F4D69680A0E82620902F4
:10B440000162C46203637249416172498161724958
:10B450008163FF21043141637049C16394207060AE
:10B460002878032809D16E480821024681601832E5
:10B47000446102604160FFF7AFFD61482F703E46B6
:10B48000C46068480760684807600098A860019831
:10B49000E860029828616248FFF72FFE002802D07A
:10B4A000A8688047FEBDFEF763FF0028FAD05D481C
:10B4B00080380660FEBD10B5002803D04179002910
:10B4C00002D006E00E2010BD0179012901D910201B
:10B4D00010BD01465248FFF78DFD002801D0042021
:10B4E00010BDEFF31080C407E40F72B6FEF740FF03
:10B4F000002803D04B49022080390860002C00D17D
:10B5000062B6002010BDF0B53D4F85B0F86800254B
:10B51000384E002830D045490868002800D0012066
:10B520000390C8680290F8696424002804D0FD6183
:10B53000314840308068C4B2FD6069463848FFF742
:10B5400085FD0490002804D0FF2139A24931FEF77F
:10B55000DBFD68464079012807D0022805D0316913
:10B5600000988847022030702FE02346F468029A42
:10B5700003990098A047F5E72948FFF791FD044695
:10B580001CE069462648FFF7B6FD002818D168463A
:10B590004079022814D100212148FFF757FDFFF719
:10B5A000E5FE1548403001690029FCD10020F86013
:10B5B0006423F5684A1E0098A847641E012CE0D851
:10B5C0003078022801D0032807D169461448FFF7D4
:10B5D00092FD002803D0B068804705B0F0BD6846F2
:10B5E000FFF7D1FEF9E70000001200400013004011
:10B5F000001000401C0000200015004024E4010061
:10B6000000110040D6BE898EC01F004000D6BE8902
:10B6100006010200250003025B0600005555550097
:10B620002807002080E200E000E100E00014004074
:10B630002E2E5C2E2E5C7262635F6D6573685C7388
:10B6400072635C726164696F5F636F6E74726F6C5A
:10B650002E63000010B5FEF73DFD10BD824949681C
:10B66000002900D00847082070478AB001236C46A3
:10B67000237001AB07C36846FFF7F0FF72B6FEE721
:10B6800030B504460078FF25AD0289B023286FD07D
:10B6900013DC7549042851D008DC002822D0012889
:10B6A0003FD0022840D0032817D144E0202850D0B2
:10B6B000212854D0222810D157E0322872D006DC3D
:10B6C000242858D030285AD0312806D15FE060288D
:10B6D0006CD0612872D0622875D0002211460620F5
:10B6E000FFF7C3FFA0684860A07B00280AD00020B5
:10B6F0000870207B002802D0607B022804D207203B
:10B7000009B030BD0120F3E77F21C902284600F0CF
:10B7100019FA002801D00320F2E7607B01F0A0FDB8
:10B7200057E001F0B1FD54E02089012281B2606848
:10B7300001F0F5FDE4E701F0C3FE4AE000206A46AF
:10B740001070241D1DCC01AD1DC549686846884791
:10B75000D6E72079611D226901F0B1FDD0E720799B
:10B76000611D226901F0C0FDCAE70620C8E7FFE7B6
:10B7700001F00DFF2DE0207902F0FDFAC0E7A0886E
:10B7800000F024FAA060002823D10520B8E7A088A3
:10B79000E268A16800F035FAA8421AD21020AFE79B
:10B7A00000E003E0A08800F0B3FA12E0606802F065
:10B7B00055F90120616803E000E004E002206168BF
:10B7C00000F0B5FA05E000F0DEFA02F0F6FA01F05A
:10B7D000E2FE002094E701200007816B406B4143AB
:10B7E00022480818224901601F49012008700020E2
:10B7F000704700B589B020216A4611701071684603
:10B80000FFF72CFF09B000BD70B58AB016460D4693
:10B81000044624221749684602F0E0FC01A970C1E1
:10B820006846FFF71BFF0AB070BD30B50D461149E1
:10B8300089B0044624222431684602F0CFFC6846D1
:10B8400002950194FFF70AFF5AE700B589B062211B
:10B850006A46117010716846FFF700FFD2E7024890
:10B860000121007848407047003D0020FCFFFF1F89
:10B8700081B6010030E40100F0B504460078FF28ED
:10B8800015D000190125AD02002365190127428852
:10B89000F94E7F020EE00488A4002018A84206D8C2
:10B8A000B24201D18A4202D15B1CBB4201D90020C5
:10B8B000F0BD42888A42EED1001DF0BDF8B5EF4DD3
:10B8C00004462869844204D0002211461020FFF764
:10B8D000CCFEEFF31080C207D20F72B62869E84B96
:10B8E00000889842E868018801D1491C01E0268857
:10B8F000891901802088E349800000190C46803CAA
:10B900002861884200D12C612869DB4F4688BE42FD
:10B9100007D106889E4204D1001D2861884200D1CB
:10B920002C61002A00D162B6F8BD0188D54A890091
:10B930000818D2499042C86002D110468038C860C9
:10B940000969884209D00A1A9203120C02808142C6
:10B9500001D220320280002141807047F8B50146B3
:10B96000EFF31080C507ED0F72B6C44FFC68208856
:10B9700083008B4202D36088002804D0002D00D1C0
:10B9800062B60020F8BDBF4E8A033869120C803EB3
:10B99000844204D1FE603E610EE062B614E0301BCA
:10B9A0008030814212D91B1A8B42E7D3B2498003FF
:10B9B0006180000C2080FE60328000207080304664
:10B9C000FFF7B3FF002DE8D03046F8BD22802046B7
:10B9D000FFF7ABFF002D00D162B62046F8BD10B5D1
:10B9E000A84C022020700422A1686068FFF70CFFB9
:10B9F000002801D00120207610BD70B50126A14D90
:10BA0000B60227E048889E4A904228D000281CD0E1
:10BA100009888C005110884200D104242869696883
:10BA200000198919884204D9002211460320FFF722
:10BA30001CFE2246E9682869FFF7E6FE002812D1BD
:10BA4000E8686861286900192861E8680188890048
:10BA50000818E860A868E96880198142D2D30120FB
:10BA600028760420287070BD70B5864C2278002A94
:10BA700001D0082070BDA1606060012121707F4964
:10BA800001254978002904D1A902FFF7CEFE00283C
:10BA900000D02576002070BD70B5784A0C4612782B
:10BAA0000546012A04D0002211461046FFF7DDFDAD
:10BAB00021462846FFF7E0FE00F090F9002802D06A
:10BAC00000F07DF970BD052070BDFFB581B0DB1CB5
:10BAD0000A9F9D08AD00BE007019001DFFF73EFFD4
:10BAE00004002DD0002F07D060190746FF2208213F
:10BAF00002F086FB6048F8800721A80389034018FC
:10BB0000000C2080029860802A46201D039902F0D4
:10BB100065FBED1DA8088000821915462146019895
:10BB2000FFF772FE002808D02A4621460198FFF749
:10BB30006BFE00221146FFF798FD002005B0F0BD16
:10BB40000420FBE770B54D4D00222A7002460A43DF
:10BB5000920501D0102070BDA9604A496860803903
:10BB6000E960202229610A8000F046F96861002816
:10BB700026D1A86800F040F9040025D00126B602BD
:10BB800031466868FFF751FE002807D031466868E3
:10BB9000FFF74BFE00221146FFF767FDA9686868B2
:10BBA000621A121DFFF730FE002809D0A9686868E4
:10BBB000621A121DFFF728FE00221146FFF755FDFD
:10BBC00001202870002070BD0B2070BD0146FF20B1
:10BBD000800251E610B5294C2078012804D00022BB
:10BBE00011461046FFF741FD042020706168081DD2
:10BBF0006061A068FFF738FF002801D103212170A0
:10BC000010BDF7B51D4F82B038781546012804D015
:10BC1000002211461046FFF728FD542D04D90022BA
:10BC200011461046FFF721FD387D800704D0002221
:10BC300011461046FFF719FDFF21786989028842F5
:10BC400004D8002211461046FFF70FFD0298FFF7B7
:10BC5000BDFF00F0C3F87C690646002C14D001211A
:10BC60007A686019890251180830884210D300227E
:10BC70001146082027E00000FF7F0000083D00205B
:10BC8000FFFF0000B83D0020002211460E201AE000
:10BC90000120787000902B462046039A0299FFF706
:10BCA00014FF00280CD1ED1DA80879698000401808
:10BCB0007861002E0BD0304600F081F8002806D0C5
:10BCC000002211460420FFF7D0FC002036E70121B6
:10BCD0007A687869890251185830884201D3FFF791
:10BCE00079FF201D2AE738B50C460546FFF76EFFA1
:10BCF00000F074F8002809D0018822468B0000214A
:10BD0000009129461B1FFFF7E0FE38BD052038BD16
:10BD10000146FF208002BFE651480178012902D187
:10BD20004078002801D0002070470120704770B58E
:10BD300005460C46012808D14A48844205D3803084
:10BD4000844202D20846FFF7B9FD2146284600F09A
:10BD50005CF844488030007800280BD1404C2078B3
:10BD6000032808D0052805D1606800F045F8606117
:10BD70000120207070BDA1686068FFF775FE002883
:10BD8000F8D10520F5E710B5354800224270C068AB
:10BD90003449428080310878002809D00B7E002B7E
:10BDA00006D00A76012804D0022801D1FFF717FE39
:10BDB00010BD486801218902FFF737FD10BD10B59D
:10BDC0000446810704D0002211461020FFF74DFCE5
:10BDD000042225492046FFF717FD10BD002803D097
:10BDE00001218904884201D1002070471C4949681B
:10BDF00049788900401A704710B51C49FFF73CFD8F
:10BE0000002801D0FFF7EAFF10BD10B5154C8034B3
:10BE1000227823465B68012A0DD0022A12D0032A19
:10BE20001BD0042A06D1012804D16069884201D1BF
:10BE30000020207010BD0228FCD18B42FAD1FFF700
:10BE4000CEFD10BD0128FCD1A0688842F9D10321A4
:10BE500021701B1D001D2361E060FFF7CEFD10BDAA
:10BE6000083D0020383D002078E40100FF7F0000FD
:10BE70000246491E03D48B00D358002BF9D0491C2D
:10BE800005D08A0010188038C06F002203E000201F
:10BE900070474008521C0028FBD148012038801808
:10BEA000704710B507229300C458CB589C4201D963
:10BEB000012010BD9C4202D20020C04310BD521E82
:10BEC000F1D5002010BDF0B50646002003469D00C8
:10BED0004C595759E7193F18BC4204D0BC4201D90C
:10BEE000012000E000205B1C7751082BEFD3F0BD50
:10BEF000F0B50646002003469D004C595759E71BF4
:10BF00003F1ABC4204D0BC4201D2012000E0002014
:10BF10005B1C7751082BEFD3F0BDF8B51D461746D3
:10BF200002F0C4F93B682A681C184A41069B164671
:10BF30001B68201A8E4101D2012000E00020191850
:10BF4000069801602A603C60F8BDF7B5002084B017
:10BF500015460E46019002900746039000240BE020
:10BF600003A80090381B80002958A000305802AB6D
:10BF700001AAFFF7D2FF641CBC42F1D9BA000498B1
:10BF800001998150029801900398029000207F1C33
:10BF90000390082FE2D30827FC1F0BE003A80090B2
:10BFA000381B80002958A000305802AB01AAFFF7C7
:10BFB000B4FF641C082CF1D3BA0004980199815095
:10BFC000029801900398029000207F1C03900F2F8D
:10BFD000E2D304980199C16307B0F0BDF0B589B010
:10BFE0000C46064600F0CFFB002502950195009512
:10BFF000E06A0390206B0490606B0590A06B069044
:10C00000E06B6A46114607900846FFF75CFF07465B
:10C0100031466A460846FFF756FFC719206B039062
:10C02000606B0490A06B0590E06B6A461146069029
:10C0300007950846FFF747FFC71931466A46084685
:10C04000FFF741FFC719206A0090606A0190A06A5B
:10C050000595049503950290A06B0690E06B314620
:10C0600007906A460846FFF72EFFC719606A0090DE
:10C07000A06A0190E06A0290606B0390A06B04904C
:10C08000E06B0590606B0690206A314607906A4627
:10C090000846FFF718FFC719E06A0090206B01906F
:10C0A000606B0595049503950290206A0690A06A3E
:10C0B000314607906A460846FFF71AFF3F1A206B81
:10C0C0000090606B0190A06B0290E06B0595049569
:10C0D0000390606A0690E06A314607906A46084617
:10C0E000FFF706FF3F1A606B0090A06B0190E06BBA
:10C0F0000290206A0390606A0490A06A06950590F9
:10C10000206B314607906A460846FFF7F1FE3F1A5A
:10C11000A06B0090E06B02950190606A0390A06AAA
:10C120000490E06A06950590606B314607906A4678
:10C130000846FFF7DDFE3C1A0ED53146F94A08469F
:10C14000FFF7C1FE0419F8D409B0F0BD3146F54A35
:10C150000846FFF7CDFE241A002CF7D13146F148EE
:10C16000FFF79FFE0128F1D1EEE7F0B50746A1B039
:10C1700016460C46084600F0F1FA002804D038466E
:10C1800000F0E4FA21B0F0BD214610A800F0FBFA5F
:10C19000314618A800F0F7FA684600F0D7FA0120F7
:10C1A000009008A800F0D2FA0125ED0764E010998C
:10C1B0000024C9072ED01899C9072FD0002838DDD0
:10C1C00010A918AA0846FFF793FE10A800F0E4FA99
:10C1D00008A96846FFF765FE002804DA694632467A
:10C1E0000846FFF770FE694608AA0846FFF780FE7A
:10C1F0000098C00705D0694632460846FFF763FE3F
:10C200000446684600F0C8FA002C35D00798284349
:10C21000079031E010A800F0BFFAE9E718A800F095
:10C22000BBFA1EE008A932460846FFF74CFE04465A
:10C230001AE018A910AA0846FFF75AFE18A800F03D
:10C24000ABFA694608A8FFF72CFE002804DA08A913
:10C2500032460846FFF737FE08A96A460846FFF748
:10C2600047FE0898C007DDD108A800F095FA002C19
:10C2700002D00F9828430F9018A910A8FFF711FEBD
:10C28000002894D16946384600F07DFA7AE7F0B587
:10C29000044691B00E461546104600F05FFA00289D
:10C2A0007ED132461146684600F0A5FA6A4621461C
:10C2B00008A800F0A0FA6A461146084600F09BFA6A
:10C2C00031462A46084600F096FA2A4611460846A4
:10C2D00000F091FA2146934B2A46084600F06BFA8B
:10C2E0002A4611468F4B084600F065FA2A468D4BC8
:10C2F0002146104600F072FA21462A46084600F010
:10C300007AFA2246874B1146284600F054FA214615
:10C31000844B2A46084600F04EFA0021204600F0E1
:10C3200029FA00280DD021467E4A0846FFF7CBFDAA
:10C330000746204600F030FAE069F9070843E0615B
:10C3400002E0204600F028FA22461146284600F076
:10C3500052FA2946734B08AA084600F03FFA2946CC
:10C36000704B08AA084600F039FA08A96D4B2A4616
:10C37000084600F033FA214608AA084600F03BFAC6
:10C380006A46684B2146104600F028FA29462046A6
:10C3900000F0F9F93146284600F0F5F9694600E069
:10C3A00002E0304600F0EFF911B0F0BD70B588B092
:10C3B0000E46044615461146684600F01CFA214612
:10C3C0006A46084600F017FA69462A46084600F011
:10C3D00012FA31466A46084600F00DFA08B070BD00
:10C3E000F0B5174689B01E460C46054602464D4B31
:10C3F0003946684600F0F2F96A461146084600F0F0
:10C40000FAF929466A46084600F0F5F939466A46BF
:10C41000084600F0F0F93146424B2246084600F04B
:10C42000DDF932461146684600F0E5F969463D4BB4
:10C430002A46084600F0D2F969463A4B3A46084681
:10C4400000F0CCF93946374B2A46084600F0C6F9C9
:10C4500021463A46084600F0CEF9324B6A46294654
:10C46000384600F0BBF931463A46084600F0C3F9B9
:10C4700031462C4B2246084600F0B0F96946384652
:10C4800000F081F960E6F7B5B4B023A8109013A8C6
:10C490001190FFF75AFD234908A86031129000F06F
:10C4A00072F9684600F052F9012400250120001BB2
:10C4B000810010A841586E468E46A10040580022C7
:10C4C0008446104683006746F958F758CF1BBF1AB9
:10C4D000B94204D0B94201D2012200E000227146E3
:10C4E000401CCF501028EDD3944201D1012400E02C
:10C4F0000024304600F050F908990798C90708430E
:10C500000790129800F048F9FF2001306D1C854219
:10C51000CCDDA10010A84158349800F034F937B0B0
:10C52000F0BD00007CE40100F0B5F5B00F4600243A
:10C5300006460146154617943CA81F9400F067F97B
:10C54000314644A82031064600F061F9294610A87A
:10C5500000F05DF92946203118A800F058F910A81C
:10C5600000F0FCF800287DD118A800F0F7F80028AA
:10C57000F9D110A9B148FFF794FC0128F3D118A90B
:10C58000AE48FFF78EFC0128EDD1AC4A18A96846E9
:10C59000FFF7EBFD394608A80F9400F038F908A919
:10C5A0006A460846FFF76FFF6A4610A95CA8FFF7C6
:10C5B0006AFF3CA924A800F0E6F82CA831460446FE
:10C5C00000F0E1F89D494CA8403900F0DCF89B49A7
:10C5D00054A8203900F0D7F8984B4CAA603B24A906
:10C5E000684600F0FBF8234624AA54A94CA8FFF79C
:10C5F000F7FE924A6946603A0846FFF7B6FD6A467A
:10C60000214624A8FFF7D2FE8C48203003C8209092
:10C610003CA8229024A821912390082108A8FFF784
:10C6200027FC044608215CA8FFF722FC844200DDB9
:10C6300020460446411E08A800F09CF8002801D0BE
:10C64000012500E00025611E5CA800F093F8002899
:10C6500000D0012040000543A80020AE355834A882
:10C66000294600E06DE000F08EF82946203164A8EC
:10C6700000F089F8684600F069F801200090A41ED7
:10C680003CD46A4664A934A8FFF701FE214608A8F5
:10C6900000F070F8002801D0012500E000252146B7
:10C6A0005CA800F067F8002800D001204000054396
:10C6B000A8003558002D1FD029464CA800F063F87B
:10C6C0002946203154A800F05EF86A4654A94CA8C7
:10C6D000FFF76CFE594B4CAA603B34A96CA800F0E4
:10C6E0007DF864AB34AA54A94CA8FFF779FE6946DB
:10C6F0006CAA084600F07FF8641EC2D54F4A69460E
:10C70000603A0846FFF731FD6A4664A934A8FFF78E
:10C710004DFE34A94948FFF7C4FB012804D034A9D1
:10C72000464A0846FFF7E4FB002134AD10AC072071
:10C730008200AB58A25853401943401EF8D5002937
:10C7400002D0002075B0EBE60120FBE700210A468D
:10C750008B00491CC2500829FAD3704700218A0077
:10C760008258002A01D000207047491C0829F6D3BE
:10C77000012070474A1192008058CA06D20E01214A
:10C7800091400840704710B500229300CC58521CCD
:10C79000C450082AF9D310BD10B50346002220303A
:10C7A00004E001684C081443CA0704600146001FF6
:10C7B0009942F6D810BD70B51C460546FFF783FBBD
:10C7C000002805D121462846FFF76BFB002804DB33
:10C7D000294622460846FFF78BFB70BD70B51C4604
:10C7E0000546FFF785FB002804D029462246084667
:10C7F000FFF769FB70BD10B590B004466846FFF7BF
:10C80000A4FB69462046FFF7E9FB10B010BDF8B560
:10C810000E46074600240720001B80008519284685
:10C8200001F00DFD00BA000AE97800020843A100FA
:10C83000641C7850082CEED3F8BD0000DCE4010045
:10C8400010B50420FFF7C2F9FB4C20610220FFF76E
:10C85000BDF920601220FFF7B9F9E0601120FFF761
:10C86000B5F9A0601020FFF7B1F960600120FFF773
:10C87000ADF96061FF202169800281420BD32168FC
:10C88000814208D3E168814205D36168814202D3C5
:10C89000A168814202D20820FEF7ABFF10BD70B53F
:10C8A0000546083001F0CBFC0446401C00D10024B2
:10C8B00028460C3001F0C3FC21078000090F401806
:10C8C000697C401E00092A7C0902401C114301D0EA
:10C8D00009090818D949884200D9084670BD70B5C1
:10C8E000D74D8AB06C78EE78B44201D2002C01D1D9
:10C8F00001246C7060266C462670029101902273B0
:10C9000063736878A0736846FEF7A8FE002802D11A
:10C910006978491C69700AB070BD30B5C64CA7B0C3
:10C92000606900283BD02546743DE869002837D06F
:10C9300002A8FEF74BFA0122691D02A8FEF760FA71
:10C9400021460422643902A8FEF75AFA214604223D
:10C950005C3902A8FEF754FA0020694608700122EB
:10C9600002A8FEF74DFA687921460E39012819D040
:10C97000022817D0042803D10A2202A8FEF740FAA1
:10C9800002A801F05DF81EA902A8FEF761FAAA4A02
:10C990001EA9543A6069FFF7C7FD002800D00120A6
:10C9A00027B030BD0222E8E7F0B591B00546182166
:10C9B000684601F02CFCFF200F9002260024681E20
:10C9C000022827D8E01E6A4610809B49D078743927
:10C9D0000F79C0087A07C000520F1043F7221040A9
:10C9E0000A466032527CD207120F10436A46D0705A
:10C9F0000968019192490978072915D0EF2108406B
:10CA0000D0708D490A220E3902A801F0E7FB002FF1
:10CA100000D001266F46002D09D0012D12D0022D25
:10CA200017D0032D1CD12BE010210843E8E701208B
:10CA3000C04338808048102401680E22B81C01F0E1
:10CA4000CDFB0DE0B8781224000900013946001D25
:10CA500005E0B8780A24000900013946401C8870B6
:10CA600060206946087608A9079708940E710F9808
:10CA700048710020887106A8FEF7F0FD11B0F0BDE6
:10CA8000B8780A24000900013946801CE7E770B530
:10CA9000694C0023743C06462371A3612546581E49
:10CAA0004035A36068842046AB8460300374E36142
:10CAB000236066713246801D01F096F960490220BC
:10CAC0000870304600F08AFDFFF76EFF70BDF0B5CC
:10CAD0005B49A7B0042008700146FF2212A801F0AC
:10CAE0008FFB554974394879012804D002280BD0AE
:10CAF00004280DD103E012984008400002E012988B
:10CB000004229043129003E0129A02208243129270
:10CB100049487438C1688068814267D02120FFF796
:10CB200055F800902220FFF751F801902420FFF7DC
:10CB30004DF80025ED4300240290A600694688596F
:10CB400000281DD03C4A03C8743A9369D26801F0AA
:10CB5000C7FA00280ED00127A7402037B8B2FFF748
:10CB6000D7F8002806D0B8B2FFF7D2F80022114655
:10CB7000FEF77BFD684680590068A84200D2054652
:10CB8000641C032CD9D32C497439C86889694318AB
:10CB900028E00168491C24D0274C61680A68824259
:10CBA00007D249685118814203D9129949084900AE
:10CBB0001291A1680A68824207D2496851188142DD
:10CBC00003D9129A02218A431292E1680A688242CA
:10CBD00007D249685118814203D9129A04218A4325
:10CBE0001292001D834201D9A842D2D3124C743C48
:10CBF0002546E168A068663588420DD10E4E306941
:10CC000000281FD012A90420FFF76DF8002803D0D8
:10CC100060792946FFF73BFF0748A2691438037C77
:10CC2000E168A06800F0F8FD002812D0607929467C
:10CC3000FFF72DFF27B0F0BD483E0020FFFF0000AA
:10CC4000203D0020042212A91046FEF7DAFF3061D1
:10CC5000E2E7622008A908710020087209A8FEF71F
:10CC6000FDFC232069460870012008716079487135
:10CC700001A80A222946023001F0B0FA6846FEF700
:10CC8000EDFCD7E770B5044680788AB001072046EE
:10CC90000830090F064601F025F9FB4D002811D098
:10CCA000212069460870A0780007000F4871287895
:10CCB0000871A0783146020701A8120F023001F076
:10CCC00093F819E022206946087002200871A078C4
:10CCD0000A220007000F887101A83146033001F0D5
:10CCE0007DFA287869464871E0784007400F48741B
:10CCF000201D01F0A4FA05906846FEF7AFFC0AE695
:10CD0000F3B5E24E0546707937460024743781B09A
:10CD1000012818D0022818D0042812D00022114669
:10CD20000620FEF7A2FC28460830009001F087FAA2
:10CD3000D6490861009801F082FA0646401C06D0E8
:10CD400006E0FC68EFE77C68EDE7BC68EBE7266887
:10CD50002846FFF7A4FDCD494031488488843046F9
:10CD6000CA4EB06028460C3001F069FA8000B0610C
:10CD7000687C297C00020843F061A87C0007C10F91
:10CD800030466030017400217161017010213C3027
:10CD900001F03DFA01F09AF9F068BD49421C06D055
:10CDA000B26949698018884216D90C201FE0707951
:10CDB000022801D0B0680EE0F868026840681018D8
:10CDC0004A69824200D24869B169890A8902401AD7
:10CDD00001218902401AF060F268B06890420BD0DD
:10CDE000B1690B4601F07CF9002805D00D20FEF753
:10CDF00000FD00F054FCFEBDB068216888420BD3F2
:10CE0000B269801862688918884205D8FFF75FFE0A
:10CE1000029801210170FEBD281D01F010FA01F0F9
:10CE20001BF99A4970796631FFF731FEFEBDF7B5FF
:10CE3000964C964E05464034F269A08C1309C21AEE
:10CE4000E878AF7888B008390091294600020831A7
:10CE500038430191824210D38B490A79904201D123
:10CE600000220A71B16801F0A9F800998AB201990B
:10CE700000F006FD070061D119E0801A401E8342D0
:10CE800007D9824F012160373A7881400A420291E6
:10CE900001D0082752E0000180192030009A019942
:10CEA00001F09CF938780299084338700027E87837
:10CEB000AA780002A18C104300F09EFB608C401EFB
:10CEC00060840A99012008700020069007906E483F
:10CED0000079002832D107AA06A9706900F07FFD09
:10CEE00000282BD0B068069A030900211B010846D0
:10CEF000D21A8841010710090843E978AA78090283
:10CF00001143401C4A1E904202D3A28C8A4215D182
:10CF10000421C9436A461180508030680190032380
:10CF2000012208216846FFF7DAFC06986A4670611C
:10CF30005088002800D001205349087138460BB0B2
:10CF400079E6F3B506468BB0001D01F078F94F4C39
:10CF50002168884202D00B200DB06CE6304601F00B
:10CF600085F8002801D00020F6E700206946087007
:10CF7000454F4649387866310A91032809D00D4655
:10CF8000263D042818D0072836D008285AD008246F
:10CF900077E0F078B1780002084308D0206801F00B
:10CFA0005BF860790A99FFF772FD082461E0694631
:10CFB0003046FFF7A5FE58E0F078B178000208434C
:10CFC00009D0A98C884206D86A4630460C99FFF7EA
:10CFD0002EFF002400E00B24688C00282FD1702045
:10CFE000694608712B4803900020029001A8FEF7C3
:10CFF00035FB0520387022E0F078B1780002084354
:10D0000003D13046FFF74BFCA8840820387000207D
:10D01000FEF71BFC2320694608710220087202A853
:10D020000A2202300A9901F0D9F8607969464872FB
:10D0300001A8FEF713FB0446012069460870002C86
:10D0400014D016E0F078B1780002084303D13046DE
:10D05000FFF725FCA884F078B2780002A98C104371
:10D0600000F0CAFA0120694608700024304601F039
:10D0700018F868460078002803D030460C9900F074
:10D08000C6FA204668E70000203D0020D43D00207D
:10D090000010001080841E00F8B50446FE48007899
:10D0A00001280ED0FD4D27462E4608376636697991
:10D0B00002280BD0032809D007283AD0082420469C
:10D0C000F8BDE07840072ED10624F8E73246204626
:10D0D00000F04EFF00281AD0E07829794007400F71
:10D0E000884207D8884222D1201D01F0A8F829687B
:10D0F00088421CD9A0780A220007000F68713946BF
:10D10000304601F06BF8204600F0D5FA0FE0A07829
:10D110006A790007000F824205D13146384600F097
:10D1200095FE002803D12046FFF7ACFDC7E7002499
:10D13000C5E7A0780007000F8142F8D10A463946BA
:10D14000304600F068FE0028F1D0E17828794907E0
:10D15000490F884207D38842E9D1201D01F06FF8BA
:10D1600029688842E3D9201D01F069F82860E07839
:10D170004007400F2871687900F030FAFFF714FC7F
:10D18000D5E7F0B5054687B0001D01F058F8014617
:10D19000C2480068814261D1BF4F3878082813D057
:10D1A000BE4EE97800249C36AA7809022046114335
:10D1B0008200B25A8A4214D1800084196088411CCE
:10D1C0006180082805D30FE0284600F04FFF0028B3
:10D1D00002D0002007B02EE50821284600F017FAFB
:10D1E000F8E7401C0428E3D3E878AA780102AB48AA
:10D1F00011438068012904D0000900010901401889
:10D200001038102202A900F0B8FB002814D0052025
:10D21000C04369460880E878A97800020843694657
:10D220004880281D01F00BF80190032300221821EB
:10D230006846FFF754FB00E00520014621430AD170
:10D24000B9788A07120F9419491CB970E978AA783D
:10D2500009021143218000216180BBE70B20B9E75F
:10D2600070B58D4C00210546217074218B4800F06B
:10D27000CEFF8A4810219C3000F0C9FF0020A0702A
:10D28000E570FFF7DDFA70BD10B57421834800F03A
:10D29000BEFF824810219C3000F0B9FF7E4800217B
:10D2A00081700171FFF7CCFA00F0BEF900F00EFFBB
:10D2B00000F08EFD002801D100F0F1F910BD10B58D
:10D2C000754B1B78012B01D0082010BD744B5B6996
:10D2D000934203D8531C01D0102010BD6F4BDA606D
:10D2E000FFF7D5FB002010BD70B56B4C15462378B9
:10D2F000012B03D0022B01D0082070BD0722227021
:10D30000664C0246607120466630256000F06CFD78
:10D31000607900F063F9FFF747FB002070BD70B53E
:10D320004278037812021A435E4BD218130000F0C1
:10D33000D5FF05100D0A07042B0000F0EBF970BDB6
:10D34000FFF7AAFE70BDFFF7FCFD70BDFFF719FFE8
:10D3500070BD044650480D46007808282046F2D19A
:10D3600000F084FE002801D0002070BD4B4A4032FE
:10D37000918C508C081A401C80B200F03DF929466F
:10D38000204600F044F970BD0B2070BDF0B5434D50
:10D39000ABB074350E2215A8296800F01FFF3F4E70
:10D3A0000024304607462030F268B16866372A907C
:10D3B0008A4231D0FF225421684600F021FF727961
:10D3C000394602A800F010FDB0690190F0680090A5
:10D3D000FF206946C87400208874F0691422002870
:10D3E00008D0402205A82A9900F0F8FE01206946DD
:10D3F00088745422707901280CD0022806D00428A1
:10D4000002D00B202BB016E4242000E02220FEF7EF
:10D41000F8FB3EE02120FAE72869002804D1002229
:10D4200011460E20FEF721F928691C49006800907A
:10D430007079623101280CD002283AD0042810D12A
:10D440000A22394616A800F0C9FE1C2404210098BF
:10D4500005E0888810A988821A24009801210843D1
:10D460000090F069002804D0402220462A99FEF757
:10D47000C8FB0020401C0E28FCD30E2215A9022058
:10D48000FEF7BFFB0422286069461046FEF7B9FB91
:10D4900028610620004907E0203D0020D43D0020FF
:10D4A000001000100600FFFF0870FEF793FB00203D
:10D4B000A8E7888810A9C8821B2402210098CEE71B
:10D4C00010B5BE480078030000F008FF09100608F8
:10D4D000080A11101A1A1000012012E0052010E0AD
:10D4E000B748B74940796631FFF7D1FA10BDFFF769
:10D4F00014FA002802D0FFF749FF10BD042000E015
:10D500000020FEF776F910BD70B50220FEF75EFB35
:10D5100006460420FEF75AFB04461020FEF756FB91
:10D5200005461220FEF752FB3188002906D02178EB
:10D53000C9070CD029680968491C08D02178490717
:10D5400007D500680068401C03D0002070BD012092
:10D5500070BD042070BD10B50220FEF737FB002817
:10D5600013D097497431C96809684A1C0DD00968FD
:10D57000491C0AD00A3000F062FE002805D000F0F5
:10D580005AFD002801D0012010BD002010BD10B5AB
:10D5900000F085F810BD00B5884889B000780628ED
:10D5A0001AD1FEF7B9FB002816D02520694608706D
:10D5B00001200871824842794A71014601A866310A
:10D5C000023000F011FC6846FEF748F800F045FA1A
:10D5D000FFF736F9FFF758FE09B000BD012809D062
:10D5E000022805D0042801D0002070470120704790
:10D5F000032070470220704700B589B024226B4693
:10D600001A709880D9806846FEF728F8E4E770B56C
:10D61000054603230022FFF762F9040002D12846E1
:10D6200000F03FFD204670BDF0B566488FB003C8DE
:10D630000C900D9164A000680E9061480CAF74309E
:10D6400000680A90811C001D099100240B90600065
:10D65000385AFEF7BBFA05001CD002206946087054
:10D660000EAE325D0A71294601A80831023000F081
:10D67000BBFBA00009A90958325D04A800F0B4FB67
:10D680002868079068680890A87C694648716846D1
:10D69000FDF7E4FF641C032CD9D30FB0F0BD10B527
:10D6A0000020FFF781F945490120087074214448A2
:10D6B00000F0ADFD10BD70B5044640782178000241
:10D6C000084342493E4D884208D1E078400705D0E2
:10D6D000A07869790007000F884204D00022114623
:10D6E0000720FDF7C2FF201D00F0A9FD2860E078AB
:10D6F0004007400F2871E0780007C10F30486030C4
:10D7000041742E49032008706879FFF767FFFFF71F
:10D710004BF970BD70B5294D044628788AB00128B0
:10D7200002D008200AB070BD20796946087060797F
:10D730004870009800F06DFC2126002808D069464A
:10D740000E7002204871207988716079C8711FE0DD
:10D75000A01D00F03DFC00282ED0E078A17800024A
:10D7600008431A49491C884218D015497431096880
:10D770004A780B781102194388420FD069460E701F
:10D7800001204871E078A178000208436946C8800A
:10D79000287808710846FDF761FFC3E769460E70F7
:10D7A000042048712878087101A80A22A11D0230BE
:10D7B00000F014FD6846EEE70B20B3E7203D0020A3
:10D7C000D43D00200CE5010002010400FDFF000033
:10D7D00010B5B24C218E814210D30A1AD1174023C2
:10D7E00000209B1A88410BD30120002100F0E6FCA9
:10D7F000A269E36910401940084301D0012010BD1F
:10D80000002010BD10B53821A44800F000FD002014
:10D81000A249C043088610BDFFB581B016460D462B
:10D820000446FFF7EFFF3019000921090001090143
:10D83000401A0003070C20462843800502D0102020
:10D8400005B0F0BD9548002D18D0456094490546B7
:10D8500040687118890A800A89028002FDF7E5FF95
:10D860002C602F810498A8720021A961EE602C61C0
:10D87000481EE961688629860846E1E74460E5E7D5
:10D88000F7B5864E0446318E864884B081424BD02F
:10D89000210708D13168A14205D8F2688B18069A91
:10D8A000A218934202D2102007B0F0BD069A102AA7
:10D8B00001D8920701D00920F6E7728E824201D08A
:10D8C0001120F1E7090909010020611A80410207CE
:10D8D00008091043401C85B22846FFF779FF00284D
:10D8E00022D06E48008EA8422FD2281A82B26B4FE7
:10D8F00001200021029200F061FC401E0022D24370
:10D9000051410090029A01914020BE69821AFF693C
:10D91000009800F053FC30403940084306D0032003
:10D9200000F0B3F80520BFE70820BDE730463946D0
:10D93000029A00F043FC009A019B104342081943ED
:10D94000564852008261C1610586544E7586304644
:10D9500020300546069A059900F040FC3168706851
:10D96000611A40182946069AFDF74EFF00289BD001
:10D97000072000F08AF8032096E7F8B5474D1746D0
:10D980000E46298E474A914213D02B6800221C096B
:10D990000346240110461B1B90410207180910433F
:10D9A000401C84B2A14204D32046FFF711FF002897
:10D9B00001D00020F8BD002E0DD0002F0BD0012C7F
:10D9C0000BD06868210100090001411810393A465E
:10D9D000304600F003FC0120F8BD6968F7E7F7B5B1
:10D9E0002E48304A018E82B00191914226D00568BE
:10D9F000C76986693F24280900010090224601205A
:10DA0000002100F0DBFB30403940084314D001987E
:10DA1000001B80B201280DD00099000108181038B1
:10DA20000299884208D30399086004981021016084
:10DA3000012005E72846F3E7641EDFD50020FFE656
:10DA400010B51649174B0A8E9A4201D1082010BD15
:10DA5000CA684968FDF7D4F910BDD3E60F4910B57F
:10DA60002031884210D10D48018E428E8369891A77
:10DA700001228A40D143CA17C4690B4014400021D7
:10DA8000C461C9438361418610BD10B50021034ABA
:10DA9000C9431186FDF7ADFE10BD0000803E002099
:10DAA000FF030000FFFF0000F3B5CC4E04463078C2
:10DAB0008BB0C043099009A90420FEF714F930780F
:10DAC000012701282DD0022810D004284AD0002296
:10DAD00011460B20FDF7C9FD0C98FC21C17430786C
:10DAE0000C992030FEF7FFF80DB0F0BD1120FEF7C5
:10DAF0006DF8016805CC083C00F094FB0028EBD0E1
:10DB000000F0FCFA62B60020009020680190606886
:10DB100080080290684618DF0028E5D0684618DFC4
:10DB20001BE01020FEF752F8016805CC083C00F01D
:10DB300079FB0028D0D000F0E1FA62B600972068A7
:10DB400001906068800803900120000302906846FD
:10DB500018DF0028C8D0684618DF00221146FDF7FC
:10DB600084FDC1E7FDF77BFE002808D000F0C6FA6F
:10DB700062B69B483EDF002044DF35DFACE7122071
:10DB8000FEF724F8050004D1002211461046FDF7E7
:10DB90006CFD2888800504D0002211461046FDF750
:10DBA00064FD502069460870286801908D496068BE
:10DBB0004018884302906846FDF750FD00280DD1BB
:10DBC00051206946087020680290606803902868B8
:10DBD00001906846FDF742FD0028CFD0777083E7BB
:10DBE000F0B57E4EC3B07468002C73D0EFF3108094
:10DBF000C007C00F72B6542241902146684600F01B
:10DC0000EDFAE07C0125F82859D0FC2812D0FE2836
:10DC10000AD0FF285AD17570FE206946C874307842
:10DC20002030FEF760F851E0757069462046FFF736
:10DC30003BFF4BE00220FDF7C9FF40900420FDF7B9
:10DC4000C5FF07464098002804D10022114610461F
:10DC5000FDF70BFD0E2215A8409900F0BFFA002F2A
:10DC60003AD038682A90307801283BD0022841D039
:10DC700004284BD0002211460B20FDF7F6FC0E22A3
:10DC800015A90220FDF7BDFF00281ED0A07C0028AA
:10DC900007D02146402214313F98FDF7B2FF0028FB
:10DCA00013D004222AA91046FDF7ABFF00280CD0A0
:10DCB000F8206946C87430782030FEF714F83078C0
:10DCC0002030FEF725F8002833D0757041980028E1
:10DCD00000D162B643B0F0BDFF2204212AA800F0B3
:10DCE0008FFAC0E7208910A988821A203F902A98CD
:10DCF000284309E0207A10A98875607AC8751B202E
:10DD00003F9002212A9812E02A90B8E7A068169066
:10DD1000A08910A9888320460E3000F090FA17A938
:10DD2000023100F096FA1C203F902A980421084303
:10DD3000EAE700207060C9E770B5284E0546012467
:10DD40002046203080B2FDF741FF00280AD0C17C78
:10DD5000FF2907D034707060FFF742FF002D09D013
:10DD6000012006E06400042CEAD900207060002D38
:10DD700000D0287070BD70B50446012805D0042C71
:10DD800003D0022C01D0072070BD144D6868002814
:10DD900001D0082070BD20462030FDF717FF002875
:10DDA00009D001680968491C05D02C706860FFF72C
:10DDB00017FF002070BD052070BD0848416800298C
:10DDC00005D04178002902D00021417008E7704752
:10DDD00002484068002800D001207047283D0020FC
:10DDE0000F000F00FF03000010B5012A07D0022A20
:10DDF0000CD0042A02D10A2200F0F0F910BD4A78B2
:10DE00000B78110219430170090A02E00A780270C6
:10DE10004978417010BD10B5012A09D0022A02D0FC
:10DE2000042A11D10A2200F0FDF900280AD00BE0E3
:10DE300042780378100218434A780B78110219438C
:10DE4000884201D1012010BD002010BD70B50C46E4
:10DE5000012A16D0022A1DD0042A21D14179027943
:10DE6000090211436279237912021A43914217D1B0
:10DE700000F0E5F90546204600F0E1F985420DD0B5
:10DE80000EE0417802780802104361782278090296
:10DE9000114301E000780978884201D1012070BD6A
:10DEA000002070BD70B50C46012A0ED0022A15D094
:10DEB000042A01D0002070BD801D00F0C0F9054685
:10DEC000A01D00F0BCF9281A70BD41780278080244
:10DED0001043617822780902114301E00078097843
:10DEE000401A70BD70B505460E460220FDF76EFE65
:10DEF0000446012E24D0022E19D0042E29D168798F
:10DF00002979000208432189884222D1284600F05D
:10DF100096F9616888421CD1A81D00F090F9054669
:10DF200020460A3000F08BF9854210D811E028789D
:10DF3000A17888420DD16878E178884207D808E056
:10DF400068782978000208432188884201D101209D
:10DF500070BD002070BD734A00218B00D3588342EE
:10DF600001D101207047491C0829F6D300207047D1
:10DF700070B5044680780D460007000F1646A8428B
:10DF800001D0002D18D1201D00F059F9FFF7E3FF53
:10DF9000002811D1204608302A4631460446FFF7B2
:10DFA00055FF002808D02A4631462046FFF77AFF61
:10DFB000002801DB012070BD002070BD012805D0C4
:10DFC00000010909090110384018704708467047D8
:10DFD00070B505460220FDF7F9FD044668792979F8
:10DFE000000208432189884211D1284600F027F910
:10DFF000616888420BD1A81D00F021F90546204632
:10E000000A3000F01CF9854201D9012070BD0020C2
:10E0100070BD01B50220FDF7D9FD69460978827807
:10E02000914206D169464978C078814201D90120E0
:10E0300008BD002008BD10B50420FDF7C7FD00286D
:10E0400006D00068C10705D0410703D5800701D578
:10E05000012010BD002010BD10B5334A314C11789D
:10E060004B07DB0EE050491C117010BD70B54278B3
:10E07000037814021C432B4B002120338A009D5A45
:10E08000A54209D1D2185588C27886781202324347
:10E09000954201D1012070BD491C1029EED300200A
:10E0A00070BD70B54178204B02780D025968154358
:10E0B0001C4C0A07920E2034A552C5788678280297
:10E0C000304312195080491C596070BD154810B575
:10E0D0004021203000F09BF813490020486010BD1B
:10E0E000904202D3D318834204D8824204D340180A
:10E0F000904201D3012070470020704730B50B4893
:10E1000002680A4B0020012180330C4684401442EF
:10E1100004D0C506ED0E0C46AC401C60401C202807
:10E12000F3D330BDB83E0020303D002000E100E0D8
:10E1300030B50B46014600202022012409E00D469F
:10E14000D5409D4205D31D469540491B2546954027
:10E1500040191546521E002DF1DC30BDF0B51FB43C
:10E160000646002082B005464024019100901BE045
:10E17000019922460F46304600F074F8049A059B38
:10E18000801A994110D310461946224600F016F81D
:10E19000361A8F410197224601200021009F00F08E
:10E1A0000DF838184D4100902046641E0028DFDC31
:10E1B000019B00982946324607B0F0BD10B5202AD1
:10E1C00004DB0146203A9140002010BD91402023FD
:10E1D0009C1A0346E3401943904010BD03460B438D
:10E1E0009B0703D009E008C9121F08C0042AFAD20D
:10E1F00003E00B780370401C491C521EF9D2704793
:10E20000D2B201E00270401C491EFBD270470022CE
:10E21000F6E710B513460A4604461946FFF7F0FF25
:10E22000204610BD30B504460020034600E05B1CCC
:10E23000934203D2E05CCD5C401BF8D030BD03219B
:10E24000001D401E037812021A43491EF9D51046DC
:10E250007047034603220870000A491C521EFAD573
:10E260001846704710B5202A04DB0846203AD040F3
:10E27000002110BD0B46D340D0402024A21A91406B
:10E280000843194610BD0000064C0125064E05E066
:10E29000E36807CC2B430C3C98471034B442F7D3C7
:10E2A000FBF712FF14E5010054E50100F8B5040C7A
:10E2B0008BB2264682B25E430D0C1046370C584393
:10E2C000360480190021794116466E43370C360416
:10E2D0008019794126466E438919F8BD30B47446D9
:10E2E000641E2578641CAB4200D21D46635D5B0052
:10E2F000E31830BC184702E008C8121F08C1002A02
:10E30000FAD170477047002001E001C1121F002AB6
:10E31000FBD1704702000000000000000000000078
:10E3200000000000982F8A4291443771CFFBC0B59E
:10E33000A5DBB5E95BC25639F111F159A4823F92D0
:10E34000D55E1CAB98AA07D8015B8312BE85312429
:10E35000C37D0C55745DBE72FEB1DE80A706DC9BEA
:10E3600074F19BC1C1699BE48647BEEFC69DC10F96
:10E37000CCA10C246F2CE92DAA84744ADCA9B05CD2
:10E38000DA88F97652513E986DC631A8C82703B095
:10E39000C77F59BFF30BE0C64791A7D55163CA06A3
:10E3A00067292914850AB72738211B2EFC6D2C4DAF
:10E3B000130D385354730A65BB0A6A762EC9C2819D
:10E3C000852C7292A1E8BFA24B661AA8708B4BC233
:10E3D000A3516CC719E892D1240699D685350EF45D
:10E3E00070A06A1016C1A419086C371E4C77482714
:10E3F000B5BCB034B30C1C394AAAD84E4FCA9C5B8A
:10E40000F36F2E68EE828F746F63A5781478C884DA
:10E410000802C78CFAFFBE90EB6C50A4F7A3F9BEBC
:10E42000F27871C6020000001A00000050000000DF
:10E43000510000000000000000000000000000008B
:10E4400000000000000000000000000000000000CC
:10E45000000000005000000000000000000000006C
:10E4600000000000000000000000000000000000AC
:10E470000000000000000000FFFF0000FFFFFFFFA2
:10E48000FFFFFFFFFFFFFFFF000000000000000094
:10E490000000000001000000FFFFFFFF96C298D8B7
:10E4A0004539A1F4A033EB2D817D0377F240A463BD
:10E4B000E5E6BCF847422CE1F2D1176BF551BF37C6
:10E4C0006840B6CBCE5E316B5733CE2B169E0F7C99
:10E4D0004AEBE78E9B7F1AFEE242E34F512563FC35
:10E4E000C2CAB9F3849E17A7ADFAE6BCFFFFFFFFCF
:10E4F000FFFFFFFF00000000FFFFFFFF0000000024
:10E500009CE4010000000000000000002200210047
:10E510002400000054E50100040000202C0000004D
:10E52000F6E2010080E50100003D00203800000017
:10E53000F6E2010080E5010030000020500F0000ED
:10E5400006E30100B8E50100383D0020E0010000CD
:10E5500006E30100000000000000000000000000D1
:10E56000000000000024F400000000000300000090
:10E57000D6BE898E000000000000000000000000F0
:10E58000000000000000000000000000000000008B
:10E59000000000000000000000000000000000007B
:10E5A0000101000000000000000000000000000069
:08E5B000000000000000000063
:020000041000EA
:0410140000A0010037
:040000050001A0C195
:00000001FF
