:020000040001F9
:10A00000800F00201DAC01002FAC01000FA101004A
:10A010000000000000000000000000000000000040
:10A0200000000000000000000000000033AC010050
:10A03000000000000000000035AC010037AC01005A
:10A0400039AC010069A3010039AC010039AC010051
:10A0500039AC01000000000039AC010039AC01004E
:10A0600039AC010039AC010039AC01006DA501002B
:10A0700039AC010039AC010039AC010039AC010048
:10A0800039AC010039AC010039AC010039AC010038
:10A0900025A3010039AC010039AC0100E9A501009C
:10A0A00039AC010039AC01000000000000000000E4
:10A0B00000000000000000000000000000000000A0
:10A0C0000348854604F09EF80048004715A10100AA
:10A0D000800F0020056885F308884068FF2464B27B
:10A0E000EFF30585002D01D1A6460047254606461B
:10A0F00021273FBAF0B40024002500260027F0B441
:10A10000F92040B20047000072B600BEFEE772B60A
:10A1100000BEFEE71C4DA9682B0501221B48002448
:10A12000002904D11A6001680029FCD00460696923
:10A13000002904D19A6041680029FCD044601A616A
:10A14000C1680029FCD0C46011480168FF221204D4
:10A1500091430122D205114301600E49501008605D
:10A1600062B600F0FFFB00E020BF03F015FE002800
:10A17000FAD1094DE869002801D100F0CDFAEC616F
:10A1800000F034FC20BFFDE7000400400001004067
:10A1900014E400E000E100E0000500408307FF2236
:10A1A000DB0E9A408907090E994000280BDA000758
:10A1B000000F08388308D9489B001818C3699343D7
:10A1C0000B43C36170478308D5489B001818036888
:10A1D00093430B430360704770B50446807B0028AF
:10A1E0001AD0022830D00125CE4800F097FE024652
:10A1F000CD492846484306463146104603F056FFEF
:10A20000CA4A607B5543A2686843891980180818B8
:10A210000002000A606070BDC349607B0B4683404A
:10A220004A429D18401C81408818401B0602360A8D
:10A23000BC4800F073FE7608314603F037FF8819FA
:10A24000A16849194018E3E70A25CDE71CB50220AB
:10A2500069464871684600F04FFF002100280CD085
:10A260006A46117125209071684601F012F90028A4
:10A2700002D0684600F084FF1CBDAD4801701CBDD3
:10A2800010B500F07DFF10BD1FB5002906D0A54810
:10A290006946983800F09CFE002803D0009800F032
:10A2A0006FFF1FBD0120A349000508601FBDA04826
:10A2B0000078002800D0C9E77047F0B59E48426892
:10A2C0009E4D501E0102090A0C4600200301EE5863
:10A2D000002E0BD05B195B688F1A9E1A36023F0264
:10A2E000360A3F0ABE4201D21902090A401C082858
:10A2F000ECD301200004924B8C4209D05860914B62
:10A30000002018608C484030016089488260F0BDB0
:10A310009860F0BD86480178002902D101210170C2
:10A3200094E7704738B5824C11E0009800F050FF78
:10A33000012800D00020002803D183A2C521FFF707
:10A34000E3FE616800988847009800F019FF7B4899
:10A350006946803000F068FE0028E6D020780028AA
:10A3600001D1FFF7D7FF38BD10B501F0BAF810BD25
:10A370000120704738B56E4900240C7048604C804D
:10A3800080216E4803F001FF66498039084618387D
:10A3900001600421416020214461816000F00AFED7
:10A3A00000F0A2FE5F4800F0E4FD0090002803D01A
:10A3B00065A2EF21FFF7A8FE02211420FFF7EEFEB1
:10A3C000012065490005086000210120FFF7E6FE35
:10A3D000624A6349634801F008F838BDF8B51D00CA
:10A3E0001646074601D10C2E03D8002F01D00829AC
:10A3F00001D30020F8BDEFF31080C007C00F72B684
:10A40000009008014D4944182068002801D000F050
:10A41000B7FE384600F090FE276026730020607378
:10A4200045484068A060A5732046FFF7D5FEFFF7BA
:10A4300044FF0098002800D162B60120F8BD70B535
:10A4400001253C49ED0280390D6008280CD23B49BA
:10A4500000014418206800F093FE00202060606036
:10A46000A060E060FFF729FF3B48056070BDFEB5C6
:10A47000314847680025BF1C304B2E0198590028F1
:10A4800042D02B4AF41861689268791ABA1A090204
:10A490001202090A120A914236D800216A46517105
:10A4A00000901171E07B032812D225201146907193
:10A4B000084600F0EEFF002803D12048805900F044
:10A4C0003BFE69468879401CC0B288712728EFD9C5
:10A4D0000020E073607B194A411CC9B26173FF28F8
:10A4E00005D1214BA068C0180002000AA060207BA3
:10A4F00081420FD3FF280DD0905900F041FE00207B
:10A5000020606060A060E0606D1C082DB4D3FFF790
:10A51000D4FEFEBD2046FFF75FFEF5E700ED00E04C
:10A5200000E400E048010020CD0C00009A19000072
:10A530000400002000E200E000B5004030000020F0
:10A5400000B3004040B100402E2E5C7472616E7307
:10A55000706F72742E63000000E100E081A20100C0
:10A5600089A20100AFA20100009A190070B5184C31
:10A5700020680026174D002805D06868C00302D562
:10A580002660FFF774FF6068002808D068688003C1
:10A5900005D5666001204004A86000F0A8FA70BDEF
:10A5A0000D490020886003200A49000440314860BA
:10A5B0000A49012088600860094801680902090AFF
:10A5C000C206114301600749D014086070470000BB
:10A5D00040B1004000B3004000B5004000B0004072
:10A5E00008E400E000E100E030B5002401258BB074
:10A5F0006D075AE068460078641C0128019806D06F
:10A600000299A84247D3FF2203F0B8FD45E0800736
:10A6100003D00020002802D006E00120FAE7FDA2C6
:10A6200091210020FFF770FD0398800703D00020E0
:10A63000002802D006E00120FAE7F6A292210020CD
:10A64000FFF762FD0298800703D00020002802D0A7
:10A6500006E00120FAE7EFA293210020FFF754FD66
:10A660000198A8420DD30146002006E0029B0A781B
:10A670001B5C401C1A400A70491C039A8242F5D8A0
:10A6800004E00023039A029900F02AFE6020694644
:10A690000874029805E000F0F9FD6120694608742D
:10A6A0000198059004A800F0D9FF6946DD4800F044
:10A6B000BBFC00289ED0002C05D06220694608749F
:10A6C00004A800F0CBFFD74800F005FDD649097873
:10A6D000084205D0122001F067FA006800F0A8FFD8
:10A6E0000BB030BD00B587B000F092FD002811D04E
:10A6F0004179027909021143CC4A91420AD90221D7
:10A700006A461170011D01910078C01E02906846D2
:10A7100000F0A4FF07B000BD30B5044685B012209C
:10A7200001F042FA0546062C09D004DC002C06D0C4
:10A73000012C37D103E0082C2ED00A2C32D1002D69
:10A7400024D002F0E1FE002820D0B64800F0C3FC7F
:10A7500000281DD003F08FFCB5486C460FC80FC40D
:10A76000684618DF0490002803D0AAA2B149FFF779
:10A77000CBFC286813DF0490002804D08D21A5A20B
:10A780008900FFF7C1FC286800F052FF05B030BD1A
:10A79000A54901200870F9E7A6499EA219310020B9
:10A7A000FFF7B2FC72B6FEE770B50446007886B0DB
:10A7B00025287AD00EDC222878D006DC022878D032
:10A7C00020281CD0212817D15AE0232870D0242813
:10A7D00012D199E00022612849D009DC964D974EAC
:10A7E0000121502870D051286FD0602804D10CE08E
:10A7F000622838D070283AD0062006B070BD207983
:10A80000FFF78AFF02F02DFDA6E06846009200F0F7
:10A8100073FC002871D0009800F0E7FC00980178E4
:10A8200009090901891C0170217A0A314170162138
:10A830008172E421C172FE210173217AC91C417227
:10A840000D30A268616803F087FC237B627BA17BEB
:10A850000098FFF7C3FD0446009800F091FC002C1F
:10A860007AD10320C9E72079FFF7E9FD74E0A068F9
:10A87000734A410CC003002303F02EFC022140E088
:10A8800000F06CF967482021183801700021C94395
:10A890000161617901710A22A11D401D03F05CFC78
:10A8A0006048183800F0DAFEA7E730E00EE000E07C
:10A8B00024E0207902284FD102F026FE00284BD157
:10A8C000022003F03CFA47E048E029E02079022822
:10A8D00042D100F043F921206946087001A80A22FC
:10A8E000E11D013003F038FCA07969460871606908
:10A8F0000490684600F0B2FE2EE02AE00520012117
:10A90000C00300F019F927E00121C803F9E76079D5
:10A91000042801D001281FD10020FFF7FDFE1BE015
:10A920002079800702D1207A800701D0102064E7C7
:10A93000207B800701D009205FE768460170241D55
:10A9400007CC01AB07C36946364800F041FB00283D
:10A9500001D0042051E7356000204EE7022069460F
:10A960000870ECE770B588B0FFF71AFE18212D4883
:10A9700003F00BFC2B492B481831016008251021EE
:10A980008560416000F016FB2E4801680322090231
:10A99000090A9207114301602B4928050126086026
:10A9A00000F007FF002468460471067227480390F0
:10A9B000684606744574847401A800F04FFE079041
:10A9C000002804D0FF2113A2C631FFF79DFB2049C8
:10A9D0002048FFF7CFFC684603F092F968460078FC
:10A9E000002801D01C48C46108B070BD30B58BB0E0
:10A9F00001206946087303A800F030FEFFF78AFCC7
:10AA000002F082FD002829D005200321000400F077
:10AA100093F865E62E2E5C626F6F746C6F616465EF
:10AA2000722E63007001002010000020EFFF000074
:10AA300090E20100310200000000800000E200E02E
:10AA400040420F0014E400E000E100E0A9A701008B
:10AA5000D6BE898EE5A6010000050040042001F065
:10AA6000A3F80446122001F09FF80546022003F0E7
:10AA700066F90028CDD02078400709D528680068FD
:10AA8000401C05D1401F00906946042001F019F9CF
:10AA900002F013FD0500BCD003F051F90528B8D130
:10AAA000022001F081F8041E00D00120002803D10B
:10AAB0002E4A2F49FFF728FB012D0FD0042D11D06E
:10AAC0002B490B20294A0B310990FFF71DFB00226F
:10AAD000D2436946284602F0D4FB01E62088694645
:10AAE0000880F4E7241D07CC6B4607C3EFE730B5B9
:10AAF000204D0024687887B0012815D002280ED098
:10AB0000032815D008209921184A89000690FFF7DC
:10AB1000FBFA6C70684600F0A1FD07B030BD032061
:10AB2000694608700C71F4E7232069460870F0E765
:10AB30000020FFF7F1FDF0E70F4B00225A600F4AAB
:10AB40005268101800020D4A000A4032506001207D
:10AB50000B4A400450600748417070470120084983
:10AB600040048860034900204870704714AA01001F
:10AB7000060200001000002040B1004000B5004077
:10AB800000B3004010B500F01DF8002805D01F49A3
:10AB90001D4848601E48C91381611E48018CC9B216
:10ABA00001290ED1818C09070BD1018D0906090FEE
:10ABB000042906D1808D0006000F02D1164901201C
:10ABC000886010BD1349088CC0B2012817D1888C49
:10ABD000000714D1088D0006020F03D18A8D1206DA
:10ABE000120F0ED0000F012803D18A8D1206120F0A
:10ABF00007D0032803D1888D0006000F01D0002064
:10AC00007047012070470000DFFF07C000050040CB
:10AC1000006C0040C00F00F00006004007480268CA
:10AC200003210A4302600648804706480047FEE7C2
:10AC3000FEE7FEE7FEE7FEE7FEE700002405004032
:10AC400085AB0100C1A00100F3B50025CDB00446DD
:10AC50002E464E988019074603F0AFFA00BA010A53
:10AC6000F87809020143AA000CA86D1C361D81501A
:10AC7000102DEED321E0A80084460CA9401880389E
:10AC8000816F11230A46DA4113230E46DE417240DA
:10AC9000890A4A40416C07270B46FB4112270E46A2
:10ACA000FE417340C9084B40D118426E006C101829
:10ACB0000A1860460CA90A506D1C402DDBD3206D8C
:10ACC0000B90626D0A92A76D0997E16D0691019153
:10ACD000216E0891636E05930093A36E07939E46C1
:10ACE000E36E0493029300239C4606230D46DD4148
:10ACF0000B260B46F3415D4019260B46F3415D40A0
:10AD0000009B0E461E4073468B435E40AE19634661
:10AD10009B00794D0393ED58029BEB18F618039BAB
:10AD20000CADEB580225F31803930346EB410D26B7
:10AD30000546F5415D4016260346F3415D40134646
:10AD40007B40164603403E407340ED187346029325
:10AD5000009B009101999E46039B0197174602466E
:10AD6000C918581963465B1C9C46402BBDD30B9BEE
:10AD7000181820650A98801860650998C019A065A0
:10AD8000019A06988018E065089840182066009996
:10AD900005984018606607987044A0660299049868
:10ADA0004018E0664FB0F0BD002815D000210164C6
:10ADB0008164C164514901655149416551498165C9
:10ADC0005149C16551490166514941665149816600
:10ADD0005149C166002070470E207047F8B51646ED
:10ADE0000F46040005D0002E01D0002F01D0002511
:10ADF00018E00E20F8BD216C785D6054206C401C7A
:10AE0000206440280DD121460846FFF71DFF01238D
:10AE1000A16C5B020022E06CC91822645041A1645D
:10AE2000E0646D1CB542E6D30020F8BD70B50D4658
:10AE3000040008D0002D06D0206C80220021382884
:10AE4000225403D307E00E2070BD2154401C382843
:10AE5000FBD30BE02154401C4028FBD3214608467D
:10AE6000FFF7F2FE3821204603F08FF9206CA26C28
:10AE7000430FC0001218E16C20465941A2640E062F
:10AE8000130A2030E1643343C27783770E04130C36
:10AE9000334343770B02110E19430177E16CC176FE
:10AEA0000A0A82760A0C4276090E01762146084685
:10AEB000FFF7CAFE00221826D000216D301AC140CB
:10AEC000A954636DC340A9180B71A36DC3400B72E5
:10AED000E36DC3400B73236EC3400B74636EC340BA
:10AEE0000B75A36EC3400B76E36EC340521C0B7709
:10AEF000042AE1D3002070BDA0E2010067E6096AE0
:10AF000085AE67BB72F36E3C3AF54FA57F520E518A
:10AF10008C68059BABD9831F19CDE05B30B54268C7
:10AF2000052411460368E141591A83680F251C4620
:10AF3000EC4162400260C4681B19436063185118F9
:10AF40008360C160084630BDF0B5164D01242C6009
:10AF5000154A0027154E07E01368002BFCD0B36894
:10AF6000491E89B2435417600029F5D16C60002056
:10AF7000F0BD38B505460020009004216846FFF773
:10AF8000E3FF00280DD10A48286000986860A86097
:10AF90000024E8602846FFF7C1FF641C142CF9D395
:10AFA000002038BD00D0004000D1004000D5004056
:10AFB000ED5EEAF1836820211A46491ECA40D20795
:10AFC000FAD001228A400021C1608260016170478D
:10AFD00070B5044600290DD0EFF31080C507ED0FC2
:10AFE00072B6A26820698318E068834207D1002DF9
:10AFF00002D002E00E2070BD62B6042070BD521E69
:10B000001040626823685043C0186369002B01D068
:10B01000984701E003F0A0F8E068401CE060002DD4
:10B0200000D162B6002070BD70B50E460446EFF345
:10B030001080C507ED0F72B6E1682069884204D11F
:10B04000002D00D162B60E2070BD002E0ED0A1687A
:10B050006268491E084021685043411863693046C0
:10B06000002B01D0984701E003F076F82069401CDE
:10B070002061002D00D162B6002070BDC16800695A
:10B08000081A704770B50D000CD0EFF31081CC0793
:10B09000E40F72B6C36801695B1A934204D8002CAE
:10B0A00000D162B60E2070BD891882680368521EF6
:10B0B000114042685143C91843692846002B01D00A
:10B0C000984701E003F048F8002C00D162B6002058
:10B0D00070BD0022D6E70169C068814201D101201C
:10B0E000704700207047000000205B4A0146115461
:10B0F000401C2028FBD3704710B5574B0021EFF3BD
:10B100001082D207D20F72B65C5C002C02D0002AEB
:10B110000CD00CE001245C54282359434F4BC91830
:10B120000160002A00D162B6012010BD62B6491C40
:10B130002029E4D3002010BDF8B54849401A282141
:10B1400002F0B4FF0446202801D30020F8BDEFF33D
:10B150001080C507ED0F72B63F4E305D002801D05C
:10B16000FF2805D104203EA261210090FEF7CCFF0C
:10B17000305D401C3055002D00D162B60120F8BD75
:10B1800038B53649401A282102F090FF20281DD2F8
:10B19000EFF31081CC07E40F72B62F4A115C00293F
:10B1A00005D0491EC9B21154002C0AD00AE008206B
:10B1B0002BA275210090FEF7A7FF002C06D162B6E6
:10B1C00004E062B6002901D0012038BD002038BD5E
:10B1D000224910B5401A282102F068FF202801D327
:10B1E000002010BD1C49085C10BD10B504460622A5
:10B1F0002449C01C02F0B0FF22482438006A21789C
:10B20000C007BF22400E114001432170002010BD35
:10B2100070B502000ED0104653780930062B09D9BC
:10B22000252B07D80DE00178851A093D4E199D1F81
:10B23000AE4201D9002070BD4D01691A08181F30B7
:10B2400000E0114C41781629EDD1C17885780902CA
:10B250002943A142E7D170BD080700200802002061
:10B260002E2E5C2E2E5C7262635F6D6573685C735C
:10B2700072635C6D6573685F7061636B65742E6388
:10B2800000000000A4000010E4FE0000F8B5012555
:10B2900004462D0728690A4681B2286980B28018C1
:10B2A000401E02F003FF0021C3B2244E244A0F4681
:10B2B00013E00220706010680028FCD0B4601068B1
:10B2C0000028FCD0776010680028FCD028690004B2
:10B2D000800C80000419491CC9B29942E9D3F8BD19
:10B2E000F0B5944600249A0892001318254620468B
:10B2F000134E20E00F78491CFA432A43D5B2114A75
:10B300001755641CE4B2042C14D10024002D0FD076
:10B310000A4F01257D603568002DFCD012681A6047
:10B320003268002AFCD000227A603268002AFCD001
:10B3300000251B1D401C6045DCD3F0BD00E501402D
:10B3400000E40140180000209E49002008609E494A
:10B35000401E88609D49012008619D4902200870B7
:10B360007047FEB5974A132111608179994B0A29DC
:10B3700002D84A00121D0EE0242902D84A00921D6C
:10B3800009E0954A6E4634CA34C68A006C461219E2
:10B39000FF3A013AD26E9A6049068E4A490E40320F
:10B3A000516101685960884A082151608B49002524
:10B3B000CD60874A51680C0E9C620C021C62477972
:10B3C000824E0124002F05D08548814209D00320F8
:10B3D000186307E00179D962C079D86034601470CD
:10B3E000FEBD1C6374601570FEBDF7B57D4800247A
:10B3F000C4630123C3637748C4600321016102274A
:10B400008760744E2521403671618E2141627649F4
:10B41000C1616F4D69680A0E826209020162C462ED
:10B420000363724941617249816172498163FF21FD
:10B43000043141637049C163942070602878032807
:10B4400009D16E48082102468160183244610260C9
:10B450004160FFF7AFFD61482F703E46C460684809
:10B460000760684807600098A8600198E860029843
:10B4700028616248FFF72FFE002802D0A8688047A5
:10B48000FEBDFEF775FF0028FAD05D4880380660E3
:10B49000FEBD10B5002803D04179002902D006E096
:10B4A0000E2010BD0179012901D9102010BD0146DF
:10B4B0005248FFF78DFD002801D0042010BDEFF3A6
:10B4C0001080C407E40F72B6FEF752FF002803D0C5
:10B4D0004B49022080390860002C00D162B6002060
:10B4E00010BDF0B53D4F85B0F8680025384E0028F6
:10B4F00030D045490868002800D001200390C86872
:10B500000290F8696424002804D0FD61314840307D
:10B510008068C4B2FD6069463848FFF785FD049035
:10B52000002804D0FF2139A24931FEF7EDFD68461D
:10B530004079012807D0022805D031690098884752
:10B54000022030702FE02346F468029A0399009895
:10B55000A047F5E72948FFF791FD04461CE069463E
:10B560002648FFF7B6FD002818D168464079022822
:10B5700014D100212148FFF757FDFFF7E5FE1548DC
:10B58000403001690029FCD10020F8606423F5688F
:10B590004A1E0098A847641E012CE0D83078022883
:10B5A00001D0032807D169461448FFF792FD00280F
:10B5B00003D0B068804705B0F0BD6846FFF7D1FE04
:10B5C000F9E70000001200400013004000100040A6
:10B5D0001C00002000150040A0E301000011004005
:10B5E000D6BE898EC01F004000D6BE89060102006B
:10B5F000250003025B060000555555002807002072
:10B6000080E200E000E100E0001400402E2E5C2EFD
:10B610002E5C7262635F6D6573685C7372635C72EB
:10B620006164696F5F636F6E74726F6C2E6300008C
:10B6300010B5FEF74FFD10BD82494968002900D0C2
:10B640000847082070478AB001236C46237001AB7D
:10B6500007C36846FFF7F0FF72B6FEE730B5044651
:10B660000078FF25AD0289B023286FD013DC75491F
:10B67000042851D008DC002822D001283FD002281D
:10B6800040D0032817D144E0202850D0212854D09E
:10B69000222810D157E0322872D006DC242858D056
:10B6A00030285AD0312806D15FE060286CD061285C
:10B6B00072D0622875D0002211460620FFF7C3FF22
:10B6C000A0684860A07B00280AD000200870207B7A
:10B6D000002802D0607B022804D2072009B030BDC8
:10B6E0000120F3E77F21C902284600F019FA00285B
:10B6F00001D00320F2E7607B01F09FFD57E001F0ED
:10B70000B0FD54E02089012281B2606801F0E9FDBA
:10B71000E4E701F0AEFE4AE000206A461070241D06
:10B720001DCC01AD1DC5496868468847D6E720791C
:10B73000611D226901F0A5FDD0E72079611D226914
:10B7400001F0B4FDCAE70620C8E7FFE701F0F8FE04
:10B750002DE0207902F0F3FAC0E7A08800F024FA87
:10B76000A060002823D10520B8E7A088E268A1687E
:10B7700000F035FAA8421AD21020AFE700E003E04B
:10B78000A08800F0B3FA12E0606802F052F90120DC
:10B79000616803E000E004E00220616800F0B5FAAF
:10B7A00005E000F0DEFA02F0ECFA01F0D5FE002030
:10B7B00094E701200007816B406B41432248081841
:10B7C000224901601F49012008700020704700B520
:10B7D00089B020216A46117010716846FFF72CFF6E
:10B7E00009B000BD70B58AB016460D460446242245
:10B7F0001749684602F0B0FC01A970C16846FFF71E
:10B800001BFF0AB070BD30B50D46114989B0044622
:10B8100024222431684602F09FFC68460295019478
:10B82000FFF70AFF5AE700B589B062216A46117036
:10B8300010716846FFF700FFD2E702480121007847
:10B8400048407047003D0020FCFFFF1F5DB601002F
:10B85000ACE30100F0B504460078FF2815D00019CC
:10B860000125AD020023651901274288F94E7F02A8
:10B870000EE00488A4002018A84206D8B24201D1E4
:10B880008A4202D15B1CBB4201D90020F0BD428834
:10B890008A42EED1001DF0BDF8B5EF4D044628698F
:10B8A000844204D0002211461020FFF7CCFEEFF3B3
:10B8B0001080C207D20F72B62869E84B0088984200
:10B8C000E868018801D1491C01E0268889190180B6
:10B8D0002088E349800000190C46803C286188429A
:10B8E00000D12C612869DB4F4688BE4207D106880B
:10B8F0009E4204D1001D2861884200D12C61002A9B
:10B9000000D162B6F8BD0188D54A89000818D2492D
:10B910009042C86002D110468038C86009698842E8
:10B9200009D00A1A9203120C0280814201D22032FD
:10B930000280002141807047F8B50146EFF3108086
:10B94000C507ED0F72B6C44FFC68208883008B4298
:10B9500002D36088002804D0002D00D162B60020F8
:10B96000F8BDBF4E8A033869120C803E844204D170
:10B97000FE603E610EE062B614E0301B8030814212
:10B9800012D91B1A8B42E7D3B24980036180000CA5
:10B990002080FE603280002070803046FFF7B3FFC9
:10B9A000002DE8D03046F8BD22802046FFF7ABFFDF
:10B9B000002D00D162B62046F8BD10B5A84C02207B
:10B9C00020700422A1686068FFF70CFF002801D0F6
:10B9D0000120207610BD70B50126A14DB60227E0EA
:10B9E00048889E4A904228D000281CD009888C00A4
:10B9F0005110884200D10424286969680019891906
:10BA0000884204D9002211460320FFF71CFE22467B
:10BA1000E9682869FFF7E6FE002812D1E868686146
:10BA2000286900192861E868018889000818E86019
:10BA3000A868E96880198142D2D3012028760420C1
:10BA4000287070BD70B5864C2278002A01D008207D
:10BA500070BDA1606060012121707F490125497896
:10BA6000002904D1A902FFF7CEFE002800D02576D8
:10BA7000002070BD70B5784A0C4612780546012A40
:10BA800004D0002211461046FFF7DDFD214628466E
:10BA9000FFF7E0FE00F090F9002802D000F07DF9F9
:10BAA00070BD052070BDFFB581B0DB1C0A9F9D08ED
:10BAB000AD00BE007019001DFFF73EFF04002DD041
:10BAC000002F07D060190746FF22082102F056FB1D
:10BAD0006048F8800721A80389034018000C2080E3
:10BAE000029860802A46201D039902F035FBED1D67
:10BAF000A80880008219154621460198FFF772FEBA
:10BB0000002808D02A4621460198FFF76BFE002244
:10BB10001146FFF798FD002005B0F0BD0420FBE7BB
:10BB200070B54D4D00222A7002460A43920501D09D
:10BB3000102070BDA9604A4968608039E960202200
:10BB400029610A8000F046F96861002826D1A868BA
:10BB500000F040F9040025D00126B602314668689D
:10BB6000FFF751FE002807D031466868FFF74BFE0B
:10BB700000221146FFF767FDA9686868621A121D66
:10BB8000FFF730FE002809D0A9686868621A121D04
:10BB9000FFF728FE00221146FFF755FD012028700F
:10BBA000002070BD0B2070BD0146FF20800251E6D1
:10BBB00010B5294C2078012804D0002211461046E7
:10BBC000FFF741FD042020706168081D6061A068D6
:10BBD000FFF738FF002801D10321217010BDF7B510
:10BBE0001D4F82B038781546012804D00022114636
:10BBF0001046FFF728FD542D04D9002211461046A7
:10BC0000FFF721FD387D800704D000221146104641
:10BC1000FFF719FDFF2178698902884204D80022C4
:10BC200011461046FFF70FFD0298FFF7BDFF00F029
:10BC3000C3F87C690646002C14D001217A6860198B
:10BC4000890251180830884210D30022114608207A
:10BC500027E00000FF7F0000083D0020FFFF0000FC
:10BC6000B83D0020002211460E201AE00120787015
:10BC700000902B462046039A0299FFF714FF0028F4
:10BC80000CD1ED1DA8087969800040187861002E5C
:10BC90000BD0304600F081F8002806D00022114673
:10BCA0000420FFF7D0FC002036E701217A6878698C
:10BCB000890251185830884201D3FFF779FF201DBF
:10BCC0002AE738B50C460546FFF76EFF00F074F81A
:10BCD000002809D0018822468B00002100912946C6
:10BCE0001B1FFFF7E0FE38BD052038BD0146FF20D1
:10BCF0008002BFE651480178012902D1407800282E
:10BD000001D0002070470120704770B505460C46F1
:10BD1000012808D14A48844205D38030844202D2A7
:10BD20000846FFF7B9FD2146284600F05CF8444874
:10BD30008030007800280BD1404C2078032808D0B0
:10BD4000052805D1606800F045F860610120207089
:10BD500070BDA1686068FFF775FE0028F8D1052066
:10BD6000F5E710B5354800224270C068344942807A
:10BD700080310878002809D00B7E002B06D00A7687
:10BD8000012804D0022801D1FFF717FE10BD486832
:10BD900001218902FFF737FD10BD10B50446810768
:10BDA00004D0002211461020FFF74DFC0422254943
:10BDB0002046FFF717FD10BD002803D0012189049C
:10BDC000884201D1002070471C49496849788900A0
:10BDD000401A704710B51C49FFF73CFD002801D000
:10BDE000FFF7EAFF10BD10B5154C803422782346CA
:10BDF0005B68012A0DD0022A12D0032A1BD0042A24
:10BE000006D1012804D16069884201D10020207048
:10BE100010BD0228FCD18B42FAD1FFF7CEFD10BD38
:10BE20000128FCD1A0688842F9D1032121701B1D93
:10BE3000001D2361E060FFF7CEFD10BD083D00202E
:10BE4000383D0020F4E30100FF7F00000246491E58
:10BE500003D48B00D358002BF9D0491C05D08A009D
:10BE600010188038C06F002203E00020704740089F
:10BE7000521C0028FBD1480120388018704710B5AB
:10BE800007229300C458CB589C4201D9012010BD11
:10BE90009C4202D20020C04310BD521EF1D50020AA
:10BEA00010BDF0B50646002003469D004C59575979
:10BEB000E7193F18BC4204D0BC4201D9012000E080
:10BEC00000205B1C7751082BEFD3F0BDF0B5064680
:10BED000002003469D004C595759E71B3F1ABC42AE
:10BEE00004D0BC4201D2012000E000205B1C77514D
:10BEF000082BEFD3F0BDF8B51D46174602F094F9B4
:10BF00003B682A681C184A41069B16461B68201A83
:10BF10008E4101D2012000E000201918069801602E
:10BF20002A603C60F8BDF7B5002084B015460E4687
:10BF3000019002900746039000240BE003A80090B4
:10BF4000381B80002958A000305802AB01AAFFF727
:10BF5000D2FF641CBC42F1D9BA0004980199815007
:10BF6000029801900398029000207F1C0390082FF4
:10BF7000E2D30827FC1F0BE003A80090381B8000C9
:10BF80002958A000305802AB01AAFFF7B4FF641C87
:10BF9000082CF1D3BA0004980199815002980190BD
:10BFA0000398029000207F1C03900F2FE2D3049887
:10BFB0000199C16307B0F0BDF0B589B00C460646E3
:10BFC00000F0CFFB0025029501950095E06A0390F3
:10BFD000206B0490606B0590A06B0690E06B6A4646
:10BFE000114607900846FFF75CFF074631466A4650
:10BFF0000846FFF756FFC719206B0390606B04904B
:10C00000A06B0590E06B6A461146069007950846BE
:10C01000FFF747FFC71931466A460846FFF741FF59
:10C02000C719206A0090606A0190A06A059504957E
:10C0300003950290A06B0690E06B314607906A462C
:10C040000846FFF72EFFC719606A0090A06A0190AA
:10C05000E06A0290606B0390A06B0490E06B059027
:10C06000606B0690206A314607906A460846FFF7E3
:10C0700018FFC719E06A0090206B0190606B05956E
:10C08000049503950290206A0690A06A31460790B5
:10C090006A460846FFF71AFF3F1A206B0090606B54
:10C0A0000190A06B0290E06B059504950390606A87
:10C0B0000690E06A314607906A460846FFF706FF99
:10C0C0003F1A606B0090A06B0190E06B0290206AB9
:10C0D0000390606A0490A06A06950590206B314633
:10C0E00007906A460846FFF7F1FE3F1AA06B0090E2
:10C0F000E06B02950190606A0390A06A0490E06A88
:10C1000006950590606B314607906A460846FFF732
:10C11000DDFE3C1A0ED53146F94A0846FFF7C1FE4E
:10C120000419F8D409B0F0BD3146F54A0846FFF7C6
:10C13000CDFE241A002CF7D13146F148FFF79FFEBF
:10C140000128F1D1EEE7F0B50746A1B016460C463E
:10C15000084600F0F1FA002804D0384600F0E4FA6E
:10C1600021B0F0BD214610A800F0FBFA314618A816
:10C1700000F0F7FA684600F0D7FA0120009008A80E
:10C1800000F0D2FA0125ED0764E010990024C907F8
:10C190002ED01899C9072FD0002838DD10A918AA69
:10C1A0000846FFF793FE10A800F0E4FA08A96846D5
:10C1B000FFF765FE002804DA694632460846FFF7B5
:10C1C00070FE694608AA0846FFF780FE0098C0077F
:10C1D00005D0694632460846FFF763FE04466846C6
:10C1E00000F0C8FA002C35D007982843079031E0BA
:10C1F00010A800F0BFFAE9E718A800F0BBFA1EE0AB
:10C2000008A932460846FFF74CFE04461AE018A972
:10C2100010AA0846FFF75AFE18A800F0ABFA6946C4
:10C2200008A8FFF72CFE002804DA08A932460846C1
:10C23000FFF737FE08A96A460846FFF747FE089849
:10C24000C007DDD108A800F095FA002C02D00F98A5
:10C2500028430F9018A910A8FFF711FE002894D1C9
:10C260006946384600F07DFA7AE7F0B5044691B0A9
:10C270000E461546104600F05FFA00287ED1324681
:10C280001146684600F0A5FA6A46214608A800F063
:10C29000A0FA6A461146084600F09BFA31462A4643
:10C2A000084600F096FA2A461146084600F091FA30
:10C2B0002146934B2A46084600F06BFA2A4611465F
:10C2C0008F4B084600F065FA2A468D4B21461046F2
:10C2D00000F072FA21462A46084600F07AFA224611
:10C2E000874B1146284600F054FA2146844B2A46D3
:10C2F000084600F04EFA0021204600F029FA0028F6
:10C300000DD021467E4A0846FFF7CBFD0746204662
:10C3100000F030FAE069F9070843E06102E02046E6
:10C3200000F028FA22461146284600F052FA294623
:10C33000734B08AA084600F03FFA2946704B08AA3A
:10C34000084600F039FA08A96D4B2A46084600F065
:10C3500033FA214608AA084600F03BFA6A46684BC1
:10C360002146104600F028FA2946204600F0F9F947
:10C370003146284600F0F5F9694600E002E0304613
:10C3800000F0EFF911B0F0BD70B588B00E4604466C
:10C3900015461146684600F01CFA21466A460846D2
:10C3A00000F017FA69462A46084600F012FA3146AC
:10C3B0006A46084600F00DFA08B070BDF0B51746A1
:10C3C00089B01E460C46054602464D4B3946684626
:10C3D00000F0F2F96A461146084600F0FAF92946DB
:10C3E0006A46084600F0F5F939466A46084600F004
:10C3F000F0F93146424B2246084600F0DDF932465C
:10C400001146684600F0E5F969463D4B2A46084664
:10C4100000F0D2F969463A4B3A46084600F0CCF9AA
:10C420003946374B2A46084600F0C6F921463A46B7
:10C43000084600F0CEF9324B6A462946384600F0ED
:10C44000BBF931463A46084600F0C3F931462C4B59
:10C450002246084600F0B0F96946384600F081F9F6
:10C4600060E6F7B5B4B023A8109013A81190FFF7B9
:10C470005AFD234908A86031129000F072F968460D
:10C4800000F052F9012400250120001B810010A8B2
:10C4900041586E468E46A100405800228446104600
:10C4A00083006746F958F758CF1BBF1AB94204D02A
:10C4B000B94201D2012200E000227146401CCF5057
:10C4C0001028EDD3944201D1012400E0002430462D
:10C4D00000F050F908990798C90708430790129887
:10C4E00000F048F9FF2001306D1C8542CCDDA10031
:10C4F00010A84158349800F034F937B0F0BD00006E
:10C50000F8E30100F0B5F5B00F46002406460146F9
:10C51000154617943CA81F9400F067F9314644A8CB
:10C520002031064600F061F9294610A800F05DF9B7
:10C530002946203118A800F058F910A800F0FCF89E
:10C5400000287DD118A800F0F7F80028F9D110A92B
:10C55000B148FFF794FC0128F3D118A9AE48FFF7C2
:10C560008EFC0128EDD1AC4A18A96846FFF7EBFD17
:10C57000394608A80F9400F038F908A96A46084619
:10C58000FFF76FFF6A4610A95CA8FFF76AFF3CA996
:10C5900024A800F0E6F82CA83146044600F0E1F8A3
:10C5A0009D494CA8403900F0DCF89B4954A820393B
:10C5B00000F0D7F8984B4CAA603B24A9684600F0DD
:10C5C000FBF8234624AA54A94CA8FFF7F7FE924A89
:10C5D0006946603A0846FFF7B6FD6A46214624A838
:10C5E000FFF7D2FE8C48203003C820903CA8229050
:10C5F00024A821912390082108A8FFF727FC0446CE
:10C6000008215CA8FFF722FC844200DD2046044696
:10C61000411E08A800F09CF8002801D0012500E088
:10C620000025611E5CA800F093F8002800D00120CE
:10C6300040000543A80020AE355834A8294600E044
:10C640006DE000F08EF82946203164A800F089F8EA
:10C65000684600F069F801200090A41E3CD46A46A8
:10C6600064A934A8FFF701FE214608A800F070F87D
:10C67000002801D0012500E0002521465CA800F03B
:10C6800067F8002800D0012040000543A800355875
:10C69000002D1FD029464CA800F063F82946203110
:10C6A00054A800F05EF86A4654A94CA8FFF76CFE47
:10C6B000594B4CAA603B34A96CA800F07DF864ABE0
:10C6C00034AA54A94CA8FFF779FE69466CAA08461B
:10C6D00000F07FF8641EC2D54F4A6946603A0846AA
:10C6E000FFF731FD6A4664A934A8FFF74DFE34A96F
:10C6F0004948FFF7C4FB012804D034A9464A08463C
:10C70000FFF7E4FB002134AD10AC07208200AB58EA
:10C71000A25853401943401EF8D5002902D00020EA
:10C7200075B0EBE60120FBE700210A468B00491CAF
:10C73000C2500829FAD3704700218A008258002A83
:10C7400001D000207047491C0829F6D3012070470A
:10C750004A1192008058CA06D20E01219140084029
:10C76000704710B500229300CC58521CC450082AC0
:10C77000F9D310BD10B503460022203004E0016853
:10C780004C081443CA0704600146001F9942F6D8BA
:10C7900010BD70B51C460546FFF783FB002805D188
:10C7A00021462846FFF76BFB002804DB294622467A
:10C7B0000846FFF78BFB70BD70B51C460546FFF7BA
:10C7C00085FB002804D0294622460846FFF769FB6E
:10C7D00070BD10B590B004466846FFF7A4FB6946EB
:10C7E0002046FFF7E9FB10B010BDF8B50E4607462E
:10C7F00000240720001B80008519284601F0DDFC7D
:10C8000000BA000AE97800020843A100641C7850CD
:10C81000082CEED3F8BD000058E4010010B5042048
:10C82000FFF7C2F9F94C20610220FFF7BDF9206043
:10C830001220FFF7B9F9E0601120FFF7B5F9A06009
:10C840001020FFF7B1F960600120FFF7ADF96061DA
:10C85000FF202169800281420BD32168814208D3E5
:10C86000E168814205D36168814202D3A1688142B7
:10C8700002D20820FEF7ABFF10BD70B505460830A8
:10C8800001F09BFC0446401C00D1002428460C30DB
:10C8900001F093FC21078000090F4018697C401EBD
:10C8A00000092A7C0902401C114301D0090908181B
:10C8B000D749884200D9084670BD30B589B0602498
:10C8C0006D462C70029101902A73D24C6B73607884
:10C8D000A8736846FEF7B0FE6178491CC9B2617062
:10C8E000E278914201D30121617009B030BD30B5C9
:10C8F000C64CA7B0606900283BD02546743DE86966
:10C90000002837D002A8FEF74FFA0122691D02A8BD
:10C91000FEF764FA21460422643902A8FEF75EFAA3
:10C92000214604225C3902A8FEF758FA0020694625
:10C930000870012202A8FEF751FA687921460E39E3
:10C94000012819D0022817D0042803D10A2202A8EE
:10C95000FEF744FA02A801F055F81EA902A8FEF756
:10C9600065FAAA4A1EA9543A6069FFF7CBFD002870
:10C9700000D0012027B030BD0222E8E7F0B591B029
:10C9800005461821684601F000FCFF200F900226A2
:10C990000024681E022827D8E01E6A4610809B49A2
:10C9A000D07874390F79C0087A07C000520F10434D
:10C9B000F72210400A466032527CD207120F104311
:10C9C0006A46D0700968019192490978072915D003
:10C9D000EF210840D0708D490A220E3902A801F0DB
:10C9E000BBFB002F00D001266F46002D09D0012D82
:10C9F00012D0022D17D0032D1CD12BE0102108439B
:10CA0000E8E70120C04338808048102401680E22E6
:10CA1000B81C01F0A1FB0DE0B87812240009000158
:10CA20003946001D05E0B8780A240009000139469E
:10CA3000401C887060206946087608A9079708940A
:10CA40000E710F9848710020887106A8FEF7F4FD5A
:10CA500011B0F0BDB8780A24000900013946801CE5
:10CA6000E7E770B5694C0023743C06462371A36167
:10CA70002546581E4035A36068842046AB8460304C
:10CA80000374E361236066713246801D01F090F902
:10CA9000604902200870304600F081FDFFF76EFF0C
:10CAA00070BDF0B55B49A7B0042008700146FF22B5
:10CAB00012A801F063FB554974394879012804D064
:10CAC00002280BD004280DD103E012984008400042
:10CAD00002E0129804229043129003E0129A02207E
:10CAE0008243129249487438C1688068814267D095
:10CAF0002120FFF759F800902220FFF755F8019008
:10CB00002420FFF751F80025ED4300240290A600F1
:10CB10006946885900281DD03C4A03C8743A936975
:10CB2000D26801F09AFA00280ED00127A7402037DA
:10CB3000B8B2FFF7DBF8002806D0B8B2FFF7D6F896
:10CB400000221146FEF77FFD684680590068A84222
:10CB500000D20546641C032CD9D32C497439C8680B
:10CB60008969431828E00168491C24D0274C616872
:10CB70000A68824207D249685118814203D9129942
:10CB8000490849001291A1680A68824207D249689F
:10CB90005118814203D9129A02218A431292E16804
:10CBA0000A68824207D249685118814203D9129A11
:10CBB00004218A431292001D834201D9A842D2D394
:10CBC000124C743C2546E168A068663588420DD158
:10CBD0000E4E306900281FD012A90420FFF771F80B
:10CBE000002803D060792946FFF73BFF0748A26978
:10CBF0001438037CE168A06800F0F0FD002812D032
:10CC000060792946FFF72DFF27B0F0BD483E002090
:10CC1000FFFF0000203D0020042212A91046FEF76D
:10CC2000DEFF3061E2E7622008A908710020087287
:10CC300009A8FEF701FD232069460870012008714C
:10CC40006079487101A80A222946023001F084FA6D
:10CC50006846FEF7F1FCD7E7F3B5FE4E054670795E
:10CC600037460024743781B0012818D0022818D024
:10CC7000042812D0002211460620FEF7E4FC2846C4
:10CC80000830009001F099FAF2490861009801F02B
:10CC900094FA0646401C06D006E0FC68EFE77C6884
:10CCA000EDE7BC68EBE726682846FFF7E6FDE949B3
:10CCB0004031488488843046E64EB06028460C30C7
:10CCC00001F07BFA8000B061687C297C0002084397
:10CCD000F061A87C0007C10F30466030017400216C
:10CCE0007161017010213C3001F04FFA01F0ABF995
:10CCF000F068D949421C06D0B26949698018884257
:10CD000016D90C201FE07079022801D0B0680EE01F
:10CD1000F8680268406810184A69824200D248697F
:10CD2000B169890A8902401A01218902401AF0601A
:10CD3000F268B06890420BD0B1690B4601F08DF9F2
:10CD4000002805D00D20FEF742FD00F089FCFEBD55
:10CD5000B068216888420BD3B2698018626889186C
:10CD6000884205D8FFF79DFE029801210170FEBDA3
:10CD7000281D01F022FA01F02CF9B64970796631CC
:10CD8000FFF76FFEFEBDF7B5B24CB24E054640341C
:10CD9000F269A08C1309C21AE878AF7888B0083914
:10CDA000009129460002083138430191824210D394
:10CDB000AA490A79904201D100220A71B16801F0B2
:10CDC000BAF800998AB2019900F03CFD070061D1E0
:10CDD00019E0801A401E834207D99E4F0121603717
:10CDE0003A7881400A42029101D0082752E00001BE
:10CDF00080192030009A019901F0AEF93878029933
:10CE0000084338700027E878AA780002A18C104304
:10CE100000F0D3FB608C401E60840A9901200870EA
:10CE20000020069007908D480079002832D107AA8B
:10CE300006A9706900F0B5FD00282BD0B068069AED
:10CE4000030900211B010846D21A88410107100975
:10CE50000843E978AA7809021143401C4A1E90420F
:10CE600002D3A28C8A4215D10421C9436A4611809B
:10CE70005080306801900323012208216846FFF7A3
:10CE80001CFD06986A4670615088002800D0012079
:10CE90007249087138460BB0B7E6F3B506468BB059
:10CEA000001D01F08AF96B4C2168884202D00B20EA
:10CEB0000DB0AAE6304601F096F8002801D0002017
:10CEC000F6E7002069460870644F62493878663199
:10CED0000A91032808D00D46263D042823D00728B0
:10CEE00041D008280CD162E0F078B1780002084304
:10CEF00014D0206801F06DF860790A99FFF7B1FD50
:10CF00000824304601F08AF868460078002803D0EB
:10CF100030460C9900F05CFB2046C9E76946304674
:10CF2000FFF79AFE56E0F078B1780002084309D086
:10CF3000A98C884206D86A4630460C99FFF723FF31
:10CF4000002400E00B24688C0028DAD170206946A8
:10CF50000871434803900020029001A8FEF76CFB83
:10CF600005203870CDE7F078B1780002084303D18E
:10CF70003046FFF782FCA884082038700020FEF7B6
:10CF800052FC2320694608710220087202A80A2276
:10CF900002300A9901F0E0F860796946487201A808
:10CFA000FEF74AFB0446012069460870A9E7F078BD
:10CFB000B1780002084303D13046FFF75EFCA88435
:10CFC000F078B2780002A98C104300F0F6FA012044
:10CFD00069460870002494E7F0B504461F4E1D4DC5
:10CFE000214630782F4608318BB0663709910128E9
:10CFF0000AD0294649790891022835D0032833D030
:10D0000007287CD0082046E7E07840072AD0A0789F
:10D010000A220007000F6871384601F09DF820468B
:10D0200000F024FF002852D0212069460870A07823
:10D030000007000F487130780871A078099902073D
:10D0400001A8120F023000F0B3FE6846FEF7F4FAB2
:10D0500021E70000D43D002000100010203D0020FA
:10D0600080841E00062016E7E07829794007400FEB
:10D07000884207D888426FD1201D01F09EF82968A8
:10D08000884269D93A462046089900F039FF0028BD
:10D0900004D1204600F0EAFE00280CD0A0780A2235
:10D0A0000007000F68713846099901F055F82046CD
:10D0B00000F0E2FA50E0A0786A790007000F82429F
:10D0C00005D13946099800F0A5FE002844D1222058
:10D0D0006946087002200871A0780A220007000F34
:10D0E000887101A80330099901F036F83078694653
:10D0F0004871E0784007400F4874201D00E003E0CD
:10D1000001F05BF80590A0E70846A1780907090F30
:10D11000884221D102463846099900F060FE002875
:10D120001AD0E17828794907490F884207D3884205
:10D1300012D1201D01F041F8296888420CD9201D28
:10D1400001F03BF82860E0784007400F28716879CB
:10D1500000F025FAFFF712FC00209CE6F0B505462A
:10D1600087B0001D01F029F80146F74800688142A8
:10D1700061D1F64F3878082813D0F34EE9780024AF
:10D180009C36AA780902204611438200B25A8A428C
:10D1900014D1800084196088411C6180082805D35F
:10D1A0000FE0284600F01FFF002802D0002007B043
:10D1B0002BE50821284600F00BFAF8E7401C04286C
:10D1C000E3D3E878AA780102DF4811438068012997
:10D1D00004D000090001090140181038102202A9EA
:10D1E00000F0ADFB002814D00520C043694608803C
:10D1F000E878A9780002084369464880281D00F0B5
:10D20000DCFF01900323002218216846FFF755FB3D
:10D2100000E00520014621430AD1B9788A07120FA0
:10D220009419491CB970E978AA7809021143218040
:10D2300000216180BBE70B20B9E770B5C34C00212A
:10D24000054621707421C04800F09FFFBE481021A0
:10D250009C3000F09AFF0020A070E570FFF7DEFA26
:10D2600070BD10B57421B84800F08FFFFFF7D6FAF3
:10D2700000F0BBF900F090FD002801D100F0F0F9BA
:10D2800010BD10B5B14B1B78012B01D0082010BD8B
:10D29000AF4B5B69934203D8531C01D0102010BDE3
:10D2A000A94BDA60FFF7DDFB002010BD70B5A74C7D
:10D2B00015462378012B03D0022B01D0082070BD26
:10D2C00007222270A04C024660712046663025601D
:10D2D00000F06EFD607900F062F9FFF74FFB00206F
:10D2E00070BD70B54278037812021A43994BD21878
:10D2F000130000F0B1FF05100D0A07042B0000F029
:10D30000EAF970BDFFF768FE70BDFFF7C6FD70BD9E
:10D31000FFF724FF70BD04468C480D4600780828AE
:10D320002046F2D100F05FFE002801D0002070BD41
:10D33000854A4032918C508C081A401C80B200F013
:10D340003CF92946204600F043F970BD0B2070BD22
:10D35000F0B57D4DABB074350E2215A8296800F0EC
:10D36000FBFE794E0024304607462030F268B16853
:10D3700066372A908A4231D0FF225421684600F055
:10D38000FDFE7279394602A800F012FDB0690190E5
:10D39000F0680090FF206946C87400208874F06926
:10D3A0001422002808D0402205A82A9900F0D4FEB3
:10D3B0000120694688745422707901280CD0022813
:10D3C00006D0042802D00B202BB01EE4242000E05D
:10D3D0002220FEF704FC3EE02120FAE7286900281D
:10D3E00004D1002211460E20FEF72DF92869564976
:10D3F000006800907079623101280CD0022831D089
:10D40000042810D10A22394616A800F0A5FE1C24D3
:10D410000421009805E0888810A988821A240098C1
:10D42000012108430090F069002804D040222046E2
:10D430002A99FEF7D4FB0020401C0E28FCD30E22B4
:10D4400015A90220FEF7CBFB04222860694610468E
:10D45000FEF7C5FB28613D4906200870FEF7A8FBD2
:10D460000020B1E7888810A9C8821B2402210098F7
:10D47000D7E710B535480078030000F0EDFE09103D
:10D480000608080A11101A1A1000012012E00520DF
:10D4900010E02D482C4940796631FFF7E2FA10BDC3
:10D4A000FFF725FA002802D0FFF752FF10BD042035
:10D4B00000E00020FEF78BF910BD70B50220FEF7EA
:10D4C00073FB06460420FEF76FFB04461020FEF7B0
:10D4D0006BFB05461220FEF767FB3188002906D05A
:10D4E0002178C9070CD029680968491C08D021781F
:10D4F000490707D500680068401C03D0002070BDB4
:10D50000012070BD042070BD10B50220FEF74CFB59
:10D51000002813D00C497431C96809684A1C0DD021
:10D520000968491C0AD00A3000F047FE002805D0DF
:10D5300000F03EFD002801D0012010BD002010BDEC
:10D5400010B500F08DF810BDD43D0020203D002026
:10D55000001000100600FFFF00B5894889B0007870
:10D5600006281AD1FEF7C6FB002816D025206946EA
:10D57000087001200871834842794A71014601A868
:10D580006631023000F014FC6846FEF755F800F0F2
:10D5900046FAFFF743F9FFF764FE09B000BD012822
:10D5A00009D0022805D0042801D0002070470120AE
:10D5B0007047032070470220704700B589B02422CD
:10D5C0006B461A709880D9806846FEF735F8E4E714
:10D5D00070B5054603230022FFF76FF9040002D15E
:10D5E000284600F01BFD204670BDF0B566488FB0A0
:10D5F00003C80C900D9165A000680E9061480CAFB7
:10D60000743000680A90811C001D099100240B9061
:10D610006000385AFEF7C8FA05001CD0022069469F
:10D6200008700EAE325D0A71294601A80831023039
:10D6300000F0BEFBA00009A90958325D04A800F063
:10D64000B7FB2868079068680890A87C694648710D
:10D650006846FDF7F1FF641C032CD9D30FB0F0BD71
:10D6600010B50020FFF78AF94549012008707421A0
:10D67000444800F08AFD66E770B50446407821789A
:10D680000002084342493F4D884208D1E0784007F4
:10D6900005D0A07869790007000F884204D00022E5
:10D6A00011460720FDF7CFFF201D00F086FD286002
:10D6B000E0784007400F2871E0780007C10F31483B
:10D6C000603041742E49032008706879FFF767FFC6
:10D6D000FFF754F970BD70B5294D044628788AB01B
:10D6E000012802D008200AB070BD20796946087070
:10D6F00060794870009800F049FC2126002808D085
:10D7000069460E7002204871207988716079C8716D
:10D710001FE0A01D00F019FC00282ED0E078A178B1
:10D72000000208431A49491C884218D0154974312F
:10D7300009684A780B781102194388420FD069466C
:10D740000E7001204871E078A17800020843694614
:10D75000C880287808710846FDF76EFFC3E7694660
:10D760000E70042048712878087101A80A22A11DB2
:10D77000023000F0F1FC6846EEE70B20B3E7000052
:10D78000203D0020D43D002088E401000201040077
:10D79000FDFF000010B5B64C218E814210D30A1A4D
:10D7A000D117402300209B1A88410BD30120002170
:10D7B00000F0C2FCA269E36910401940084301D09F
:10D7C000012010BD002010BD10B53821A84800F080
:10D7D000DCFC0020A649C043088610BDFFB581B01F
:10D7E00016460D460446FFF7EFFF301900092109E0
:10D7F00000010901401A0003070C20462843800558
:10D8000002D0102005B0F0BD9948002D18D0456019
:10D810009849054640687118890A800A8902800281
:10D82000FDF7F1FF2C602F810498A8720021A961F7
:10D83000EE602C61481EE961688629860846E1E7AA
:10D840004460E5E7F7B58A4E0446318E8A4884B0D5
:10D8500081424BD0210708D13168A14205D8F26836
:10D860008B18069AA218934202D2102007B0F0BD7E
:10D87000069A102A01D8920701D00920F6E7728E85
:10D88000824201D01120F1E7090909010020611A43
:10D890008041020708091043401C85B22846FFF763
:10D8A00079FF002822D07248008EA8422FD2281A71
:10D8B00082B26F4F01200021029200F03DFC401E19
:10D8C0000022D24351410090029A01914020BE694A
:10D8D000821AFF69009800F02FFC3040394008435D
:10D8E00006D0032000F0BCF80520BFE70820BDE704
:10D8F00030463946029A00F01FFC009A019B104303
:10D90000420819435A4852008261C1610586584E47
:10D910007586304620300546069A059900F01CFCB5
:10D9200031687068611A40182946069AFDF75AFF57
:10D9300000289BD0072000F093F8032096E7F8B565
:10D940004B4D17460E46298E4B4A914213D02B68F9
:10D9500000221C090346240110461B1B90410207AC
:10D9600018091043401C84B2A14204D32046FFF79B
:10D9700011FF002801D00020F8BD002E0DD0002F8F
:10D980000BD0012C0BD0686821010009000141185F
:10D9900010393A46304600F0DFFB0120F8BD6968D7
:10D9A000F7E7F7B53248344A018E82B001919142CF
:10D9B00026D00568C76986693F24280900010090C0
:10D9C00022460120002100F0B7FB304039400843D7
:10D9D00014D00198001B80B201280DD000990001DD
:10D9E000081810380299884208D3039908600498EF
:10D9F00010210160012005E72846F3E7641EDFD50A
:10DA00000020FFE610B51A491B4B0A8E9A4201D13D
:10DA1000082010BDCA684968FDF7E0F910BD10B5CF
:10DA20003821134800F0B1FB00201149C04308869B
:10DA300010BD0F4910B52031884210D10C48018E1D
:10DA4000428E8369891A01228A40D143CA17C46968
:10DA50000B4014400021C461C9438361418610BD5D
:10DA600010B50021024AC9431186FDF7B0FE10BD72
:10DA7000803E0020FF030000FFFF0000F3B5C94E09
:10DA8000044630788BB0C043099009A90420FEF702
:10DA900018F93078012701282AD0022810D004284C
:10DAA00044D0002211460B20FDF7CDFD0C98FC213F
:10DAB000C17430780C992030FEF703F90DB0F0BD39
:10DAC0001120FEF771F8016805CC083C00F068FBF6
:10DAD0000028EBD00020009020680190606880084A
:10DAE0000290684618DF0028E8D0684618DF18E082
:10DAF0001020FEF759F8016805CC083C00F050FBF7
:10DB00000028D3D0009720680190606880080390B7
:10DB1000012000030290684618DF0028CED0684636
:10DB200018DF00221146FDF78EFDC7E7FDF785FEE1
:10DB3000002808D000F09FFA62B69B483EDF002024
:10DB400044DF35DFB2E71220FEF72EF8050004D1DE
:10DB5000002211461046FDF776FD2888800504D086
:10DB6000002211461046FDF76EFD502069460870F0
:10DB7000286801908D496068401888430290684683
:10DB8000FDF75AFD00280DD1512069460870206824
:10DB9000029060680390286801906846FDF74CFD8C
:10DBA000002883D0777089E7F0B57E4EC3B07468E3
:10DBB000002C73D0EFF31080C007C00F72B6542250
:10DBC00041902146684600F0C7FAE07C0125F8281C
:10DBD00059D0FC2812D0FE280AD0FF285AD17570DF
:10DBE000FE206946C87430782030FEF76AF851E0AC
:10DBF000757069462046FFF741FF4BE00220FDF7B4
:10DC0000D3FF40900420FDF7CFFF0746409800283F
:10DC100004D1002211461046FDF715FD0E2215A86D
:10DC2000409900F099FA002F3AD038682A9030785D
:10DC300001283BD0022841D004284BD000221146B5
:10DC40000B20FDF700FD0E2215A90220FDF7C7FFEE
:10DC500000281ED0A07C002807D021464022143185
:10DC60003F98FDF7BCFF002813D004222AA91046D4
:10DC7000FDF7B5FF00280CD0F8206946C87430784D
:10DC80002030FEF71EF830782030FEF72FF80028FD
:10DC900033D075704198002800D162B643B0F0BD12
:10DCA000FF2204212AA800F069FAC0E7208910A900
:10DCB00088821A203F902A98284309E0207A10A9E8
:10DCC0008875607AC8751B203F9002212A9812E05F
:10DCD0002A90B8E7A0681690A08910A988832046EA
:10DCE0000E3000F06AFA17A9023100F070FA1C2019
:10DCF0003F902A9804210843EAE700207060C9E7B2
:10DD000070B5284E054601242046203080B2FDF72C
:10DD10004BFF00280AD0C17CFF2907D03470706007
:10DD2000FFF742FF002D09D0012006E06400042C1B
:10DD3000EAD900207060002D00D0287070BD70B549
:10DD40000446012805D0042C03D0022C01D0072062
:10DD500070BD144D6868002801D0082070BD2046B1
:10DD60002030FDF721FF002809D001680968491C0F
:10DD700005D02C706860FFF717FF002070BD0520EC
:10DD800070BD08484168002905D04178002902D0BB
:10DD90000021417008E7704702484068002800D021
:10DDA00001207047283D00200F000F00FF030000F6
:10DDB00010B5012A07D0022A0CD0042A02D10A2267
:10DDC00000F0CAF910BD4A780B78110219430170AE
:10DDD000090A02E00A7802704978417010BD10B556
:10DDE000012A09D0022A02D0042A11D10A2200F005
:10DDF000D7F900280AD00BE04278037810021843C4
:10DE00004A780B7811021943884201D1012010BDD4
:10DE1000002010BD70B50C46012A16D0022A1DD074
:10DE2000042A21D1417902790902114362792379C7
:10DE300012021A43914217D100F0BFF9054620465D
:10DE400000F0BBF985420DD00EE04178027808025F
:10DE50001043617822780902114301E000780978C3
:10DE6000884201D1012070BD002070BD70B505460B
:10DE70000220FDF799FE0446A8780007000F01284C
:10DE800026D002281BD004282BD1687B297B0002D6
:10DE900008432189884224D12846083000F08DF9B2
:10DEA000616888421DD128460E3000F086F905468B
:10DEB00020460A3000F081F9854210D811E0287A16
:10DEC000A17888420DD1687AE178884207D808E0C5
:10DED000687A297A000208432188884201D101200A
:10DEE00070BD002070BD6E4A00218B00D358834264
:10DEF00001D101207047491C0829F6D30020704742
:10DF000070B5044680780D460007000F1646A842FB
:10DF100001D0002D06D1201D00F04FF9FFF7E3FFDF
:10DF2000002801D0002070BD20462A463146083026
:10DF3000FFF755FF70BD012805D00001090909014F
:10DF40001038401870470846704770B505460220E3
:10DF5000FDF72AFE044668792979000208432189E1
:10DF6000884211D1284600F028F9616888420BD117
:10DF7000A81D00F022F9054620460A3000F01DF9E0
:10DF8000854201D9012070BD002070BD01B502207D
:10DF9000FDF70AFE694609788278914206D1694602
:10DFA0004978C078814201D9012008BD002008BD10
:10DFB00010B50420FDF7F8FD002806D00068C10761
:10DFC00005D0410703D5800701D5012010BD0020F1
:10DFD00010BD10B5334A324C11784B07DB0EE050C0
:10DFE000491C117010BD70B54278037814021C43AF
:10DFF0002B4B002120338A009D5AA54209D1D2180B
:10E000005588C278867812023243954201D10120A8
:10E0100070BD491C1029EED3002070BD70B5417849
:10E02000204B02780D02596815431D4C0A07920EC9
:10E030002034A552C57886782802304312195080C2
:10E04000491C596070BD164810B54021203000F0C1
:10E050009CF814490020486010BD904202D3D318A8
:10E06000834204D8824204D34018904201D3012055
:10E0700070470020704730B50B4802680A4B0020FB
:10E08000012180330C468440144204D0C506ED0EB5
:10E090000C46AC401C60401C2028F3D330BD00006F
:10E0A000B83E0020303D002000E100E030B50B46D6
:10E0B000014600202022012409E00D46D5409D4262
:10E0C00005D31D469540491B2546954040191546E8
:10E0D000521E002DF1DC30BDF0B51FB40646002005
:10E0E00082B005464024019100901BE00199224630
:10E0F0000F46304600F074F8049A059B801A994147
:10E1000010D310461946224600F016F8361A8F41F1
:10E110000197224601200021009F00F00DF83818D9
:10E120004D4100902046641E0028DFDC019B0098D2
:10E130002946324607B0F0BD10B5202A04DB01465F
:10E14000203A9140002010BD914020239C1A0346A4
:10E15000E3401943904010BD03460B439B0703D097
:10E1600009E008C9121F08C0042AFAD203E00B789C
:10E170000370401C491C521EF9D27047D2B201E014
:10E180000270401C491EFBD270470022F6E710B512
:10E1900013460A4604461946FFF7F0FF204610BD15
:10E1A00030B504460020034600E05B1C934203D2D6
:10E1B000E05CCD5C401BF8D030BD0321001D401E4B
:10E1C000037812021A43491EF9D5104670470346D8
:10E1D00003220870000A491C521EFAD518467047DF
:10E1E00010B5202A04DB0846203AD040002110BD9B
:10E1F0000B46D340D0402024A21A91400843194630
:10E2000010BD0000064C0125064E05E0E36807CC72
:10E210002B430C3C98471034B442F7D3FBF754FF20
:10E2200090E40100D0E40100F8B5040C8BB226465E
:10E2300082B25E430D0C1046370C584336048019E9
:10E240000021794116466E43370C36048019794116
:10E2500026466E438919F8BD30B47446641E25788D
:10E26000641CAB4200D21D46635D5B00E31830BC0A
:10E27000184702E008C8121F08C1002AFAD17047E7
:10E280007047002001E001C1121F002AFBD1704736
:10E29000020000000000000000000000000000007C
:10E2A000982F8A4291443771CFFBC0B5A5DBB5E901
:10E2B0005BC25639F111F159A4823F92D55E1CAB75
:10E2C00098AA07D8015B8312BE853124C37D0C5503
:10E2D000745DBE72FEB1DE80A706DC9B74F19BC14B
:10E2E000C1699BE48647BEEFC69DC10FCCA10C243B
:10E2F0006F2CE92DAA84744ADCA9B05CDA88F9761F
:10E3000052513E986DC631A8C82703B0C77F59BF88
:10E31000F30BE0C64791A7D55163CA0667292914B4
:10E32000850AB72738211B2EFC6D2C4D130D385351
:10E3300054730A65BB0A6A762EC9C281852C729213
:10E34000A1E8BFA24B661AA8708B4BC2A3516CC741
:10E3500019E892D1240699D685350EF470A06A107A
:10E3600016C1A419086C371E4C774827B5BCB034C9
:10E37000B30C1C394AAAD84E4FCA9C5BF36F2E6867
:10E38000EE828F746F63A5781478C8840802C78CF6
:10E39000FAFFBE90EB6C50A4F7A3F9BEF27871C6F9
:10E3A000020000001A0000005000000051000000B0
:10E3B000000000000000000000000000000000005D
:10E3C000000000000000000000000000000000004D
:10E3D00050000000000000000000000000000000ED
:10E3E000000000000000000000000000000000002D
:10E3F00000000000FFFF0000FFFFFFFFFFFFFFFF27
:10E40000FFFFFFFF00000000000000000000000010
:10E4100001000000FFFFFFFF96C298D84539A1F424
:10E42000A033EB2D817D0377F240A463E5E6BCF8D1
:10E4300047422CE1F2D1176BF551BF376840B6CB9C
:10E44000CE5E316B5733CE2B169E0F7C4AEBE78E98
:10E450009B7F1AFEE242E34F512563FCC2CAB9F327
:10E46000849E17A7ADFAE6BCFFFFFFFFFFFFFFFF8B
:10E4700000000000FFFFFFFF0000000018E40100A3
:10E480000000000000000000220021002400000025
:10E49000D0E40100040000202C00000072E2010022
:10E4A000FCE40100003D00203800000072E20100A1
:10E4B000FCE4010030000020500F000082E2010067
:10E4C00034E50100383D0020E001000082E2010057
:10E4D000000000000000000000000000000000003C
:10E4E0000024F4000000000003000000D6BE898E66
:10E4F000000000000000000000000000000000001C
:10E50000000000000000000000000000000000000B
:10E5100000000000000000000000000001010000F9
:10E5200000000000000000000000000000000000EB
:04E5300000000000E7
:020000041000EA
:0410140000A0010037
:040000050001A0C195
:00000001FF
