:020000040007F3
:108000004829002029910700319107004F8407007B
:1080100035910700379107003991070000000000F3
:108020000000000000000000000000003B9107007D
:108030003D910700000000003F91070041910700BB
:1080400043910700CB860700999D070043910700E5
:1080500043910700439107004391070043910700B4
:1080600043910700439107004391070009890700E6
:108070004391070043910700439107004391070094
:108080004391070043910700439107004391070084
:108090008F8607002D9D07008189070085890700CD
:1080A0004391070043910700439107004391070064
:1080B000439107004391070000000000000000000A
:1080C0004391070043910700439107004391070044
:1080D000439107004391070043910700000000000F
:1080E0000000000000000000000000000000000090
:1080F0000000000000000000000000000000000080
:10810000000000000000000000000000000000006F
:10811000000000000000000000000000000000005F
:10840000DFF80CD004F07AFB0048004755840700E1
:1084100048290020056885F308884068FF2464B275
:10842000EFF30585002D01D1A646004725460646F7
:1084300021273FBAF0B40024002500260027F0B41D
:10844000F92040B20047000072B600BEFEE772B6E7
:1084500000BEFEE71F4802680121C00600243AB9A9
:10846000C0F80010D0F80021002AFBD0C0F800416D
:10847000184A0C3212683AB9C0F80810D0F8042132
:10848000002AFBD0C0F80441C0F81010D0F80C113D
:108490000029FBD0C0F80C410F49402081F80004AE
:1084A0004FF0E0210004C1F8000162B600F031FC99
:1084B00000E020BF04F067F90028FAD1074D2868D2
:1084C00010B9002000F0DBFA2C6000F064FC20BF43
:1084D000FDE700000804004016E000E01C05004035
:1084E00070B50446807BE0B1022835D00125FA48FA
:1084F00000F09CFF014640F6CD4015FB00F0B1FBBB
:10850000F0F200FB1211627B084441F69A1315FB4E
:1085100003F3A16802FB0311084420F07F40606070
:1085200070BD627B40F6CD4101FA02F0521C9140D1
:10853000A0F6CD45A1F6CD41481B20F07F46E64888
:1085400000F074FF7108B0FBF1F201FB1200A168AA
:1085500000EB56002944DFE70A25C8E71CB50220D6
:108560008DF80500684601F03FF9002168B18DF8EB
:10857000041025208DF80600684601F020FB002835
:1085800002D0684601F06DF91CBDD44801701CBDD5
:108590004FF6F071884208D3012110308140CF4856
:1085A0004088014201D0012070470020704710B57B
:1085B00088B0044601F093F9020013D090884FF67A
:1085C000F07188420ED3FFF7E3FF58B1B6208DF863
:1085D00001009088ADF8020003208DF80000684685
:1085E00001F0BBFB08B02046BDE8104001F039B9EE
:1085F0001FB529B1B8486946983800F06DFF18B129
:10860000009801F02EF91FBD4FF0E0214FF48010CB
:10861000C1F800021FBDB1480078002800D09DE7D6
:108620007047F0B5AE480168AE4C481E20F07F4060
:108630000346002204EB02152E6856B16D68471AF6
:108640006E1A26F07F4627F07F47BE4201D225F002
:108650007F40521C082AEDD3A34A4FF48034834252
:108660000AD0C2F804430023C2F840319C4A3C328D
:1086700010609A488160F0BDC2F80843F0BD974889
:108680000178002902D10121017067E7704738B5F0
:10869000924C0DE0009801F005F9012802D000206D
:1086A000FFF7D2FE616800988847009801F0D9F87A
:1086B0008C486946803000F037FF0028EAD02078E7
:1086C000002801D1FFF7DBFF38BD01F09ABA012085
:1086D000704710B5814900240C7048604C8080219F
:1086E000804804F0E2F97C498039A1F1180001606A
:1086F0000421416020214461816000F0DFFE01F02F
:108700006BF8754800F0BBFE08B1FFF79DFE022133
:10871000142000F0D6F8142000F0BDF8002101204C
:1087200000F0CFF8BDE81040704A7149714801F07F
:10873000CFB92DE9F0411D001646074601D10C2E98
:1087400002D80FB1082902D30020BDE8F081EFF371
:10875000108000F0010872B6624800EB0114206836
:1087600008B101F07EF8384601F05DF82760267305
:10877000002060735A480068A060A5732046FFF788
:10878000AFFEFFF74EFFB8F1000F00D162B6012037
:10879000DBE710B504460B2000F088F8082C0CD25B
:1087A000504800EB0414206801F05BF800202060C2
:1087B0006060A060E060FFF734FFBDE810400B2070
:1087C00000F069B82DE9FC41454806680025454F91
:1087D000A846B61C07EB05142068E8B33F4A616859
:1087E0009268711AB21A21F07F4122F07F429142C1
:1087F0003BD88DF805808DF8048000908DF80780B7
:10880000E07B032811D225208DF80600684601F090
:10881000D6F910B9206801F006F89DF80600401C52
:10882000C0B28DF806002728F0D984F80F80607B4D
:10883000411CC9B26173FF2805D12F4AA0681044BA
:1088400020F07F40A060207B814214D3FF2812D00B
:10885000206801F006F800E007E0C4F80080C4F8E2
:108860000480C4F80880C4F80C806D1C082DB1D3B6
:10887000BDE8FC41D5E62046FFF732FEF5E70122D0
:10888000103082401548438811B11A434280704726
:1088900093434380704700F01F020121914040093B
:1088A000800000F1E020C0F80011704700F01F02C6
:1088B000012191404009800000F1E020C0F88011C2
:1088C00070474907090E002818DA00F00F0000F180
:1088D000E02080F8141D704758010020040000209B
:1088E00004B500404000002000B00040AF85070004
:1088F000F185070017860700009A190000F1E020B3
:1089000080F80014E7E7000070B51A4CD4F8400175
:10891000002538B1D4F80403C00303D5C4F840518E
:10892000FFF750FFD4F8440100280DD0D4F8040319
:10893000800309D5C4F844514FF40030C4F808034B
:10894000BDE8704000F0A9BA70BD0B490020086076
:1089500008484FF44031C0F84413012181600160A0
:108960000649202081F800044FF0E0218001C1F881
:108970000001704700B0004008B500400BE000E087
:1089800000F013BF30B58FB000244FF0005542E027
:108990009DF81000641C0128059806D00699A8428D
:1089A0002FD3FF2204F07AF82DE0800702D00020B8
:1089B000FFF74AFD0798800702D00020FFF744FD2B
:1089C0000698800702D00020FFF73EFD0598A842D8
:1089D0000DD30146002006E0069B0A781B5C1A4076
:1089E00001F8012B401C079A8242F5D804E0DDE92A
:1089F0000612002300F0D2FF60208DF820000698B8
:108A000005E000F099FF61208DF82000059809909D
:108A100008A801F01FFB04A9FE4800F085FD00280E
:108A2000B6D02CB162208DF8200008A801F012FB0E
:108A3000F84800F0C9FDF8490978084205D012202D
:108A400001F0B6FD006801F0F1FA0FB030BD00B5DD
:108A500087B000F044FF00280FD081884FF6EF72F6
:108A600091420AD902218DF80010011D0191007870
:108A7000C01E0290684601F0EDFA07B000BD7FB558
:108A80000546122001F094FD0446062D08D003DCB3
:108A900035B1012D29D103E0082D23D00A2D24D191
:108AA000002C1AD003F0F6F9002816D0D94800F0AF
:108AB0008BFD98B103F080FFD84B0FCB8DE80F00F2
:108AC000684618DF08B1FFF7BFFC206813DF08B164
:108AD000FFF7BAFC206801F0A9FA7FBDCE4901205A
:108AE00008707FBD0020FFF7AFFC72B6FEE701F013
:108AF000B1BA30B504460078012589B0252870D078
:108B00000EDC22286ED006DC02286CD0202819D07A
:108B1000212814D173E023286FD024280FD1C4E07A
:108B20000021612849D006DC502867D051286ED03A
:108B3000602804D10CE062283BD0702854D0062075
:108B400009B030BD2079FFF79AFF03F035F8DEE079
:108B50006846009100F048FE00287DD0009800F0A3
:108B6000ADFE0098017821F00F01891C00F8011B6F
:108B7000217A0A3100F8091B162100F8011BE421B3
:108B800000F8011BFE2100F80319217AC91C00F826
:108B9000041BD4E9011203F06FFF237B627BA17BEE
:108BA0000098FFF7C6FD0446009800F05AFEB4B1E5
:108BB000ADE02079FFF7EDFDA9E078208DF8010008
:108BC000D4E901120DF1020003F056FF207A401C97
:108BD0008DF80000684601F0C0F8002816D1032087
:108BE000AEE768E040E033E0A0688D4A410CC00386
:108BF000002303F001FF02215AE052E080E000F080
:108C00008CF92079022803D0012808D07FE05BE0AE
:108C100023208DF80000684601F01CFA25717D487C
:108C20002021183801704FF0FF3101616179017125
:108C3000D4F80610C0F80510D4F80A10C0F80910CE
:108C4000E189A0F80D1009B0BDE8304001F002BA8A
:108C5000207902285BD100E050E003F01BF9F8B95D
:108C6000022003F065FD52E0207902284FD100F088
:108C700054F921208DF80000D4F80700CDF8050044
:108C8000D4F80B00CDF80900B4F80F00ADF80D00D2
:108C9000A0798DF8040060690490684601F0DAF963
:108CA00035E001214FF4202002E001214FF4702033
:108CB00000F020F92BE06079042801D0012826D1AA
:108CC0000020FFF7DCFE22E02079800702D1207A25
:108CD000800701D0102033E7207B800701D00920D6
:108CE0002EE78DF80050241D01AB94E8070083E8BF
:108CF00007006946474800F0EFFB28B104201FE752
:108D000002208DF80000EEE7172000F0E8F80020C0
:108D100016E770B588B0FFF718FE18213D4803F03C
:108D2000C4FE3C493B481831082501601021C0E9C8
:108D3000011500F0C3FB3B49602081F800044FF0AF
:108D4000E021280501260024C1F8000101F024FAE1
:108D500035488DF80C6002908DF80D508DF800406C
:108D60008DF804608DF80E40684601F073F908B183
:108D7000FFF76AFB00F0EFFC2C492D48FFF7A9FC38
:108D800006A803F0B7FC9DF81800002801D0294878
:108D9000046008B070BDF0B58BB000F0E8FC0120B5
:108DA0008DF8100004A801F055F9FFF768FC03F0F6
:108DB00071F830B103214FF4A02000F09BF80BB004
:108DC000F0BD042001F0F4FB0546122001F0F0FB99
:108DD0000746102001F0ECFB0446022003F0A8FC3B
:108DE0000028ECD04FF0FF3600962878400705D5D4
:108DF00038680068401C01D1401F00902878C007E7
:108E00001DD020680068401C19D16068B8B1009876
:108E100012E00000800100201000002054CB070069
:108E200040420F0017E000E0F38A0700D6BE898EAB
:108E30004F8A07001C05004020F0010000900098B8
:108E4000401C03D06946042001F037FC02F0FCFF0F
:108E50000500B4D003F06CFC0528B0D1022001F06D
:108E6000A7FB040001D1FFF7EFFA012D0AD0042D72
:108E70000CD00B20FFF7E8FA324601A9284602F091
:108E8000B8FE9CE72088ADF80400F5E7241D01AB8F
:108E900094E8070083E80700EEE730B5234C00258F
:108EA00087B06078012812D002280AD0032812D097
:108EB0000820FFF7C9FA6570684601F0CBF807B0E3
:108EC00030BD03208DF800008DF80450F3E7232017
:108ED0008DF80000EFE70020FFF7D1FDEFE700F08D
:108EE0001F02012191404009800000F1E020C0F8FC
:108EF000001270470E4A0023C2F844310D4B1B6824
:108F000018440C4B20F07F40403318604FF4003081
:108F1000C2F8040305484170704705494FF400301A
:108F2000C1F8080301490020487070471000002074
:108F300000B0004004B5004070B571480023021D28
:108F40000178101D0125062907D11478240704D1C2
:108F50000478C4F30314032C02D0062904D00FE0D4
:108F6000694E684C74670EE01478240708D10478C1
:108F7000C4F30314032C06D0042C04D0052C02D017
:108F8000062909D010E04FF08054D4F844425F4ED7
:108F9000C4F34234346002E01478240704D1047826
:108FA000C4F30314032C02D0062906D011E0584C58
:108FB000266826F0807626600EE01478240708D113
:108FC0000478C4F30314032C06D0042C04D0052C1D
:108FD00002D006290AD011E04FF08044C4F80C31C9
:108FE000C4F81031494C241F236002E01478240790
:108FF00004D10478C4F30314032C02D0062905D04D
:109000000CE0424A0321643211600AE0147824071C
:1090100004D10478C4F30314032C02D006290DD024
:109020006AE03C4A052111603A4978310D603949BE
:1090300008310B603F21121D116002E01178090711
:109040005AD10078C0F30310052855D13248006882
:10905000324908603048001D0068091D08602E482C
:1090600008300068091D08602B480C300068091D95
:109070000860294810300068091D0860264814302F
:109080000068091D08602448183000682349203111
:10909000086021481C300068091D08601E48203007
:1090A0000068091D08601C4824300068091D08601C
:1090B000194828300068091D086017482C300068DE
:1090C000091D0860144830300068144940310860B8
:1090D000114834300068091D08600F4838300068B6
:1090E000091D08600C483C300068091D08600A48EA
:1090F00040300068091D08600A490948086070BDD1
:10910000E00F00F00DF0ADBA00C007403C05004094
:10911000FCED00E0105600400404001020C50040A3
:109120000090D003140000200648804706480047FE
:10913000FEE7FEE7FEE7FEE7FEE7FEE7FEE7FEE707
:10914000FEE7FEE7398F0700018407002DE9F04FA5
:10915000C8B0002213466F46CC181B1D2568E47862
:109160002DBA25F0FF05254347F82250521C102A3E
:10917000F2D31BE007EB820151F8083C4FEA73443D
:1091800084EAF34484EA932451F83C3C4FEAF31513
:1091900085EAB34585EAD303234451F81C4C51F8C2
:1091A000401C2144194447F82210521C402AE1D3A4
:1091B000036D4793416D4691846D4594C26D449211
:1091C0009246026E4392456E4295A946856E419540
:1091D000C66E4096B34600264FEAB21787EAF227DA
:1091E00087EA726C02EA090725EA020887EA08079B
:1091F000BC44854F57F8268008EB0B07BC445DF84C
:109200002670AB460CEB070E4FEAB30787EA7337BD
:1092100087EAB35C81EA04074D4601EA04089146F7
:109220001F400AEB0E02A24687EA08070C46BC4420
:109230001946761C0EEB0C03402ECDD3479E3344CB
:109240000365469B194441654599214481654499CC
:109250005144C165439911440166429949444166AC
:1092600041992944816640995944C16648B0BDE896
:10927000F08FA8B100210164C0E9121163490165B2
:1092800063494165634981656349C1656349016615
:1092900063494166634981666349C166002070473E
:1092A0000E2070472DE9F04116460F46040004D009
:1092B00006B317B10025A8461AE00E20BDE8F081DC
:1092C000216C785D6054206C401C206440280ED1D5
:1092D00021460846FFF73AFFD4E912014FF4007225
:1092E000801841F10001C4F84080C4E912016D1CEE
:1092F000B542E5D30020E1E770B516460D460400FF
:1093000007D035B1206C802200213828225403D3A5
:1093100007E00E2070BD2154401C3828FBD30BE021
:109320002154401C4028FBD321460846FFF70EFF7E
:109330003821204603F0B9FB216CD4E912304A0FE2
:10934000C900383459185041C4E90410227CE27134
:109350000A0A42EA0062A2710A0C42EA0042627101
:10936000020242EA116020716069E070010AA17096
:10937000010C6170000E04F8380921460846FFF719
:10938000E5FE4FF00002EEB1E06ED100C840A854F7
:10939000A36ECB40A8180371636ECB400372236E9B
:1093A000CB400373E36DCB400374A36DCB400375D7
:1093B000636DCB400376236DCB40521C0377042AA8
:1093C000E2D31FE018235042216D03EBC000C140DF
:1093D000A954666DC640A9180E71A66DC6400E72DE
:1093E000E66DC6400E73266EC6400E74666EC640AD
:1093F0000E75A66EC6400E76E66EC640521C0E77FF
:10940000042AE0D3002070BD64CB070067E6096A38
:1094100085AE67BB72F36E3C3AF54FA57F520E5195
:109420008C68059BABD9831F19CDE05B10B5D0E9E3
:1094300000128468A1EB721182EAF4330360C268FF
:1094400014440A4419444460C0E90221084610BD8E
:1094500070B5174A012313600024164E0AE000BFBE
:10946000D2F80051002DFBD03568491E89B2455411
:10947000C2F800410029F3D15360002070BD38B517
:1094800004460020009004216846FFF7E1FF002811
:109490000DD10948206000986060A0600025E06060
:1094A0002046FFF7C3FF6D1C142DF9D3002038BDF3
:1094B00000D0004008D50040ED5EEAF1826820212E
:1094C000491E22FA01F3DB07FAD001228A4000216B
:1094D000C0E902210161704770B5044661B1EFF344
:1094E000108000F0010572B6A26820698318E06858
:1094F000834206D115B102E00E2070BD62B6042091
:1095000070BD521E1040D4E9003202FB0030636986
:109510000BB1984701E003F0AFFAE068401CE0604F
:1095200005B962B6002070BD70B50B460446EFF376
:10953000108000F0010572B6D4E90310884203D10F
:1095400005B962B60E2070BD6BB1A1686669491E8F
:109550000840D4E9001202FB001118460EB1B047D2
:1095600001E003F089FA2069401C206105B962B668
:10957000002070BD70B50B000BD0EFF3108101F02F
:10958000010472B6D0E903516D1A954203D804B9AB
:1095900062B60E2070BD11448268521E1140D0E99F
:1095A000005202FB0151456918460DB1A84701E080
:1095B00003F062FA04B962B6002070BD0022D9E758
:1095C000D0E90310081A70470169C068814201D1CF
:1095D0000120704700207047122818D2DFE800F001
:1095E000090F0F17150B0D130F1113131117131567
:1095F0001315002070479020704782207047832009
:1096000070478420704785207047862070478020EF
:10961000704710B5044643788221032284208EB01F
:10962000762B38D004DC022B10D00E2B04D11CE09A
:10963000772B52D0782B77D08DF8010060788DF899
:1096400002008DF800208DF8031031E08DF8011034
:1096500020788DF800002278012A29D9A11C0DF16B
:109660000200521E03F008FA22E000F021FC5549E6
:109670004FF0FF300860544901200860BFF34F8F5E
:1096800052480168524A01F4E06111430160BFF39E
:109690004F8F00BFFDE78DF8010061788DF8021053
:1096A0008DF800202178052907D000BF8DF8030030
:1096B000684600F052FB0EB010BD207908B10128B9
:1096C00001D0072025E0607908B1012100E00021E8
:1096D0006088FFF7D4F800201BE08DF80100617866
:1096E0008DF8021007218DF8001021780429DDD1B2
:1096F0002179002089B1012911D007218DF800209E
:109700006288ADF8042022798DF806208DF80700D4
:109710000846FFF761FFC9E706E00721F0E7608828
:10972000FEF736FF0021EBE78DF8010060788DF839
:10973000020005208DF8000002208DF82000A01CFA
:1097400009902078401E0A9008A8FFF7D0F9618898
:10975000ADF80410DDE71F49602081F800044FF0E8
:10976000E0214FF40010C1F8000100F049BB00B542
:1097700089B004208DF8000081208DF801000120BF
:109780008DF802000F480068C0F3C0008DF8030098
:1097900000F08AFB8DF80400684600F0DEFA10B194
:1097A000002009B000BD0420FBE700B589B002E04D
:1097B0006846FFF72EFF684600F08EFB0028F7D1C1
:1097C000EFE70000000400401C0500400CED00E045
:1097D0000400FA0515E000E00020544902460A544E
:1097E000401C2028FBD3704710B5504B002100BF10
:1097F000EFF3108202F0010272B65C5C0CB162B150
:109800000CE001245C544A4B01EB810103EBC101E4
:10981000016002B962B6012010BD62B6491C202960
:10982000E6D3002010BD70B54149401A2821B0FB95
:10983000F1F4202C01D3002070BDEFF3108000F074
:10984000010672B6394D285D08B1FF2802D1042007
:10985000FEF7FAFD285D401C285506B962B60120C6
:1098600070BD334910B5401A2821B0FBF1F0202813
:1098700016D2EFF3108101F0010472B62B490A5C95
:1098800022B1521ED2B20A5434B106E00820FEF7CB
:10989000DBFD2CB962B603E062B60AB1012010BD4F
:1098A000002010BD2249401A2821B0FBF1F02028E9
:1098B00001D3002070471D49085C70471D490A68A4
:1098C000C0F803208988A0F807104FF08051D1F824
:1098D000A010027861F38612027000207047F0B584
:1098E000010011D04A7801F10900062A0CD9252A75
:1098F0000AD810E00478461A093EA719961FB74205
:1099000002D8D618864201D80020F0BDC4EB44141A
:1099100020441F3002E0CB1C4FF6E4654478162C3F
:10992000E8D14488AC42E5D1F0BD00001807002022
:1099300018020020A4000010F0B54FF08052136907
:1099400011FA83F11369491E9BB2B1FBF3F10023B5
:109950002D4CCDB202262D49271D9C461BE02660CA
:10996000D1F800E0BEF1000FFAD03860D1F800E085
:10997000BEF1000FFAD0C4F800C000BFD1F800E07B
:10998000BEF1000FFAD0D2F810E05B1CCEF38D0EC2
:1099900000EB8E00DBB2AB42E1D3F0BD2DE9F0432A
:1099A000002423F00303034425462046184EDFF825
:1099B0005890164F23E000BF11F801CB06F804C001
:1099C000641C65EA0C08E4B208F0FF05042C15D10C
:1099D00000248DB10125CC46C9F800503D68002D0A
:1099E000FCD035681D603D68002DFCD00025CCF80A
:1099F00000503D68002DFCD000251B1D401C9042EE
:109A0000DAD3BDE8F083000004E5014000E4014042
:109A100018000020B9480021C0F80012491EC0F803
:109A2000081301210161B649022008707047FEB594
:109A3000B24A1321C2F800128179B24B0A2901D827
:109A4000042402E0242903D8062404EB410408E09E
:109A5000AD4E70CE8DE870006C4604EB810454F876
:109A6000944C1C60A74B01F07F014C331960A54B4F
:109A700001681B1F19600821C2F804130025C2F8F1
:109A80000C51A04B1C331E689D494C68270E46EABA
:109A900007261E609B4E2302183633604679012349
:109AA0003EB19848994E2830B4420DD0032404604A
:109AB0000BE0944D047924352C60924CC079241D20
:109AC000206013600B70FEBD036053600D70FEBD1F
:109AD0002DE9F04780468E48002591460F460560E7
:109AE000012101608748001D0560864A0320083275
:109AF0001060844802260660824A25204C3210609D
:109B000080488E221C3002607E4B824A14331A60D9
:109B100003687B4C62684FEA126C43EA0C230360D3
:109B20001002784A18321060764824300560001D13
:109B30000160744978480C310860091D7748086055
:109B4000704940F25B6030310860091F40F2031039
:109B500008606C497248343108606A4994203C318D
:109B600008602078032809D16E48082100F1180206
:109B700045618160C0E90021FFF7A0FC5F482670C5
:109B8000C0F80C514FF0E020C0F88062C0F80061CE
:109B9000C4F81090C4E902876248FFF715FD18B1B8
:109BA000A068BDE8F0470047FEF791FD002804D00B
:109BB000BDE8F047012000F096B8BDE8F08710B589
:109BC00010B1417911B106E00E2010BD01790129D3
:109BD00001D9102010BD01465248FFF77DFC08B1A5
:109BE000042010BDEFF3108000F0010472B6FEF700
:109BF0006EFD10B1012000F076F804B962B60020C5
:109C000010BD2DE9FC473D4DD5F80C013C4C00271B
:109C100070B34548006800B10120814642480C30CD
:109C2000D0F80080D5F81C01642628B1C5F81C7155
:109C3000344840300068C6B2C5F80C7169463948EE
:109C4000FFF772FC08B1FEF7FFFB9DF80500012845
:109C500007D0022805D0216900988847022020708B
:109C600034E0E5683346424649460098A847F5E7A0
:109C70002C48FFF7A5FCDFF88C90064609F148094F
:109C8000B8464FF0FF3A1AE069462648FFF796FCBF
:109C9000B8B99DF80500022813D100212148FFF72B
:109CA00043FCFFF7B7FE484601680029FCD1C5F820
:109CB0000C81E768642352460098B847761E012E4F
:109CC000E2D82078022801D0032806D16946154839
:109CD000FFF774FC18B1A0688047BDE8FC876846B0
:109CE000FFF7A5FEF9E700F01F02012191404009AE
:109CF000800000F1E020C0F8001270470010004022
:109D00001C0000200815004064CC0700D6BE898ED8
:109D1000FC1F004000D6BE89060102002500030298
:109D2000555555003807002000140040B74910B5BC
:109D3000A1F5A870FFF7F8FB00280DD1B348B4498E
:109D4000B44B4278801C00248A60C3F81C41012473
:109D50009C60B14B1A60C86010BD10B504468AB053
:109D6000AE4802F0ECFE00284FF0000012D18DF852
:109D70000000227821460DF10100521C02F07CFE09
:109D80006946A648FFF7A8FBA148007808B900F08B
:109D9000D5F801200AB010BD70B59F4E00259D4C2E
:109DA000361F07E0C4F80851D4F808013068C0B283
:109DB00000F0D1F8D4F808010028F3D1D4F81C0140
:109DC00000280DD0C4F81C5191488168491E81605B
:109DD000491C06D0C168904B11F8012B1A60C16074
:109DE00070BD0121E1600178012900D005708B4828
:109DF000FFF7EAFB0028F3D1BDE8704000F09EB801
:109E000070B5864804250024856000F1B40127263A
:109E10004461C0E90016FFF751FB8048183800F193
:109E2000300185604461C0E90016FFF747FB7848C0
:109E300003214470082000F078F879486026066015
:109E4000052000F068F80321072000F06EF80620D6
:109E500000F061F870490620103908606E4908204A
:109E6000083908600720091F08606B49052014396C
:109E700008606948012150300160674A694808322A
:109E8000106065481C38056062488422C0F80423CD
:109E9000C0F80841C0F81C410160634880F80064C4
:109EA000801EC0F8005170BD5C481838FFF788BBB1
:109EB00070B5EFF3108000F0010572B60120544C2C
:109EC000607001E0FFF768FF20780028FAD1607029
:109ED000002D00D162B670BD10B504464F488AB05F
:109EE00069461838FFF720FB08B1002052E79DF8BB
:109EF00001202AB120460DF10101521C02F0BCFDE7
:109F000043480178012904D1002101704149012011
:109F1000086001203EE71CB5002100910B4601229C
:109F20000191114600F060F81CBD1CB500220B46E3
:109F300000921146019200F057F81CBD3448417858
:109F4000002907D10178022904D0022101701520CF
:109F500000F03FB8704770B52D4C304E88B0616846
:109F6000403E751C01F8010B881B61607178401E32
:109F7000272902D9656008B070BD272804D20128BE
:109F8000F9D9491C8142F6D82449403901F1280009
:109F9000FFF7A2FA78B103208DF8000084208DF835
:109FA0000100B0788DF8020086208DF80300684625
:109FB000FFF7D3FE02E0162000F00BF81748183820
:109FC00002F0BDFD0028D5D0124901202070486064
:109FD000D0E700F01F02012191404009800000F10C
:109FE000E020C0F80012704730B541EA4201DDE9D7
:109FF000034541EA8301800041EA042100F1A040C9
:10A0000041EA0541C0F8001730BD000020090020DA
:10A0100030000020002000401C250040D007002018
:10A020000805005000E0D70102E000E0FEF7F2B9B9
:10A030008049496801B10847082070478AB0012368
:10A040008DF8003001AB83E807006846FFF7F0FFAA
:10A0500072B6FEE730B50446007889B04FF4FE25AD
:10A0600023286BD012DC734904284DD007DC10B3D1
:10A0700001283CD002283DD0032817D141E02028F8
:10A080004ED0212852D0222810D155E032286CD051
:10A0900006DC242855D0302857D0312806D15BE083
:10A0A000602866D061286AD062286DD000221146EF
:10A0B0000620FFF7C3FFA0684860A07B48B10020DE
:10A0C0000870207B10B1607B022804D2072009B001
:10A0D00030BD0120F4E74FF4FC21284600F01AFAC5
:10A0E00008B10320F3E7607B01F051FD52E001F07D
:10A0F00063FD4FE02089012281B2606801F0A9FD73
:10A10000E5E701F07BFE45E00020241D8DF800000E
:10A110001DCC01AD85E81D00496868468847D6E733
:10A120002079611D226901F064FDD0E72079611D6D
:10A13000226901F074FDCAE70620C8E701F0C8FEF5
:10A1400028E0207902F0F4FAC1E7A08800F030FAA4
:10A15000A060F8B90520BAE7D4E90212A08800F09F
:10A1600042FAA84216D21020B1E7A08800F0BBFA4C
:10A1700010E0606802F05AF90120616801E00220F5
:10A18000616800F0BEFA05E000F0E7FA02F0F0FACC
:10A1900001F0A0FE00209AE74FF08050D0F80C01AB
:10A1A000254901EB8020AFF25311016021490120C4
:10A1B00008700020704700B589B020218DF8040098
:10A1C0008DF800106846FFF733FF09B000BD70B589
:10A1D0008AB016460D46044624221849684602F005
:10A1E0004BFC01A9684681E87000FFF721FF0AB027
:10A1F00070BD30B50D46114989B004462422243182
:10A20000684602F039FC6846CDE90145FFF710FFCA
:10A210005DE700B589B062218DF804008DF800106B
:10A220006846FFF705FFD0E70248007880F001009C
:10A230007047000000E00020FCFFFF1F70CC07000B
:10A2400070B502460078FF2815D01044002347F669
:10A25000FF754FF4006602F580520EE0048800EBB3
:10A260008400904207D84488AC4201D18C4202D18C
:10A270005B1CB34201D9002070BD44888C42EDD1F3
:10A28000001D70BD2DE9F041FE4C05462069854258
:10A2900004D0002211461020FFF7D0FEEFF310800B
:10A2A00000F0010272B620694FF6FF7300889842F1
:10A2B00004D1E1680888401C088004E0E0682E882A
:10A2C0000188314401802888EF4905EB8000A1F125
:10A2D00080052061884200D1256120694688A6F565
:10A2E000FE47FF3F07D106889E4204D1001D206132
:10A2F000884200D12561002A00D162B6BDE8F08114
:10A300000188E14A00EB8101DE489142C16002D13F
:10A31000A2F18001C1600269914209D0501AC0F3D4
:10A320008F0008808A4201D22030088000204880B7
:10A3300070472DE9F0410746EFF3108000F0010669
:10A3400072B6D048C568B5F800C0B7EB8C0F01D81D
:10A35000698819B106B962B60020CFE7CA4C016915
:10A360000023803CC7F38F028D4204D1C460046196
:10A370000FE062B614E0611B80318F4212D9C1EB4D
:10A380008C0CBC45E6D347F6FF776F80890829809F
:10A39000C460228063802046FFF7B2FF002EE8D021
:10A3A0002046ABE72A802846FFF7AAFF06B962B627
:10A3B0002846A3E710B5B44C022004222070D4E94B
:10A3C0000101FFF704FF002801D00120207610BD15
:10A3D00070B5AD4C29E04888A0F57F42FF3A2AD0FD
:10A3E000F0B109888D00A0F5FE41FF3900D10425A8
:10A3F00020694119606800F58050814204D900222B
:10A4000011460320FFF71AFED4E903102A46FFF78E
:10A41000DEFE002813D1E0686061206928442061D5
:10A42000E068018800EB8100E060D4E9020100F5FA
:10A4300080508142CFD3012020760420207070BD4F
:10A4400070B5914C22780AB1082070BDC4E90101B1
:10A45000012121708B490125497819B92903FFF79A
:10A46000C8FE00B12576002070BD70B5854A0C4647
:10A4700005461278012A04D0002211461046FFF743
:10A48000DDFD21462846FFF7DBFE00F08FF918B10D
:10A49000BDE8704000F07AB9052070BD2DE9F047A5
:10A4A000DB1C089E824623F0030505EB86009146DF
:10A4B0008846001DFFF73DFF040029D046B1601912
:10A4C0000746FF22082102F0E9FA47F6FF70F880FC
:10A4D000EF1DB8082080A4F802802A464946201DB6
:10A4E00002F0CAFA27F0030000EB86021546214667
:10A4F0005046FFF76CFE40B12A4621465046FFF712
:10A5000066FE00221146FFF799FD0020BDE8F087A6
:10A510000420FBE770B55B4C002540EA0102257082
:10A52000120501D0102070BD0646C4E9010156484D
:10A530008021803802F0B9FA534820218038E06049
:10A5400020610180304600F03EF9064660611C2122
:10A550004D4802F0AAFA657026BBA06800F033F9F6
:10A56000050023D04FF4805631466068FFF741FE66
:10A5700038B131466068FFF73CFE00221146FFF714
:10A580005DFDA16860686A1A121DFFF720FE48B1E0
:10A59000A16860686A1A121DFFF719FE00221146B1
:10A5A000FFF74CFD01202070002070BD0B2070BD16
:10A5B00001464FF4FE2043E610B5324C20780128C6
:10A5C00004D0002211461046FFF738FD0420207009
:10A5D0006168081D6061A068FFF732FF002801D1A3
:10A5E0000321217010BD2DE9F843264C8146174602
:10A5F00020788846012804D0002211461046FFF733
:10A600001DFD542F04D9002211461046FFF716FDF8
:10A61000207D800704D0002211461046FFF70EFD72
:10A620006069B0F5FE2F04D8002211461046FFF7EE
:10A6300005FD4846FFF7BCFF00F0B8F8656906461F
:10A6400055B16168E819083001F58051884207D397
:10A6500000221146082020E0002211460E201CE0B6
:10A660000120607000903B46424649462846FFF76D
:10A6700015FF78B9FF1D616927F003000844606188
:10A6800086B103E008E00020B8E00020304600F08A
:10A690007DF838B1002211460420FFF7CFFC0020DE
:10A6A000BDE8F88360696168583001F580518842DF
:10A6B00001D3FFF781FF281DF2E738B50C460546A8
:10A6C000FFF776FF00F072F858B101886FF00302CF
:10A6D00002EB81030021009122462946FFF7DEFEAE
:10A6E00038BD052038BD01464FF4FE20BDE6504878
:10A6F0000178012901D1407808B10020704701207C
:10A70000704770B505460C46012808D14948844277
:10A7100005D38030844202D20846FFF7B3FD2146BC
:10A72000284600F05BF843488030007800280BD1C1
:10A730003F4C2078032808D0052805D1606800F038
:10A7400042F860610120207070BDD4E90101FFF77B
:10A7500077FE0028F8D10520F5E735480021417043
:10A76000C0684180334880300278002A0DD0037ED3
:10A77000002B0AD00176012A02D0022A05D119E65F
:10A7800040684FF48051FFF734BD704710B5044660
:10A79000800704D0002211461020FFF74FFC20460E
:10A7A000BDE8104004222449FFF711BD48B1B0F5BF
:10A7B000002F06D01E4949684978494200EB8100C4
:10A7C00070470020704710B547F6FF71FFF738FD5E
:10A7D000002802D0BDE81040E8E710BD154A30B4AB
:10A7E0008032134614785B68012C0ED0022C12D0F4
:10A7F000032C1BD0042C06D1012804D150698842B7
:10A8000001D10020107030BC70470228FBD18B4270
:10A81000F9D130BCCEE50128F5D190688842F2D15B
:10A820000321001D11701B1DC2E9030330BCCFE5DD
:10A8300008E0002038E00020B8CC0700491E03D40F
:10A8400050F82120002AF9D0491C05D000EB8100E6
:10A85000002250F8040C03E0002070474008521C0E
:10A860000028FBD1480120381044704770B50546D8
:10A870000020034651F8236052F823403444044436
:10A88000A64205D002D94FF0010001E04FF00000D0
:10A8900045F8234003F10103082BEBD370BD70B5DD
:10A8A000054600204FEA000351F8236052F8234088
:10A8B000341B241AA64205D002D24FF0010001E059
:10A8C0004FF0000045F8234003F10103082BEBD3C0
:10A8D00070BDF0B51D681468A0FB0167E0FB014581
:10A8E000DDF814C0A11B75EB0701DCF8000001D2F4
:10A8F000012100E000210844CCF800001D60146034
:10A90000F0BD2DE9FF470646002017468846039014
:10A910000190044605460DF108098246029001E0C7
:10A9200000250CE0601BCDF8009057F8201058F877
:10A93000250001AB03AAFFF7CCFF50466D1CA542D2
:10A94000F0D9039946F82410019903910299CDE9B1
:10A950000110641C082CE3D30824CA460125814653
:10A9600001E0E51F0CE0601BCDF800A057F82010B7
:10A9700058F8250001AB03AAFFF7ABFF48466D1C52
:10A98000082DF0D3039946F82410019903910299F8
:10A99000CDE90110641C0F2CE3D30398F063BDE8EC
:10A9A000FF87F0B589B00C46064600F0D0FB0025C5
:10A9B000029501950095E06A0390206B0490606B0E
:10A9C0000590A06B0690E06B6A461146079008461A
:10A9D000FFF74CFF074631466A460846FFF746FF39
:10A9E0000744206B0390606B0490A06B0590E06BB4
:10A9F000CDE906056A4611460846FFF737FF0744CA
:10AA000031466A460846FFF731FF0744206A009046
:10AA1000606A0190A06ACDE9020505950495A06BD6
:10AA20000690E06B314607906A460846FFF71EFF26
:10AA30000744606A0090A06A0190E06A0290606B2F
:10AA40000390A06B0490E06B0590606B0690206A09
:10AA5000314607906A460846FFF708FF0744E06A58
:10AA60000090206B0190606BCDE90205059504957F
:10AA7000206A0690A06A314607906A460846FFF7AA
:10AA80000EFF3F1A206B0090606B0190A06B02904C
:10AA9000E06B0595CDE90305606A0690E06A3146F2
:10AAA00007906A460846FFF7FAFE3F1A606B00906F
:10AAB000A06B0190E06B0290206A0390606A0490A2
:10AAC000A06ACDE90505206B314607906A46084625
:10AAD000FFF7E5FE3F1AA06B0090E06BCDE90105A2
:10AAE000606A0390A06A0490E06ACDE90505606B96
:10AAF000314607906A460846FFF7D1FE3C1A0ED54C
:10AB00003146FC4A0846FFF7B1FE0419F8D409B0F3
:10AB1000F0BD3146F74A0846FFF7C1FE241A002C63
:10AB2000F7D13146F34800F01BFB0128F1D1EEE7E5
:10AB300070B50546A0B014460E46084600F0F2FA7D
:10AB400020B1284600F0E6FA20B070BD31466846D4
:10AB500000F0FDFA214608A800F0F9FA10A800F06C
:10AB6000D9FA0120109018A800F0D4FA68E00099F2
:10AB7000C9072ED00899C90731D0002837DD6946AA
:10AB800008AA0846FFF78BFE684600F0FCFA18A9F1
:10AB900010A800F0E5FA002804DA10A922460846B9
:10ABA000FFF764FE10A918AA0846FFF778FE109870
:10ABB000C00712D010A922460846FFF757FE0646E6
:10ABC00010A800F0E0FADEB3179840F000401790AC
:10ABD00036E0684600F0D7FAE9E710A804E008A8D4
:10ABE00000F0D1FA1BE018A800F0CDFA28E008A97F
:10ABF0006A460846FFF753FE08A800F0C4FA10A9F9
:10AC000018A800F0ADFA002804DA18A92246084670
:10AC1000FFF72CFE18A910AA0846FFF740FE189867
:10AC2000C007E0D018A922460846FFF71FFE0646D7
:10AC300018A800F0A8FA1EB11F9840F000401F901D
:10AC400008A9684600F08CFA002890D110A928467F
:10AC500000F07DFA78E7F0B5044691B00E4615464F
:10AC6000104600F05FFA00287ED132461146684651
:10AC700000F0BAFA6A46214608A800F0B5FA6A461A
:10AC80001146084600F0B0FA31462A46084600F060
:10AC9000ABFA2A461146084600F0A6FA2146954B23
:10ACA0002A46084600F07DFA2A461146914B08468E
:10ACB00000F077FA2A468F4B2146104600F085FABD
:10ACC00021462A46084600F08FFA2246894B114653
:10ACD000284600F066FA2146864B2A46084600F0D0
:10ACE00060FA0021204600F029FA68B12146814A25
:10ACF0000846FFF7BBFD0746204600F044FAE0692E
:10AD000040EAC770E06102E0204600F03CFA2246CB
:10AD10001146284600F068FA2946764B08AA0846EC
:10AD200000F053FA2946734B08AA084600F04DFA82
:10AD300008A9704B2A46084600F047FA214608AA9F
:10AD4000084600F051FA6A466A4B2146104600F068
:10AD50003CFA2946204600F0FAF93146284600F030
:10AD6000F6F96946304600E001E000F0F0F911B074
:10AD7000F0BD70B588B00E460446154611466846CB
:10AD800000F032FA21466A46084600F02DFA69467C
:10AD90002A46084600F028FA31466A46084600F07E
:10ADA00023FA08B070BDF0B5174689B01E460C46B0
:10ADB000054602464F4B3946684600F006FA6A4699
:10ADC0001146084600F010FA29466A46084600F087
:10ADD0000BFA39466A46084600F006FA3146454BFA
:10ADE0002246084600F0F1F932461146684600F066
:10ADF000FBF969463F4B2A46084600F0E6F96946EA
:10AE00003C4B3A46084600F0E0F93946394B2A46B1
:10AE1000084600F0DAF921463A46084600F0E4F91F
:10AE2000344B6A462946384600F0CFF931463A4657
:10AE3000084600F0D9F931462E4B2246084600F06C
:10AE4000C4F96946384600F082F960E62DE9F0471A
:10AE5000BCB081462AA8139019A81490FFF751FDA1
:10AE6000244908A86031824600F071F9684600F074
:10AE700051F9012400250DF14C0800BFC4F1010176
:10AE800058F8247058F8213000216E464FEA01002E
:10AE900057F820C056F82020ACEB0202521A944515
:10AEA00005D002D24FF0010101E04FF0000143F85C
:10AEB000202000F101001028EAD38C4201D10124A6
:10AEC00000E00024304600F05EF9DDE9070140EAC9
:10AED000C1700790504600F056F96D1CB5F5807FA3
:10AEE000CCDD58F82410484600F031F93CB0BDE8FC
:10AEF000F0870000BCCC0700F0B5F9B00F46002485
:10AF0000064601461546519420A8619400F078F950
:10AF100006F1200128A8064600F072F929464AA841
:10AF200000F06EF905F120015AA800F069F94AA86D
:10AF300000F0F8F800287CD15AA800F0F3F80028B7
:10AF4000F9D14AA9B74800F00BF90128F3D15AA961
:10AF5000B44800F005F90128EDD1B24A5AA9684673
:10AF6000FFF7E6FD394641A8489400F049F941A9A8
:10AF70006A460846FFF76AFF6A464AA962A8FFF7D1
:10AF800065FF20A908A800F0E2F810A831460446A1
:10AF900000F0DDF8A34939A8403900F0D8F8A149FC
:10AFA00052A8203900F0D3F89E4B39AA603B08A97B
:10AFB000684600F00AF9234608AA52A939A8FFF703
:10AFC000F2FE984A6946603A0846FFF7B1FD6A46C4
:10AFD000214608A8FFF7CDFE92492031D1E90001B2
:10AFE000CDE96A0120A86C9008A86D90082141A8BD
:10AFF000FFF724FC0446082162A8FFF71FFC8442E7
:10B0000000DD20460446411E41A800F097F808B133
:10B01000012500E00025611E62A800F08FF800B154
:10B02000012045EA40006AAE56F8205018A829468B
:10B0300000E06AE000F08BF805F1200131A800F093
:10B0400086F8684600F066F801200090A41E39D406
:10B050006A4631A918A8FFF7FEFD214641A800F075
:10B060006DF808B1012500E00025214662A800F036
:10B0700065F800B1012045EA400056F82050FDB1C6
:10B08000294639A800F063F805F1200152A800F024
:10B090005EF86A4652A939A8FFF76BFE614B39AAE0
:10B0A000603B18A96EA800F090F831AB18AA52A91D
:10B0B00039A8FFF778FE69466EAA084600F094F8B2
:10B0C000641EC5D5574A6946603A0846FFF730FD09
:10B0D0006A4631A918A8FFF74CFE18A9514800F09C
:10B0E0003FF8012804D018A94E4A0846FFF7D7FBBD
:10B0F000002118AB4AAA072053F8204052F82050EC
:10B100006C402143401EF7D511B1002079B0F0BD4D
:10B110000120FBE700210A4640F82120491C0829AC
:10B12000FAD370475FF0000150F821200AB10020E7
:10B130007047491C0829F7D3012070474A1150F87D
:10B14000220001F01F0201219140084070470022B7
:10B1500051F8223040F82230521C082AF8D37047A8
:10B1600010B5072250F8223051F82240A34202D9EC
:10B170004FF0010010BD02D24FF0FF3010BD521E43
:10B18000F0D5002010BD002200F1200104E00B6882
:10B1900042EA53020A60DA070B46091F8342F6D8D7
:10B1A000704770B51C460546FFF760FB28B921467D
:10B1B0002846FFF7D5FF002806DB29462246BDE8D2
:10B1C00070400846FFF76BBB70BD70B51C46054666
:10B1D000FFF765FB002806D029462246BDE87040EF
:10B1E0000846FFF743BB70BD10B590B004466846F3
:10B1F000FFF787FB69462046FFF7D3FB10B010BD71
:10B2000010B50022C2F1070301EB83031C68DB7851
:10B2100024BA24F0FF041C4340F82240521C082AA0
:10B22000F0D310BD1CCD070010B50420FFF7C0F906
:10B23000FE4C20610220FFF7BBF920601220FFF7CF
:10B24000B7F9E0601120FFF7B3F9A0601020FFF715
:10B25000AFF960600120FFF7ABF9606121694FF43D
:10B26000FE2081420BD32168814208D3E1688142EC
:10B2700005D36168814202D3A168814204D2BDE84E
:10B2800010400820FEF797BF10BD01468068421CA1
:10B2900000D10020CA6800F00F0000EB82000122FC
:10B2A000401E098A02EB101009B100EB1110B0F535
:10B2B000803F01D34FF6FF70704770B5DC4C8AB009
:10B2C0006578E678B54200D20DB901256570602534
:10B2D0008DF80050CDE901018DF80C208DF80D306E
:10B2E00060788DF80E006846FEF7A2FE002802D1B5
:10B2F0006178491C61700AB070BD30B5CB4DA5B006
:10B300006869E8B3A5F17404E06900283BD0684699
:10B31000FDF7AFFF0122611D6846FDF7C3FF042260
:10B3200004F110016846FDF7BDFF042204F1180185
:10B330006846FDF7B7FF00208DF89000012224A990
:10B340006846FDF7AFFF607904F1660101281CD063
:10B3500002281AD0042803D10A226846FDF7A2FF6A
:10B36000684601F056F800221CA96846FDF7C4FFA4
:10B37000AE4A1CA9543A6869FFF7BEFD002800E0F8
:10B3800000E000D0012025B030BD0222E5E7F0B595
:10B390008FB005461821684601F087FBFF2702267B
:10B3A0000024681E022824D8A0494FF6FD70ADF88D
:10B3B000000074399DF803000A7991F8713062F346
:10B3C000020063F3C3008DF803000B680193984BF0
:10B3D0001B78072B17D020F0100000BF8DF803005A
:10B3E00051F8660F0290486803900889ADF8100084
:10B3F000012628006D4609D0012813D0022818D054
:10B4000003281ED136E040F01000E7E74FF6FE704B
:10B41000ADF80000854810240E220168A81C01F038
:10B420002BFB0EE09DF80200122420F00F00001DFF
:10B4300005E09DF802000A2420F00F00401C8DF862
:10B44000020060208DF81800CDE907548DF82460C3
:10B450008DF8257000208DF8260006A8FEF7E8FD7F
:10B4600061208DF81800CDE9075406A8FEF7E0FD2D
:10B470000FB0F0BD9DF802000A2420F00F00801CE0
:10B48000DDE770B5044600880323A0F57F42FC3A4F
:10B4900002D1608800B9062300222046FFF70DFF85
:10B4A000050002D1204601F05EFA284670BD70B555
:10B4B0005E4B0024743B05461C719C614FF6FF7087
:10B4C0009C60A3F86200A3F8644083F87040DC61DC
:10B4D0001C605D712A4603F1660001F061F9544970
:10B4E00002200870284600F01AFDBDE870404EE7C3
:10B4F0002DE9F0474E49A8B0042008700146FF220C
:10B50000684601F0CBFA494C743C6079012848D078
:10B5100002284FD0042848D0002211460720FEF709
:10B520008DFD00BFD4E90201DFF800914FF0010862
:10B53000814272D02120FFF73BF815902220FFF7BF
:10B5400037F816902420FFF733F84FF0FF36002528
:10B5500015AF179057F82500E0B103C8A369E2685A
:10B5600001F01CFA80B108FA05F000F1200A1FFA78
:10B570008AF0FFF7B8F838B11FFA8AF0FFF7B3F88E
:10B5800000221146FEF75AFD57F825000068B04228
:10B5900000D206466D1C032DDCD3A169E068421879
:10B5A00037E0009820F0010002E0009820F004004D
:10B5B0000090B7E7009820F00200F9E70168491C05
:10B5C00026D0D9F804504B462968814207D26D68CD
:10B5D0002944814203D9009921F0010100919D681D
:10B5E0002968814207D26D682944814203D90099B4
:10B5F00021F002010091D9F80C100B68834207D2A8
:10B6000049681944814203D9009921F0040100914D
:10B61000001D824201D9B042D0D3044DD4E90201C9
:10B620000E3D884212D14E4604E0000048E1002061
:10B6300020E00020D9F81000B8B169460420FFF7D7
:10B640003CF818B160792946FFF731FF94F8703063
:10B65000D4E90201A26900F0B5FD68B1607929461C
:10B66000FFF725FF28B0BDE8F087042269461046A1
:10B67000FEF7B9FF3061E9E762208DF8780000201D
:10B680008DF87C001EA8FEF7D3FC23208DF8540013
:10B690008DF8588060798DF85900D4F86600CDF89F
:10B6A0005A00D4F86A00CDF85E00B4F86E00ADF828
:10B6B000620015A8FEF7BCFCD4E700B589B02121D3
:10B6C0008DF80010817801F00F018DF80510FD490B
:10B6D00009788DF80410817801F00F0200F108015B
:10B6E0000DF1060001F05CF86846FEF7A1FC09B018
:10B6F00000BD2DE9F047F44C0646002560798946E7
:10B7000004F17408012811D0022812D004280AD0AC
:10B71000002211460620FEF791FCB0682061B76850
:10B72000781C09D009E0D8F80C50F6E7D8F8045096
:10B73000F3E7D8F80850F0E72F683046FFF7A5FD8B
:10B74000A4F86200A4F86400A760F06810218000EB
:10B75000A061308AE061B07CC0F3C00084F8700062
:10B760000020606184F86000D7489C3001F09DF9AA
:10B7700001F00AF9E0684FF01021421C06D0A269DE
:10B7800049691044884216D90C201EE060790228CD
:10B7900001D0A0680EE0D8F80C00D0E900201044D9
:10B7A0004A69824200D24869A1696FF30B01401ACD
:10B7B000A0F58050E060D4E9020290420BD0A1696C
:10B7C0000B4601F0EBF830B10D20FEF7F4FCBDE8BC
:10B7D000F04700F0FCBBA168286881420BD3A26946
:10B7E00011446A681044814205D8FFF781FE0121A7
:10B7F00089F8001037E7706801F093F86079BDE8C8
:10B80000F047B149663152E62DE9F04FAD4F0E4693
:10B8100005464088B98889B09346884209D10020FE
:10B82000B88062218DF804008DF800106846FEF79C
:10B83000FFFBA54C083E05F10809B4F86400E26975
:10B840004FF0010AA0EB12136888834209D3A16864
:10B8500001F024F8B2B2494600F0EBFC06002CD10E
:10B860001BE0C01A401EB0EB121F06D294F86020F5
:10B870000AFA00F812EA080F01D008261DE004EBCE
:10B88000001032464946203001F0F6F894F8600086
:10B89000002640EA080084F86000B4F86410688864
:10B8A000623400F04AFB2088401E20808BF800A004
:10B8B000B88810B9688800F0C2FB09B03046BDE80E
:10B8C000F08F2DE9F043804C894606464068216898
:10B8D0008BB0884203D00B200BB0BDE8F08330461C
:10B8E00001F02AF808B10020F6E7764F4FF0000883
:10B8F0008DF800803878032809D0042818D04FF03C
:10B900000108072831D0082857D008256EE0708834
:10B9100048B1206801F005F86B4960796631FFF79E
:10B92000C6FD08255BE069463046FFF7E2FE52E0BF
:10B93000708850B1B4F86410884206D86A46494607
:10B940003046FFF761FF002500E00B25B4F86200E8
:10B9500088BB70208DF804005C48CDE9028001A806
:10B96000FEF766FB0520387025E0708820B9304668
:10B97000FFF78BFCA4F86400082038700020FEF765
:10B9800048FC23208DF8040002208DF8080054F8AC
:10B99000660FCDF80A006068CDF80E002089ADF87A
:10B9A000120014F8610C8DF8090001A8FEF740FBA5
:10B9B00005468DF800807DB111E0708820B93046D1
:10B9C000FFF763FCA4F86400B4F86410708800F01A
:10B9D000B4FA8DF800800025304600F0C4FF9DF8D1
:10B9E000000018B149463046FFF74BFD284673E783
:10B9F0002DE9F04104463348007801283AD0324D11
:10BA000004F1080705F166066979022806D00328C3
:10BA100004D0072832D00820BDE8F0813246204605
:10BA200000F01BFFD8B1E078297900F007008842C8
:10BA300004D844D160682968884240D9A07800F0D1
:10BA40000F006871A068C5F86600E068C5F86A0074
:10BA5000208AA5F86E00204600F0C6FA2FE0A078F4
:10BA60006A7900F00F00824204D13146384600F076
:10BA7000BBFE20BB2046BDE8F0411EE6A07800F0EA
:10BA80000F0081421BD10A463946304600F098FE2D
:10BA9000A8B1E178287901F00701884204D30ED1DA
:10BAA0002868616888420AD260682860E07800F0FF
:10BAB00007002871687900F032FAFFF768FC00206F
:10BAC000AAE7000020E00020D4E0002080C3C901E4
:10BAD000F0B505464168FB4887B00068814254D103
:10BAE000F94F3878082811D00024F64EB5F8021026
:10BAF00020469C3636F820208A4214D106EB80047A
:10BB00006088411C6180082804D30FE0284600F0BB
:10BB100013FF10B1002007B0F0BD07B02846BDE804
:10BB2000F0400821ADE4401C0428E3D3E5486988CF
:10BB30008068012904D020F00F0000EB01101038BC
:10BB4000102202A900F001FC78B14FF6FA70ADF8AE
:10BB500000006888ADF802006868019003230022A5
:10BB600018216846FFF7A9FB00E0052050EA040110
:10BB700008D1B97801F00302491C06EB8204B970C0
:10BB80006988218000216180C5E70B20C3E770B57B
:10BB9000CD4C0546002020707421CA4800F085FF76
:10BBA000C84810219C3000F080FF0020A070E57094
:10BBB000BDE87040FFF738BB10B57421C14800F0F4
:10BBC00074FFC04810219C3000F06FFFBE48002178
:10BBD00081708180FFF728FB00F0BCF900F0D4FEF3
:10BBE00000F0D1FD002803D1BDE8104000F0EFB90E
:10BBF00010BDB54B10B51B78012B01D0082010BD2E
:10BC00004FF010235B69934203D8531C01D01020DE
:10BC100010BDAC4BDA60FFF74AFC002010BDAA4B08
:10BC200010B51C78012C03D0022C01D0082010BDC7
:10BC300007241C70A34C60712260024604F1660068
:10BC400000F0AEFD607900F06AF9FFF7A0FB00207C
:10BC500010BD70B50288A2F57F42FA3A052A2DD2AE
:10BC6000DFE802F0100D0A070300BDE8704000F0A5
:10BC70002BBABDE87040BBE6BDE8704021E6BDE8E8
:10BC8000704025E7044690480D4600780828204675
:10BC9000F2D100F051FE08B1002070BD8948B0F823
:10BCA0006410B0F86200081A401C80B200F045F938
:10BCB00029462046BDE87040FFF7E3BB0B2070BD6E
:10BCC000F0B5804DABB074350E2215A8296800F090
:10BCD000D3FE7C4C002704F12006D4E90201814206
:10BCE00035D0FF225421684600F0D8FE627904F175
:10BCF000660102A800F054FDA0690190E068009080
:10BD0000FF208DF8130000208DF81200E069142246
:10BD100040B14022314605A800F0AEFE01208DF86A
:10BD200012005422607901280ED0022807D004287E
:10BD300002D00B202BB0F0BD6946242001E06946FB
:10BD40002220FEF750FC42E069462120F9E72869ED
:10BD500020B9002211460E20FEF770F9286900680C
:10BD600000906079012812D002283ED0042817D113
:10BD7000D4F866001690D4F86A001790B4F86E00F4
:10BD8000ADF8600000981C2740F0040007E0B4F80C
:10BD90006600ADF8540000981A2740F001000090AA
:10BDA000E06920B1402231463846FEF71CFC0220F3
:10BDB000401C0E28FCD30E2215A90220FEF713FC0E
:10BDC0000422286069461046FEF70DFC28613E49B2
:10BDD00006200870FEF7F0FB28B1FEF7EDFB00220D
:10BDE0001146FEF72BF90020A4E7B4F86600ADF881
:10BDF000560000981B2740F00200D0E7324810B5EB
:10BE0000007809281FD2DFE800F01E050707091196
:10BE10001E1C1C00012010E005200EE029482949C5
:10BE20004079BDE810406631FFF741BBFFF765FA86
:10BE300010B1BDE8104043E70420BDE81040FEF714
:10BE4000BAB90020F9E710BD70B50220FEF7B0FBCB
:10BE500006460420FEF7ACFB04461020FEF7A8FBC4
:10BE600005461220FEF7A4FB318831B12178C907BD
:10BE70000CD029680968491C08D02178490707D5E2
:10BE800000680068401C03D0002070BD012070BD18
:10BE9000042070BD10B50220FEF78AFB0446122074
:10BEA000FEF786FB94B188B10068411C0ED0006893
:10BEB000401C0BD0D4F80A0040B100F022FD28B19C
:10BEC000012010BDD4E0002020E000200020F8E791
:10BED00000F07DB800B5A54889B0007806281CD1CF
:10BEE000FEF705FC002818D025208DF80000012061
:10BEF0008DF804009E4800F1660142798DF8052016
:10BF00000DF1060000F04CFC6846FEF791F800F0D9
:10BF10008CFAFFF789F9FFF74FFE09B000BD012841
:10BF200009D0022805D0042801D000207047012044
:10BF30007047032070470220704700B589B0242263
:10BF4000ADF804008DF80020ADF806106846FEF745
:10BF50006FF8E2E7F0B5874991B00BAED1E9000187
:10BF6000CDE90B0184A0006810908148743000680E
:10BF7000811CCDE90D10001D00240F9036F814002F
:10BF8000FEF716FB05001DD002208DF8080010AF4B
:10BF900005F108013A5D8DF80C200DF10E0000F05E
:10BFA000FFFB0DA83A5D50F8241006A800F0F8FB3E
:10BFB0002868099068680A90A87C8DF80D0002A88E
:10BFC000FEF736F8641C032CD8D311B0F0BD10B5C1
:10BFD0000020FFF7DCF9654901200870BDE810403A
:10BFE0007421634800F061BD70B504460088604D5F
:10BFF000A0F57F41FD3908D1E078400705D0A07851
:10C00000697900F00F00884204D000221146072011
:10C01000FEF714F860682860E078544900F00700E3
:10C020002871E078C0F3C00085F871000320087023
:10C030006879FFF774FFBDE87040FFF7A8B970B5E5
:10C0400092B000244A4D06460094119411AA694604
:10C05000686900F0ABF9002834D0A86820F00F011F
:10C060000098411A64EB0400020742EA1110401CD8
:10C07000A6F10101884203D3B5F86410B14221D181
:10C080004FF6FB71ADF80410ADF806002868029079
:10C0900060208DF81C0001A808900820099002205B
:10C0A0008DF82800FF208DF829008DF82A4007A878
:10C0B000FDF7BEFF002805D100982C496861BDF846
:10C0C0000600888012B070BD70B5284D04468AB055
:10C0D0002878012802D008200AB070BDA088ADF8E9
:10C0E0000000009800F0FBFB212658B102208DF8DB
:10C0F00000608DF8050020798DF8060060798DF8D4
:10C10000070016E0A01D00F0D3FB60B36088A0F527
:10C110007F41FE3914D01649743109680988884274
:10C120000ED001208DF800608DF805006088ADF814
:10C13000060028788DF804006846FDF779FFCBE704
:10C1400004208DF800608DF8050028788DF8040033
:10C1500054F8060FCDF806006068CDF80A00208973
:10C16000ADF80E00E8E70B20B6E7000020E0002065
:10C17000D4E000204CCD07000201040010B5B34C00
:10C18000218D814210D30A1AD1170020D2F1400329
:10C1900088410BD30120002100F05FFCD4E9042387
:10C1A00010401940084301D0012010BD002010BDEF
:10C1B00010B53021A54800F078FCA4494FF6FF7077
:10C1C000088510BD2DE9F047994616468846054674
:10C1D000FFF7EEFF701920F00F0025F00F01401A55
:10C1E000C0F30F1745EA0800000502D01020BDE893
:10C1F000F087964CB8F1000F19D0C4F8048000BF46
:10C2000006F6FF70010B606809036FF30B00FDF782
:10C21000F0FF2560278184F80A900021E660C4E9D8
:10C2200004114FF6FF70608521850846DFE76560E1
:10C23000E6E72DE9F74F854C06464FF6FF70218D56
:10C24000934681424BD0310708D12168B14205D8CD
:10C25000E2688B1806EB0B02934202D21020BDE875
:10C26000FE8FBBF1100F02D85FEA8B7201D009205C
:10C27000F5E7628D824201D01120F0E721F00F0135
:10C280000020711A60EB0000020742EA1110401C06
:10C2900087B23846FFF772FF08B36C48008DB8428A
:10C2A0002FD2381A82B2694D90460120002100F049
:10C2B000D4FBB0F1010941F1FF31D5E9044540203B
:10C2C000D8EB00028A46484600F0C7FB20402940D0
:10C2D000084306D0032000F0B2F80520BFE708208D
:10C2E000BDE742462046294600F0B7FB40EA090078
:10C2F00020F00102554841EA0A01C0E904210785FE
:10C300000BE0524BC01B0121D3E904428140C843DA
:10C31000044002EAE072C3E904424C4C5A4604F17C
:10C32000180067850546019900F0A6FBD4E90010C6
:10C33000711A08445A462946FDF749FF00288ED055
:10C34000072000F07CF8032089E72DE9F0413F4CFD
:10C350000D461646218DA1F57F42FF3A11D0226885
:10C36000002322F00F02801A63EB0303000940EA66
:10C370000370401C87B2B94203D33846FFF7FEFE74
:10C3800010B10020BDE8F08165B15EB1012F0BD086
:10C39000606820F00F0000EB071110393246284684
:10C3A00000F06AFB0120EDE76168F7E72DE9F74F40
:10C3B000824626488B46018DA1F57F428846FF3A8A
:10C3C00025D0D0E9044607683F2527F00F092A4603
:10C3D0000120002100F041FB04EA000206EA01000E
:10C3E000024312D0A8EB050080B201280BD009EB64
:10C3F00000101038504508D3CBF8000002981021E7
:10C40000016001202BE73846F4E76D1EDFD50020E0
:10C4100025E70E490A8DA2F57F43FF3B03D0CA688A
:10C420004968FCF73FBF08207047C1E6074918314B
:10C43000884203D118394FF6FF7048857047034A88
:10C440004FF6FF711185FDF7B6BE000080E10020B8
:10C450002DE9F041CF4E04468AB030788846C0437B
:10C46000099009A90420FEF728F93078012701284E
:10C470002ED0022811D004284BD0002211460B20C8
:10C48000FDF7DCFDFC2188F81310307841462030A0
:10C49000FEF713F90AB0BDE8F0811120FEF788F825
:10C4A0000168D4E9000200F00BFB0028EAD000F09C
:10C4B00083FA62B6002000902068019060688008CE
:10C4C0000290684618DF0028E4D0684618DF1BE0B9
:10C4D0001020FEF76DF80168D4E9000200F0F0FAD0
:10C4E0000028CFD000F068FA62B60097206801906B
:10C4F0006068800803904FF480500290684618DF0F
:10C500000028C7D0684618DF00221146FDF796FDC7
:10C51000C0E7FDF789FEA8B100F04EFA62B64FF011
:10C520000F1034DF002108463ADFBFF34F8F9A48DF
:10C5300001689A4A01F4E06111430160BFF34F8F33
:10C5400000BFFDE71220FEF733F8050004D10022FA
:10C5500011461046FDF772FD2888000504D0002220
:10C5600011461046FDF76AFD50208DF8000028683E
:10C570000190606800F6FF706FF30B000290684650
:10C58000FDF756FD68B951208DF800002068029033
:10C5900060680390286801906846FDF749FD00280F
:10C5A00084D0777076E72DE9F0437A4CBFB06568A8
:10C5B000002D6FD0EFF3108000F0010872B6542206
:10C5C00029462AA800F058FAE87C0126F82857D016
:10C5D000FC2813D0FE280BD0FF2857D16670FE2010
:10C5E0008DF8BB0020782AA92030FEF766F84DE0D0
:10C5F00066702AA92846FFF72BFF47E00220FDF7C7
:10C60000D7FF81460420FDF7D3FF0746B9F1000F9D
:10C6100004D1002211461046FDF710FD0E224946B6
:10C6200015A800F029FAC7B33868009020780128CF
:10C630003AD0022840D004284AD000273A4639464A
:10C640000B20FDF7FBFC0E2215A90220FDF7CBFF06
:10C65000D8B1A87C30B1402205F114013846FDF76D
:10C66000C2FF90B1042269461046FDF7BCFF60B1DD
:10C67000F8208DF8BB0020782AA92030FEF71DF89D
:10C6800020782030FEF72FF880B36670B8F1000FE5
:10C6900000D162B63FB0BDE8F083FFE7FF2204217E
:10C6A000684600F0FBF9C1E72889ADF8540000980E
:10C6B0001A2740F0010009E0287A8DF85600687AC0
:10C6C0008DF8570000981B2740F002000090BAE751
:10C6D000A8681690A889ADF85C00D5F80E00CDF8D2
:10C6E0005E0000981C2740F00400EFE7FFE7002001
:10C6F0006060CBE770B5274E0546012404F12000A9
:10C7000080B2FDF755FF50B1C17CFF2907D03470CE
:10C710007060FFF748FF002D09D0012006E064009B
:10C72000042CEBD900207060002D00D0287070BD63
:10C7300070B50446012805D0042C03D0022C01D08A
:10C74000072070BD134D686808B1082070BD04F162
:10C750002000FDF72DFF48B101680968491C05D08C
:10C760002C706860FFF71FFF002070BD052070BDB2
:10C7700008484168002905D04178002902D00021ED
:10C78000417010E7704703484068002800D001203E
:10C790007047000028E000200CED00E00400FA05DE
:10C7A000012A0AD0022A08D0042A05D10A680260A8
:10C7B0004A68426009890181704709880180704791
:10C7C00010B5012A08D0022A02D0042A0AD10A226E
:10C7D00000F076F920B105E000880988884201D18F
:10C7E000012010BD002010BD012A0DD0022A0ED05C
:10C7F000042A0FD182888B889A420BD1006809687D
:10C80000884207D10120704700880988F8E700783E
:10C810000978F5E700207047012A0AD0022A0BD0D8
:10C82000042A01D000207047D0F80600D1F8061085
:10C8300004E00088098801E000780978401A704710
:10C840006B4A002152F82130834201D10120704708
:10C85000491C0829F6D30020704770B5054680783A
:10C860000C4600F00F001646A04200D0A4B968683C
:10C87000FFF7E6FF80B905F108002246314605467C
:10C88000FFF7B2FF40B1224631462846FFF7C4FF0A
:10C89000002801DB012070BD002070BD012805D0FB
:10C8A000000121F00F011038084470470846704716
:10C8B00010B504460220FDF77BFEA1880289914253
:10C8C0000BD121684268914207D1D4F80610D0F804
:10C8D0000A00814201D9012010BD002010BD10B511
:10C8E00004460220FDF764FE8278E1B2914206D14F
:10C8F000C078C4F30721814201D9012010BD002076
:10C9000010BD10B50420FDF753FE30B10068C1071B
:10C9100005D0410703D5800701D5012010BD0020B7
:10C9200010BD344A10B51178314C01F00703491C91
:10C9300044F82300117010BD30B52D4A0021038842
:10C9400012F1200232F821409C4207D102EB81040F
:10C9500045886488AC4201D1012030BD491C1029B2
:10C96000F0D3002030BD30B5224A214B05885168F4
:10C97000203301F00F04491C23F8245003EB8403F7
:10C9800040885880516030BD194810B54021203092
:10C9900000F08BF817490020486010BD904202D388
:10C9A0001344834204D8824204D30844904201D302
:10C9B000012070470020704730B54FF0E020D0F8DC
:10C9C000003100205FF0010404FA00F21A420AD09C
:10C9D00042B202F01F0504FA05F15209920002F179
:10C9E000E022C2F88011401C2028EDD330BD0000A9
:10C9F000B0E1002030E000202DE9F05F0546002086
:10CA000092469B4688460646814640241BE02846BF
:10CA100041464746224600F060F853465A46C01A3F
:10CA2000914110D311461846224600F016F82D1AEF
:10CA300067EB01084F4622460120002100F00DF867
:10CA400017EB00094E41201EA4F10104DFDC48462B
:10CA500031462A464346BDE8F09F202A04DB203AAF
:10CA600000FA02F1002070479140C2F1200320FA41
:10CA700003F319439040704740EA01039B0703D03A
:10CA800009E008C9121F08C0042AFAD203E011F80D
:10CA9000013B00F8013B521EF9D27047D2B201E0CF
:10CAA00000F8012B491EFBD270470022F6E710B5B3
:10CAB00013460A4604461946FFF7F0FF204610BD0C
:10CAC00030B504460020034600E05B1C934203D2CD
:10CAD000E05CCD5C401BF8D030BD202A04DB203A5E
:10CAE00021FA02F00021704721FA02F3D040C2F18E
:10CAF000200291400843194670470000064C074D3C
:10CB000006E0E06840F0010394E80700984710341D
:10CB1000AC42F6D3FBF778FC54CD070094CD070068
:10CB200002E008C8121F08C1002AFAD170477047F6
:10CB3000002001E001C1121F002AFBD1704782686A
:10CB40000169C0681144814201D101207047002071
:10CB5000704700000200000000000000000000001C
:10CB600000000000982F8A4291443771CFFBC0B576
:10CB7000A5DBB5E95BC25639F111F159A4823F92A8
:10CB8000D55E1CAB98AA07D8015B8312BE85312401
:10CB9000C37D0C55745DBE72FEB1DE80A706DC9BC2
:10CBA00074F19BC1C1699BE48647BEEFC69DC10F6E
:10CBB000CCA10C246F2CE92DAA84744ADCA9B05CAA
:10CBC000DA88F97652513E986DC631A8C82703B06D
:10CBD000C77F59BFF30BE0C64791A7D55163CA067B
:10CBE00067292914850AB72738211B2EFC6D2C4D87
:10CBF000130D385354730A65BB0A6A762EC9C28175
:10CC0000852C7292A1E8BFA24B661AA8708B4BC20A
:10CC1000A3516CC719E892D1240699D685350EF434
:10CC200070A06A1016C1A419086C371E4C774827EB
:10CC3000B5BCB034B30C1C394AAAD84E4FCA9C5B61
:10CC4000F36F2E68EE828F746F63A5781478C884B2
:10CC50000802C78CFAFFBE90EB6C50A4F7A3F9BE94
:10CC6000F27871C6020000001A00000050000000B7
:10CC70005100000000000000000000000000000063
:10CC800000000000000000000000000000000000A4
:10CC90000000000050000000000000000000000044
:10CCA0000000000000000000000000000000000084
:10CCB0000000000000000000FFFF0000FFFFFFFF7A
:10CCC000FFFFFFFFFFFFFFFF00000000000000006C
:10CCD0000000000001000000FFFFFFFF96C298D88F
:10CCE0004539A1F4A033EB2D817D0377F240A46395
:10CCF000E5E6BCF847422CE1F2D1176BF551BF379E
:10CD00006840B6CBCE5E316B5733CE2B169E0F7C70
:10CD10004AEBE78E9B7F1AFEE242E34F512563FC0C
:10CD2000C2CAB9F3849E17A7ADFAE6BCFFFFFFFFA6
:10CD3000FFFFFFFF00000000FFFFFFFF00000000FB
:10CD4000DCCC0700000000000000000022002100F1
:10CD50002400000094CD0700040000203C000000E7
:10CD600020CB0700D0CD070000E0002038000000F5
:10CD700020CB0700D0CD070040000020082900008C
:10CD800030CB070008CE070038E00020D8010000B3
:10CD900030CB070000000000000000000000000091
:10CDA000000000000090D00300000000030000001D
:10CDB000D6BE898E000000000000000000000000C8
:10CDC00000000000910700200000000000000000AB
:10CDD0000000000000000000000000000000000053
:10CDE0000000000000000000000000000000000043
:10CDF0000101000000000000000000000000000031
:08CE000000000000000000002A
:020000041000EA
:041014000080070051
:04000005000784016B
:00000001FF
