:020000040003F7
:10A00000800F0020E1AB0300F3AB03000FA10300BE
:10A010000000000000000000000000000000000040
:10A02000000000000000000000000000F7AB03008B
:10A030000000000000000000F9AB0300FBAB0300D0
:10A04000FDAB03005BA30300FDAB0300FDAB03000E
:10A05000FDAB030000000000FDAB0300FDAB0300FF
:10A06000FDAB0300FDAB0300FDAB03004DA50300FA
:10A07000FDAB0300FDAB0300FDAB0300FDAB030034
:10A08000FDAB0300FDAB0300FDAB0300FDAB030024
:10A090001FA30300FDAB0300FDAB0300C9A5030034
:10A0A000FDAB0300FDAB030000000000000000005A
:10A0B00000000000000000000000000000000000A0
:10A0C0000348854604F086F80048004715A10300C0
:10A0D000800F0020056885F308884068FF2464B27B
:10A0E000EFF30585002D01D1A6460047254606461B
:10A0F00021273FBAF0B40024002500260027F0B441
:10A10000F92040B20047000072B600BEFEE772B60A
:10A1100000BEFEE71C4B9D681A0501211B48002468
:10A12000002D04D111600568002DFCD004605B692E
:10A13000002B04D191604368002BFCD04460116176
:10A14000C1680029FCD0C46011490868FF221204CC
:10A1500090430122D205104308600E495010086058
:10A1600062B600F0E6FB00E020BF03F0BEFD002871
:10A17000FAD1094DE869002801D100F0A5FAEC6197
:10A1800000F017FC20BFFDE7000400400001004084
:10A1900014E400E000E100E0000500408307FF2236
:10A1A000DB0E9A408907090E994000280BDA000758
:10A1B000000F08388308D5489B001818C3699343DB
:10A1C0000B43C36170478308D1489B001B18186874
:10A1D000904308431860704770B50446807B0028A0
:10A1E00018D002282ED00125CA4800F09BFECA498B
:10A1F0002A464A431646314603F040FFC74A607B71
:10A200005543A26868438919801808180002000A9B
:10A21000606070BDC049607B0B4683404A429D1818
:10A22000401C81408818401B0602360AB94800F0DD
:10A2300079FE7608314603F021FF8819A168491993
:10A240004018E3E70A25CFE71CB5022069464871AC
:10A25000684600F055FF002100280BD068460171C8
:10A260002521817101F00BF9002802D0684600F029
:10A2700088FF1CBDAA4801701CBD10B500F081FF0D
:10A2800010BD1FB5002906D0A2486946983800F0D5
:10A29000A3FE002803D0009800F073FF1FBD01202B
:10A2A000A049000508601FBD9D480078002800D027
:10A2B000CAE77047F0B59C4841689C4B481E0002B5
:10A2C000000A0446002215015E59002E0BD0ED183D
:10A2D0006D68471A6E1A36023F02360A3F0ABE42BE
:10A2E00001D22802000A521C082AECD301221204CF
:10A2F0008F4B844209D05A608E4B00221A608A4AE2
:10A300004032106086488160F0BD9A60F0BD84489C
:10A310000178002902D10121017095E7704738B515
:10A320007F4C0DE0009800F051FF012802D0002082
:10A33000FFF7EAFE616800988847009800F021FF67
:10A340007A486946803000F073FE0028EAD0207811
:10A35000002801D1FFF7DBFF38BD10B501F0B7F8D9
:10A3600010BD0120704710B56D4900240C70486085
:10A370004C8080216D4803F0F0FE66498039084624
:10A38000183801600421416020214461816000F09F
:10A3900015FE00F0ADFE5F4800F0EFFD002801D093
:10A3A000FFF7B2FE02211420FFF7F8FE01206249F8
:10A3B0000005086000210120FFF7F0FE5F4A6049B8
:10A3C000604801F005F810BDF8B51D0016460746B7
:10A3D00001D10C2E03D8002F01D0082901D3002071
:10A3E000F8BDEFF31080C007C00F72B600900801EF
:10A3F0004E4944182068002801D000F0C2FE3846BB
:10A4000000F09EFE27602673002060734648406877
:10A41000A060A5732046FFF7DFFEFFF74BFF009813
:10A42000002800D162B60120F8BD70B501253D4974
:10A43000ED0280390D6008280CD23C490001441817
:10A44000206800F09EFE002020606060A060E06058
:10A45000FFF730FF3848056070BDFEB532484768E9
:10A460000025BF1C314B2E019859002843D02C4A9F
:10A47000F41861689268791ABA1A09021202090A74
:10A48000120A914237D800216A4651710090117129
:10A49000D171E07B032812D2252011469071084625
:10A4A00000F0EDFF002803D12048805900F048FE5D
:10A4B00069468879401CC0B288712728EFD90021ED
:10A4C000E173617B19484A1CD2B26273FF2905D13E
:10A4D0001D4BA168C9180902090AA160217B8A42A3
:10A4E0000FD3FF290DD0805900F04BFE00202060D3
:10A4F0006060A060E0606D1C082DB3D3FFF7DAFE4A
:10A50000FEBD2046FFF768FEF5E7000000ED00E025
:10A5100000E400E048010020CD0C00009A19000082
:10A520000400002000E200E000B500403000002000
:10A5300000B3004040B1004000E100E07BA2030016
:10A5400083A20300A9A20300009A190070B5184D58
:10A5500028680026174C002805D06068C00302D583
:10A560002E60FFF77AFF6868002808D060688003D3
:10A5700005D56E6001204004A06000F0A1FA70BD16
:10A580000D490020886003200A49000440314860DA
:10A590000A49012088600860094801680902090A1F
:10A5A000C206114301600749D014086070470000DB
:10A5B00040B1004000B3004000B5004000B0004092
:10A5C00008E400E000E100E030B5002401258BB094
:10A5D0006D0742E068460078641C0128019806D0A7
:10A5E0000299A8422FD3FF2203F0B0FD2DE080078F
:10A5F00002D00020FFF788FD0398800702D00020DA
:10A60000FFF782FD0298800702D00020FFF77CFD53
:10A610000198A8420DD30146002006E0029B0A786B
:10A620001B5C401C1A400A70491C039A8242F5D8F0
:10A6300004E00023039A029900F042FE602069467C
:10A640000874029805E000F011FE61206946087464
:10A650000198059004A800F0CFFF6946FE4800F07D
:10A66000E7FC0028B6D0002C05D0622069460874AB
:10A6700004A800F0C1FFF84800F031FDF74909785F
:10A68000084205D0122001F050FA006800F0B0FF37
:10A690000BB030BD00B587B000F0B8FD002811D078
:10A6A0004179027909021143ED4A91420AD9022106
:10A6B0006A461170011D01910078C01E0290684623
:10A6C00000F09AFF07B000BD7FB50546122001F0EB
:10A6D0002CFA0446062D09D004DC002D06D0012DED
:10A6E0002CD103E0082D26D00A2D27D1002C1DD017
:10A6F00002F095FE002819D0D74800F0F0FC0028A1
:10A7000015D003F0A0FCD74B6D460FCB0FC56846A4
:10A7100018DF002801D0FFF7F7FC206813DF0028BE
:10A7200001D0FFF7F1FC206800F062FF7FBDCB494C
:10A73000012008707FBD0020FFF7E6FC72B6FEE73F
:10A74000F0B504460078012587B025287ED00EDCC0
:10A7500022287CD006DC02287AD020281BD0212891
:10A7600016D159E0232874D0242811D1B0E000215B
:10A77000612848D008DCBC4EBC4F50286AD0512814
:10A7800069D0602804D10CE0622838D070283AD013
:10A79000062007B0F0BD2079FFF796FF02F0DAFC43
:10A7A000C5E06846009100F0ABFC002875D0009829
:10A7B00000F019FD0098017809090901891C017050
:10A7C000217A0A31417016218172E421C172FE2181
:10A7D0000173217AC91C41720D30A268616803F0CF
:10A7E000A3FC237B627BA17B0098FFF7EDFD044671
:10A7F000009800F0C6FC002C04D10320C9E72079A2
:10A80000FFF713FE93E0A068994A410CC0030023B0
:10A8100003F04AFC02215EE000F085F9207902286D
:10A8200002D0012807D082E02320694608706846DC
:10A8300000F0E2FE25716179A01D03F022FB0028E3
:10A8400075D0022001F071F9002805E046E025E00E
:10A8500018E039E066E04AE001D1FFF755FC7E4898
:10A860002021183801700021C9430161617901710B
:10A870000A22A11D401D03F057FC7748183800F04C
:10A88000BBFE86E72079022851D102F0C8FD0028DE
:10A890004DD1022003F0FCF949E041E02079022883
:10A8A00045D100F040F92121684601700A22E11DDE
:10A8B000401D03F039FCA17968460171606904907C
:10A8C000684600F099FE32E001210520400402E0D4
:10A8D0000F200121000400F014F928E06079042819
:10A8E00001D0012823D10020FFF7EEFE1FE02079E0
:10A8F000800702D1207A800701D0102049E7207B11
:10A90000800701D0092044E768460570241D07CC64
:10A9100001AB07C36946504800F05EFB002805D034
:10A92000042036E7022069460870EFE73E60002009
:10A930002FE770B588B0FFF723FE1821464803F0D3
:10A940000CFC4549444818310160082510218560F8
:10A95000416000F033FB4748016803220902090AFD
:10A96000920711430160444928050126086000F060
:10A97000E7FE00246846047106724048039068466A
:10A9800006744574847401A800F036FE002801D0D6
:10A99000FFF7BAFB3A493B48FFF7E5FC684603F08E
:10A9A00058F968460078002801D03748C46108B0DB
:10A9B00070BDF0B58BB0012069460870684600F0A4
:10A9C0001BFEFFF7A4FC02F02AFD002806D005209C
:10A9D0000321000400F095F80BB0F0BD042001F055
:10A9E000A4F80546122001F0A0F80746102001F057
:10A9F0009CF80446022003F04BF90028ECD0002616
:10AA0000F64307962878400705D538680068401C4B
:10AA100001D1401F07902878C0070AD0206800683D
:10AA2000401C06D16068002803D007984008400009
:10AA300007900798401C03D007A9042001F0F2F802
:10AA400002F0C6FC0500C7D003F022F90528C3D1E7
:10AA5000022001F06AF819E07001002010000020C7
:10AA6000EFFF000060E203000000800000E200E071
:10AA700040420F0014E400E000E100E041A70300C1
:10AA8000D6BE898E95A6030000050040040001D1C2
:10AA9000FFF73AFB012D0AD0042D0CD00B20FFF755
:10AAA00033FB324608A9284602F072FB94E720885F
:10AAB00069460884F5E7241D07CC08AB07C3F0E717
:10AAC00030B51D4C0025607887B0012811D00228D0
:10AAD0000AD0032811D00820FFF716FB65706846DE
:10AAE00000F08AFD07B030BD032168460170057192
:10AAF000F4E7232069460870F0E70020FFF7E4FD43
:10AB0000F0E70E4B00225A600D4A526810180002FE
:10AB10000B4A000A4032506001200A4A400450604B
:10AB20000548417070470120064940048860024989
:10AB300000204870704700001000002040B1004025
:10AB400000B5004000B3004010B500F01DF800282B
:10AB500005D01F491D484860C8131E4988611E481A
:10AB6000018CC9B201290ED1818C09070BD1018D4D
:10AB70000906090F042906D1808D0006000F02D1B5
:10AB800016490120886010BD1348018CC9B2012903
:10AB900017D1818C090714D1018D09060A0F03D141
:10ABA000828D1206120F0ED0090F012903D1828D5A
:10ABB0001206120F07D0032903D1808D0006000F63
:10ABC00001D000207047012070470000DFFF07C060
:10ABD00000050040006C0040C00F00F0000600407F
:10ABE0000748026803210A43026006488047064876
:10ABF0000047FEE7FEE7FEE7FEE7FEE7FEE70000B0
:10AC00002405004049AB0300C1A00300F3B50025B3
:10AC1000CDB004462E464E988719384603F0B5FA53
:10AC200000BA010AF87809020143AA000CA86D1CB9
:10AC3000361D8150102DEED321E0A8000CA9431839
:10AC4000803B996F844611220846D04113220E465C
:10AC5000D6417040890A4840596C07270E46F94191
:10AC600032461227FA414A40F1084A4080181A6CCD
:10AC7000596E8918421860460CA90A506D1C402D67
:10AC8000DBD3206D0B90616D0A91A76D0997E26D82
:10AC900006920092226E0892636E07939E46A36E00
:10ACA00005930193E36E0493029300239C460626CA
:10ACB0001346F3410B261546F5416B401926154600
:10ACC000F5416B40019E7546154096436E409E19B6
:10ACD00063469B008A4D0393ED58029BEB18F618D0
:10ACE000039B0CADEB580546F3180393022603466D
:10ACF000F3410D26F5415D4016260346F3415D40C4
:10AD00000B467B400E4603403E407340ED18019BCE
:10AD1000029373469646009A0193039B00970F4651
:10AD20000146D218581963465B1C9C46402BBED383
:10AD30000B9B181820650A98401860650998C0197F
:10AD4000A065009906984018E0650898801820666C
:10AD5000079870446066019905984018A0660299AA
:10AD600004984018E0664FB0F0BD002815D00021CF
:10AD700001648164C1646349016563494165634954
:10AD800081656349C16563490166634941666349F9
:10AD900081666349C166002070470E207047F8B590
:10ADA00016460F46040005D0002E1ED0002F01D0FD
:10ADB000002518E00E20F8BD216C785D6054206CF1
:10ADC000401C206440280DD121460846FFF71EFF95
:10ADD0000123A16C5B020022E06CC918226450417F
:10ADE000A164E0646D1CB542E6D30020F8BDF8B55F
:10ADF00016460D46040008D0002D06D0206C802297
:10AE000000213828225403D307E00E20F8BD215436
:10AE1000401C3828FBD30BE02154401C4028FBD3B6
:10AE200021460846FFF7F2FE3821204603F095F947
:10AE3000236CA26C590FDB00E06CD218484121460C
:10AE4000A2640306170A2031E0641F43CA778F7794
:10AE50000304170C1F430302100E4F7718430877A3
:10AE6000E06CC876020A8A76020C4A76000E0876F2
:10AE700021460846FFF7CAFE002E1ED00021E26ED2
:10AE8000C800C2406A54A36EC3406A181371636E4F
:10AE9000C3401372236EC3401373E36DC340137436
:10AEA000A36DC3401375636DC3401376236DC34018
:10AEB000491C13770429E2D31FE000211823C8009E
:10AEC000226D181AC2406A54666DC6406A1816711F
:10AED000A66DC6401672E66DC6401673266EC64055
:10AEE0001674666EC6401675A66EC6401676E66E79
:10AEF000C640491C16770429E1D30020F8BD0000A4
:10AF000070E2030067E6096A85AE67BB72F36E3CC8
:10AF10003AF54FA57F520E518C68059BABD9831F24
:10AF200019CDE05B30B5416805240A460368E2416B
:10AF30009A1A83680F251C46EC4161400160C46881
:10AF40001B194360A31889188360C160084630BD8F
:10AF5000F0B5164C01232360154A0026154F07E073
:10AF60001568002DFCD0BD68491E89B24554166095
:10AF70000029F5D163600020F0BD38B504460020FB
:10AF8000009004216846FFF7E3FF00280DD10A482E
:10AF9000206000986060A0600025E0602046FFF718
:10AFA000C1FF6D1C142DF9D3002038BD00D0004026
:10AFB00000D1004000D50040ED5EEAF1826820211A
:10AFC0001346491ECB40DB07FAD001228A400021FC
:10AFD000C16082600161704770B5044600290DD0E0
:10AFE000EFF31080C507ED0F72B6A26820698318D1
:10AFF000E068834207D1002D02D002E00E2070BD30
:10B0000062B6042070BD521E10406268236850432F
:10B01000C0186369002B01D0984701E003F084F861
:10B02000E068401CE060002D00D162B6002070BDD9
:10B0300070B50B460446EFF31080C507ED0F72B6EE
:10B04000E1682069884204D1002D00D162B60E204B
:10B0500070BD002B0ED0A1686268491E08402168AF
:10B060005043411866691846002E01D0B04701E0F0
:10B0700003F05AF82069401C2061002D00D162B60F
:10B08000002070BD70B50B000CD0EFF31081CC0721
:10B09000E40F72B6C56801696D1A954204D8002C98
:10B0A00000D162B60E2070BD891882680568521EF4
:10B0B000114042685143491945691846002D01D095
:10B0C000A84701E003F030F8002C00D162B6002060
:10B0D00070BD0022D6E7C1680069081A704701698F
:10B0E000C068814201D101207047002070470000F4
:10B0F00000205A4902460A54401C2028FBD37047BE
:10B1000010B5564B0021EFF31082D207D20F72B662
:10B110005C5C002C02D0002A0CD00CE001245C54B2
:10B12000282359434E4BC9180160002A00D162B64A
:10B13000012010BD62B6491C2029E4D3002010BDB7
:10B1400070B54749401A282102F098FF044620288C
:10B1500001D3002070BDEFF31080C607F60F72B662
:10B160003E4D285D002801D0FF2802D10420FEF7C3
:10B17000CBFF285D401C2855002E00D162B601206F
:10B1800070BD374910B5401A282102F077FF2028FA
:10B190001AD2EFF31081CC07E40F72B62F490A5C84
:10B1A000002A05D0521ED2B20A54002C07D007E064
:10B1B0000820FEF7A9FF002C06D162B604E062B6B3
:10B1C000002A01D0012010BD002010BD244910B577
:10B1D000401A282102F052FF202801D3002010BD80
:10B1E0001E49085C10BD10B5044606221D49C01C4E
:10B1F00002F09AFF1B482438006ABF22C007410EA4
:10B200002078104008432070002010BDF0B50100E8
:10B2100011D008464B780930062B0CD9252B0AD8BB
:10B2200010E00478461A093EA6199F1FBE4202D8B4
:10B230009E18864201D80020F0BD6601341B2018FC
:10B240001F3001E0084DCA1C4478162CE9D1C4789F
:10B25000867824023443AC42E3D1F0BD08070020D5
:10B2600008020020A4000010E4FE0000F8B501244C
:10B270000546240720690A4681B2206980B28018F9
:10B28000401E02F0FBFEC3B20022244824491646A9
:10B2900013E0022747600F68002FFCD085600F681D
:10B2A000002FFCD046600F68002FFCD027693F04B8
:10B2B000BF0CBF007D19521CD2B29A42E9D3F8BD2F
:10B2C000F0B500249B089B001B182546204622E071
:10B2D0000F78491CFE432E43F5B2124E3755641CBD
:10B2E000E4B2042C16D10024002D11D00B4D0127FF
:10B2F0006F600B4D2F68002FFCD036681E602E68E3
:10B30000002EFCD0054E002777602E68002EFCD062
:10B3100000251B1D401C9042DAD3F0BD00E5014022
:10B3200000E40140180000209F49002008609F4968
:10B33000401E88609E49012008619E4902200870D5
:10B340007047FEB5984A1321116082799A490A2AFA
:10B3500002D853001B1D0EE0242A02D853009B1D67
:10B3600009E0964D6E4638CD38C693006C461B19E1
:10B37000FF3B013BDB6E8B6052068F4B520E40331E
:10B380005A6102684A60894B08225A608C4A00263A
:10B39000D6604B6A874A5468250E2D022B434B62B8
:10B3A00023020B624779824D0123002F05D0854887
:10B3B000844209D00320086307E00479CC62C07995
:10B3C000C8602B601370FEBD0B636B601670FEBD12
:10B3D000F7B57D480025C5630121C1637648C56086
:10B3E0000322026102228260734F252240377A6174
:10B3F0008E224262754AC261436A6E4C6268160EC2
:10B4000036023343436212020262C562016370492D
:10B4100041617049816170498163FF210431416359
:10B420006E49C163942078602078032809D16C4864
:10B430000821024681601832456102604160FFF7D1
:10B44000BDFD02265E482670C560664806606648F7
:10B4500006600098A0600198E06002982061604852
:10B46000FFF73DFE002802D0A0688047FEBDFEF732
:10B4700078FF0028FAD05B4880380660FEBD10B522
:10B48000002803D04179002902D006E00E2010BD2B
:10B490000179012901D9102010BD01465048FFF75C
:10B4A0009BFD002801D0042010BDEFF31080C407DD
:10B4B000E40F72B6FEF755FF002803D04949022079
:10B4C00080390860002C00D162B6002010BDF0B5B4
:10B4D0003B4D85B0E8680027364C00282CD0434807
:10B4E0000168002900D001210191C0680090E8693D
:10B4F0006426002804D0EF612F4840308068C6B22F
:10B50000EF6002A93648FFF793FD002801D0FEF74F
:10B51000FBFD6846407B012807D0022805D0216941
:10B5200002988847022020702FE0E5683346009A91
:10B5300001990298A847F5E72948FFF7CCFD064690
:10B540001CE069462648FFF7C4FD002818D168466C
:10B550004079022814D100212148FFF769FDFFF747
:10B56000E3FE1548403001690029FCD10020E86065
:10B570006423E7684A1E0098B847761E012EE0D87B
:10B580002078022801D0032807D169461448FFF724
:10B59000A0FD002803D0A068804705B0F0BD684634
:10B5A000FFF7CFFEF9E70000001200400013004053
:10B5B000001000401C0000200015004070E3030054
:10B5C00000110040D6BE898EC01F004000D6BE8943
:10B5D00006010200250003025B06000055555500D8
:10B5E0002807002080E200E000E100E000140040B5
:10B5F00010B5FEF76FFD10BD30B504460078FF258D
:10B60000AD0289B023286CD013DC7549042851D0D1
:10B6100008DC002823D001283FD0022840D003288E
:10B6200017D144E0202850D0212854D0222810D10E
:10B6300012E032286DD006DC242855D0302857D0AF
:10B64000312806D15CE0602867D061286BD0622881
:10B650006ED00620FEF758FD062009B030BDA06868
:10B660004860A07B002809D000200870207B0028BB
:10B6700002D0607B022803D20720EEE70120F4E726
:10B680007F21C902284600F00EFA002801D00320CD
:10B69000E3E7607B01F04AFD50E001F05BFD4DE027
:10B6A0002089012281B2606801F0A1FDD5E701F097
:10B6B0006BFE43E000206A461070241D1DCC01ADD6
:10B6C0001DC5496868468847C7E72079611D22691A
:10B6D00001F05EFDC1E72079611D226901F06DFD79
:10B6E000BBE701F0C5FE29E0207902F0D1FAB4E70A
:10B6F000A08800F01AFAA06000281FD10520ACE74E
:10B70000A088E268A16800F029FAA84216D21020A9
:10B71000A3E7A08800F09BFA10E0606802F048F907
:10B720000120616801E00220616800F09FFA05E0F5
:10B7300000F0C8FA02F0CEFA01F09EFE00208CE77D
:10B7400001200007816B406B4143264808182649B9
:10B750000160234901200870002070472049496892
:10B76000002900D008470820704700B589B0202282
:10B7700069460A7008716846FFF7F0FF09B000BD1E
:10B7800070B58AB016460D4604462422174968460D
:10B7900002F0CAFC01A970C16846FFF7DFFF0AB0DA
:10B7A00070BD30B50D46114989B0044624222431BC
:10B7B000684602F0B9FC684602950194FFF7CEFF97
:10B7C0004BE700B589B0622269460A700871684685
:10B7D000FFF7C4FFD2E702480121007848407047D4
:10B7E000007D0020FCFFFF1FF9B503007CE3030090
:10B7F00070B502460078FF2815D001248018A402F5
:10B80000121900230125FD4C6D020EE00688B600DA
:10B810003018904207D84688A64201D18E4202D104
:10B820005B1CAB4201D9002070BD46888E42EDD131
:10B83000001D70BDF8B5F24C05462069854202D066
:10B840001020FEF761FCEFF31080C207D20F72B632
:10B850002069EC490088884204D1E3681888401CBC
:10B86000188004E0E0682E8803889B1903802888EC
:10B87000E54B800040191D46803D2061984200D173
:10B8800025612069DD4F4688BE4207D106888E4279
:10B8900004D1001D2061984200D12561002A00D109
:10B8A00062B6F8BD0188D84A89000918D448914287
:10B8B000C16002D111468039C1600269914209D04C
:10B8C000501A8003000C08808A4201D22030088080
:10B8D000002048807047F8B50146EFF31080C60796
:10B8E000F60F72B6C64FFD68288883008B4202D3DC
:10B8F0006888002804D0002E00D162B60020F8BD70
:10B90000C14C8A033869120C803C854204D1FC602A
:10B910003C610EE062B614E0601B8030814212D9B7
:10B920001B1A8B42E7D3B54980036980000C28803D
:10B93000FC602280002060802046FFF7B3FF002ECD
:10B94000E8D02046F8BD2A802846FFF7ABFF002E3E
:10B9500000D162B62846F8BD10B5AB4C022020706D
:10B960000422A1686068FFF70BFF002801D00120C6
:10B97000207610BD70B50126A34CB60225E048889C
:10B98000A04A904226D000281AD009888D00511074
:10B99000884200D1042520696168401989198842CC
:10B9A00002D90320FEF7B0FB2A46E1682069FFF7C1
:10B9B000E7FE002812D1E06860612069401920612B
:10B9C000E068018889000818E060A068E1688019D3
:10B9D0008142D4D3012020760420207070BD70B540
:10B9E000894C2278002A01D0082070BDA1606060D7
:10B9F00001212170824901254978002904D1A90239
:10BA0000FFF7CFFE002800D02576002070BD70B56E
:10BA10007B4A0C4612780546012A02D00020FEF728
:10BA200073FB21462846FFF7E3FE00F074F9002877
:10BA300002D000F063F970BD052070BDFFB581B084
:10BA4000DB1C0A9E9D08AD00B7007819001DFFF7AA
:10BA500042FF040025D0002E07D06619FF220821DE
:10BA6000304602F073FB6548F0800721A803890384
:10BA70004018000C2080029860802A46201D0399FF
:10BA800002F052FBED1DA8088000C2192146019862
:10BA9000FFF776FE002801D0FEF736FB002005B048
:10BAA000F0BD0420FBE770B50025554C02460A4363
:10BAB0002570920501D0102070BDA160064660601F
:10BAC00051488021803802F048FB4F4820218038BF
:10BAD000E06020610180304600F02BF9064660618D
:10BAE0001C21494802F039FB6570002E17D1A0686F
:10BAF00000F01FF9050016D0012189026068FFF7E8
:10BB000050FE002801D0FEF7FFFAA16860686A1AAB
:10BB1000121DFFF735FE002801D0FEF7F5FA0120CF
:10BB20002070002070BD0B2070BD0146FF208002F8
:10BB30005EE610B5324C2078012802D00020FEF7D6
:10BB4000E3FA042020706168081D6061A068FFF7B7
:10BB500046FF002801D10321217010BDF7B5284C04
:10BB600082B020781746012802D00020FEF7CCFAD8
:10BB7000542F02D90020FEF7C7FA207D800702D09B
:10BB80000020FEF7C1FAFF2160698902884202D8CD
:10BB90000020FEF7B9FA0298FFF7C7FF00F0BBF8E4
:10BBA00065690646002D09D001216268E8198902FD
:10BBB00051180830884203D308201AE00E2018E0FC
:10BBC0000120607000903B462846039A0299FFF7D7
:10BBD00035FF00280CD1FF1DB808616980004018AE
:10BBE0006061002E12D0304600F088F800280DD099
:10BBF0000420FEF789FA002051E70000FF7F0000D3
:10BC0000087D0020FFFF0000B87D00200121626850
:10BC10006069890251185830884201D3FFF789FFC3
:10BC2000281D3CE738B50C460546FFF77EFF00F0BF
:10BC300072F8002809D0018822468B00002100916B
:10BC400029461B1FFFF7FAFE38BD052038BD014607
:10BC5000FF208002DBE651480178012902D14078BB
:10BC6000002801D0002070470120704770B50546BC
:10BC70000C46012808D14A48844205D380308442CA
:10BC800002D20846FFF7D6FD2146284600F05AF8B2
:10BC900043488030007800280BD1404C207803289E
:10BCA00008D0052805D1606800F043F860610120E4
:10BCB000207070BDA1686068FFF791FE0028F8D180
:10BCC0000520F5E710B5354800214170C068418076
:10BCD000334880300278002A09D0037E002B06D03A
:10BCE0000176012A04D0022A01D1FFF735FE10BDEA
:10BCF000012140688902FFF754FD10BD10B50446CC
:10BD0000800702D01020FEF7FFF9042225492046C3
:10BD1000FFF736FD10BD002803D0012189048842B9
:10BD200001D1002070471D49496849788900401AAF
:10BD3000704710B51C49FFF75BFD002801D0FFF7E5
:10BD4000EAFF10BD164A10B58032147813465B68BE
:10BD5000012C0DD0022C12D0032C1BD0042C06D1A8
:10BD6000012804D15069884201D10020107010BD13
:10BD70000228FCD18B42FAD1FFF7EEFD10BD01285D
:10BD8000FCD190688842F9D1032111701B1D001D60
:10BD90001361D060FFF7EEFD10BD0000087D0020AC
:10BDA000387D0020C4E30300FF7F0000491E03D458
:10BDB0008B00C258002AF9D0491C05D08A001018FF
:10BDC0008038C06F002203E0002070474008521CFA
:10BDD0000028FBD1480120388018704710B5072291
:10BDE000940003590C59A34201D9012010BDA3426C
:10BDF00002D20020C04310BD521EF1D5002010BD5C
:10BE0000F0B50646002003469C000D591759EF195E
:10BE10003F18BD4204D0BD4201D9012000E00020FE
:10BE20005B1C3751082BEFD3F0BDF0B50646002060
:10BE300003469C000D591759EF1B3F1ABD4204D011
:10BE4000BD4201D2012000E000205B1C3751082BCD
:10BE5000EFD3F0BDF8B51D46174602F0CDF93B68AB
:10BE60002A681C184A41069B16461B68201A8E41F8
:10BE700001D2012000E000201918069801602A6014
:10BE80003C60F8BDF7B50646002084B01746039025
:10BE9000019004460546029001E000250DE002A84D
:10BEA0000090601B800039580598AA00805801ABAB
:10BEB00003AAFFF7CFFF00206D1CA542EFD9A20017
:10BEC0000399B150019903910299641C0191029068
:10BED000082CE2D30824012501E0E51F0DE002A8AB
:10BEE0000090601B800039580598AA00805801AB6B
:10BEF00003AAFFF7AFFF00206D1C082DEFD3A200AF
:10BF00000399B150019903910299641C0191029027
:10BF10000F2CE2D30398F06307B0F0BDF0B589B001
:10BF20000C46064600F0D3FB0025029501950095CE
:10BF3000E06A0390206B0490606B0590A06B069004
:10BF4000E06B6A46114607900846FFF759FF07461F
:10BF500031466A460846FFF753FFC719206B039026
:10BF6000606B0490A06B0590E06B6A4611460690EA
:10BF700007950846FFF744FFC71931466A46084649
:10BF8000FFF73EFFC719206A0090606A0190A06A1F
:10BF90000595049503950290A06B0690E06B3146E1
:10BFA00007906A460846FFF72BFFC719606A0090A2
:10BFB000A06A0190E06A0290606B0390A06B04900D
:10BFC000E06B0590606B0690206A314607906A46E8
:10BFD0000846FFF715FFC719E06A0090206B019033
:10BFE000606B0595049503950290206A0690A06AFF
:10BFF000314607906A460846FFF717FF3F1A206B45
:10C000000090606B0190A06B0290E06B0595049529
:10C010000390606A0690E06A314607906A460846D7
:10C02000FFF703FF3F1A606B0090A06B0190E06B7D
:10C030000290206A0390606A0490A06A06950590B9
:10C04000206B314607906A460846FFF7EEFE3F1A1E
:10C05000A06B0090E06B02950190606A0390A06A6B
:10C060000490E06A06950590606B314607906A4639
:10C070000846FFF7DAFE3C1A0ED53146FB4A084661
:10C08000FFF7BEFE0419F8D409B0F0BD3146F74AF7
:10C090000846FFF7CAFE241A002CF7D13146F348B0
:10C0A000FFF79CFE0128F1D1EEE7F0B50646A1B0FE
:10C0B00015460C46084600F0F5FA002804D0304634
:10C0C00000F0E8FA21B0F0BD2146684600F0FFFA22
:10C0D000294608A800F0FBFA10A800F0DBFA0120BE
:10C0E000109018A800F0D6FA0124E40768E000993F
:10C0F000C9072ED00899C90731D0002837DD694615
:10C1000008AA0846FFF791FE684600F0E9FA18A968
:10C1100010A8FFF763FE002804DA10A92A46084693
:10C12000FFF76EFE10A918AA0846FFF77EFE1098CA
:10C13000C00712D010A92A460846FFF761FE07463D
:10C1400010A800F0CDFA002F3AD01798204317908E
:10C1500036E0684600F0C4FAE9E710A804E008A851
:10C1600000F0BEFA1BE018A800F0BAFA28E008A90F
:10C170006A460846FFF759FE08A800F0B1FA10A970
:10C1800018A8FFF72BFE002804DA18A92A4608464B
:10C19000FFF736FE18A910AA0846FFF746FE1898C2
:10C1A000C007E0D018A92A460846FFF729FE07462F
:10C1B00018A800F095FA002F02D01F9820431F9076
:10C1C00008A96846FFF70AFE002890D110A930465A
:10C1D00000F07DFA76E7F0B5044691B00E461546BC
:10C1E000104600F05FFA00287ED1324611466846BC
:10C1F00000F0A5FA6A46214608A800F0A0FA6A46AF
:10C200001146084600F09BFA31462A46084600F0DF
:10C2100096FA2A461146084600F091FA2146934BB9
:10C220002A46084600F06BFA2A4611468F4B08460C
:10C2300000F065FA2A468D4B2146104600F072FA4E
:10C2400021462A46084600F07AFA2246874B1146D4
:10C25000284600F054FA2146844B2A46084600F04E
:10C260004EFA0021204600F029FA00280DD0214680
:10C270007E4A0846FFF7C4FD0746204600F030FA24
:10C28000E069F9070843E06102E0204600F028FA7F
:10C2900022461146284600F052FA2946734B08AA56
:10C2A000084600F03FFA2946704B08AA084600F0FD
:10C2B00039FA08A96D4B2A46084600F033FA2146A0
:10C2C00008AA084600F03BFA6A46684B2146104629
:10C2D00000F028FA2946204600F0F9F931462846B0
:10C2E00000F0F5F9694600E002E0304600F0EFF9B1
:10C2F00011B0F0BD70B588B00E4604461546114623
:10C30000684600F01CFA21466A46084600F017FA13
:10C3100069462A46084600F012FA31466A4608463F
:10C3200000F00DFA08B070BDF0B5174689B01E4692
:10C330000C46054602464D4B3946684600F0F2F978
:10C340006A461146084600F0FAF929466A46084648
:10C3500000F0F5F939466A46084600F0F0F9314632
:10C36000424B2246084600F0DDF932461146684647
:10C3700000F0E5F969463D4B2A46084600F0D2F93F
:10C3800069463A4B3A46084600F0CCF93946374BF5
:10C390002A46084600F0C6F921463A46084600F00B
:10C3A000CEF9324B6A462946384600F0BBF9314691
:10C3B0003A46084600F0C3F931462C4B224608465F
:10C3C00000F0B0F96946384600F081F95CE6F7B54F
:10C3D000B4B023A8109013A81190FFF753FD234980
:10C3E00008A86031129000F072F9684600F052F926
:10C3F000012400250120001B810010A841586E4631
:10C400008E46A10040588446002001468B006746B6
:10C41000FA58F758D71B3F1ABA4204D0BA4201D291
:10C42000012000E000207246491CD7501029EDD3AE
:10C43000844201D1012400E00024304600F050F98C
:10C4400008990798C90708430790129800F048F91F
:10C45000FF2001306D1C8542CCDDA10010A84158A1
:10C46000349800F034F937B0F0BD0000C8E30300A1
:10C47000F0B5F5B00F460024064601461546179460
:10C480003CA81F9400F067F9314644A820310646C5
:10C4900000F061F9294610A800F05DF92946203125
:10C4A00018A800F058F910A800F0FCF800287DD179
:10C4B00018A800F0F7F80028F9D110A9B148FFF743
:10C4C0008DFC0128F3D118A9AE48FFF787FC01289D
:10C4D000EDD1AC4A18A96846FFF7E7FD394608A830
:10C4E0000F9400F038F908A96A460846FFF76FFF75
:10C4F0006A4610A95CA8FFF76AFF3CA924A800F0CF
:10C50000E6F82CA83146044600F0E1F89D494CA815
:10C51000403900F0DCF89B4954A8203900F0D7F8E6
:10C52000984B4CAA603B24A9684600F0FBF82346D0
:10C5300024AA54A94CA8FFF7F7FE924A6946603A2C
:10C540000846FFF7B2FD6A46214624A8FFF7D2FE4F
:10C550008C49203103C920903CA8229024A8219125
:10C560002390082108A8FFF721FC044608215CA8B5
:10C57000FFF71CFC844200DD20460446411E08A84B
:10C5800000F09CF8002801D0012500E00025611E84
:10C590005CA800F093F8002800D00120400005437B
:10C5A000A80020AE355834A8294600E06DE000F020
:10C5B0008EF82946203164A800F089F8684600F01A
:10C5C00069F801200090A41E3CD46A4664A934A8EE
:10C5D000FFF701FE214608A800F070F8002801D0FE
:10C5E000012500E0002521465CA800F067F800283E
:10C5F00000D0012040000543A8003558002D1FD071
:10C6000029464CA800F063F82946203154A800F0D0
:10C610005EF86A4654A94CA8FFF76CFE594B4CAA29
:10C62000603B34A96CA800F07DF864AB34AA54A92F
:10C630004CA8FFF779FE69466CAA084600F07FF81F
:10C64000641EC2D54F4A6946603A0846FFF72DFD81
:10C650006A4664A934A8FFF74DFE34A94948FFF79C
:10C66000BDFB012804D034A9464A0846FFF7DDFB8C
:10C67000002034AC10AB07218A00A5589A585540C9
:10C680002843491EF8D5002802D0002075B0EBE6FB
:10C690000120FBE700210A468B00491CC2500829F3
:10C6A000FAD3704700218A008258002A01D0002066
:10C6B0007047491C0829F6D3012070474A1192009F
:10C6C0008058CA06D20E012191400840704710B52B
:10C6D00000229300CC58521CC450082AF9D310BD34
:10C6E00010B500220146203104E00B685C081443B9
:10C6F000DA070C600B46091F8342F6D810BD70B5EF
:10C700001C460546FFF77CFB002805D1214628463C
:10C71000FFF764FB002804DB294622460846FFF7A2
:10C7200084FB70BD70B51C460546FFF77EFB0028F4
:10C7300004D0294622460846FFF762FB70BD10B5BB
:10C7400090B004466846FFF79DFB69462046FFF718
:10C75000E5FB10B010BDF8B50E46074600240720D3
:10C76000001B80008519284601F00FFD00BA000A61
:10C77000E97800020843A100641C7850082CEED32D
:10C78000F8BD000028E4030010B50420FFF7CDF940
:10C79000FE4C20610220FFF7C8F920601220FFF74D
:10C7A000C4F9E0601120FFF7C0F9A0601020FFF786
:10C7B000BCF960600120FFF7B8F96061FF202169D2
:10C7C000800281420BD32168814208D3E168814213
:10C7D00005D36168814202D3A168814202D2082058
:10C7E000FEF7C3FF10BD70B50546083001F0CDFC63
:10C7F0000446401C00D1002428460C3001F0C5FC42
:10C8000021078000090F4018697C401E00092A7C1E
:10C810000902401C114301D009090818DC4988426B
:10C8200000D9084670BD70B5DA4C8AB06578E678F4
:10C83000B54201D2002D01D10125657060266D46FB
:10C840002E70029101902A736B736078A87368460A
:10C85000FEF784FF002802D16178491C61700AB09C
:10C8600070BD30B5C94DA7B0686900283CD02C46D2
:10C87000743CE069002838D002A8FEF776FA01225D
:10C88000611D02A8FEF78BFA21460422103102A88E
:10C89000FEF785FA21460422183102A8FEF77FFA36
:10C8A000002069460870012202A8FEF778FA607934
:10C8B0002146663101281AD0022818D0042803D155
:10C8C0000A2202A8FEF76BFA02A801F063F8002220
:10C8D0001EA902A8FEF78BFAAC4A1EA9543A686951
:10C8E000FFF7C6FD002800D0012027B030BD02228E
:10C8F000E7E7F0B58FB006461821684601F02DFC39
:10C90000FF2702250024701E022825D8E01E6A4653
:10C9100010809E49D07874390D79C0086A07C0002C
:10C92000520F1043F72210400A466032527CD20761
:10C93000120F10436A46D070096801919549097831
:10C94000072913D0EF210840D07090490A220E39F0
:10C9500002A801F0E9FB012530006E4609D001284C
:10C9600012D0022817D003281CD12AE01021084336
:10C97000EAE70120C04330808448102401680E2279
:10C98000B01C01F0D1FB0DE0B078122400090001C9
:10C990003146001D05E0B0780A2400090001314647
:10C9A000401C887060216846017608A807960894A4
:10C9B000057147710021817106A8FEF7CFFE0FB007
:10C9C000F0BDB0780A24000900013146801CE8E778
:10C9D00070B5044640782278000210436C4A032365
:10C9E000D21E904205D1E078A2780002104300D117
:10C9F000062300222046FFF716FF050002D120463D
:10CA000001F0F4FA284670BD70B5604C0023743C08
:10CA100005462371A36120465A1E4030A36042841C
:10CA2000838420300374E361236065712A46801D8E
:10CA300001F06CF9574902200870284600F03FFDCC
:10CA4000FFF757FF70BDF0B55249A7B0042008703A
:10CA50000146FF2212A801F079FB4C4C743C60792E
:10CA600001283CD0022843D004283CD00720FDF701
:10CA70004BFBE168A06881426CD02120FFF755F89C
:10CA800000902220FFF751F801902420FFF74DF885
:10CA90000025ED4300260290B7006946C8590028DA
:10CAA00016D003C8A369E26801F0BFFA002809D0D4
:10CAB0000120B040203080B2FFF7C9F8002801D033
:10CAC000FDF722FB6846C0590068A84200D205461F
:10CAD000761C032EE0D3A169E068411836E0129875
:10CAE0004008400002E01298042188431290C0E7F9
:10CAF0001299022081431291BBE70268521C24D094
:10CB0000224E72681368834207D252689A18824292
:10CB100003D9129A520852001292B3681A688242DC
:10CB200007D25B68D218824203D9129B0222934338
:10CB30001293F2681368834207D252689A188242AD
:10CB400003D9129B042293431293001D814201D901
:10CB5000A842D2D30D4DE168A0680E3D88420DD1A8
:10CB60000A4E3069002821D012A90420FFF75AF894
:10CB7000002803D060792946FFF746FF0348A269E1
:10CB80001438037CE168A06806E00000487E0020BD
:10CB9000FFFF0000207D002000F0DEFD00280CD00B
:10CBA00060792946FFF730FF27B0F0BD042212A9B3
:10CBB0001046FEF7D3FF3061E0E7622108A801715B
:10CBC0000021017209A8FEF7C9FD23216846017002
:10CBD00001210171617941710A222946801D01F00C
:10CBE000A3FA6846FEF7BAFDDEE700B589B0212258
:10CBF00069460A7081780A07120F69464A71FB4933
:10CC00000A7869460A7181780A07014601A8120F5D
:10CC10000831023001F07AF86846FEF79FFD09B04E
:10CC200000BDF3B5F24E05467079374600247437DF
:10CC300081B0012816D0022816D0042810D0062072
:10CC4000FDF762FA28460830009001F09EFAE849A4
:10CC50000861009801F099FA0646401C06D006E0EB
:10CC6000FC68EFE77C68EDE7BC68EBE726682846E0
:10CC7000FFF7B9FDDE494031488488843046DC4EF8
:10CC8000B06028460C3001F080FA8000B061687C0A
:10CC9000297C00020843F061A87C0007C10F3046E0
:10CCA0006030017400217161017010213C3001F08D
:10CCB00054FA01F0B0F9F168CE484A1C06D0B269C6
:10CCC00040698918814216D90C201FE07179022928
:10CCD00001D0B0680EE0F9680A68496851184269E5
:10CCE0008A4200D24169B069800A8002081A012193
:10CCF0008902401AF060F268B06890420BD0B169C6
:10CD00000B4601F092F9002805D00D20FEF72DFD0D
:10CD100000F028FCFEBDB168206881420BD3B269E7
:10CD2000891862688018814205D8FFF78CFE029846
:10CD300001210170FEBD281D01F027FA01F031F933
:10CD4000AB4970796631FFF75FFEFEBDF7B504466B
:10CD50000E46C078A1780002A44F0843B9888AB073
:10CD6000884208D10020B880622269460A700871A2
:10CD70006846FEF7F3FC9E489D4DC1694035AA8C7C
:10CD80000909531A8C46E278A17812020A43214617
:10CD9000083E08310196009193420BD381681046FA
:10CDA00001F065F801998AB2009900F008FD0600CB
:10CDB00030D119E0D11A491E8C4507D98C4E012279
:10CDC000603633788A401342029201D0082621E06F
:10CDD000090108182030019A009901F0A5F930786E
:10CDE0000299084330700026E078A2780002A98CEE
:10CDF000104300F072FB688C401E68840C9901207F
:10CE00000870B888002805D1E078A17800020843AE
:10CE100000F0E1FB30460DB0F0BDF3B506468DB035
:10CE2000001D01F0B2F9724C2168884201D00B203C
:10CE3000C5E5304601F0BFF8002801D00020BEE56E
:10CE4000002069460872694F694839786630019058
:10CE5000032909D00546263D042918D0072936D0D4
:10CE6000082959D0082476E0F078B1780002084308
:10CE700008D0206801F095F860790199FFF7C4FDAA
:10CE8000082460E002A93046FFF7CBFE57E0F078B7
:10CE9000B1780002084309D0A98C884206D802AABA
:10CEA00030460E99FFF752FF002400E00B24688CF7
:10CEB00000282ED17020694608734F480590002045
:10CEC000049003A8FEF74AFC0520387021E0F078B2
:10CED000B1780002084303D13046FFF784FCA884F0
:10CEE000082038700020FEF76CFC2321684601738F
:10CEF000022101740A221230019901F015F96179B9
:10CF00006846417403A8FEF729FC044601216846DF
:10CF10000172002C14D016E0F078B17800020843BA
:10CF200003D13046FFF75FFCA884F078B2780002A6
:10CF3000A98C104300F0D1FA012069460872002440
:10CF4000304601F053F86846007A002803D0304696
:10CF50000E99FFF73DFD204631E5F8B5044623481C
:10CF6000007801280DD0224D27462E460837663618
:10CF70006979022809D0032807D007283ED0082065
:10CF8000F8BD2046FFF731FEF8BD3246204600F0DE
:10CF900048FF00281AD0E07829794007400F8842DE
:10CFA00007D8884251D1201D01F0EFF82968884246
:10CFB0004BD9A0780A220007000F68713946304625
:10CFC00001F0B2F8204600F0D9FA3EE0A0786A7984
:10CFD0000007000F824205D13146384600F0C8FEF6
:10CFE000002832D1E0784007CBD12EE0207D002010
:10CFF000D47D00200010001080C3C901A078000774
:10D00000000F814221D10A463946304600F095FE94
:10D0100000281AD0E17828794907490F884207D3B8
:10D02000884212D1201D01F0B0F8296888420CD93D
:10D03000201D01F0AAF82860E0784007400F287111
:10D04000687900F03CFAFFF754FC0020F8BDF0B519
:10D05000054687B0001D01F098F80146FE480068BB
:10D06000814261D1FD4F3878082813D0FA4EE97813
:10D0700000249C36AA780902204611438200B25A45
:10D080008A4214D1800084196188481C6080082974
:10D0900005D30FE0284600F08EFF002802D00020C4
:10D0A00007B0F0BD08212846FFF792FCF8E7401CC6
:10D0B0000428E3D3E878AA780102E748114380689E
:10D0C000012904D00009000109014018103810227C
:10D0D00002A900F0FEFB002814D00520C0436946D9
:10D0E0000880E878A9780002084369464880281D2E
:10D0F00001F04BF801900323002218216846FFF746
:10D1000092FB00E00520014621430AD1B9788A0745
:10D11000120F9419491CB970E978AA7809021143D1
:10D12000218000216180BBE70B20B9E770B505467F
:10D13000CA4C002020707421C74801F00EF8C64880
:10D1400010219C3001F009F80020A070E570FFF775
:10D150001BFB70BD10B57421BF4800F0FEFFBE4838
:10D1600010219C3000F0F9FFBC4C0020A070A08082
:10D17000FFF70AFB00F0BCF900F04DFF00F0B5FD31
:10D18000002802D00020207010BD00F0EBF910BD87
:10D1900010B5B24B1B78012B01D0082010BDB04B4D
:10D1A0005B69934203D8531C01D0102010BDAA4BD9
:10D1B000DA60FFF729FC002010BD10B5A74B1C78E2
:10D1C000012C03D0022C01D0082010BD07241C70B4
:10D1D000A14C6071226002462046663000F096FD48
:10D1E000607900F06CF9FFF784FB002010BD70B58A
:10D1F0004278037812021A439A4BD218130001F0B6
:10D2000013F805100D0A07042B0000F025FA70BD75
:10D21000FFF7A3FE70BDFFF700FE70BDFFF717FF1D
:10D2200070BD04468D480D46007808282046F2D18E
:10D2300000F0C1FE002801D0002070BD86484030BB
:10D24000818C408C081A401C80B200F046F92946B7
:10D250002046FFF7BDFB70BD0B2070BDF0B57E4DC5
:10D26000ABB074350E2215A8296800F05DFF7A4C2A
:10D270000027204606462030E268A16866362A90DC
:10D280008A4234D0FF225421684600F05FFF627961
:10D29000314602A800F03AFDA0690190E0680090D4
:10D2A000FF216846C17400218174E06914220028BE
:10D2B00008D0402205A82A9900F036FF01206946CF
:10D2C00088745422607901280ED0022807D00428DF
:10D2D00002D00B202BB0F0BD6946242001E0694646
:10D2E0002220FEF73BFC3DE069462120F9E7286952
:10D2F000002802D10E20FCF707FF28690068009083
:10D3000055486179623001290CD0022935D00429B1
:10D3100010D10A22314616A800F006FF1C2704216E
:10D32000009805E0808810A988821A2700980121BA
:10D3300008430090E069002804D0402238462A992A
:10D34000FEF70CFC0220401C0E28FCD30E2215A96F
:10D350000220FEF703FC0422286069461046FEF70F
:10D36000FDFB28613D4906200870FEF7E2FB00281E
:10D3700001D0FCF7C9FE0020ACE7808810A9C88264
:10D380001B2702210098D3E710B53448007803002A
:10D3900000F04AFF09100608080A11101A1A1000B6
:10D3A000012012E0052010E02B482B49407966311E
:10D3B000FFF72AFB10BDFFF754FA002802D0FFF751
:10D3C0004DFF10BD042000E00020FEF7CEF910BD97
:10D3D00070B50220FEF7A9FB06460420FEF7A5FB68
:10D3E00004461020FEF7A1FB05461220FEF79DFB28
:10D3F0003188002906D02178C9070CD0296809682E
:10D40000491C08D02178490707D500680068401CEE
:10D4100003D0002070BD012070BD042070BD10B588
:10D420000220FEF782FB04461220FEF77EFB002C52
:10D430001CD000281AD00068411C17D00068401C7E
:10D4400014D020460A3000F0A0FE00280ED000F0D4
:10D4500097FD00280AD007E0D47D0020207D002021
:10D46000001000100600FFFF012010BD002010BDBD
:10D4700010B500F077F810BD00B5A04889B000786D
:10D4800006281AD1FEF7E7FB002816D025216846AA
:10D490000170012101719A489949427968464271A7
:10D4A0006631801D00F032FC6846FEF757F900F047
:10D4B0007EFAFFF769F9FFF74DFE09B000BD0128BC
:10D4C00009D0022805D0042801D00020704701208F
:10D4D0007047032070470220704700B589B02423AD
:10D4E0006A4613709080D1806846FEF737F9E4E70A
:10D4F000F0B5844993B003C90B900C9182A00068E9
:10D5000011907F480BAE743000680E90811C001D96
:10D510000D9100240F906000305AFEF706FB0500C5
:10D520001BD002216846017111AF3A5D0272294693
:10D5300008310A3000F0EAFBA0000DA909583A5D55
:10D5400005A800F0E3FB2868089068680990A97CAA
:10D550006846417201A8FEF701F9641C032CDAD376
:10D5600013B0F0BD10B50020FFF7C3F963490120E7
:10D5700008707421624800F0F0FD10BD70B50446DB
:10D58000407821780002084360495D4D884208D107
:10D59000E078400705D0A07869790007000F88423D
:10D5A00002D00720FCF7B0FD201D00F0EEFD286042
:10D5B000E0784007400F2871E0780007C10F50481D
:10D5C000603041744D49032008706879FFF777FF98
:10D5D000FFF78FF970BD70B592B00024484D064634
:10D5E0000F94109410AA0FA9686900F0A2F90028FE
:10D5F00030D0A868224601090F980901401AA241BB
:10D60000010912071143491C701E814204D32846A8
:10D610004030808CB0421DD10422D24368468284BF
:10D62000C18428680A9060216846017009A80190A9
:10D6300008200290022168460173FF214173847320
:10D64000FEF78CF8002805D10F98686168462B49D1
:10D65000C08C888012B070BD70B5284D0446287803
:10D660008AB0012802D008200AB070BD217968462E
:10D67000017061794170009800F070FC212600284B
:10D6800008D0684606700221417121798171617963
:10D69000C1711FE0A01D00F040FC00282CD0E078F4
:10D6A000A178000208431949491C884217D014493F
:10D6B00074310A68517812780902114388420ED0F9
:10D6C0006846067001214171E078A2780102114399
:10D6D0006846C18029780171FEF740F8C4E76846C2
:10D6E000067004214171297801710A22A11D801D53
:10D6F00000F01AFD6846EFE70B20B5E7207D00201B
:10D70000D47D002058E4030002010400FDFF000066
:10D7100010B5B04C218D814210D30A1AD117402385
:10D7200000209B1A88410BD30120002100F0ECFC63
:10D730002269636910401940084301D0012010BDDF
:10D74000002010BD10B53021A24800F006FD0020D9
:10D75000A049C043088510BDFFB581B016460C46F0
:10D760000546FFF7EFFF70190009290900010901BB
:10D77000401A0003070C28462043800502D01020E1
:10D7800005B0F0BD9348002C17D044609249044680
:10D7900040687118890A800A89028002FEF701F840
:10D7A000256027810498A07200212161E660481E4F
:10D7B0006161608521850846E2E74560E6E7F7B5E7
:10D7C000844C0646218D854884B081424BD0310778
:10D7D00008D12168B14205D8E2688B18069AB218C0
:10D7E000934202D2102007B0F0BD069A102A01D849
:10D7F000920701D00920F6E7628D824201D0112004
:10D80000F1E7090909010022711A9241120708097A
:10D810001043401C87B23846FFF77AFF002822D019
:10D820006C48008DB84230D2381A82B2694D01205E
:10D830000021029200F068FC401E0022D2435141B8
:10D840000090029A019140202C69821A6D6900981B
:10D8500000F05AFC20402940084306D0032000F085
:10D86000B0F80520BFE70820BDE720462946029A08
:10D8700000F04AFC009A019B1043420819435548A6
:10D8800052000261416107850BE0C31B514901242D
:10D890009C40E34308694A69DC17184022404A610A
:10D8A00008614C4C6785204618300546069A059954
:10D8B00000F03AFC21686068711A40182946069AFF
:10D8C000FDF75EFF00288ED0072000F07AF80320D5
:10D8D00089E7F8B53F4C17460E46228D3F498A42EC
:10D8E00011D0236800251B091B01C01AAD4129076F
:10D8F00000090843401C85B2AA4204D32846FFF71A
:10D9000007FF002801D00020F8BD002E0DD0002F09
:10D910000BD0012D0BD060682901000900014118CE
:10D9200010393A46304600F0FFFB0120F8BD61682F
:10D93000F7E7F7B52748294A018D82B00191914256
:10D9400026D00768466904693F2538090001009020
:10D950002A460120002100F0D7FB20403140084337
:10D9600014D00198401B80B201280DD0009900010D
:10D97000081810380299884208D30399086004985F
:10D98000102101600120FBE63846F3E76D1EDFD56C
:10D990000020F5E610B50F49104B0A8D9A4201D1CF
:10D9A000082010BDCA684968FDF7F9F910BDC9E63D
:10D9B00008491831884203D10020C04318394885EE
:10D9C000704710B50021034AC9431185FDF7CDFE0C
:10D9D00010BD0000807E0020FF030000FFFF00005C
:10D9E000F3B5C54E044630788BB0C043099009A901
:10D9F0000420FEF717F930780127012827D00228E4
:10DA00000ED0042840D00B20FCF77EFB0C98FC21A4
:10DA1000C17430780C992030FEF704F90DB0F0BDD8
:10DA20001120FEF782F8016805CC083C00F0A0FB4D
:10DA30000028EBD000F007FB62B6002000902068C1
:10DA40000190606880080290684618DF17E0102097
:10DA5000FEF76BF8016805CC083C00F089FB002854
:10DA6000D4D000F0F0FA62B60097206801906068A8
:10DA700080080390012000030290684618DF002808
:10DA8000CCD0FCF741FBC9E7FDF7A5FE00280FD07D
:10DA900000F0D9FA62B699483EDF002044DFBFF3B8
:10DAA0004F8F98499648C860BFF34F8F00BFFDE77E
:10DAB0001220FEF73AF8050001D1FCF725FB288873
:10DAC000800502D00020FCF71FFB5020694608703B
:10DAD000286801908C496068401888430290684625
:10DAE000FDF73CFE00280DD15120694608702068E2
:10DAF000029060680390286801906846FDF72EFE4A
:10DB0000002883D0777089E7F0B57B4CC1B0656899
:10DB1000002D6FD0EFF31080C007C00F72B65422F3
:10DB200040902946684600F0FFFAE87C0126F82874
:10DB300055D0FC2812D0FE280AD0FF2856D1667096
:10DB4000FE206946C87420782030FEF76BF84DE05F
:10DB5000667069462846FFF743FF47E00220FDF75D
:10DB6000E4FF3F900420FDF7E0FF07463F980028C0
:10DB700001D1FCF7C9FA0E2215A83F9900F0D4FA9A
:10DB8000002F39D038682A90207801283AD002280E
:10DB90003FD0042848D000270B20FCF7B5FA0E220E
:10DBA00015A90220FDF7DAFF00281ED0A87C002866
:10DBB00007D02946402214313846FDF7CFFF002810
:10DBC00013D004222AA91046FDF7C8FF00280CD064
:10DBD000F8206946C87420782030FEF723F82078B2
:10DBE0002030FEF734F8002830D0667040980028C6
:10DBF00000D162B641B0F0BDFF2204212AA800F096
:10DC0000A5FAC1E7288910A988822A981A273043E3
:10DC100008E0297A10A88175697AC1751B2702214D
:10DC20002A9811E02A90BAE7A8681690A88910A946
:10DC3000888328460E3000F0A8FA17A9023100F0B8
:10DC4000AEFA1C272A9804210843EBE70020606005
:10DC5000CCE770B5284E054601242046203080B21E
:10DC6000FDF763FF00280AD0C17CFF2907D034707C
:10DC70007060FFF749FF002D09D0012006E0640025
:10DC8000042CEAD900207060002D00D0287070BDEF
:10DC900070B50446012805D0042C03D0022C01D015
:10DCA000072070BD144D6868002801D0082070BDA1
:10DCB00020462030FDF739FF002809D001680968A7
:10DCC000491C05D02C706860FFF71EFF002070BD56
:10DCD000052070BD08484168002905D04178002919
:10DCE00002D0002141700FE77047034840680028C8
:10DCF00000D0012070470000287D00200F000F0099
:10DD00000400FA0500ED00E0FF03000010B5012A51
:10DD100007D0022A0CD0042A02D10A2200F004FA09
:10DD200010BD4A780B78110219430170090A02E00C
:10DD30000A7802704978417010BD10B5012A09D0E7
:10DD4000022A02D0042A11D10A2200F011FA002876
:10DD50000AD00BE042780378100218434A780B7817
:10DD600011021943884201D1012010BD002010BDCD
:10DD700070B50C46012A16D0022A1DD0042A21D1E2
:10DD800041790279090211436279237912021A4317
:10DD9000914217D100F0F9F90546204600F0F5F957
:10DDA00085420DD00EE04178027808021043617878
:10DDB00022780902114301E000780978884201D1F4
:10DDC000012070BD002070BD70B50C46012A0ED038
:10DDD000022A15D0042A01D0002070BD801D00F059
:10DDE000D4F90546A01D00F0D0F9281A70BD41787D
:10DDF000027808021043617822780902114301E099
:10DE000000780978401A70BD994A00218B00D358D8
:10DE1000834201D101207047491C0829F6D3002014
:10DE2000704770B5054680780C460007000F16460F
:10DE3000A04201D0002C18D1281D00F0A6F9FFF750
:10DE4000E3FF002811D12846083022463146054616
:10DE5000FFF78EFF002808D0224631462846FFF7FC
:10DE6000B3FF002801DB012070BD002070BD012838
:10DE700005D000010909090110384018704708460B
:10DE80007047F8B506460F460220FDF74EFE0546E0
:10DE90000420FDF74AFE0446012F2ED0022F1DD08C
:10DEA000042F36D1707931790002084329898842DC
:10DEB0002FD1304600F069F96968884229D1B01D38
:10DEC00000F063F9064628460A3000F05EF9864203
:10DED00021D8002C1DD0207840070BE03078A9789D
:10DEE000884216D17078E978884214D8002C10D076
:10DEF0002078800700280EDA0BE070783178000275
:10DF000008432988884204D1002C02D02078C00719
:10DF100001D00020F8BD0120F8BD70B505460220F3
:10DF2000FDF703FE04466879297900020843218938
:10DF3000884211D1284600F028F9616888420BD147
:10DF4000A81D00F022F9054620460A3000F01DF910
:10DF5000854201D9012070BD002070BD01B50220AD
:10DF6000FDF7E3FD694609788278914206D169465A
:10DF70004978C078814201D9012008BD002008BD40
:10DF800010B50420FDF7D1FD002806D00068C107B8
:10DF900005D0410703D5800701D5012010BD002021
:10DFA00010BD10B5334A324C11784B07DB0EE050F0
:10DFB000491C117010BD70B54278047813022C4AC8
:10DFC0000021234320328C00155B9D4209D1A41807
:10DFD0006588C478867824023443A54201D10120A3
:10DFE00070BD491C1029EED3002070BD70B541787A
:10DFF00002780D0215431F4A1D4C516820340B074F
:10E000009B0EE552C5788678280230431B1958804C
:10E01000491C516070BD164810B54021203000F0F9
:10E020009CF814490020486010BD904202D3D318D8
:10E03000834204D8824204D34018904201D3012085
:10E0400070470020704730B50B4802680A4B00202B
:10E05000012180330C468440144204D0C506ED0EE5
:10E060000C46AC401C60401C2028F3D330BD00009F
:10E07000B07E0020307D002000E100E030B50B468E
:10E08000014600202022012409E00D46D5409D4292
:10E0900005D31D469540491B254695404019154618
:10E0A000521E002DF1DC30BDF0B51FB40646002035
:10E0B00082B005464024019100901BE00199224660
:10E0C0000F46304600F074F8049A059B801A994177
:10E0D00010D310461946224600F016F8361A8F4122
:10E0E0000197224601200021009F00F00DF838180A
:10E0F0004D4100902046641E0028DFDC019B009803
:10E100002946324607B0F0BD10B5202A04DB01468F
:10E11000203A9140002010BD914020239C1A0346D4
:10E12000E3401943904010BD03460B439B0703D0C7
:10E1300009E008C9121F08C0042AFAD203E00B78CC
:10E140000370401C491C521EF9D27047D2B201E044
:10E150000270401C491EFBD270470022F6E710B542
:10E1600013460A4604461946FFF7F0FF204610BD45
:10E1700030B504460020034600E05B1C934203D206
:10E18000E05CCD5C401BF8D030BD0321001D401E7B
:10E19000037812021A43491EF9D510467047034608
:10E1A00003220870000A491C521EFAD5184670470F
:10E1B00010B5202A04DB0846203AD040002110BDCB
:10E1C0000B46D340D0402024A21A91400843194660
:10E1D00010BD0000064C0125064E05E0E36807CCA3
:10E1E0002B430C3C98471034B442F7D3FBF76CFF39
:10E1F00060E40300A0E40300F8B5040C8BB22646EB
:10E2000082B25E430D0C1046370C58433604801919
:10E210000021794116466E43370C36048019794146
:10E2200026466E438919F8BD30B47446641E2578BD
:10E23000641CAB4200D21D46635D5B00E31830BC3A
:10E24000184702E008C8121F08C1002AFAD1704717
:10E250007047002001E001C1121F002AFBD1704766
:10E2600002000000000000000000000000000000AC
:10E27000982F8A4291443771CFFBC0B5A5DBB5E931
:10E280005BC25639F111F159A4823F92D55E1CABA5
:10E2900098AA07D8015B8312BE853124C37D0C5533
:10E2A000745DBE72FEB1DE80A706DC9B74F19BC17B
:10E2B000C1699BE48647BEEFC69DC10FCCA10C246B
:10E2C0006F2CE92DAA84744ADCA9B05CDA88F9764F
:10E2D00052513E986DC631A8C82703B0C77F59BFB9
:10E2E000F30BE0C64791A7D55163CA0667292914E5
:10E2F000850AB72738211B2EFC6D2C4D130D385382
:10E3000054730A65BB0A6A762EC9C281852C729243
:10E31000A1E8BFA24B661AA8708B4BC2A3516CC771
:10E3200019E892D1240699D685350EF470A06A10AA
:10E3300016C1A419086C371E4C774827B5BCB034F9
:10E34000B30C1C394AAAD84E4FCA9C5BF36F2E6897
:10E35000EE828F746F63A5781478C8840802C78C26
:10E36000FAFFBE90EB6C50A4F7A3F9BEF27871C629
:10E37000020000001A0000005000000051000000E0
:10E38000000000000000000000000000000000008D
:10E39000000000000000000000000000000000007D
:10E3A000500000000000000000000000000000001D
:10E3B000000000000000000000000000000000005D
:10E3C00000000000FFFF0000FFFFFFFFFFFFFFFF57
:10E3D000FFFFFFFF00000000000000000000000041
:10E3E00001000000FFFFFFFF96C298D84539A1F455
:10E3F000A033EB2D817D0377F240A463E5E6BCF802
:10E4000047422CE1F2D1176BF551BF376840B6CBCC
:10E41000CE5E316B5733CE2B169E0F7C4AEBE78EC8
:10E420009B7F1AFEE242E34F512563FCC2CAB9F357
:10E43000849E17A7ADFAE6BCFFFFFFFFFFFFFFFFBB
:10E4400000000000FFFFFFFF00000000E8E3030002
:10E450000000000000000000220021002400000055
:10E46000A0E40300040000202C00000042E20300AE
:10E47000CCE40300007D00203800000042E20300ED
:10E48000CCE4030030000020500F000052E20300F3
:10E4900004E50300387D0020D801000052E20300AB
:10E4A000000000000000000000000000000000006C
:10E4B0000024F4000000000003000000D6BE898E96
:10E4C000000000000000000000000000000000004C
:10E4D000000000000000000000000000000000003C
:10E4E000000000000000000000000000010100002A
:10E4F000000000000000000000000000000000001C
:04E500000000000017
:020000041000EA
:0410140000A0030035
:040000050003A0C193
:00000001FF
