:020000040003F7
:10A00000800F002095AB0300A7AB03000FA1030056
:10A010000000000000000000000000000000000040
:10A02000000000000000000000000000ABAB0300D7
:10A030000000000000000000ADAB0300AFAB030068
:10A04000B1AB030049A30300B1AB0300B1AB030004
:10A05000B1AB030000000000B1AB0300B1AB0300E3
:10A06000B1AB0300B1AB0300B1AB030049A50300E2
:10A07000B1AB0300B1AB0300B1AB0300B1AB030064
:10A08000B1AB0300B1AB0300B1AB0300B1AB030054
:10A0900013A30300B1AB0300B1AB0300C5A50300DC
:10A0A000B1AB0300B1AB03000000000000000000F2
:10A0B00000000000000000000000000000000000A0
:10A0C0000348854603F0DAFF0048004715A1030066
:10A0D000800F0020056885F308884068FF2464B27B
:10A0E000EFF30585002D01D1A6460047254606461B
:10A0F00021273FBAF0B40024002500260027F0B441
:10A10000F92040B20047000072B600BEFEE772B60A
:10A1100000BEFEE71C4B9D681A0501211B48002468
:10A12000002D04D111600568002DFCD004605B692E
:10A13000002B04D191604368002BFCD04460116176
:10A14000C1680029FCD0C46011490868FF221204CC
:10A1500090430122D205104308600E495010086058
:10A1600062B600F0E3FB00E020BF03F067FD0028CB
:10A17000FAD1094DE869002801D100F0A9FAEC6193
:10A1800000F016FC20BFFDE7000400400001004085
:10A1900014E400E000E100E0000500408307FF2236
:10A1A000DB0E9A408907090E994000280BDA000758
:10A1B000000F08388308D4489B001818C3699343DC
:10A1C0000B43C36170478308D0489B001B18186875
:10A1D000904308431860704770B50446807B0028A0
:10A1E00018D002282ED00125C94800F053FEC949D5
:10A1F0002A464A431646314603F094FEC64A607B1F
:10A200005543A26868438919801808180002000A9B
:10A21000606070BDBF49607B0B4683404A429D1819
:10A22000401C81408818401B0602360AB84800F0DE
:10A2300031FE7608314603F075FE8819A168491988
:10A240004018E3E70A25CFE71CB5022069464871AC
:10A25000684600F00DFF002804D1002211460420BA
:10A26000FFF752FF0021684601712521817101F03D
:10A27000BEF8002802D0684600F042FF1CBD10B5B1
:10A2800000F03EFF10BD1FB5002906D0A04869466A
:10A29000983800F059FE002803D0009800F030FFF5
:10A2A0001FBD01209D49000508601FBD9C48007826
:10A2B000002800D0C8E77047F0B59A4841689A4B2B
:10A2C000481E0002000A0446002215015E59002EB5
:10A2D0000BD0ED186D68471A6E1A36023F02360A27
:10A2E0003F0ABE4201D22802000A521C082AECD3BF
:10A2F000012212048D4B844209D05A608C4B0022FB
:10A300001A60884A4032106085488160F0BD9A60CA
:10A31000F0BD38B5824C0FE0009800F018FF01281E
:10A3200004D0002211461046FFF7EEFE6168009847
:10A330008847009800F0E4FE7B486946803000F0D2
:10A340002FFE0028E8D038BD10B501F078F810BD18
:10A350000120704710B5724900240C7048604C8091
:10A360008021714803F04DFE69498039084618384C
:10A3700001600421416020214461816000F0D6FD2C
:10A3800000F06EFE624800F0B0FD002803D000220D
:10A390001146FFF7B9FE02211420FFF7FFFE01204E
:10A3A00064490005086000210120FFF7F7FE624ABA
:10A3B0006249634800F0C7FF10BD59480178002981
:10A3C00002D1012101703FE77047F8B51D00164624
:10A3D000074601D10C2E03D8002F01D0082901D344
:10A3E0000020F8BDEFF31080C007C00F72B60090D8
:10A3F00008014D4944182068002801D000F080FE73
:10A40000384600F05AFE27602673002060734548E6
:10A410004068A060A5732046FFF7DEFEFFF74CFF03
:10A420000098002800D162B60120F8BD70B5012562
:10A430003A49ED0280390D6008280CD23A490001F2
:10A440004418206800F05CFE002020606060A0607E
:10A45000E060FFF731FF3748056070BDFEB5314859
:10A4600047680025BF1C304B2E019859002841D069
:10A470002B4AF41861689268791ABA1A0902120212
:10A48000090A120A914235D8002269464A710090A1
:10A490000A71E07B032811D225208871084600F05C
:10A4A000A6FF002803D12048805900F006FE694627
:10A4B0008879401CC0B288712728EFD90020E0734A
:10A4C000607B194A411CC9B26173FF2805D11D4B3D
:10A4D000A068C0180002000AA060207B81420FD350
:10A4E000FF280DD0905900F00BFE00202060606026
:10A4F000A060E0606D1C082DB5D3FFF7DDFEFEBD4A
:10A500002046FFF769FEF5E700ED00E000E400E01B
:10A5100048010020CD0C00009A19000000E200E084
:10A520000400002000B500403000002000B30040CF
:10A5300040B1004000E100E07FA2030087A20300D9
:10A54000ADA20300009A190070B5184D28680026C6
:10A55000174C002805D06068C00302D52E60FFF7B5
:10A560007DFF6868002808D06068800305D56E60AC
:10A5700001204004A06000F060FA70BD0D49002089
:10A58000886003200A490004403148600A490120DC
:10A5900088600860094801680902090AC206114377
:10A5A00001600749D01408607047000040B10040C6
:10A5B00000B3004000B5004000B0004008E400E0F7
:10A5C00000E100E030B5002401258BB06D0748E0C4
:10A5D00068460078641C0128019806D00299A842B8
:10A5E00035D3FF2203F006FD33E0800704D00022BC
:10A5F00011461046FFF788FD0398800704D000221B
:10A6000011461046FFF780FD0298800704D0002213
:10A6100011461046FFF778FD0198A8420DD3014678
:10A62000002006E0029B0A781B5C401C1A400A705E
:10A63000491C039A8242F5D804E00023039A029948
:10A6400000F0FCFD602069460874029805E000F007
:10A65000CBFD6120694608740198059004A800F0BC
:10A6600097FF6946FE4800F09BFC0028B0D0002C04
:10A6700005D062206946087404A800F089FFF848F4
:10A6800000F0E5FCF7490978084205D0122001F0F6
:10A6900028FA006800F066FF0BB030BD00B587B047
:10A6A00000F075FD002811D04179027909021143AB
:10A6B000ED4A91420AD902216A461170011D0191A9
:10A6C0000078C01E0290684600F062FF07B000BD2F
:10A6D0007FB50546122001F004FA0446062D09D084
:10A6E00004DC002D06D0012D41D103E0082D39D026
:10A6F0000A2D3CD1002C31D002F08AFE00282DD04A
:10A70000D74800F0A4FC0122002828D0D7480068D0
:10A71000D64B0021803315468D40054204D0CE062D
:10A72000F60E1546B5401D60491C2029F3D3D049CB
:10A730006D460FC90FC5684618DF002803D00022F8
:10A740001146FFF7E1FC206813DF002803D0002248
:10A750001146FFF7D9FC206800F004FF7FBDC14817
:10A7600002707FBD002211461046FFF7CDFC72B685
:10A77000FEE770B50446007886B025287AD00EDC56
:10A78000222878D006DC022878D020281CD0212866
:10A7900017D15AE0232870D0242812D196E0002245
:10A7A000612849D009DCB34DB34E0121502870D047
:10A7B00051286FD0602804D10CE0622838D070286E
:10A7C0003AD0062006B070BD2079FFF781FF02F075
:10A7D000CDFCA9E06846009200F04AFC002870D049
:10A7E000009800F0C1FC0098017809090901891C52
:10A7F0000170217A0A31417016218172E421C172FF
:10A80000FE210173217AC91C41720D30A268616872
:10A8100003F0DEFB237B627BA17B0098FFF7D5FD75
:10A820000446009800F06CFC002C7DD10320C9E7A1
:10A830002079FFF7FBFD77E0A068904A410CC00348
:10A84000002303F085FB022142E000F046F9844832
:10A850002021183801700021C9430161617901711B
:10A860000A22A11D401D03F0B3FB7D48183800F0FB
:10A870008FFEA7E72FE00EE000E023E0207902281A
:10A8800052D102F0C5FD00284ED1022003F0A9F9F3
:10A890004AE044E028E02079022845D100F01DF983
:10A8A0002121684601700A22E11D401D03F090FB42
:10A8B000A1796846017160690490684600F068FEFD
:10A8C00032E02AE001210520C00301E00121C80394
:10A8D00000F0F1F828E06079042801D0012823D1A4
:10A8E0000020FFF7F5FE1FE02079800702D1207AD3
:10A8F000800701D0102065E7207B800701D0092068
:10A9000060E768460170241D07CC01AB07C36946A8
:10A91000534800F019FB002805D0042052E702201C
:10A9200069460870EFE7356000204BE770B588B0E6
:10A93000FFF724FE18214A4803F063FB48494848C2
:10A9400018310160082510218560416000F0EEFAA1
:10A950004B48016803220902090A9207114301606A
:10A96000424928050126086000F0BDFE0024684623
:10A9700004710672434803906846067445748474F3
:10A9800001A800F005FE002803D000221146FFF7C1
:10A99000BBFB3D493D48FFF7DDFC684603F002F98B
:10A9A00068460078002801D03948C46108B070BDFD
:10A9B00030B589B001206946087303A800F0E8FDAE
:10A9C000FFF7FBFC02F024FD002806D00520032140
:10A9D000000400F070F809B030BD022003F001F966
:10A9E0000028F8D002F0EDFC0500F4D003F0F9F8EF
:10A9F0000528F0D1022001F074F8040004D10022EF
:10AA000011461046FFF780FB012D0DD0042D0FD00D
:10AA1000002211460B20FFF777FB0022D243694644
:10AA2000284602F0B3FBD6E7208869460880F4E7A1
:10AA3000241D07CC6B4607C3EFE730B5094C002552
:10AA4000607887B001282ED0022827D003282ED086
:10AA5000002211460820FFF757FB6570684619E091
:10AA60007001002010000020EFFF000000E100E076
:10AA700008E103000000800000E200E040420F0017
:10AA800014E400E073A70300D6BE898E9DA60300E0
:10AA90000005004000F07CFD07B030BD0321684692
:10AAA00001700571D9E7232069460870D5E70020B9
:10AAB000FFF70EFEF0E70D4B00225A600C4A526879
:10AAC000101800020A4A000A403250600120094A68
:10AAD0004004506008484170704701200549400417
:10AAE00088600549002048707047000040B1004070
:10AAF00000B5004000B300401000002010B500F089
:10AB00001DF8002805D01F491D484860C8131E497C
:10AB100088611E48018CC9B201290ED1818C0907B8
:10AB20000BD1018D0906090F042906D1808D00067D
:10AB3000000F02D116490120886010BD1348018C16
:10AB4000C9B2012917D1818C090714D1018D0906D9
:10AB50000A0F03D1828D1206120F0ED0090F0129A0
:10AB600003D1828D1206120F07D0032903D1808DE5
:10AB70000006000F01D00020704701207047000040
:10AB8000DFFF07C000050040006C0040C00F00F070
:10AB9000000600400748026803210A430260064895
:10ABA000804706480047FEE7FEE7FEE7FEE7FEE7D0
:10ABB000FEE7000024050040FDAA0300C1A0030039
:10ABC000F3B50025CDB004462E464E988719384679
:10ABD00003F02FFA00BA010AF87809020143AA002B
:10ABE0000CA86D1C361D8150102DEED321E0A8005D
:10ABF0000CA94318803B996F844611220846D04126
:10AC000013220E46D6417040890A4840596C0727E6
:10AC10000E46F94132461227FA414A40F1084A40AD
:10AC200080181A6C596E8918421860460CA90A508F
:10AC30006D1C402DDBD3206D0B90616D0A91A76DCB
:10AC40000997E26D06920092226E0892636E079356
:10AC50009E46A36E05930193E36E04930293002333
:10AC60009C4606261346F3410B261546F5416B40DC
:10AC700019261546F5416B40019E754615409643D1
:10AC80006E409E1963469B00794D0393ED58029BDD
:10AC9000EB18F618039B0CADEB580546F31803931D
:10ACA00002260346F3410D26F5415D401626034674
:10ACB000F3415D400B467B400E4603403E407340EF
:10ACC000ED18019B029373469646009A0193039BED
:10ACD00000970F460146D218581963465B1C9C46E4
:10ACE000402BBED30B9B181820650A98401860654E
:10ACF0000998C019A065009906984018E065089861
:10AD0000801820660798704460660199059840187D
:10AD1000A066029904984018E0664FB0F0BD002884
:10AD200015D0002101648164C16452490165524912
:10AD30004165524981655249C1655249016652498E
:10AD40004166524981665249C166002070470E2013
:10AD50007047F8B516460F46040005D0002E1ED0E9
:10AD6000002F01D0002518E00E20F8BD216C785D81
:10AD70006054206C401C206440280DD121460846B8
:10AD8000FFF71EFF0123A16C5B020022E06CC918D3
:10AD900022645041A164E0646D1CB542E6D30020FA
:10ADA000F8BD70B50D46040008D0002D06D0206C0B
:10ADB000802200213828225403D307E00E2070BDE2
:10ADC0002154401C3828FBD30BE02154401C402860
:10ADD000FBD321460846FFF7F3FE3821204603F057
:10ADE00010F9226CA36C510FD200E06C9A18484104
:10ADF0002146A2640606130A2031E0643343CA7771
:10AE00008B770604130C33434B770302100E184361
:10AE10000877E06CC876020A8A76020C4A76000E41
:10AE2000087621460846FFF7CBFE00211823C8000C
:10AE3000226D181AC2406A54666DC6406A181671AF
:10AE4000A66DC6401672E66DC6401673266EC640E5
:10AE50001674666EC6401675A66EC6401676E66E09
:10AE6000C640491C16770429E1D3002070BD0000BC
:10AE700018E1030067E6096A85AE67BB72F36E3CB2
:10AE80003AF54FA57F520E518C68059BABD9831FB5
:10AE900019CDE05B30B5416805240A460368E241FC
:10AEA0009A1A83680F251C46EC4161400160C46812
:10AEB0001B194360A31889188360C160084630BD20
:10AEC000F0B5164C01232360154A0026154F07E004
:10AED0001568002DFCD0BD68491E89B24554166026
:10AEE0000029F5D163600020F0BD38B5044600208C
:10AEF000009004216846FFF7E3FF00280DD10A48BF
:10AF0000206000986060A0600025E0602046FFF7A8
:10AF1000C1FF6D1C142DF9D3002038BD00D00040B6
:10AF200000D1004000D50040ED5EEAF182682021AA
:10AF30001346491ECB40DB07FAD001228A4000218C
:10AF4000C16082600161704770B5044600290DD070
:10AF5000EFF31080C507ED0F72B6A2682069831861
:10AF6000E068834207D1002D02D002E00E2070BDC0
:10AF700062B6042070BD521E1040626823685043C0
:10AF8000C0186369002B01D0984701E003F020F856
:10AF9000E068401CE060002D00D162B6002070BD6A
:10AFA00070B50B460446EFF31080C507ED0F72B67F
:10AFB000E1682069884204D1002D00D162B60E20DC
:10AFC00070BD002B0ED0A1686268491E0840216840
:10AFD0005043411866691846002E01D0B04701E081
:10AFE00002F0F6FF2069401C2061002D00D162B6FE
:10AFF000002070BD70B50B000CD0EFF31081CC07B2
:10B00000E40F72B6C56801696D1A954204D8002C28
:10B0100000D162B60E2070BD891882680568521E84
:10B02000114042685143491945691846002D01D025
:10B03000A84701E002F0CCFF002C00D162B600204E
:10B0400070BD0022D6E7C1680069081A704701691F
:10B05000C068814201D10120704700207047000084
:10B0600000205D4902460A54401C2028FBD370474B
:10B0700010B5594B0021EFF31082D207D20F72B6F0
:10B080005C5C002C02D0002A0CD00CE001245C5443
:10B0900028235943514BC9180160002A00D162B6D8
:10B0A000012010BD62B6491C2029E4D300221146BC
:10B0B0000420FFF729F8002010BD70B54749401A59
:10B0C000282102F02FFF0446202801D3002070BD64
:10B0D000EFF31080C607F60F72B63F4D285D0028CB
:10B0E00001D0FF2804D1002211460420FFF70CF8FC
:10B0F000285D401C2855002E00D162B6012070BD8D
:10B10000364910B5401A282102F00CFF20281CD225
:10B11000EFF31081CC07E40F72B62F490A5C002AC6
:10B1200005D0521ED2B20A54002C09D009E00022E8
:10B1300011460820FEF7E8FF002C06D162B604E0B5
:10B1400062B6002A01D0012010BD002010BD2349A5
:10B1500010B5401A282102F0E5FE202801D3002076
:10B1600010BD1D49085C10BD10B5044606221C49DF
:10B17000C01C02F02DFF1A482438006ABF22C00705
:10B18000410E2078104008432070002010BD70B59B
:10B1900001000ED008464A780930062A09D9252A26
:10B1A00007D80DE00378451A093D5E19951FAE4298
:10B1B00001D9002070BD5D01EB1A18181F3000E0A6
:10B1C000084C4378162BEDD1C37885781B022B43AE
:10B1D000A342E7D170BD000008070020080200204C
:10B1E000A4000010E4FE0000F8B501240546240781
:10B1F00020690A4681B2206980B28018401E02F0A0
:10B2000091FEC3B2002224482449164613E00227C7
:10B2100047600F68002FFCD085600F68002FFCD0BE
:10B2200046600F68002FFCD027693F04BF0CBF00A9
:10B230007D19521CD2B29A42E9D3F8BDF0B5002470
:10B240009B089B001B182546204622E00F78491CCE
:10B25000FE432E43F5B2124E3755641CE4B2042C63
:10B2600016D10024002D11D00B4D01276F600B4D1E
:10B270002F68002FFCD036681E602E68002EFCD090
:10B28000054E002777602E68002EFCD000251B1D80
:10B29000401C9042DAD3F0BD00E5014000E40140DB
:10B2A000180000209D49002008609D49401E8860CC
:10B2B0009C49012008619C49022008707047FEB536
:10B2C000964A13211160827998490A2A02D85300BC
:10B2D0001B1D0EE0242A02D853009B1D09E0944D4B
:10B2E0006E4638CD38C693006C461B19FF3B013BB8
:10B2F000DB6E8B6052068D4B520E40335A610268F2
:10B300004A60874B08225A608A4A0026D660864ADD
:10B310005468230E8B6223020B624779814D01230F
:10B32000002F05D08448844209D00320086307E039
:10B330000479CC62C079C8602B601370FEBD0B63CA
:10B340006B601670FEBDF7B57C480025C563012112
:10B35000C1637648C5600322026102278760734A91
:10B360002523403253618E234362754BC3616E4C7B
:10B3700063681E0E86621B020362C5620163714927
:10B3800041617149816171498163FF2104314163E8
:10B390006F49C163942050602078032809D16D481B
:10B3A0000821024681601832456102604160FFF762
:10B3B000BDFD604827703E46C56067480760674826
:10B3C00007600098A0600198E060029820616148E1
:10B3D000FFF73DFE002802D0A0688047FEBDFEF7C3
:10B3E000B7FF0028FAD05C4880380660FEBD10B573
:10B3F000002803D04179002902D006E00E2010BDBC
:10B400000179012901D9102010BD01465148FFF7EB
:10B410009BFD002801D0042010BDEFF31080C4076D
:10B42000E40F72B6FEF794FF002803D04A490220C9
:10B4300080390860002C00D162B6002010BDF0B544
:10B440003C4D85B0E8680027374C00282ED0444892
:10B450000168002900D001210191C0680090E869CD
:10B460006426002804D0EF61304840308068C6B2BE
:10B47000EF6002A93748FFF793FD002803D00022B0
:10B480001146FEF741FE6846407B012807D002289E
:10B4900005D0216902988847022020702FE0E568D6
:10B4A0003346009A01990298A847F5E72948FFF723
:10B4B000CAFD06461CE069462648FFF7C2FD002883
:10B4C00018D168464079022814D100212148FFF79D
:10B4D00067FDFFF7E7FE1548403001690029FCD100
:10B4E0000020E8606423E7684A1E0098B847761E8B
:10B4F000012EE0D82078022801D0032807D1694620
:10B500001448FFF79EFD002803D0A068804705B0CF
:10B51000F0BD6846FFF7D3FEF9E7000000120040D7
:10B5200000130040001000401C00002000150040E7
:10B5300018E2030000110040D6BE898EC01F0040F3
:10B5400000D6BE8906010200250003025B0600004A
:10B55000555555002807002080E200E000E100E09A
:10B560000014004010B5FEF7B5FD10BD82494968D2
:10B57000002900D00847082070478AB001236C4694
:10B58000237001AB07C36846FFF7F0FF72B6FEE712
:10B5900030B504460078FF25AD0289B023286FD06E
:10B5A00013DC7549042851D008DC002822D001287A
:10B5B0003FD0022840D0032817D144E0202850D0A3
:10B5C000212854D0222810D157E0322872D006DC2E
:10B5D000242858D030285AD0312806D15FE060287E
:10B5E0006CD0612872D0622875D0002211460620E6
:10B5F000FFF7C3FFA0684860A07B00280AD00020A6
:10B600000870207B002802D0607B022804D207202B
:10B6100009B030BD0120F3E77F21C902284600F0C0
:10B620001CFA002801D00320F2E7607B01F08AFDBC
:10B6300057E001F09BFD54E02089012281B260684F
:10B6400001F0D3FDE4E701F098FE4AE000206A46ED
:10B650001070241D1DCC01AD1DC549686846884782
:10B66000D6E72079611D226901F090FDD0E72079AD
:10B67000611D226901F09FFDCAE70620C8E7FFE7C8
:10B6800001F0E2FE2DE0207902F0ABFAC0E7A088DD
:10B6900000F027FAA060002823D10520B8E7A08891
:10B6A000E268A16800F038FAA8421AD21020AFE789
:10B6B00000E003E0A08800F0B5FA12E0606802F054
:10B6C00030F90120616803E000E004E002206168D5
:10B6D00000F0B7FA05E000F0E0FA02F0A4FA01F099
:10B6E000B7FE002094E701200007816B406B4143C7
:10B6F00022480818224901601F49012008700020D3
:10B70000704700B589B0202269460A700871684602
:10B71000FFF72CFF09B000BD70B58AB016460D4684
:10B72000044624221749684602F052FC01A970C160
:10B730006846FFF71BFF0AB070BD30B50D461149D2
:10B7400089B0044624222431684602F041FC684650
:10B7500002950194FFF70AFF5AE700B589B062220B
:10B7600069460A7008716846FFF700FFD2E7024891
:10B770000121007848407047007D0020FCFFFF1F3A
:10B7800091B5030024E20300F0B503460078FF28DA
:10B7900015D0C0180125AD025B190024012642888E
:10B7A000FA4D76020EE00788BF003818984206D896
:10B7B000AA4201D18A4202D1641CB44201D90020BC
:10B7C000F0BD42888A42EED1001DF0BDF8B5F04CC4
:10B7D00005462069854204D0002211461020FFF75B
:10B7E000CCFEEFF31080C207D20F72B62069E94990
:10B7F0000088884204D1E3681888401C188004E05F
:10B80000E0682E8803889B1903802888E24B80001B
:10B8100040191D46803D2061984200D12561206974
:10B82000DA4F4688BE4207D106888E4204D1001DF9
:10B830002061984200D12561002A00D162B6F8BD8E
:10B840000188D54A89000918D1489142C16002D1C6
:10B8500011468039C1600269914209D0501A8003B3
:10B86000000C08808A4201D22030088000204880E5
:10B870007047F8B50146EFF31080C607F60F72B6B1
:10B88000C34FFD68288883008B4202D36888002854
:10B8900004D0002E00D162B60020F8BDBE4C8A0351
:10B8A0003869120C803C854204D1FC603C610EE09A
:10B8B00062B614E0601B8030814212D91B1A8B42A1
:10B8C000E7D3B24980036980000C2880FC602280A5
:10B8D000002060802046FFF7B3FF002EE8D020460E
:10B8E000F8BD2A802846FFF7ABFF002E00D162B6D4
:10B8F0002846F8BD10B5A84C022020700422A1688B
:10B900006068FFF709FF002801D00120207610BDF4
:10B9100070B50126A04CB60227E048889D4A9042A7
:10B9200028D000281CD009888D005110884200D1F1
:10B9300004252069616840198919884204D90022C8
:10B9400011460320FFF719FE2A46E1682069FFF738
:10B95000E3FE002812D1E06860612069401920618F
:10B96000E068018889000818E060A068E168801933
:10B970008142D2D3012020760420207070BD70B5A2
:10B98000854C2278002A01D0082070BDA16060603B
:10B99000012121707E4901254978002904D1A9029D
:10B9A000FFF7CBFE002800D02576002070BD70B5D3
:10B9B000774A0C4612780546012A04D00022114627
:10B9C0001046FFF7DAFD21462846FFF7DDFE00F0BE
:10B9D00090F9002802D000F07DF970BD052070BDFF
:10B9E000FFB581B0DB1C0A9E9D08AD00B700781939
:10B9F000001DFFF73EFF04002DD0002E07D0661972
:10BA0000FF220821304602F0F5FA6048F080072155
:10BA1000A80389034018000C2080029860802A4601
:10BA2000201D039902F0D4FAED1DA8088000C21968
:10BA3000154621460198FFF76FFE002808D02A46D8
:10BA400021460198FFF768FE00221146FFF795FD99
:10BA5000002005B0F0BD0420FBE770B54C4C00227F
:10BA6000227002460A43920501D0102070BDA160E9
:10BA7000494960608039E160202221610A8000F03C
:10BA800046F96061002826D1A06800F040F9050061
:10BA900025D00126B60231466068FFF74EFE002829
:10BAA00007D031466068FFF748FE00221146FFF7D5
:10BAB00064FDA16860686A1A121DFFF72DFE002858
:10BAC00009D0A16860686A1A121DFFF725FE0022DE
:10BAD0001146FFF752FD01202070002070BD0B20A1
:10BAE00070BD0146FF2080024EE610B5284C20783C
:10BAF000012804D0002211461046FFF73EFD042025
:10BB000020706168081D6061A068FFF738FF002899
:10BB100001D10321217010BDF7B51D4C82B02078F2
:10BB20001746012804D0002211461046FFF725FDD4
:10BB3000542F04D9002211461046FFF71EFD207D28
:10BB4000800704D0002211461046FFF716FDFF21A2
:10BB500060698902884204D8002211461046FFF726
:10BB60000CFD0298FFF7BDFF00F0C3F865690646BB
:10BB7000002D13D001216268E8198902511808309C
:10BB800088420FD300221146082026E0FF7F0000E4
:10BB9000087D0020FFFF0000B87D00200022114634
:10BBA0000E201AE00120607000903B462846039A60
:10BBB0000299FFF715FF00280CD1FF1DB808616935
:10BBC000800040186061002E0BD0304600F082F8F3
:10BBD000002806D0002211460420FFF7CEFC0020EA
:10BBE00037E701216268606989025118583088423C
:10BBF00001D3FFF77AFF281D2BE738B50C46054621
:10BC0000FFF76FFF00F075F8002809D00188224681
:10BC10008B000021009129461B1FFFF7E1FE38BD74
:10BC2000052038BD0146FF208002C0E65248017859
:10BC3000012902D14078002801D00020704701205E
:10BC4000704770B505460C46012808D14B48844220
:10BC500005D38030844202D20846FFF7B7FD214663
:10BC6000284600F05DF845488030007800280BD168
:10BC7000414C2078032808D0052805D1606800F0E1
:10BC800046F860610120207070BDA1686068FFF710
:10BC900076FE0028F8D10520F5E710B5364A0021D8
:10BCA00051703648D0601061418080300278002A9F
:10BCB00009D0037E002B06D00176012A04D0022A87
:10BCC00001D1FFF717FE10BD012140688902FFF77F
:10BCD00034FD10BD10B50446800704D00022114683
:10BCE0001020FFF74AFC042225492046FFF714FDE7
:10BCF00010BD002803D001218904884201D1002011
:10BD000070471D49496849788900401A704710B545
:10BD10001C49FFF739FD002801D0FFF7EAFF10BDED
:10BD2000164A10B58032147813465B68012C0DD08A
:10BD3000022C12D0032C1BD0042C06D1012804D1D4
:10BD40005069884201D10020107010BD0228FCD13A
:10BD50008B42FAD1FFF7CEFD10BD0128FCD19068CF
:10BD60008842F9D1032111701B1D001D1361D060A1
:10BD7000FFF7CEFD10BD0000087D0020387D0020BB
:10BD80006CE20300FF7F0000491E03D48B00C25801
:10BD9000002AF9D0491C05D08A0010188038C06FDD
:10BDA000002203E0002070474008521C0028FBD10D
:10BDB000480120388018704710B5072294000359B5
:10BDC0000C59A34201D9012010BDA34202D2002088
:10BDD000C04310BD521EF1D5002010BDF0B506467F
:10BDE000002003469C000D591759EF193F18BD421A
:10BDF00004D0BD4201D9012000E000205B1C375176
:10BE0000082BEFD3F0BDF0B50646002003469C009A
:10BE10000D591759EF1B3F1ABD4204D0BD4201D244
:10BE2000012000E000205B1C3751082BEFD3F0BD50
:10BE3000F8B51D46174602F033F93B682A681C180E
:10BE40004A41069B16461B68201A8E4101D20120EA
:10BE500000E000201918069801602A603C60F8BDD7
:10BE6000F7B50646002084B01746039001900446BB
:10BE70000546029001E000250DE002A80090601B3D
:10BE8000800039580598AA00805801AB03AAFFF733
:10BE9000CFFF00206D1CA542EFD9A2000399B1503D
:10BEA000019903910299641C01910290082CE2D33C
:10BEB0000824012501E0E51F0DE002A80090601BA9
:10BEC000800039580598AA00805801AB03AAFFF7F3
:10BED000AFFF00206D1C082DEFD3A2000399B150D5
:10BEE000019903910299641C019102900F2CE2D3F5
:10BEF0000398F06307B0F0BDF0B589B00C46064674
:10BF000000F0D3FB0025029501950095E06A0390AF
:10BF1000206B0490606B0590A06B0690E06B6A4606
:10BF2000114607900846FFF759FF074631466A4613
:10BF30000846FFF753FFC719206B0390606B04900E
:10BF4000A06B0590E06B6A4611460690079508467F
:10BF5000FFF744FFC71931466A460846FFF73EFF20
:10BF6000C719206A0090606A0190A06A059504953F
:10BF700003950290A06B0690E06B314607906A46ED
:10BF80000846FFF72BFFC719606A0090A06A01906E
:10BF9000E06A0290606B0390A06B0490E06B0590E8
:10BFA000606B0690206A314607906A460846FFF7A4
:10BFB00015FFC719E06A0090206B0190606B059532
:10BFC000049503950290206A0690A06A3146079076
:10BFD0006A460846FFF717FF3F1A206B0090606B18
:10BFE0000190A06B0290E06B059504950390606A48
:10BFF0000690E06A314607906A460846FFF703FF5D
:10C000003F1A606B0090A06B0190E06B0290206A79
:10C010000390606A0490A06A06950590206B3146F3
:10C0200007906A460846FFF7EEFE3F1AA06B0090A5
:10C03000E06B02950190606A0390A06A0490E06A48
:10C0400006950590606B314607906A460846FFF7F3
:10C05000DAFE3C1A0ED53146FB4A0846FFF7BEFE13
:10C060000419F8D409B0F0BD3146F74A0846FFF785
:10C07000CAFE241A002CF7D13146F348FFF79CFE84
:10C080000128F1D1EEE7F0B50646A1B015460C4601
:10C09000084600F0F5FA002804D0304600F0E8FA2F
:10C0A00021B0F0BD2146684600F0FFFA294608A8F5
:10C0B00000F0FBFA10A800F0DBFA0120109018A89D
:10C0C00000F0D6FA0124E40768E00099C9072ED0F1
:10C0D0000899C90731D0002837DD694608AA084603
:10C0E000FFF791FE684600F0E9FA18A910A8FFF7DB
:10C0F00063FE002804DA10A92A460846FFF76EFE00
:10C1000010A918AA0846FFF77EFE1098C00712D0A3
:10C1100010A92A460846FFF761FE074610A800F05E
:10C12000CDFA002F3AD017982043179036E0684692
:10C1300000F0C4FAE9E710A804E008A800F0BEFA8D
:10C140001BE018A800F0BAFA28E008A96A460846D9
:10C15000FFF759FE08A800F0B1FA10A918A8FFF7D8
:10C160002BFE002804DA18A92A460846FFF736FEF7
:10C1700018A910AA0846FFF746FE1898C007E0D095
:10C1800018A92A460846FFF729FE074618A800F016
:10C1900095FA002F02D01F9820431F9008A96846E7
:10C1A000FFF70AFE002890D110A9304600F07DFA72
:10C1B00076E7F0B5044691B00E461546104600F0FD
:10C1C0005FFA00287ED132461146684600F0A5FA93
:10C1D0006A46214608A800F0A0FA6A4611460846B9
:10C1E00000F09BFA31462A46084600F096FA2A46A5
:10C1F0001146084600F091FA2146934B2A4608461C
:10C2000000F06BFA2A4611468F4B084600F065FA9B
:10C210002A468D4B2146104600F072FA21462A46E6
:10C22000084600F07AFA2246874B1146284600F06D
:10C2300054FA2146844B2A46084600F04EFA002163
:10C24000204600F029FA00280DD021467E4A0846F3
:10C25000FFF7C4FD0746204600F030FAE069F90711
:10C260000843E06102E0204600F028FA2246114629
:10C27000284600F052FA2946734B08AA084600F0F7
:10C280003FFA2946704B08AA084600F039FA08A977
:10C290006D4B2A46084600F033FA214608AA0846A4
:10C2A00000F03BFA6A46684B2146104600F028FA37
:10C2B0002946204600F0F9F93146284600F0F5F904
:10C2C000694600E002E0304600F0EFF911B0F0BD41
:10C2D00070B588B00E46044615461146684600F013
:10C2E0001CFA21466A46084600F017FA69462A46B3
:10C2F000084600F012FA31466A46084600F00DFA88
:10C3000008B070BDF0B5174689B01E460C4605460C
:10C3100002464D4B3946684600F0F2F96A4611462E
:10C32000084600F0FAF929466A46084600F0F5F991
:10C3300039466A46084600F0F0F93146424B22463B
:10C34000084600F0DDF932461146684600F0E5F98E
:10C3500069463D4B2A46084600F0D2F969463A4BF9
:10C360003A46084600F0CCF93946374B2A4608468B
:10C3700000F0C6F921463A46084600F0CEF9324BA5
:10C380006A462946384600F0BBF931463A46084627
:10C3900000F0C3F931462C4B2246084600F0B0F9B4
:10C3A0006946384600F081F95CE6F7B5B4B023A8D9
:10C3B000109013A81190FFF753FD234908A860318E
:10C3C000129000F072F9684600F052F9012400253D
:10C3D0000120001B810010A841586E468E46A10026
:10C3E00040588446002001468B006746FA58F758AB
:10C3F000D71B3F1ABA4204D0BA4201D2012000E052
:10C4000000207246491CD7501029EDD3844201D137
:10C41000012400E00024304600F050F90899079804
:10C42000C90708430790129800F048F9FF2001302F
:10C430006D1C8542CCDDA10010A84158349800F055
:10C4400034F937B0F0BD000070E20300F0B5F5B08C
:10C450000F46002406460146154617943CA81F9433
:10C4600000F067F9314644A82031064600F061F932
:10C47000294610A800F05DF92946203118A800F0DF
:10C4800058F910A800F0FCF800287DD118A800F099
:10C49000F7F80028F9D110A9B148FFF78DFC012861
:10C4A000F3D118A9AE48FFF787FC0128EDD1AC4ABB
:10C4B00018A96846FFF7E7FD394608A80F9400F071
:10C4C00038F908A96A460846FFF76FFF6A4610A9BF
:10C4D0005CA8FFF76AFF3CA924A800F0E6F82CA8A6
:10C4E0003146044600F0E1F89D494CA8403900F07F
:10C4F000DCF89B4954A8203900F0D7F8984B4CAA97
:10C50000603B24A9684600F0FBF8234624AA54A9FE
:10C510004CA8FFF7F7FE924A6946603A0846FFF7D3
:10C52000B2FD6A46214624A8FFF7D2FE8C4920318D
:10C5300003C920903CA8229024A82191239008218F
:10C5400008A8FFF721FC044608215CA8FFF71CFCA3
:10C55000844200DD20460446411E08A800F09CF8F5
:10C56000002801D0012500E00025611E5CA800F034
:10C5700093F8002800D0012040000543A80020AE19
:10C58000355834A8294600E06DE000F08EF82946C1
:10C59000203164A800F089F8684600F069F80120AD
:10C5A0000090A41E3CD46A4664A934A8FFF701FE9B
:10C5B000214608A800F070F8002801D0012500E00D
:10C5C000002521465CA800F067F8002800D0012073
:10C5D00040000543A8003558002D1FD029464CA81F
:10C5E00000F063F82946203154A800F05EF86A464E
:10C5F00054A94CA8FFF76CFE594B4CAA603B34A9D8
:10C600006CA800F07DF864AB34AA54A94CA8FFF7DD
:10C6100079FE69466CAA084600F07FF8641EC2D510
:10C620004F4A6946603A0846FFF72DFD6A4664A9FD
:10C6300034A8FFF74DFE34A94948FFF7BDFB012898
:10C6400004D034A9464A0846FFF7DDFB002034AC8D
:10C6500010AB07218A00A5589A5855402843491E17
:10C66000F8D5002802D0002075B0EBE60120FBE7EA
:10C6700000210A468B00491CC2500829FAD3704792
:10C6800000218A008258002A01D000207047491CEE
:10C690000829F6D3012070474A1192008058CA0633
:10C6A000D20E012191400840704710B5002293003E
:10C6B000CC58521CC450082AF9D310BD10B5002222
:10C6C0000146203104E00B685C081443DA070C6073
:10C6D0000B46091F8342F6D810BD70B51C460546AF
:10C6E000FFF77CFB002805D121462846FFF764FBB5
:10C6F000002804DB294622460846FFF784FB70BD6C
:10C7000070B51C460546FFF77EFB002804D029467D
:10C7100022460846FFF762FB70BD10B590B0044694
:10C720006846FFF79DFB69462046FFF7E5FB10B022
:10C7300010BDF8B50E46074600240720001B8000F8
:10C740008519284601F075FC00BA000AE978000254
:10C750000843A100641C7850082CEED3F8BD0000FB
:10C76000D0E2030010B50420FFF7BBF9F94C2061BB
:10C770000220FFF7B6F920601220FFF7B2F9E0605F
:10C780001120FFF7AEF9A0601020FFF7AAF9606052
:10C790000120FFF7A6F96061FF2021698002814234
:10C7A0000BD32168814208D3E168814205D36168D7
:10C7B000814202D3A168814202D20820FEF7A1FF84
:10C7C00010BD70B50546083001F033FC0446401C2E
:10C7D00000D1002428460C3001F02BFC21078000FA
:10C7E000090F4018697C401E00092A7C0902401C80
:10C7F000114301D009090818D749884200D90846D1
:10C8000070BD30B589B060246D462C7002910190E6
:10C810002A73D24C6B736078A8736846FEF7A6FE45
:10C820006078401CC0B26070E178884201D301207A
:10C83000607009B030BD30B5C64DA7B0686900283A
:10C840003BD02C46743CE069002837D002A8FEF7A4
:10C8500066FA0122611D02A8FEF77BFA2146042236
:10C86000103102A8FEF775FA21460422183102A8F9
:10C87000FEF76FFA002069460870012202A8FEF751
:10C8800068FA607921466631012819D0022817D04C
:10C89000042803D10A2202A8FEF75BFA02A801F0DD
:10C8A00029F81EA902A8FEF77CFAAA4A1EA9543A42
:10C8B0006869FFF7CBFD002800D0012027B030BD0C
:10C8C0000222E8E7F0B591B005461821684601F06C
:10C8D00098FBFF200F9002260024681E022827D80C
:10C8E000E01E6A4610809B49D07874390F79C008E1
:10C8F0007A07C000520F1043F72210400A466032F8
:10C90000527CD207120F10436A46D0700968019119
:10C9100092490978072915D0EF210840D0708D4938
:10C920000A220E3902A801F053FB002F00D0012685
:10C930006F46002D09D0012D12D0022D17D0032DE6
:10C940001CD12BE010210843E8E70120C0433880C8
:10C950008048102401680E22B81C01F039FB0DE05C
:10C96000B8781224000900013946001D05E0B878A6
:10C970000A24000900013946401C8870602168467D
:10C98000017608A80797089406710F994171002154
:10C99000817106A8FEF7EAFD11B0F0BDB8780A244F
:10C9A000000900013946801CE7E770B5694C002397
:10C9B000743C05462371A36120465A1E4030A36093
:10C9C0004284838420300374E361236065712A46C6
:10C9D000801D01F03FF9614902200870284600F0EF
:10C9E00063FDFFF76FFF70BDF0B55C49A7B0042091
:10C9F00008700146FF2212A801F0FCFA554C743C65
:10CA00006079012804D002280AD004280CD104E05F
:10CA1000129840084000129006E00420129901E0AC
:10CA20001299022081431291E168A068814265D089
:10CA30002120FFF756F800902220FFF752F80190CE
:10CA40002420FFF74EF80025ED4300260290B700A2
:10CA50006946C85900281DD003C8A369E26801F0DF
:10CA60004EFA002810D00120B0402030039080B250
:10CA7000FFF7D8F8002807D0039880B2FFF7D2F864
:10CA800000221146FEF779FD6846C0590068A842A9
:10CA900000D20546761C032ED9D3A169E06841185F
:10CAA00028E00268521C24D02A4B5E683268824219
:10CAB00007D276689219824203D9129A520852001C
:10CAC00012929E683268824207D276689219824238
:10CAD00003D9129E022296431296DA6813688342A3
:10CAE00007D252689A18824203D9129B04229343B8
:10CAF0001293001D814201D9A842D2D3154DE1689D
:10CB0000A0680E3D88420DD1124E3069002819D020
:10CB100012A90420FFF771F8002803D06079294694
:10CB2000FFF743FF0B48A2691438037CE168A06853
:10CB300000F0CEFD002813D060792946FFF735FFBD
:10CB400027B0F0BD042212A91046FEF7E5FF3061C0
:10CB5000E8E70000487E0020FFFF0000207D002065
:10CB6000622108A801710021017209A8FEF7FEFCEC
:10CB700023216846017001210171617941710A2206
:10CB80002946801D01F024FA6846FEF7EFFCD7E73E
:10CB9000F3B5F94E0546707937460024743781B0F5
:10CBA000012818D0022818D0042812D000221146DB
:10CBB0000620FEF7E2FC28460830009001F039FA22
:10CBC000ED490861009801F034FA0646401C06D091
:10CBD00006E0FC68EFE77C68EDE7BC68EBE72668F9
:10CBE0002846FFF7EEFDE44940314884888430460A
:10CBF000E14EB06028460C3001F01BFA8000B061B5
:10CC0000687C297C00020843F061A87C0007C10F02
:10CC100030466030017400217161017010213C3098
:10CC200001F0EFF901F061F9F168D4484A1C06D02F
:10CC3000B26940698918814216D90C201FE07179C8
:10CC4000022901D0B0680EE0F9680A6849685118F5
:10CC500042698A4200D24169B069800A8002081A9A
:10CC600001218902401AF060F268B06890420BD04E
:10CC7000B1690B4601F043F9002805D00D20FEF7FD
:10CC800040FD00F06DFCFEBDB168206881420BD311
:10CC9000B269891862688018814205D8FFF7A4FE3E
:10CCA000029801210170FEBD281D01F0C2F901F0BA
:10CCB000E2F8B14970796631FFF777FEFEBDF7B54E
:10CCC000AD4EAD4C05464036E269B08C1309C21A30
:10CCD000E878AF788AB00839029129460002083115
:10CCE00038430191824210D3A5490A79904201D17B
:10CCF00000220A71A16801F070F802998AB20199C4
:10CD000000F01AFD070062D119E0801A401E83422C
:10CD100007D9994F012160373A7881400A4204913E
:10CD200001D0082753E0000100192030029A019930
:10CD300001F04EF938780499084338700027E878F4
:10CD4000AA780002B18C104300F0BCFB708C401E2E
:10CD500070840C990120087000200090039088488E
:10CD60000079002833D103AA6946606900F091FD7B
:10CD700000282CD0A16800230A0900991201891A01
:10CD80009B4108091A071043E978AA780902114360
:10CD9000401C4A1E904202D3B28C8A4217D1042210
:10CDA000D24369460A824882206805900323012203
:10CDB000082104A8FFF725FD009869466061488AAC
:10CDC000002801D0012100E000216D4801713846A2
:10CDD0000DB0F0BDF3B505468BB0001D01F029F98B
:10CDE000654E316888427CD1284601F04EF8002813
:10CDF00077D169460870624F3046397866300A90BC
:10CE0000032908D00446263C042916D0072931D02E
:10CE1000082964D150E0E878A9780002084307D0D7
:10CE2000306801F028F870790A99FFF7BEFD56E0E6
:10CE300069462846FFF7ACFE51E0E878A978000281
:10CE4000084307D0A18C884204D86A4628460C992A
:10CE5000FFF735FF608C002841D1702069460871CA
:10CE6000484803900020029001A8FEF77FFB0520B0
:10CE7000387034E0E878A9780002084303D12846E6
:10CE8000FFF79FFCA084082038700020FEF765FCA7
:10CE9000232168460171022101720A220A300A998F
:10CEA00001F096F871796846417201A8FEF75EFBC1
:10CEB00001216846017012E0E878A9780002084371
:10CEC00003D12846FFF77DFCA084E878AA78000209
:10CED000A18C104300F0F6FA01206946087028463C
:10CEE00000E009E000F0ECFF68460078002803D07D
:10CEF00028460C9900F0F1FA6AE7F0B5204F1E4D74
:10CF0000044639782E4608308BB0663600900129E9
:10CF10003AD028464079019002295CD003295AD0A2
:10CF2000072926D1A1780907090F884221D1024695
:10CF30003046009900F0A5FE00281AD0E078297943
:10CF40004007400F814207D3814212D1201D01F0DA
:10CF500070F8296888420CD9201D01F06AF8286011
:10CF6000E0784007400F2871687900F09DFAFFF7DC
:10CF7000A9FC0BB0F0BD0000D47D00200010001013
:10CF8000207D002080841E00E0784007F1D0A0784A
:10CF90000A220007000F68713046009901F018F866
:10CFA000204600F0B5FE002848D0212168460171D6
:10CFB000A0780107090F6846417239780172A0789C
:10CFC0000099020702A8120F023000F043FE01A8E8
:10CFD000FEF7CCFACDE7E07829794007400F884288
:10CFE00007D88842C5D1201D01F023F8296888425E
:10CFF000BFD932462046019900F0D4FE002804D162
:10D00000204600F085FE00280CD0A0780A220007F8
:10D01000000F68713046009900F0DAFF204600F0FA
:10D02000ACFAA6E7A0786A790007000F824205D122
:10D030003146009800F040FE00289AD1222168462F
:10D04000017102210172A0780A220107090F6846C6
:10D0500081720B30009900F0BBFF3978684641724D
:10D06000E0784107490F68464175201D00F0E1FF57
:10D070000690ACE7F0B5054687B0001D00F0D9FF7B
:10D080000146FE480068814220D1FD4F38780828CB
:10D0900013D0FA4EE97800249C36AA78090220467B
:10D0A00011438200B25A8A4212D1800084196188E9
:10D0B000481C6080082909D30DE0284600F0E5FEF1
:10D0C000002803D10821284600F007FA07B051E7ED
:10D0D000401C0428E5D3E878AA780102E748114308
:10D0E0008068012904D000090001090140181038A6
:10D0F000102202A900F09DFB002813D00520C04398
:10D1000069460880E878A9780002084369464880A3
:10D11000281D00F08EFF019003230022182168468D
:10D12000FFF76FFB002C0AD1B8788107090F8C1923
:10D13000401CB870E878A9780002084320800020DD
:10D140006080C3E770B50546CD4C00202070742187
:10D15000CA4800F056FFC94810219C3000F051FF2A
:10D160000020A070E570FFF7FDFA70BD10B57421C6
:10D17000C24800F046FFFFF7F5FA00F0B8F900F0FA
:10D180005DFD002801D100F0EBF910BD10B5BC4BDE
:10D190001B78012B01D0082010BDBA4B5B6993426C
:10D1A00003D8531C01D0102010BDB44BDA60FFF738
:10D1B000FCFB002010BD10B5B14B1C78012C03D036
:10D1C000022C01D0082010BD07241C70AB4C6071EC
:10D1D000226002462046663000F03CFD607900F097
:10D1E00063F9FFF76FFB002010BD70B5427803783C
:10D1F00012021A43A44BD218130000F069FF051065
:10D200000D0A0704280000F0E8F920E0FFF775FE9A
:10D210001DE0FFF7DFFD1AE0FFF72CFF17E00446E3
:10D2200097480D46007808282046F2D100F02DFEE0
:10D2300000280CD191484030818C408C081A401C49
:10D2400080B200F03FF92946204600F046F9002060
:10D2500070BDF0B5894DABB074350E2215A82968A4
:10D2600000F0B6FE854C0027204606462030E268D6
:10D27000A16866362A908A4234D0FF22542168463B
:10D2800000F0B8FE6279314602A800F0E3FCA06924
:10D290000190E0680090FF216846C174002181740C
:10D2A000E0691422002808D0402205A82A9900F03D
:10D2B0008FFE0120694688745422607901280ED0BF
:10D2C000022807D0042802D00B202BB052E6694672
:10D2D000242001E069462220FEF71EFC3FE069465B
:10D2E0002120F9E72869002804D1002211460E20E8
:10D2F000FEF743F928690068009060486179623060
:10D3000001290CD0022931D0042910D10A2231463A
:10D3100016A800F05DFE1C270421009805E0808817
:10D3200010A988821A270098012108430090E0691B
:10D33000002804D0402238462A99FEF7EDFB02204F
:10D34000401C0E28FCD30E2215A90220FEF7E4FB98
:10D350000422286069461046FEF7DEFB2861484932
:10D3600006200870FEF7C1FB0020AEE7808810A9F8
:10D37000C8821B2702210098D7E710B540480078E3
:10D38000030000F0A5FE09100608080A11101A1A79
:10D390001000012012E0052010E03848374940799C
:10D3A0006631FFF702FB10BDFFF745FA002802D0F7
:10D3B000FFF74FFF10BD042000E00020FEF7A1F9A9
:10D3C00010BD70B50220FEF78CFB06460420FEF768
:10D3D00088FB04461020FEF784FB05461220FEF76A
:10D3E00080FB3188002906D02178C9070CD0296834
:10D3F0000968491C08D02178490707D500680068EA
:10D40000401C03D0002070BD012070BD042070BD01
:10D4100010B50220FEF765FB002813D017497431C0
:10D42000C96809684A1C0DD00968491C0AD00A302D
:10D4300000F0FFFD002805D000F00CFD002801D011
:10D44000012010BD002010BD10B500F089F810BDFE
:10D4500000B50B4889B00078062823D1FEF7E6FB1B
:10D4600000281FD025216846017001210171034861
:10D470000249427968464271663107E0D47D002056
:10D48000207D0020001000100600FFFF801D00F02E
:10D49000E1FB6846FEF76AF800F039FAFFF762F937
:10D4A000FFF764FE09B000BD012809D0022805D0AD
:10D4B000042801D0002070470120704703207047E6
:10D4C0000220704700B589B024236A46137090800B
:10D4D000D1806846FEF74AF8E4E710B50446032316
:10D4E0000022FFF78EF9204600F0EAFC10BDF0B5EF
:10D4F000604993B003C90B900C915FA00068119034
:10D500005E480BAE00680E90811C001D0D9100243A
:10D510000F906000305AFEF7E4FA05001BD002219C
:10D520006846017111AF3A5D0272294608310A302E
:10D5300000F090FBA0000DA909583A5D05A800F085
:10D5400089FB2868089068680990A97C6846417240
:10D5500001A8FEF70BF8641C032CDAD313B009E51D
:10D5600010B50020FFF7AEF9454901200870434887
:10D570007421743800F045FD10BD70B50446407844
:10D580002178000208433D4D3E49743D884208D150
:10D59000E078400705D0A07869790007000F88423D
:10D5A00004D0002211460720FDF7E7FF201D00F000
:10D5B00040FD2860E0784007400F2871E0780007C0
:10D5C000C10F2E48143841742D4903200870687922
:10D5D000FFF76AFFFFF776F970BD70B5284D044676
:10D5E00028788AB0012836D121796846017061799E
:10D5F0004170009800F01CFC2126002808D06846E5
:10D60000067002214171217981716179C1711EE039
:10D61000A01D00F0ECFB00281DD0E078A1780002EE
:10D6200008431849491C884217D014490A685178A0
:10D6300012780902114388420FD068460670012112
:10D640004171E078A278010211436846C1802978CF
:10D650000171FDF78BFF0AB070BD684606700421AA
:10D660004171297801710A22A11D801D00F0B0FCD2
:10D670006846EEE700E3030002010400487E002054
:10D68000207D0020FDFF000010B5B54C218E8142A9
:10D6900010D30A1AD117402300209B1A88410BD3BC
:10D6A0000120002100F084FCA269E36910401940C8
:10D6B000084301D0012010BD002010BD10B5382155
:10D6C000A74800F09EFC0020A549C043088610BD75
:10D6D000FFB581B016460C460546FFF7EFFF7019FF
:10D6E0000009290900010901401A0003070C284616
:10D6F0002043800502D0102005B0F0BD9848002CD2
:10D7000018D044609749044640687118890A800A15
:10D7100089028002FEF711F8256027810498A07223
:10D720000021A161E6602561481EE16160862186D5
:10D730000846E1E74560E5E7F7B5894C0646218EE6
:10D74000894884B081424BD0310708D12168B14269
:10D7500005D8E2688B18069AB218934202D21020BC
:10D7600007B0F0BD069A102A01D8920701D009200F
:10D77000F6E7628E824201D01120F1E70909090122
:10D780000022711A9241120708091043401C87B207
:10D790003846FFF779FF002822D07148008EB84242
:10D7A0002FD2381A82B26E4D01200021029200F071
:10D7B000FFFB401E0022D24351410090029A01918A
:10D7C0004020AC69821AED69009800F0F1FB20401E
:10D7D0002940084306D0032000F0BAF80520BFE72F
:10D7E0000820BDE720462946029A00F0E1FB009A96
:10D7F000019B104342081943594852008261C1619C
:10D800000786574C6786204620300546069A0599BC
:10D8100000F0DEFB21686068711A40182946069AFC
:10D82000FDF77AFF00289BD0072000F091F8032035
:10D8300096E7F8B54A4C17460E46228E4A498A4268
:10D8400011D0236800251B091B01C01AAD4129070F
:10D8500000090843401C85B2AA4204D32846FFF7BA
:10D8600013FF002801D00020F8BD002E0DD0002F9E
:10D870000BD0012D0BD0606829010009000141186F
:10D8800010393A46304600F0A3FB0120F8BD61682C
:10D89000F7E7F7B53248344A018E82B001919142E0
:10D8A00026D00768C66984693F25380900010090C1
:10D8B0002A460120002100F07BFB20403140084334
:10D8C00014D00198401B80B201280DD000990001AE
:10D8D000081810380299884208D303990860049800
:10D8E00010210160012007E73846F3E76D1EDFD500
:10D8F000002001E710B51A491B4B0A8E9A4201D14C
:10D90000082010BDCA684968FDF723FA10BD10B59C
:10D910003821134800F075FB00201149C0430886E8
:10D9200010BD0F4910B52031884210D10C48012498
:10D93000018E428E8B1A9C40E343C269DC178169D9
:10D9400022401940C26181610021C943418610BD56
:10D9500010B50021024AC9431186FDF7D2FE10BD61
:10D96000807E0020FF030000FFFF0000F0B5B64DF1
:10D97000C1B06C68002C18D054222146684600F0D3
:10D9800027FBE17C0126F82970D0FC291AD0284613
:10D990000078FE290BD0FF2907D16E70FE216A4660
:10D9A000D17469462030FEF728F941B0F0BD012856
:10D9B00031D0022812D004284ED0002211460B206C
:10D9C000FDF7DBFD0220FEF78CF83F900420FEF708
:10D9D00088F807463F9800287FD083E01120FEF7A3
:10D9E00080F8016805CC083C00F016FB00280DD03B
:10D9F000002015902068169060688008179015A880
:10DA000018DF0028D1D015A818DF1DE0FC206946DA
:10DA1000C87422201DE01020FEF763F8016805CCD1
:10DA2000083C00F0F9FA002850D0159620681690AE
:10DA300060688008189001200003179015A818DF6F
:10DA40000028B2D015A818DF00221146FDF795FD79
:10DA5000ABE7FEF7D2F8B5E7FDF789FE002806D060
:10DA60007A483EDF002044DF35DFABE77DE012205F
:10DA7000FEF737F8070004D1002211461046FDF7E3
:10DA80007CFD3888800504D0002211461046FDF741
:10DA900074FD502010A90875386816906C496068AC
:10DAA00040188843179015A8FDF760FD002862D143
:10DAB000512010A908752068179060681890386880
:10DAC000169015A8FDF752FD002854D1FC20694698
:10DAD000C87428782030BCE7FFE7002211461046C2
:10DAE000FDF74BFD0E2215A83F9900F071FA38683A
:10DAF0002A902878012807D002280CD004283CD08E
:10DB0000002211460B20A1E7208910A988822A98BB
:10DB10001A27304308E0217A10A88175617AC1750F
:10DB20001B2702212A9838E02A900E2215A90220EC
:10DB3000FDF7F2FF00281ED0A07C002807D0214668
:10DB4000402214313846FDF7E7FF002813D00422A5
:10DB50002AA91046FDF7E0FF00280CD0F8206946FE
:10DB6000C87428782030FEF748F828782030FEF76F
:10DB700059F8002813D06E7017E7A0681690A08996
:10DB800010A9888320460E3000F053FA17A90231FD
:10DB900000F059FA1C272A9804210843C4E7002002
:10DBA000686002E770B5284E054601242046203003
:10DBB00080B2FDF796FF00280AD0C17CFF2907D06C
:10DBC00034707060FFF7D2FE002D09D0012006E00E
:10DBD0006400042CEAD900207060002D00D0287069
:10DBE00070BD70B50446012805D0042C03D0022C6A
:10DBF00001D0072070BD144D6868002801D00820AE
:10DC000070BD20462030FDF76CFF002809D0016868
:10DC10000968491C05D02C706860FFF7A7FE00203A
:10DC200070BD052070BD08484168002905D04178C5
:10DC3000002902D00021417098E6704702484068F0
:10DC4000002800D001207047287D00200F000F0021
:10DC5000FF03000010B5012A07D0022A0CD0042AC5
:10DC600002D10A2200F0B4F910BD4A780B781102F3
:10DC700019430170090A02E00A780270497841707C
:10DC800010BD10B5012A09D0022A02D0042A11D1F0
:10DC90000A2200F0C1F900280AD00BE0427803788C
:10DCA000100218434A780B7811021943884201D1B7
:10DCB000012010BD002010BD70B50C46012A16D001
:10DCC000022A1DD0042A21D1417902790902114387
:10DCD0006279237912021A43914217D100F0A9F90F
:10DCE0000546204600F0A5F985420DD00EE04178AA
:10DCF000027808021043617822780902114301E09A
:10DD000000780978884201D1012070BD002070BDE3
:10DD100070B504460220FDF7E4FE0546A078000732
:10DD2000000F012826D002281BD004282BD1607BAD
:10DD3000217B000208432989884224D120460830EB
:10DD400000F077F9696888421DD120460E3000F056
:10DD500070F9044628460A3000F06BF9844210D866
:10DD600011E0207AA97888420DD1607AE97888425A
:10DD700007D808E0607A217A00020843298888429F
:10DD800001D1012070BD002070BD644A00218B00CC
:10DD9000D358834201D101207047491C0829F6D38A
:10DDA0000020704770B5054680780C460007000FCC
:10DDB0001646A04201D0002C06D1281D00F039F9EA
:10DDC000FFF7E3FF002801D0002070BD284622465F
:10DDD00031460830FFF755FF70BD012805D000011E
:10DDE000090909011038401870470846704770B596
:10DDF00005460220FDF775FE044668792979000280
:10DE000008432189884211D1284600F012F961683F
:10DE100088420BD1A81D00F00CF9054620460A30B7
:10DE200000F007F9854201D9012070BD002070BDC6
:10DE300001B50220FDF755FE6946097882789142C6
:10DE400006D169464978C078814201D9012008BDD0
:10DE5000002008BD10B50420FDF743FE002806D0C1
:10DE60000068C10705D0410703D5800701D501200F
:10DE700010BD002010BD10B5294A284C11784B0761
:10DE8000DB0EE050491C117010BD70B5427804786B
:10DE90001302224A0021234320328C00155B9D424D
:10DEA00009D1A4186588C478867824023443A54231
:10DEB00001D1012070BD491C1029EED3002070BD96
:10DEC00070B5417802780D021543154A134C51681C
:10DED00020340B079B0EE552C57886782802304324
:10DEE0001B195880491C516070BD0C4810B5402169
:10DEF000203000F086F80A490020486010BD9042AA
:10DF000002D3D318834204D8824204D340189042EB
:10DF100001D301207047002070470000B87E002028
:10DF2000307D002030B50B46014600202022012420
:10DF300009E00D46D5409D4205D31D469540491B3D
:10DF40002546954040191546521E002DF1DC30BD86
:10DF5000F0B51FB40646002082B00546402401916A
:10DF600000901BE0019922460F46304600F074F8FD
:10DF7000049A059B801A994110D3104619462246EF
:10DF800000F016F8361A8F41019722460120002131
:10DF9000009F00F00DF838184D4100902046641E97
:10DFA0000028DFDC019B00982946324607B0F0BD0F
:10DFB00010B5202A04DB0146203A9140002010BD14
:10DFC000914020239C1A0346E3401943904010BD22
:10DFD00003460B439B0703D009E008C9121F08C082
:10DFE000042AFAD203E00B780370401C491C521E2D
:10DFF000F9D27047D2B201E00270401C491EFBD238
:10E0000070470022F6E710B513460A460446194643
:10E01000FFF7F0FF204610BD30B504460020034650
:10E0200000E05B1C934203D2E05CCD5C401BF8D067
:10E0300030BD0321001D401E037812021A43491E01
:10E04000F9D510467047034603220870000A491CA0
:10E05000521EFAD51846704710B5202A04DB084630
:10E06000203AD040002110BD0B46D340D0402024A0
:10E07000A21A91400843194610BD0000064C012524
:10E08000064E05E0E36807CC2B430C3C9847103460
:10E09000B442F7D3FCF718F808E3030048E30300A1
:10E0A000F8B5040C8BB2264682B25E430D0C1046C6
:10E0B000370C5843360480190021794116466E43C7
:10E0C000370C36048019794126466E438919F8BD0C
:10E0D00030B47446641E2578641CAB4200D21D46E1
:10E0E000635D5B00E31830BC184702E008C8121FEC
:10E0F00008C1002AFAD170477047002001E001C131
:10E10000121F002AFBD1704702000000000000002F
:10E110000000000000000000982F8A4291443771EF
:10E12000CFFBC0B5A5DBB5E95BC25639F111F1599A
:10E13000A4823F92D55E1CAB98AA07D8015B8312DC
:10E14000BE853124C37D0C55745DBE72FEB1DE8088
:10E15000A706DC9B74F19BC1C1699BE48647BEEFB7
:10E16000C69DC10FCCA10C246F2CE92DAA84744A42
:10E17000DCA9B05CDA88F97652513E986DC631A8B8
:10E18000C82703B0C77F59BFF30BE0C64791A7D597
:10E190005163CA0667292914850AB72738211B2E1F
:10E1A000FC6D2C4D130D385354730A65BB0A6A7607
:10E1B0002EC9C281852C7292A1E8BFA24B661AA813
:10E1C000708B4BC2A3516CC719E892D1240699D623
:10E1D00085350EF470A06A1016C1A419086C371E9C
:10E1E0004C774827B5BCB034B30C1C394AAAD84E7A
:10E1F0004FCA9C5BF36F2E68EE828F746F63A578B5
:10E200001478C8840802C78CFAFFBE90EB6C50A447
:10E21000F7A3F9BEF27871C6020000001A000000F0
:10E22000500000005100000000000000000000004D
:10E2300000000000000000000000000000000000DE
:10E24000000000000000000050000000000000007E
:10E2500000000000000000000000000000000000BE
:10E26000000000000000000000000000FFFF0000B0
:10E27000FFFFFFFFFFFFFFFFFFFFFFFF00000000AA
:10E28000000000000000000001000000FFFFFFFF91
:10E2900096C298D84539A1F4A033EB2D817D037740
:10E2A000F240A463E5E6BCF847422CE1F2D1176BDB
:10E2B000F551BF376840B6CBCE5E316B5733CE2BAE
:10E2C000169E0F7C4AEBE78E9B7F1AFEE242E34FDD
:10E2D000512563FCC2CAB9F3849E17A7ADFAE6BC08
:10E2E000FFFFFFFFFFFFFFFF00000000FFFFFFFF3A
:10E2F0000000000090E203000000000000000000A9
:10E30000220021002400000048E303000400002054
:10E310002C000000EAE0030074E30300007D00200D
:10E3200038000000EAE0030074E30300300000203E
:10E33000500F0000FAE00300ACE30300387D00203A
:10E34000E0010000FAE0030000000000000000000F
:10E3500000000000000000000024F40000000000A5
:10E3600003000000D6BE898E0000000000000000FF
:10E37000000000000000000000000000000000009D
:10E38000000000000000000000000000000000008D
:10E39000000000000101000000000000000000007B
:0CE3A00000000000000000000000000071
:020000041000EA
:0410140000A0030035
:040000050003A0C193
:00000001FF
