:020000040001F9
:10800000183B002041BC010053BC01000D81010060
:108010000000000000000000000000000000000060
:1080200000000000000000000000000057BC01003C
:10803000000000000000000059BC01005BBC010012
:108040005DBC01005DBC01005DBC01005DBC0100C8
:108050005DBC0100000000005DBC01005DBC0100D2
:108060005DBC01005DBC01005DBC01005DBC0100A8
:108070005DBC01005DBC01005DBC01005DBC010098
:108080005DBC01005DBC0100A5A701005DBC010055
:108090005DBC01005DBC010043C401005DBC01008A
:1080A0005DBC01005DBC010000000000000000009C
:1080B00000000000000000000000000000000000C0
:1080C0000348854604F0F2FA00480047B5810100F4
:1080D000183B002010B508E0032205231B070724E6
:1080E00024021B1984001A51401C8842F4D910BD87
:1080F0000121022000F01EFA0021032000F01AFAEC
:1081000000BFFEE7FFF7F4FFFFF7F2FFFFF7F0FF16
:1081100010B50446204600F00CFD204600F0DAF9C8
:1081200010BD10B5044600BF012000078A498860D1
:10813000C86000BF2078030004F0DEFA05060405DD
:108140001110140000BF00BF6088012800DD09E0A5
:1081500062681178A07800F0EDF903E002E000F029
:1081600047F900BF00BF10BD10B518211520FFF75B
:10817000B1FF002007E00146153101228A40764B0D
:108180009A6000BF401C0428F5D320210020FFF78F
:10819000A1FF0321112000F0CEF80321122000F0EE
:1081A000CAF80321132000F0C6F80321142000F0C0
:1081B000C2F810BD8CB0FFF7D7FF10206649886069
:1081C00000BF002348226549052004F0F2F8054667
:1081D00000BF00950098002804D061A2AA21009851
:1081E000FFF792FF00BF00BF604804F018F9604835
:1081F00004F01EF95F48089064200A90262008A920
:10820000087105200B9008A80FC800F065FB044614
:1082100000BF00940098002804D051A2BD2100980E
:10822000FFF772FF00BF00250FE0A8B200F0D9FBF6
:10823000044600BF00940098002804D048A2C3213F
:108240000098FFF761FF00BF6D1C022DEDD300F019
:10825000CFF810204049C8608004C8600020049016
:1082600005900690079065E0112000F06EF8002858
:1082700010D100BF112000F068F80028FAD00020CB
:1082800069460874012204A900F0E7FB00210846B2
:1082900000F050F9122000F058F8002811D100BF6A
:1082A000122000F052F80028FAD001206946087424
:1082B000012204A9002000F0D0FB0121002000F0E1
:1082C00039F9132000F041F8002811D100BF132024
:1082D00000F03BF80028FAD000206946087401221B
:1082E00004A9104600F0B9FB0021012000F022F99A
:1082F000142000F02AF8002811D100BF142000F04B
:1083000024F80028FAD0012069460874012204A943
:10831000104600F0A2FB0121084600F00BF901A86D
:1083200000F030FC002805D101A8FFF7FAFE029802
:1083300000F050FC98E710B58A0005231B070724BE
:1083400024021B1984001A5110BD0146024800691D
:10835000C840C007C00F704700050050082100202A
:108360002E2E5C6D61696E2E63000000118101008C
:108370004B8B0100D6BE898E10B50446208850284C
:108380000BD0512802D0522808D100E007E0A08885
:1083900000231A461946A9DF01E000E000BF00BF34
:1083A00010BD38B5044620881038030004F0A4F945
:1083B0000906071D0A1D1D1D1C1B1D0016E0504847
:1083C00073DF13E000BFA08800234E4A19467FDF09
:1083D00000900098002804D04BA272210098FFF76B
:1083E00093FE00BF02E001E000E000BF00BF38BD27
:1083F00070B596B00020159010A9087414A860DF1D
:108400000446002C0CD0082C0AD000BF0094009821
:10841000002804D03CA28F210098FFF775FE00BF12
:10842000062530213D4804F0D1F83C48C5700220B3
:108430003A4908703A480068139011A871DF044661
:1084400000BF00940098002804D02FA29F2100981C
:10845000FFF75AFE00BF11A84079000211A98979DF
:10846000084302462FA101A804F032F901A804F044
:10847000B8F886B2324601A913A87CDF044600BFD3
:1084800000940098002804D01FA2A6210098FFF7AE
:108490003BFE00BF0021214803F0E8FE044600BF78
:1084A00000940098002804D017A2AA210098FFF792
:1084B0002BFE00BF124873DF044600BF00940098F3
:1084C000002804D010A2AE210098FFF71DFE00BFC7
:1084D00016B070BD10B504462088F0210840102861
:1084E00002D0502808D103E02046FFF75AFF04E0ED
:1084F0002046FFF741FF00E000BF00BF10BD0000B5
:1085000000200020182000202E2E5C6E72665F6115
:1085100064765F636F6E6E2E630000005021002052
:10852000F0C801007262635F6D6573682023256483
:1085300000000000002906D10246153201239340B5
:10854000044A936005E00246153201239340014A34
:10855000D36070470005005000BF00BF0020C24933
:108560000860401EC14988600120C149086102209D
:10857000C049087070477FB5BF4802F079F80446DB
:108580002FE06946BC4802F0A7F8002827D16846CA
:108590000078022823D16946B74802F037F8FFF780
:1085A000DBFF00BFB54800690028FBD1B449C860B3
:1085B00000BF0398002801D0012000E000200546FC
:1085C000002D03D1AFA26A21FFF79EFD00BF00225C
:1085D000D2430021039B01989847641E00E002E00B
:1085E00000BF012CCDD800BF7FBD0EB50A2805DC29
:1085F0004100091DA14A403A916015E0242805DC9C
:108600004100891D9D4A403A91600DE0A74B0ECB79
:108610000293019200910146253989006A4651581A
:10862000964A403A916000BF4106490E934A516113
:108630000EBD10B5044603208B490860607AFFF731
:10864000D4FF8E49403960684860082087494860F7
:10865000207800280AD100BF00BF88494039C8628D
:10866000012083490860834908700AE000BF00BF09
:1086700001208249403908637D49486000207D49D6
:10868000087010BD70B504460D4600208849C863C7
:108690000120C863002079494039C860032008617F
:1086A00002208860252075494861200E73494039B1
:1086B00048622002000A0002C8610020C86201204E
:1086C00008637C4848617C4888617C488863FF2057
:1086D000043048637A48C863942068494860654814
:1086E000007803280BD108206349C88075480860CA
:1086F000102088800020C860084601F06DFF02202D
:108700005C4908700120012181406F4A116000BF5F
:1087100000BF012181406D4A116000BF6C480560B7
:10872000554801F06AFF002803D069480068804777
:1087300006E001F076F8002802D0012000F08BF866
:1087400070BD70B50446E068002800D170BDEFF33D
:108750001080C507ED0F72B62146474804F097F820
:10876000002804D0002D00D162B60020EEE701F011
:1087700058F8002802D0012000F06DF8002D00D13B
:1087800062B60120E2E7F0B589B0524800680028DF
:1087900001D0012000E0002006464E48C468384859
:1087A000C068002801D0012000E000200546002D0F
:1087B00014D000203249C86005A92F4801F026FFD7
:1087C000074600BF00970098002805D02DA2FF2182
:1087D00026310098FFF798FC00BF01E0FFF7CBFEC1
:1087E00001A9254801F078FF002803D101A8FFF76F
:1087F00020FF04E000BF00BF02201E490870002DCA
:1088000020D000BF0898002801D0012000E00020FF
:108810000746002F04D11BA2FF213A31FFF774FC59
:1088200000BF6846007D012803D06846007D02280D
:1088300005D122463146089B0698984702E00899E0
:10884000069888470B480078022802D12048006823
:10885000804709B0F0BDC206D20E012191401A4AEC
:10886000803A116070470000001200400013004081
:1088700000100040202000208021002040150040F2
:10888000001100402E2E5C2E2E5C2E2E5C72626338
:108890005F6D6573685C7372635C726164696F5F5E
:1088A000636F6E74726F6C2E63000000F4C8010079
:1088B000C01F004006010200250003025B06000005
:1088C000555555009021002080E200E000E100E0D5
:1088D00024200020001400401FB584B00021039123
:1088E00003A812DF6846007B002802D1022008B0EE
:1088F00010BDC0480078002801D00820F7E706988E
:10890000052803D3BC490698884201D90720EEE721
:1089100001F061FF02F0EEFE6A46117D049801F05D
:10892000ADFD7D22D20006995143084602F05EFB60
:108930000446002C01D02046D9E700200290694669
:10894000087101A860DF0446002C03D0082C01D078
:108950002046CCE76B46197D069A049801F02DFA63
:108960000446002C01D02046C1E7079800F060FEC5
:10897000A249049808606846007DA1490870A14991
:108980000698086001209B49087010209E49C88005
:108990009E4808600C2088800020C860084601F0CE
:1089A0001BFE0020A3E710B592480078022801D0F2
:1089B000082010BD0121964800F074FC01208D496B
:1089C00008700020F5E710B58A480078012801D02A
:1089D000082010BD00F002FF022086490870002028
:1089E000F7E710B504468B48844201DD102010BD26
:1089F000204602F074FDFAE710B50446854884422B
:108A000001DD102010BD204602F0D1FDFAE770B55F
:108A100004460D4677480078002801D1082070BD33
:108A20007C48844201DD1020F9E72946204602F007
:108A300010FEF4E770B504460D466E480078002835
:108A400001D1082070BD7348844201DD1020F9E790
:108A50002946204602F0FFFCF4E770B505460E46B5
:108A6000144664480078002801D1082070BD694888
:108A7000854201DD1020F9E7E2B23146284601F0D7
:108A8000CCF9E2B23146284602F034FC052801D187
:108A90000320EBE70020E9E770B504460D461646D3
:108AA0005C48844201DD102070BD324629462046D4
:108AB00002F099FCF8E701464E480078002801D101
:108AC000082070474D48006808600020F9E701461B
:108AD00048480078002801D10820704748480078AD
:108AE00008700020F9E7014642480078002801D1CB
:108AF000082070474348006808600020F9E770B517
:108B000004460D464348844201DD102070BD2946CD
:108B1000204602F0C8FDF9E770B504460D463D4811
:108B2000844201DD102070BD2946204602F0B8FCC9
:108B3000F9E710B504462F480078002800D110BD91
:108B4000204601F08CF900BFF9E710B50446204635
:108B500000F0D3FB10BD70B504462648007800280D
:108B600001D1082070BD2146274803F090FE05463C
:108B7000002D05D16068002802D0606802F003FE75
:108B80002846EFE710B504461A480078002801D1BE
:108B9000082010BD21461C4801F038FD002801D0F6
:108BA0000520F6E70020F4E710B5044611480078E8
:108BB000002801D1082010BD002C01D10E20FAE7B9
:108BC0002146114801F088FD002801D00520F2E778
:108BD0000020F0E710B5044606480078002801D1CF
:108BE000082010BD002C02D0204602F0F6FD002027
:108BF000F7E700002820002060EA00002C20002079
:108C000030200020342000201022002020220020CC
:108C100010270000EFFF00007FB50026002461E070
:108C2000FE480078002800D17FBDFD48A1004058D3
:108C3000002856D00021FA48A20081500120A0400F
:108C4000F8490978084000284BD02046103001210F
:108C50008140F5488160A000F4490D580120A040F2
:108C6000F04909788143EF48017001260320C003D1
:108C7000854202D3700785420BD900BF10200390B4
:108C80000398002804D0EAA26C210398FFF73CFA6D
:108C900000BF0120A040F04909780840002810D00A
:108CA0000120A040EC4909788143EB480170EB4872
:108CB000152189014018A100425810460021A847FB
:108CC0000EE00020694608700195E44815218901ED
:108CD0004018A10041580291684601F0A6FD00BF6E
:108CE00000BF641C032C9BD300BF9DE770B500BF81
:108CF000EFF31080C507ED0F72B6D9480178007800
:108D0000401CD74A1070002906D1C44800780028BA
:108D100002D0082000F094FA002D00D162B600BF06
:108D20000024BE480078002809D00021BC48C1605A
:108D30000121CA48C164152189014018C46800BFD7
:108D4000EFF31080C507ED0F72B6C5480078401EDE
:108D5000C0B2C3490870002806D1B0480078002886
:108D600002D0082000F065FA002D00D162B600BFE5
:108D7000204670BDF7B584B004460F4600BFEFF340
:108D80001080C507ED0F72B6B54801780078401C19
:108D9000B34A1070002906D1A0480078002802D0FC
:108DA000082000F04DFA002D00D162B600BF9B48AC
:108DB0000078002832D0FFF799FF0026054632469A
:108DC000C821002069184241C91B82411BD2A10061
:108DD000964A069850500120A040924909780843CD
:108DE000904908709D48152189014018A1004750FD
:108DF00000218B48A2008150204610300121814083
:108E00008948416009E00020694608700698019091
:108E10000295684601F009FD00BF00BF00BFEFF3F7
:108E20001080C507ED0F72B68D480078401EC0B2A5
:108E30008B490870002806D178480078002802D0B5
:108E4000082000F0F6F9002D00D162B600BF07B08F
:108E5000F0BDF7B504460F4600BFEFF31080C5071D
:108E6000ED0F72B67E4801780078401C7C4A107085
:108E7000002906D169480078002802D0082000F0B7
:108E8000DFF9002D00D162B600BF644800780028E9
:108E900033D0FFF72BFF002605463246C8210020BD
:108EA00069184241C91B824122D20120A0406A496F
:108EB0000978084368490870A1005C4A029850503C
:108EC0000120A04057490978084356490870634873
:108ED000152189014018A100475000215048A200E7
:108EE000815020461030012181404F48416003E00D
:108EF00028463146029A904700BF00BFEFF310802A
:108F0000C507ED0F72B656480078401EC0B25449EE
:108F10000870002806D141480078002802D00820B7
:108F200000F087F9002D00D162B600BFFEBDFFB58D
:108F300085B004460F4600BFEFF31080C507ED0F64
:108F400072B6474801780078401C454A10700029E5
:108F500006D132480078002802D0082000F070F9CD
:108F6000002D00D162B600BF2C480078002850D0F8
:108F7000FFF7BCFE002605463246C82100206918CE
:108F80004241C91B824136D2A100284A079850505D
:108F90000120A040234909780843224908702F483E
:108FA000152189014018A100475000211C48A2004A
:108FB000815020461030012181401B4841601848F3
:108FC000A10041182748512212018218204608307A
:108FD000C00011502349512212018A18214608313C
:108FE000C900511808984860204608300121814086
:108FF0001D4841600CE00020694608710798029006
:10900000039501A801F011FC01210898016000BF3F
:1090100000BF00BFEFF31080C50727E03A20002013
:10902000408100403820002000830040E0220020E2
:109030002E2E5C2E2E5C2E2E5C7262635F6D65732D
:10904000685C7372635C74696D65725F636F6E7484
:10905000726F6C2E630000003920002000800040F9
:109060003B20002000F0014000F50140ED0F72B6FA
:1090700077480078401EC0B275490870002806D1B4
:1090800074480078002802D0082000F0D2F8002DA3
:1090900000D162B600BF09B0F0BDF8B504460D4678
:1090A000164600BFEFF31080C707FF0F72B668487F
:1090B00001780078401C664A1070002906D1654886
:1090C0000078002802D0082000F0BAF8002F00D164
:1090D00062B600BF5F480078002829D000215E48B2
:1090E000A200815020461030012181405B48816000
:1090F0005B48152189014018A10045505648A10040
:109100004118584851221201821820460830C000E8
:109110001150544851210901411820460830C0001F
:109120000818466020460830012181404E484160C1
:1091300000BFEFF31080C707FF0F72B644480078F6
:10914000401EC0B242490870002806D1414800784C
:10915000002802D0082000F06CF8002F00D162B681
:1091600000BFF8BD70B5044600BFEFF31080C5071F
:10917000ED0F72B6364801780078401C344A107002
:10918000002906D133480078002802D0082000F0DA
:1091900057F8002D00D162B600BF2E480078002895
:1091A00014D0032C12DA20461030012181402B48C4
:1091B00081600120A0402D49097881432B4801702E
:1091C00020460830012181402748816000BFEFF32D
:1091D0001080C507ED0F72B61D480078401EC0B262
:1091E0001B490870002806D11A480078002802D0D0
:1091F000082000F01EF8002D00D162B600BF70BD3F
:1092000000201A49087070470020134908600021A7
:10921000114841608160C160002014490870144900
:10922000087001200B490870704700200949087038
:109230007047C206D20E012191400E4A116070475C
:10924000C206D20E012191400A4A80321160704755
:109250003B2000203A200020408100400083004055
:109260000080004000F0014000F50140382000205F
:109270003920002000E100E0FEB5F74860C8F7485B
:10928000002704682846314622463B4603F048F949
:10929000F34A00230191009003F012F97D21C900E7
:1092A0004018FEBDF8B504460D46002D1ED0ED4811
:1092B00084600320EC490870EA4848600020EB49CC
:1092C0000C604860EA480078002815D1E54850DF76
:1092D000064600BF00960098002805D0E5A2FF21B1
:1092E000D0310098FEF710FF00BF05E0DD48846034
:1092F0000020DE490C604860F8BD38B50446201FE8
:10930000030003F0F9F9051A2C1F040D3100E4489D
:109310000078012803D00121E248FFF7C3FF30E0C5
:1093200000BF0B2000900098002804D0D1A29F21FC
:109330000098FEF7E9FE00BF23E00121DA48FFF7BD
:10934000B1FF1EE000BF0B2000900098002804D061
:10935000C8A2AB210098FEF7D7FE00BF11E00121A3
:10936000D048FFF79FFF0CE000BF08200090009856
:10937000002804D0BFA2B2210098FEF7C5FE00BFAE
:1093800000BF00BF38BD0122C84B1A7070477CB5C2
:10939000C7484468C748016840680023594058409E
:1093A000014305D1C44801684068C24A1160506059
:1093B0000020C04A06CA611A904108D2BF4820184E
:1093C0000021BC4B0CCB851A99410E4605E00020CC
:1093D000B84A06CA651A904106460020B5490C6095
:1093E0004860690CF0030843E9037D22D2000023A2
:1093F000009101900846019903F062F8B04B0CCB44
:1094000080185941AE4A03C27CBD10B5984909780D
:10941000002913D090490B68496800221B1851415C
:10942000A84A0024D21A8C4103D28B490968A54A64
:10943000501A01218C4A11701146486010BD38B590
:109440000446002C02D19649087026E09448007822
:10945000012802D002281ED10EE0022082490870A5
:109460000020994908709149087001F0FBF900202B
:10947000964908607C4838BD01218A48FFF712FFF1
:109480000020914908708949087001F0EBF9FFF755
:1094900063F87548EFE700BF00BF0020724908700D
:1094A000012073490870230003F026F90504403DAC
:1094B0007B438E0001208449087000207B4908709E
:1094C0008349086081480068002801D0FFF75FFFEA
:1094D00002F019F901F0CBF9FFF796FE00F0EBFF6F
:1094E0007C487D4908606148016840685A4A1160BB
:1094F0005060FFF7C1FE584909680D1A774A29469E
:109500000020FFF7A6FC74480068FFF77EFF6F4855
:109510000068401C6D490860002803D108460068B7
:10952000401C08605EE0FFF72EF95BE0FFF774FB7C
:1095300058E0494803684068694909680022591899
:109540005041454A116050600020654908606048FC
:109550000068401C5E4908600020FFF703FEFFF72B
:109560008BFE3D4909680D1A5C4A29460020FFF729
:1095700070FC00203C490870374803684068564931
:1095800009680022591850414E4A0023891A98410F
:1095900004D251480068FFF738FF01E001F01DFFD9
:1095A00020E04D48006840084B49086008460068C4
:1095B0007D21C900884204D947480068FFF725FF8C
:1095C00001E001F00AFF0DE000BF082000900098C4
:1095D000002805D027A2FF2167310098FEF794FDEF
:1095E00000BF00BF00BF3148007800280FD0012124
:1095F0002C48FFF757FE0020334908702B490870AC
:1096000001F030F9FEF7A8FFFFF70FFE0BE0164858
:109610000078012804D1144840683149086002E00C
:1096200000202F4908600020114908700E4822E7E9
:1096300038B505462B480078002800D038BD2B00EF
:1096400003F05AF8096F625A52066B675E566F0054
:1096500064200249086068E068200020942000200F
:1096600040420F0050200020602000207020002089
:10967000882000202E2E5C2E2E5C2E2E5C726263C3
:109680005F6D6573685C7372635C74696D65736C40
:109690006F745F68616E646C65722E630000000019
:1096A0008C20002010270000B80B00008B20002029
:1096B00000B50040A020002078200020FFFFFF0020
:1096C000802000208096980089200020B020002073
:1096D000AC20002020A107009020002087930100EB
:1096E000A82000208A2000209620534908601CE012
:1096F00014205149086018E0FA204F49086014E02E
:109700001E204D49086010E0FF20F5304A490860EE
:109710000BE032204849086007E04B2046490860CA
:1097200003E0FA204449086000BF00BF002043491D
:10973000087001204249087016202EDF044600BF41
:1097400000940098002805D03E4AFF21B6310098C9
:10975000FEF7DAFC00BF3C484EDF044600BF009431
:109760000098002805D0374AFF21B9310098FEF74C
:10977000CBFC00BFFFF744FD344840680021344A69
:1097800003C234490020344A116050600121104660
:109790000068FFF787FD00BF50E770B504460D462F
:1097A0001646002E12D02D48C460856003202C4937
:1097B00008702A48486000202A490C6048601F4809
:1097C0000078002809D1254850DF06E02348C4600E
:1097D0008560002023490C60486070BD10B50120F1
:1097E00021490870082000F01FF810BD10B50220B4
:1097F0001D490870082000F017F810BD1B4903C967
:1098000070471B480078002801D101467047124874
:109810000268406815490B684968D21841411046F2
:10982000F4E7134800787047C206D20E0121914038
:10983000104A11607047000094200020882000200A
:109840008A200020749601003F94010000B500407A
:1098500078200020102700006820002040200020F1
:1098600060200020702000208C200020802000201C
:109870008920002000E200E00146087DFF2801D099
:10988000012070470020FCE77CB504462046FFF726
:10989000F3FF002815D0002020752046083002F084
:1098A000BEFE05460E462046103002F0AEFE0021F8
:1098B00028184E412246083231460196009002F0A7
:1098C000C5FE7CBDF0B585B00446864802F014F9AB
:1098D00005462046103002F098FE40080021039112
:1098E00002902046083002F09AFE039B029A8718E5
:1098F0000E465E412846002102F0E2FDB8185E41A6
:10990000224631460196009002F0A0FE05B0F0BD5F
:10991000F0B51FB482B004462046083002F07FFE46
:10992000049B059A181A8A4155D32046FFF7A4FFD5
:10993000002850D02046103002F067FE6A490968BE
:109940006A4A1268514388420AD22046103002F017
:109950005CFE450021461031284602F06EFE09E00B
:1099600061490968614A126851430846214610312D
:1099700002F063FE002020752046103002F045FE04
:10998000002605462046083002F049FE059B049A51
:10999000101A8B412A46019300903346019902F038
:1099A0008FFD07462046083002F039FE05460E4678
:1099B0002046103002F029FE791C484300212A1865
:1099C00030464841009201902246083201990098A1
:1099D00002F03CFE00BF07B0F0BD70B506460C4675
:1099E00015464248066040480460414805703D48BD
:1099F00002F0C2F870BD70B5044615461E462046FA
:109A0000FFF73AFF00280BD02A4633462046FFF7DF
:109A10007FFF207D401CFF2802D0207D401C207548
:109A200070BD70B5044615461E46224608322846CB
:109A3000314602F00BFE214610312C48006802F03E
:109A4000FCFD2046FFF73EFF2046FFF71DFF70BDDF
:109A500070B5044615461E462046103002F0D5FD6E
:109A600022490968884204D92A4633462046FFF72E
:109A7000D8FF70BD10B504462046FFF723FF10BD88
:109A8000F8B507460C4615461E463846FFF7F4FE65
:109A9000002801D1207013E0387D154909788842EB
:109AA00001DA012000E0002020702A4633463846C3
:109AB000FFF72EFF2078002802D13846FFF702FF7B
:109AC000F8BDFF210175704710B50446207DFF28C1
:109AD00006D100202075002213462046FFF7A1FF83
:109AE00010BD0000EC220020B8200020B42000208F
:109AF000BC20002010B586B00446FA480088FA4918
:109B0000884202D1F94806B010BDF9488078002893
:109B100002D1F648401EF6E705A862DF002801D012
:109B20001120F0E76846007D002802D1EF48801C34
:109B3000E9E7EF4881896846818001218171002130
:109B40000181207802280FD004DC002807D00128EA
:109B500011D108E011280BD012280CD105E0E078D3
:109B6000001D00900AE000BF00BF0520009005E046
:109B70000320009002E00120009000BF00BF684673
:109B80000390049401A9D7480088A6DFBBE730B54D
:109B900087B004460D4611216846017044708570F7
:109BA000FFF7A8FF07B030BD30B593B004460020E2
:109BB000129000BF10A8007A01090901491C10A8E1
:109BC0000172007AF0218843103010A9087200BF9A
:109BD00000BF10A8407A01090901491C10A8417270
:109BE000407AF0218843103010A9487200BF10A8B5
:109BF000807A06218843811C10A881721C210BA841
:109C000002F0E4FC08A8007B02218843811C08A81C
:109C10000173007B10218843411808A801730020BC
:109C20000E9012A8109000200C900F900A9008A897
:109C3000007AF02188430146103108A80172007AA9
:109C400001090901491C08A80172407AF0218843E2
:109C50000146103108A84172407A01090901491CE6
:109C600008A84172807A08218843014608A88172B9
:109C7000807A10218843014608A88172807A4108C1
:109C8000490008A88172807A06218843811C08A8AF
:109C900081729848017808A88171042168468184FE
:109CA0002068069060680790217A08A80170142146
:109CB00001A802F08BFC0921684681810021C18145
:109CC0000921018209A8019006A805900AA802901E
:109CD000874908880B1D01AA0BA9A2DF0546002DA4
:109CE00002D0032013B030BD0020FBE710B590B0C8
:109CF0001C2109A802F06AFC08A800790421884305
:109D0000011D08A80171007910218843411808A895
:109D1000017100200E900F900A900D90089008A8F5
:109D20004078F02188430146103108A841704078FE
:109D300001090901491C08A841708078062188435F
:109D4000811C08A88170807808218843014608A8F2
:109D50008170807810218843014608A8817080783E
:109D600041084900491C08A881706248017868468A
:109D700081770521818300210191142102A802F03D
:109D800025FC012168460182002141821B2181823C
:109D900008A8039007A8029001A8069054490888D3
:109DA0000B460C3302AA09A9A2DF0446002C02D0FC
:109DB000032010B010BD0020FBE7F0B585B00546CC
:109DC0000E46174601950297684606730121817079
:109DD00049490180464A69460120A0DF0446002C1B
:109DE00002D0032005B0F0BD4249444863DF044679
:109DF000002C01D02046F5E701A8FFF7D5FE044668
:109E0000002C01D02046EDE7FFF770FF0446002C40
:109E100001D02046E6E70020E4E770B588B00546AB
:109E20000E461446172C02DD092008B070BD2D48DF
:109E300000882D49884210D0002168460171457183
:109E4000290A817101A8C4702246314602A802F095
:109E5000A4FB01A8FFF74EFEE7E72448E5E7F0B5CD
:109E600089B00546288850286FD1E888204989891B
:109E700088426BD12C4620342078002804D0012859
:109E800065D002287DD1B2E0A17862780802104343
:109E90001549884204D12078F221FFF778FE0EE1BF
:109EA000E278A37861781B020B431846211D01F06C
:109EB00021FA0646201D0790E17808A80170A178D4
:109EC00060780902014368464183012141840127EA
:109ED000300015D0012817D0042819D10120694677
:109EE00008761BE0C0200020FFFF000002300000C9
:109EF000FC220020BE200020E4FE000000C901007A
:109F000002206946087609E000206946087605E0E7
:109F10002078F021FFF73BFE002700BF00BF002F95
:109F200012D000BF06A8FEF716FE0590059800287F
:109F300005D07BA2FF21BB310598FEF7E5F800BFF5
:109F400020788021FFF723FEB9E0D8E0B9E0E0787F
:109F5000002802D0012843D119E02279002A01D03B
:109F6000012200E000221146A378667818023043EF
:109F700001F06FFB002805D02078F221FFF707FEE3
:109F800033E097E020788021FFF701FE2DE0207973
:109F9000002812D0A278637811021943084601F014
:109FA0009EFA002804D02078F221FFF7F0FD1CE093
:109FB00020788021FFF7EBFD11E0A2786378110291
:109FC0001943084601F0F3FA002804D02078F22162
:109FD000FFF7DDFD09E020788021FFF7D8FD04E0E0
:109FE0002078F321FFF7D3FD00BF00BF67E0E078E2
:109FF000002802D0012856D131E0A1786278080209
:10A0000010435049884204D12078F221FFF7BFFD68
:10A010004EE000200890A2786378110219430846A8
:10A0200008A901F040FB002804D02078F121FFF7B7
:10A03000AEFD3DE0122168460171A1786078090209
:10A04000014368464171090A8171E17801A8C17034
:10A0500008A8017801A80171FFF74CFD28E0A2785B
:10A06000637811021943084608A901F0BFFA0028D5
:10A0700004D02078F221FFF78AFD19E0122168460A
:10A080000171A17860780902014368464171090AAB
:10A090008171E17801A8C17008A8017801A8017157
:10A0A000FFF728FD04E02078F321FFF770FD00BFE3
:10A0B00000BF04E02078F421FFF769FD00BF00BF76
:10A0C0002BE0E88820498988884209D12C46203431
:10A0D000217A206800F0E4F9606800F075FF1CE068
:10A0E000E9881948008A814217D12020405D002864
:10A0F00001D0012000E00020134988700DE028887D
:10A10000102803D1A8881149088006E02888112862
:10A1100003D10020C0430D49088009B0F0BD000004
:10A120002E2E5C2E2E5C2E2E5C7262635F6D65732C
:10A13000685C7372635C6D6573685F676174742ECD
:10A1400063000000FFFF0000FC220020C020002070
:10A150007FB504460D461646002D16D002206946EE
:10A16000087001940296FEF7C1FD0390204601F0AD
:10A170000AFB684600F059FB002805D00120F94988
:10A180004871204601F029FB00BF204601F025FB65
:10A190007FBD1FB502216846017001210172F1489F
:10A1A000017968464172F048039001A801F0ACFAC9
:10A1B000002800D11FBD6846FEF7C3FA002802D16F
:10A1C000019801F00AFB00BFF4E74A790B7912020B
:10A1D0001A4342800A46083242600A78D21F02724D
:10A1E0007047F0B585B00746384601F08DFB044650
:10A1F00000200190002C2ED06179227909021143B0
:10A20000084601A901F04CF9002824D168460079DC
:10A21000002820D004216846017260792279010269
:10A220001143684641812046083003902078C01FC2
:10A23000C1B2684601740021418200BF02A8FEF746
:10A240008AFC00900098002804D0C8A28E210098B3
:10A25000FDF75AFF00BF384601F0BFFAFEF746FD92
:10A260000021054600F057FF05B0F0BD10B5BD4810
:10A270004079002801D1FFF78CFF10BDF0B585B003
:10A28000064614461D46F279B37912021A43114666
:10A290007279337912021A43104600F020FD0390C0
:10A2A00022462B46304600F044FF07466946039895
:10A2B00048813B0002F020FA06041D36373843443B
:10A2C00031466846FFF781FF0220694608706846FC
:10A2D000FEF741FC00280BD13178C91FCAB2717951
:10A2E000337909021943084631460831FFF795FDD5
:10A2F00026E031466846FFF768FF0020694608708F
:10A300006846FEF728FC00280BD13178C91FCAB275
:10A310007179337909021943084631460831FFF74C
:10A320007CFD0DE00CE00BE031466846FFF74DFF89
:10A330000120694608706846FEF70DFC00E000BF8A
:10A3400000BF05B0F0BDFEB5054693480068002883
:10A3500000D1FEBD2C4660792179000208438F4967
:10A36000401800283FD001287ED120460A3002F054
:10A370004CF989490968496888421ED186480068B5
:10A380000189E27BA37B10021843814215D18248E8
:10A3900000680A3002F039F906462046103002F013
:10A3A00034F9864209D20A22A118684602F0F5F86B
:10A3B0006946042001F074FB14E077480068817856
:10A3C000207A81420ED174480068C178607A814257
:10A3D00008DA227A69460A70607A4870022001F031
:10A3E0005FFB00BF47E0E0794007400F002840D006
:10A3F000A0790007000F042823D120460C3002F07A
:10A4000004F9654909684968884232D162480068A0
:10A410000189627C237C10021843814229D15E4865
:10A4200000680A3002F0F1F806462046123002F0C9
:10A43000ECF886421DD221460C31042001F030FB9D
:10A4400017E0A0790007000F022812D152480068D7
:10A450008178207B81420CD14F480068C178607BB5
:10A46000814206DA214600E004E00C31022001F0CE
:10A4700017FB00E000BF00BF00BF6AE770B50446ED
:10A480000D46384804600571FF20800201F096FBFC
:10A490000221FF20800201F09CFB3F49086070BD53
:10A4A00070B505460C46282C04DA2E480560047168
:10A4B000FFF79CF970BD10B52A4908683849FEF7C6
:10A4C000E1F810BD1FB504460020009001900290F5
:10A4D0000390204601F057F901940021684601726B
:10A4E00020480179684641722E4803900021684651
:10A4F0000170FEF726F9002805D1204601F06DF91C
:10A50000042004B010BD0020FBE7F0B51FB482B0FA
:10A5100015461E46029C6078252804DD204601F081
:10A520005CF907B0F0BD0622E11C00A8013002F082
:10A5300034F820784006C00F69460870204601F0C4
:10A54000E3F90746002F36D07879397900020843BD
:10A55000154988422ADC2A4633463846FFF78EFEE4
:10A5600029E00000C420002051A101002E2E5C2E05
:10A570002E5C2E2E5C7262635F6D6573685C737215
:10A58000635C7472616E73706F72745F636F6E740C
:10A59000726F6C2E63000000CC2000200300FFFFD0
:10A5A0006DA20100E3A10100EFFF00002A4633463F
:10A5B0003846FFF7C8FE204601F00FF905484079FC
:10A5C000002804D0FFF7E5FD00200249487100BFD4
:10A5D000A7E70000C4200020202100BFC2884B1E36
:10A5E00019461A41D207D20F002AF7D001228A4019
:10A5F000C2800022028142817047014648890A894F
:10A60000904201D1012070470020FCE7F8B50446D4
:10A610000D46EFF31080C607F60F72B62046FFF71F
:10A62000ECFF002804D0002E00D162B60E20F8BD49
:10A63000002D15D06089E188491E0840A188484353
:10A6400021684718E068002804D039462846E268A7
:10A65000904704E0A2883946284601F09EFF00BFDB
:10A660006089401C6081002E00D162B60020DEE7C8
:10A67000014608894A89801A7047F8B504460E4693
:10A680001546EFF31080C707FF0F72B62046FFF79D
:10A69000EFFFA84204D8002F00D162B60E20F8BD0B
:10A6A00060894019E188491E0840A1884843216813
:10A6B00040180090E068002804D0E2683046009915
:10A6C000904704E0A2883046009901F066FF002F11
:10A6D00000D162B60020E2E770B504460D460022C4
:10A6E00029462046FFF7C9FF70BD018941817047A7
:10A6F00038B504462078002804D001281ED002284E
:10A700003CD134E00321C9036068884204D30121AD
:10A710004907606888420BD900BF1020009000985C
:10A72000002804D094A23D210098FDF7EDFC00BF65
:10A73000A268104600216368984720E00321C903FE
:10A740006068884204D301214907606888420BD9B8
:10A7500000BF102000900098002804D086A241215C
:10A760000098FDF7D1FC00BF6068804707E0201D1E
:10A7700023C82A460023FFF7C8FE00BF00BF00BF62
:10A7800038BD7FB5044669462046FFF73FFF0546C2
:10A79000002D05D16846FFF7ABFF012004B070BD66
:10A7A0000020FBE710B513E000247D48FFF7E9FF28
:10A7B0000443FFF726F8002358405940084303D0CC
:10A7C0007848FFF7DEFF0443002C00D101E000BF12
:10A7D000EAE700BF10BD10B573480078002800D02C
:10A7E00010BD08206E49C88070480860102088801D
:10A7F0000020C8600846FFF7EFFE08206949C880BE
:10A800006B480860102088800020C8600846FFF769
:10A81000E3FE122000F066F80321122000F072F827
:10A8200001206149087000BFDAE770B504460026D0
:10A830002078012802D0022803D100E000BF584E42
:10A8400001E0584E00BF00BF2146304602F01FF81D
:10A850000546002D01D0284670BD122000F04AF8B0
:10A860000020F9E710B54F48FFF73FFF10BD10B5C6
:10A870004B48FFF7C2FE002804D04A48FFF7BDFE50
:10A88000002802D1122000F035F810BDEFF310803F
:10A89000C107C90F72B6474802680068401C454BA3
:10A8A0001860002A06D1122001228240424B1A6011
:10A8B00000BF00BF002900D162B6704710B5EFF3AA
:10A8C0001080C407E40F72B63A480068401E394948
:10A8D0000860002802D1122000F004F8002C00D1FA
:10A8E00062B610BDC206D20E01219140324A803AB2
:10A8F00011607047C206D20E012191402E4A80326B
:10A900001160704710B5002819DA2C4A03071B0F95
:10A91000083B9B089B00D2588307DC0EFF23A34013
:10A920009A438B071B0E8407E40EA3401A43234B64
:10A930000407240F083CA408A4001A511AE01E4A78
:10A94000803A03231B02D21883089B00D258830746
:10A95000DC0EFF23A3409A438B071B0E8407E40EF3
:10A96000A3401A43144B803B032424021B19840880
:10A97000A4001A5110BD00002E2E5C2E2E5C2E2E2F
:10A980005C7262635F6D6573685C7372635C65764D
:10A99000656E745F68616E646C65722E63000000A2
:10A9A00010230020A0230020D020002020230020FE
:10A9B000B0230020D420002080E100E01CED00E066
:10A9C0000188F94A914202D1C821018002E0018840
:10A9D000491C0180704710B50446002C00D110BD01
:10A9E000A069002804D0A06900F0F7FE0020A06153
:10A9F0002046FFF769F800BFF1E770B5002511E0C8
:10AA00001C206843E94940188069002809D11C21AD
:10AA10006943E64A881800221346FFF702F8A8B2F5
:10AA200070BD6D1C142DEBD3E14804680AE00A20C8
:10AA30006043E0494018C0884404640C642C01D190
:10AA40001420EDE70A206043DA49401800891428F1
:10AA5000EDD00A2060434018C088C00B0028E6D122
:10AA60000A2060434018068914210A206043D14A15
:10AA7000801801811C217143CC4A8818FFF7ABFF75
:10AA80003046CDE70246CC48008881B20CE0C84889
:10AA90000068884201D1642070470A204843C54BB2
:10AAA000C01880884104490C0A204843C14B185AF9
:10AAB0009042ECD10846EFE770B50546FFF7E6FE99
:10AAC0002846FFF7DFFF0446642C43D1B8480088CE
:10AAD00084B20CE00A206043B6494018C0884404A0
:10AAE000640C642C03D1FFF7E9FE204670BD0A20F8
:10AAF0006043B0494018C088C00B0028EAD10A2042
:10AB000060430D520A206043401880880121C90328
:10AB100088430A216143A74A8918888000210A20B6
:10AB20006043801841800A20604311464018008924
:10AB300014280FD00A216143891809891C22514326
:10AB40009A4A8818FFF747FF14210A206043994A60
:10AB50008018018196480068844225D09648006894
:10AB6000844237D00A2060439249401880884004CC
:10AB7000400C0A2148438F494018C088C00BC003CD
:10AB80000A2161438B4A8918C9884904490C084342
:10AB90000A216143891889884904490C0A225143D2
:10ABA000844A8918C88015E00A206043814940180A
:10ABB000C0884004400C7E4908600A2060437D49FB
:10ABC00040188088C00BC00364300A216143794A71
:10ABD000891888807848006884425AD00A206043E7
:10ABE00074494018C0884004400C64281FD00A20D3
:10ABF00060434018C0884004400C0A2148436D4916
:10AC000040188088C00BC0030A216143694A891833
:10AC100089884904490C08430A2161438918C98875
:10AC20004904490C0A225143624A891888800A2043
:10AC3000604360494018C088C00BC00364300A21DB
:10AC400061435C4A8918C8800A2060431146401855
:10AC50008088C00BC003584909884904490C08433F
:10AC60000A21614389188880534800680A214843B3
:10AC700011464018C088C00BC0036104490C08434A
:10AC80004D4909680A2251434A4A8918C8804A48EE
:10AC90000460494800680A21484346494018C08872
:10ACA000C00BC0036430444909680A225143414A39
:10ACB0008918C8803E4800680A2148431146401858
:10ACC0008088C00BC0036430394909680A225143A7
:10ACD000384A89188880FFF7F1FD204606E70246CA
:10ACE000C82A08DA35481018884201DD881A00E0C1
:10ACF000324800B27047C82909DA30480818904233
:10AD000001DD881A01E02D48C04300B2F2E791420C
:10AD100001DB881A00E0501A03462848834208D90C
:10AD20008A4203DD1046C83082B202E00846C830CD
:10AD300081B2881A00B2DDE7FFB581B00E46174632
:10AD40001D460198FFF7B8FE0446642C0BD100BFE6
:10AD5000042000900098002804D019A2FE21009839
:10AD6000FDF7D2F900BF0A216143124A89184888C9
:10AD70003146FFF7B4FF28800A2060430D49401890
:10AD80004088002801DD012000E00020387000200C
:10AD9000285E002804DD0A206043064940184680EA
:10ADA000204605B0F0BD0000FFFF0000182800207D
:10ADB000DC20002030240020D8200020FF7F00006D
:10ADC0002E2E5C2E2E5C2E2E5C7262635F6D657380
:10ADD000685C7372635C76657273696F6E5F6861DD
:10ADE0006E646C65722E630038B505462846FFF721
:10ADF00063FE0446642C0CD100BF04200090009830
:10AE0000002805D0FE4AFF2114310098FDF77CF997
:10AE100000BF0A216143FB4A8918881CFFF7D0FD57
:10AE2000204638BDF0B587B004460D46FEF7E6FC77
:10AE300006460F460020059058E004E0F2480088DE
:10AE40001438F1490880F04800881428F6DAEE48F2
:10AE500000881C214843ED494018806900283DD0F6
:10AE6000E94909881C225143E84A881801F0D7FBB8
:10AE70003B46A2196B41101A8B412FD3002104913C
:10AE8000A1192846784102910390DF4800881C21CF
:10AE90004843DE494018019004A9039B029AFEF73B
:10AEA000EFFD6846007C002817D0D74909881C228E
:10AEB0005143D64A89188869FFF704FB0390039829
:10AEC000002808D1D04909881C225143CF4A88184C
:10AED000FEF7D0FD00E00CE000BF00BFCA480088CC
:10AEE000401CC94908800598401C05900598142805
:10AEF000A3D300BF2046294600F002F807B0F0BDFA
:10AF0000F0B585B0FEF77AFC0290FEF77AFC01916D
:10AF100000900021C9430C460D46BD48008887B209
:10AF200000BF0A207843B74940180689142E17D06D
:10AF30001C207043B54940188069002810D01C219E
:10AF40007143B24A881801F06AFB001BA94107D27D
:10AF50001C217143AD4A881801F061FB04460D467F
:10AF60000A207843A7494018808847047F0CA948E5
:10AF700000688742D5D12A4600990198611A82411A
:10AF800005D20298211AA44A0120FDF7F3FE05B06C
:10AF9000F0BD70B504460D46002C05D0002D03D041
:10AFA00020782978884201D0012070BD2078C21F06
:10AFB000294608312046083001F01AFB002801D04C
:10AFC0000120F2E70020F0E710B5044693488442E0
:10AFD00002D39348844201D9072010BD03227D216A
:10AFE00009012046FEF7F9FC0020F6E770B5064699
:10AFF0003046FFF7E9FF0546002D01D0284670BD19
:10B0000000240EE01C216143804A88180022134668
:10B01000FEF707FD00211C2060437C4A80188161F7
:10B02000641C142CEED3002046E00022D2430A21F7
:10B030004143744B5A5200220A214143C9184A80A5
:10B040000A2141431A468918C9880122D203914333
:10B050000A224243D218D1800A2141431A46891854
:10B0600089880122D20391430A224243D218918057
:10B0700014220A214143C9180A810A2141431A4670
:10B080008918C988C90BC903421E5204520C1143C6
:10B090000A224243D218D1800A2141431A46891814
:10B0A0008988C90BC903421C5204520C11430A225D
:10B0B0004243D2189180401C6428B6D300205449E2
:10B0C0000860632053490860514800680A214843DA
:10B0D0004C494018C088C00BC00364304C49096813
:10B0E0000A225143474A8918C8804A4800680A2101
:10B0F0004843114640188088C00BC003643045495E
:10B1000009680A2251433F4A89188880012045492D
:10B110000870002073E77FB504460D46002069469D
:10B1200008703D48019002946846FFF77EFB04B02A
:10B1300070BDF0B51FB488B007463A4800780028C3
:10B1400002D105200DB0F0BD384600F00BFB079092
:10B150000798002801D10520F4E700210691059108
:10B16000F879B979000208430390787939790002B7
:10B17000084305AB06AA02900399FFF7DDFD049092
:10B180000A21049848431F4940180489FEF736FBFA
:10B1900005460E4668461421415E002916DA142C35
:10B1A00012D00B990A982A1830464841029203900F
:10B1B0001C206043154940180190039BFEF748FC92
:10B1C00000200146FFF7A7FF0220BBE76846808A00
:10B1D000002855D1142C01D10320B3E7F879B979AF
:10B1E0000002084300283ADD6846007E002836D079
:10B1F0001C216143054A8918886900F085FB13E02A
:10B20000C0AD010030240020E220002018280020DA
:10B21000D8200020DC20002025AE0100881300008B
:10B2200000879303E020002039460390FFF7B1FE2A
:10B23000002814D00B990A982A18304648410292E7
:10B2400003901C206043FA4940180190039BFEF7CD
:10B25000FFFB00200146FFF75EFF042072E70B9919
:10B260000A982A1830464841029203901C206043F5
:10B27000EF4940180190039BFEF7BDFB032061E7F7
:10B28000142C09D1FFF7B9FB04460A220499514353
:10B29000E84A89180C8106E01C216143E44A8918B8
:10B2A000886900F09AFA079800F0A8FB079800F068
:10B2B0006AFA1C216143DE4A8918079888610B9954
:10B2C0000A982A1830464841029203901C20604395
:10B2D000D74940180190039BFEF7BAFB00200146B6
:10B2E000FFF719FF6846007E002801D0012029E7FA
:10B2F000002027E7F7B586B0CF480078002802D1B4
:10B30000052009B0F0BDFDF7F1FC05460026FEF76B
:10B3100075FA40197141039102900698FFF764FD98
:10B3200007460A207843C34940180489142C13D1D6
:10B33000FFF763FB04461C216143BD4A8918084698
:10B34000183000F0E1F9002801D10520D9E70A20E2
:10B350007843B84940180481089800900A2078433F
:10B36000B449401842881C206043B14940188069A4
:10B370000190079B069900F090FA04900498002829
:10B3800001D00520BDE71C216143A94A8818FEF7BA
:10B390009BFB0A207843A7494018408801280BD11D
:10B3A000002005901C206043A14940180190039B98
:10B3B000029AFEF736FB0AE0012005901C2060434C
:10B3C0009B4940180190039B029AFEF741FB2846D7
:10B3D0003146FFF7A0FE059893E710B564200021E1
:10B3E000FFF799FE10BDF7B5154693480078002881
:10B3F00001D10820FEBD0098FFF744FB0646642EED
:10B4000001D10520F6E70A2070438A4940180789D0
:10B41000142F06D01C2078438549401880690028E5
:10B4200001D10520E6E71C217943814A8918886902
:10B4300000F06AFA044629882078C01F814202DDA4
:10B440002078C01F28802A8821460831019801F001
:10B45000A4F80020CEE770B506460D467648007881
:10B46000002801D1082070BD3046FFF70BFB0446D1
:10B47000642C01D10520F6E70A2060436D4940188D
:10B4800080880121C9038843E9030122D2031140C6
:10B4900008430A216143674A891888800020E2E74F
:10B4A00070B505460E4664480078002801D1082092
:10B4B00070BD6248854201D11020F9E72846FFF7A8
:10B4C000FBFA0446642C01D10520F1E70A20604311
:10B4D000584940188088C00B30700020E8E7F1B56B
:10B4E00086B055480078002802D1082007B0F0BD8A
:10B4F000FDF7FCFB05460026FEF780F94019714177
:10B50000059104900698FFF7D7FA07460A2078437A
:10B51000484940180489142C3DD1FFF76EFA0446BF
:10B520001C216143424A89180846183000F0ECF8A3
:10B53000002801D10420D9E7002000901C2060439E
:10B540003B494018806900231A460290069900F092
:10B55000A4F90390039800280ED01C216143344ABB
:10B560008918886900F039F900211C206043304AAD
:10B57000801881610320B9E70A2078432D494018DB
:10B5800004811C2060432A4940180290059B049ABC
:10B59000FEF747FA05E01C216143254A8818FEF7AB
:10B5A00093FA28463146FFF7B6FD00209EE770B5B6
:10B5B000064621480078002801D1082070BD304699
:10B5C000FFF760FA0446642C01D10520F6E70A2053
:10B5D0006043184940180589142D05D01C21694382
:10B5E000134A8818FEF76DFA0020E7E7F8B507461A
:10B5F0000C4611480078002801D10820F8BD0F48FA
:10B60000874201D11020F9E73846FFF755FA054681
:10B61000642D02D100202070F0E70A20684305491C
:10B6200040180689142E0BD100202070E6E7000098
:10B630001828002030240020E0200020FFFF000018
:10B640001C217143274A8818FEF716F92070002044
:10B65000D4E770B505460E4623480078002801D18E
:10B66000082070BD2148854201D11020F9E7284605
:10B67000FFF722FA0446642C01D10520F1E70A20E5
:10B6800060431B494018C0880121C9038843F10366
:10B690000122D203114008430A216143144A891848
:10B6A000C8800020DDE770B505460E460E480078DC
:10B6B000002801D1082070BD0C48854201D110201E
:10B6C000F9E72846FFF7F8F90446642C01D1052074
:10B6D000F1E70A20604306494018C088C00B30706B
:10B6E0000020E8E718280020E0200020FFFF0000ED
:10B6F00030240020002003E00021D04A1154401CD7
:10B700003728F9D37047704738B50546002119E04E
:10B71000EFF31080C407E40F72B6C848405C0028FD
:10B720000CD10120C54A505428204843C44A8018EF
:10B730002860002C00D162B6012038BD002C00D159
:10B7400062B6491C3729E3D300BF0420009000985B
:10B75000002804D0BBA249210098FCF7D5FC00BF0B
:10B760000020EAE770B50446B549601A282100F0C8
:10B7700091FE0546372D04D228206843B049401871
:10B7800070BD0020FCE7F8B50546AD49681A2821D0
:10B7900000F080FE0446372C01D90020F8BDEFF3FD
:10B7A0001080C607F60F72B6A448005D401CC0B2F8
:10B7B000A249085500280BD100BF04200090009832
:10B7C000002804D09FA265210098FCF79DFC00BFD3
:10B7D000002E00D162B60120E0E7F8B50646984990
:10B7E000701A282100F056FE0446372C01D900209B
:10B7F000F8BDEFF31080C507ED0F72B68F48005DFE
:10B80000002810D100BF082000900098002804D024
:10B810008CA276210098FCF777FC00BF002D00D1A8
:10B8200062B60020E4E78548005D401E8349085564
:10B83000002D00D162B68148005D002801DD0120A5
:10B84000D6E70020D4E770B504467D49601A282168
:10B8500000F020FE0546372D01D9002070BD774845
:10B86000405DFBE77CB50446684671DF0546002D68
:10B8700001D028467CBD207840218843694609785C
:10B8800089014022114008432070062200A901319D
:10B89000E01C00F082FE0020ECE7FFB581B0054619
:10B8A0001F460A9E002D02D10E2005B0F0BD2C4689
:10B8B0000934172E01DD0920F7E72846FFF7D2FFEC
:10B8C00030460E306870287800090001801C28700E
:10B8D000F01D2070162060706348A070000AE070B0
:10B8E00002982071000A60710398A071000AE0714B
:10B8F000002E07DD002F05D032463946204608309D
:10B9000000F04BFE0020D0E70246002A00D170472D
:10B91000114609315078062802DD5078252801DDCE
:10B920000020F4E70FE00B7810460930081A1B18C6
:10B930005078801F834201D90020E8E70878401C36
:10B940004301181A091848781628ECD1C8788B7862
:10B9500000021843444B9842E5D10846D7E730B57A
:10B9600004462046FFF7D0FF0546002D01D10B20ED
:10B9700030BD2046093085420ED02878401CC1B227
:10B98000002004E02B5C224609321354401C8842FC
:10B99000F8D32546093500BF2878C01D6070002007
:10B9A000E6E730B505462846FFF7AEFF0446002C13
:10B9B00001D12E4830BD6079217900020843F9E7B2
:10B9C00002461146093110E04878162806D1C87899
:10B9D0008B7800021843244B984201D00120704715
:10B9E0000878401C4301181A09185078C01F1346E4
:10B9F0000933C0188842E7D80020F0E710B50446A4
:10BA00002046FFF7DDFF002802D02046FFF7A7FF02
:10BA10002046FFF727FF10BD70B504460849601A9D
:10BA2000282100F037FD0546372D04D22820684331
:10BA30000349401870BD0020FCE70000E032002000
:10BA4000482A00202E2E5C2E2E5C2E2E5C72626305
:10BA50005F6D6573685C7372635C6D6573685F705E
:10BA600061636B65742E6300E4FE0000FFFF00005D
:10BA700010B51D490A6800200FE0012181401140E6
:10BA8000002909D041B2CC06E40E0123A340164C94
:10BA90008034236000BF00BF401C2028EDD310BDC0
:10BAA00070B504460D4611484069401C002815D069
:10BAB000FFF7DEFF0E480068002808D02946204620
:10BAC0000B4A12689047002801D1112070BD094827
:10BAD0003EDF012044DF35DF0020F7E70F20F5E7E8
:10BAE000034908607047000000E100E0001000100A
:10BAF000E42000200F000F0001460879C0064B68C3
:10BB00005B0918430B681A1A088940048B68DB0B21
:10BB100018434B6858400860CB688868C018486074
:10BB2000C8688018886008688018C860C86870474E
:10BB3000F8B507460D4600241AE000BF684639DF15
:10BB4000684600780028F9D0281B694609788842A1
:10BB500002D2281BC0B200903819694609783ADF32
:10BB60000646002E01D00320F8BD68460078241850
:10BB7000AC42E2D30020F7E7F8B50446002000907D
:10BB800004216846FFF7D4FF0546002D01D0284662
:10BB9000F8BD09482060009860600098A060009897
:10BBA000E060002603E02046FFF7A6FF761C142E77
:10BBB000F9D30020ECE70000ED5EEAF101468805CC
:10BBC000800D002801D0102070471B480160002024
:10BBD000FAE770B502460B4617480068002829D0DE
:10BBE000154800684078FF2824D010788118002577
:10BBF0004C8817E008460688B60036183146012002
:10BC00008002101881420AD80C48844201D19C421B
:10BC100005D1681C054601267602B04201D90020F4
:10BC200070BD4C889C42E5D1034800684078800094
:10BC30004018F5E70020F3E7E8200020FF7F000030
:10BC40000748026803210A43026006488047064805
:10BC50000047FEE7FEE7FEE7FEE7FEE7FEE700003F
:10BC60002405004011BD0100C18001003248334964
:10BC7000086070473248008CC0B2012812D13048A9
:10BC8000808C0007000F00280CD12D48806AF0211D
:10BC90000840402806D12A48C06A0840002801D13F
:10BCA000012070470020FCE72548008CC0B2012825
:10BCB0002CD12348808C0007000F002826D1204873
:10BCC000806AF0210840002806D11D48C06A08405B
:10BCD000002801D1012070471948806AF0210840EE
:10BCE000102806D11648C06A0840002801D101205A
:10BCF000F1E71348806AF0210840302806D1104847
:10BD0000C06A0840002801D10120E4E70020E2E7F2
:10BD100010B5FFF7C9FF002805D00A480A49486056
:10BD2000C8130A498861FFF7A5FF002802D0012047
:10BD30000749886010BD00000024F400EC200020BA
:10BD4000C00F00F0DFFF07C000050040006C00409E
:10BD500000060040F7B584B004460F460698067802
:10BD6000B01C1F2803DC6078801C1F2802DD0C201B
:10BD700007B0F0BD1F20801B801E85B20295B11C4C
:10BD8000781802A97DDF03900398002801D003985A
:10BD9000EEE72078022808D168460089A84204DC32
:10BDA00009200190684605890BE008200190607821
:10BDB000002804D06078A84201DC657801E068467C
:10BDC0000589681CC2B23046711CCEB23A54304666
:10BDD000721CD6B20199395406980178A81C08182B
:10BDE000C1B2069801700020C2E7F8B505460C46BE
:10BDF0002078001D1F2801DD0C20F8BD684679DF82
:10BE00000646002E01D03046F7E703212278501C69
:10BE10002070A95419212278501C2070A954207830
:10BE200041196846008800F05EFA217840182070B9
:10BE30000020E2E730B503461078C01C1F2801DD62
:10BE40000C2030BD02241578681C10704C550A2453
:10BE50001578681C10704C551578681C10704B557F
:10BE60000020EEE7FFB587B006461D46109C002077
:10BE7000069020780590002747E0B90070684118C7
:10BE80000A886846028149884181002203A902A8E4
:10BE900065DF04900498002802D004980BB0F0BD30
:10BEA0006846017B099881422ED10698002801D06E
:10BEB000002000E00220019020786946097B4118AB
:10BEC000019808181F2801DD0C20E7E706980028D4
:10BED00009D12078401C20702278511C08982170CC
:10BEE000A854012006902078421903A902A865DF12
:10BEF00004900498002801D00498CFE72078694680
:10BF0000097B4018207000BF7F1C3088B842B4DC29
:10BF10000698002806D021780598401C081AC1B25E
:10BF2000059829540020B9E7FFB581B007461546AA
:10BF30000A9E009602223846049B0299FFF792FF60
:10BF40000446002C02D0204605B0F0BD0096102219
:10BF500029463846049BFFF785FF0446002C01D094
:10BF60002046F1E70020EFE701460888062808DBB5
:10BF700008881922D201904205DD0888DE4A9042E5
:10BF800001D0072070474888062808DB4888192216
:10BF9000D201904205DD4888D74A904201D007205F
:10BFA000F0E70888D44A904208D04888904205D0EB
:10BFB00008884A88904201DD0720E3E70020E1E796
:10BFC000F8B506460D4614462078801D1F2801D975
:10BFD0000C20F8BD3046FFF7C7FF0746002F01D001
:10BFE0003846F6E705212278501C2070A95412210A
:10BFF0002278501C2070A95422785119308800F002
:10C0000072F921784018207022785119708800F058
:10C010006AF92178401820700020DAE7F8B5054663
:10C020000E4614462879801CC7B22078801CC0199F
:10C030001F2801DD0C20F8BD781CC1B22278501CED
:10C040002070B154FF212278501C2070B154227806
:10C050009119288800F047F9217840182070A888A5
:10C0600000280EDDA868002801D10720E3E7AA8890
:10C0700023789819A96800F090FA20782979401857
:10C0800020700020D7E7FEB507460E461446B86A72
:10C09000002801D10720FEBD0020019032E0B96ADE
:10C0A0000C22019850430D182879801CC0B20090D2
:10C0B0000098401CC1B22278501C2070B154162147
:10C0C0002278501C2070B15422789119288800F0F1
:10C0D0000AF9217840182070A88800280EDDA86889
:10C0E000002801D10720D6E7AA8823789819A968E3
:10C0F00000F053FA20782979401820700198401CEC
:10C10000C0B201902C20C15D01988142C7DC0020A3
:10C11000C1E7F8B504460F461546002600202870F2
:10C120002078002809D02A4639462046FFF712FE1B
:10C130000646002E01D03046F8BDA078002808D071
:10C1400029463846FFF751FE0646002E01D03046FC
:10C15000F2E7E07800280ED002212A78501C2870DF
:10C16000B95401212A78501C2870B954E1782A78F2
:10C17000501C2870B954606800280BD000206168FA
:10C1800008562A463946FFF755FE0646002E01D0CE
:10C190003046D1E7208900280CDD3B4606220221EB
:10C1A000204608300095FFF7BFFE0646002E01D05E
:10C1B0003046C1E7208A00280CDD3B4607220321D8
:10C1C000204610300095FFF7AFFE0646002E01D046
:10C1D0003046B1E7208B00280CDD3B4615221421A8
:10C1E000204618300095FFF79FFE0646002E01D02E
:10C1F0003046A1E7206A002809D02A463946206A3D
:10C20000FFF7DEFE0646002E01D0304694E7606A56
:10C21000002809D02A463946606AFFF7FFFE064625
:10C22000002E01D0304687E72C20005D002809DD74
:10C230002A4639462046FFF726FF0646002E01D043
:10C24000304679E7304677E70146C8780422104047
:10C25000002801D1072070470020FCE70146C8787C
:10C26000002801D0072070470020FCE7F3B593B009
:10C270000D460021129111911398002814D01398A3
:10C28000FFF7E2FF0446002C02D0204615B0F0BDB7
:10C2900012AA09A91398FFF73CFF0446002C01D00D
:10C2A0002046F3E709AE00E00026002D13D0284613
:10C2B000FFF7D4FF0446002C01D02046E6E711AA80
:10C2C00001A92846FFF725FF0446002C01D020468F
:10C2D000DCE701AF00E0002710A803793A46017AB5
:10C2E000304672DFD2E702460A70FF20000210409B
:10C2F0000012487002207047FFFF000070B506462C
:10C300000C46154629462046C046C04670BDF8B5C5
:10C3100058480078002800D1F8BD57480068002828
:10C3200001D1012000E000200546544800680028A3
:10C3300001D1012000E00020064600BF002D13D1EE
:10C34000684651DF0446052C01D101250BE0002C85
:10C3500005D04B4A65212046FBF7D6FE03E046494F
:10C3600000980968884700BF002E19D14548008809
:10C37000009069464448006861DF0446052C01D1FD
:10C3800001260CE0002C05D03D4A7C212046FBF71D
:10C39000BBFE04E03C48006838490968884700BF94
:10C3A000002D02D0002E00D000E0C7E700BF00BF84
:10C3B000B2E7FFB581B00C4616461F46002C02D1ED
:10C3C000072005B0F0BD20468107890F002901D163
:10C3D000012100E00021002901D10720F1E72A48CE
:10C3E000046028480680294807602949019810DF21
:10C3F0000546002D01D02846E3E701201D490870BD
:10C4000016202EDFDDE710B511DF0446002C01D029
:10C41000012000E0002017490870204610BD0146A9
:10C42000002901D10E207047144801600020FAE76E
:10C430000146002901D10E2070470F4801600020FD
:10C44000FAE738B511480068002810D00F48006896
:10C450008047044600BF00940098002805D0084A91
:10C46000FF212A310098FBF74FFE00BF01E0FFF7E4
:10C470004EFF38BDF42000200421002000210020C0
:10C4800010C90100FC200020F8200020F02000202E
:10C49000FDC2010030B50B460146002020220124D8
:10C4A00009E00D46D5409D4205D31D469540491BE8
:10C4B0002546954040191546521E002DF1DC30BD31
:10C4C000F0B51FB40646002082B005464024019115
:10C4D00000901BE0019922460F46304600F0D5F847
:10C4E000049A059B801A994110D31046194622469A
:10C4F00000F0BBF8361A8F41019722460120002137
:10C50000009F00F0B2F838184D4100902046641E9C
:10C510000028DFDC019B00982946324607B0F0BDB9
:10C52000F0B51FB486B000200090019002900698EC
:10C53000069980B204900798090C02040014114374
:10C5400007900027089D099806913E463C460390B7
:10C550000398A9B20204000C039004982D0C154313
:10C5600048430021224600F080F8C7197141103479
:10C570000E46402CECDB3846029A00F076F8009A22
:10C58000019B80180090594102980191103002904F
:10C590004028CCDB00980BB0F0BD03460B439B0753
:10C5A00003D009E008C9121F08C0042AFAD203E028
:10C5B0000B780370401C491C521EF9D27047D2B24E
:10C5C00001E00270401C491EFBD270470022F6E7D2
:10C5D00010B513460A4604461946FFF7F0FF2046F9
:10C5E00010BD421C0178401C0029FBD1801A704705
:10C5F00030B504460020034600E05B1C934203D2A2
:10C60000E05CCD5C401BF8D030BD0321001D401E16
:10C61000037812021A43491EF9D5104670470346A3
:10C6200010B508330722040E090221435B1E1C7853
:10C6300000022043521EF6D510BD034603220870A7
:10C64000000A491C521EFAD51846704770B50446B8
:10C650000D46072310700E06000A3043090A521CCB
:10C660005B1EF7D52046294670BD10B5202A04DB95
:10C670000146203A9140002010BD914020239C1A91
:10C680000346E3401943904010BD10B5202A04DB57
:10C690000846203AD040002110BD0B46D340D04080
:10C6A0002024A21A91400843194610BD064C0125CA
:10C6B000064E05E0E36807CC2B430C3C984710344A
:10C6C000B442F7D3FBF700FD68C9010088C9010037
:10C6D0000FB410B504A9074B02AA039800F02AF87A
:10C6E000044602A9002000F0CDF8204610BC08BC8A
:10C6F00004B0184785C8010030B47446641E25781C
:10C70000641CAB4204D3635D5B00E31830BC184784
:10C710001D46F8E702E008C8121F08C1002AFAD136
:10C7200070477047002001E001C1121F002AFBD1B1
:10C7300070470000FFB58DB00446002506E02528AF
:10C740000AD0109A0F999047641C6D1C207800281D
:10C75000F5D1284611B0F0BD00270121484A0097C5
:10C7600000E00743641C23780846203B98401042B1
:10C77000F7D120782E2817D1042007436078641C55
:10C780002A280CD10E98641C02C800910E900BE070
:10C7900000990A22514330394018641C00902078D7
:10C7A000014630390929F3D920780028D1D06428EE
:10C7B00008D0692806D075281ED0109A0F99904786
:10C7C0006D1C5BE00A200E99019001C90E910028B2
:10C7D00002DA40422D2102E0390504D52B216A46B8
:10C7E0001172012103E0F90704D02021F7E70BAE15
:10C7F0000B910DE00021FAE70A200E99019001C982
:10C800000E91F7E70199FFF745FE3031761E317042
:10C810000028F7D103A8801B20300190780701D5AC
:10C82000009801E0012000900199884201DD401A42
:10C8300000E000200027009006E002A8109AC05DEA
:10C840000F9990476D1C7F1C0B988742F5DB04E025
:10C85000109A30200F9990476D1C0099481E009047
:10C860000029F5DC05E03078109A761C0F99904786
:10C870006D1C0199481E01900029F4DC641C65E7D9
:10C88000092801000A68531C0B6010707047F8B546
:10C8900004460F46EFF31080C507ED0F72B66089AE
:10C8A000E18840182189884204D1002D00D162B668
:10C8B0000420F8BD2089E188491E0840A18848432A
:10C8C00021684618E068002804D039463046E268FE
:10C8D000904704E0A28839463046FFF75EFE208983
:10C8E000401C2081002D00D162B60020E1E700004D
:10C8F00011000000020000001A00000050000000BB
:10C900001ECD00008CB9A88B82D851FDA1771E2ABC
:10C910002E2E5C2E2E5C2E2E5C2E2E5C2E2E5C2E51
:10C920002E5C636F6D706F6E656E74735C736F6693
:10C93000746465766963655C636F6D6D6F6E5C735F
:10C940006F66746465766963655F68616E646C6563
:10C95000725C736F66746465766963655F68616E47
:10C96000646C65722E63000088C9010000200020FD
:10C970000801000014C7010090CA0100082100202E
:10C98000101A000024C70100000000000000000091
:10C990000000000000000000400100000000000056
:10C9A0000C07100000000000030000000000000061
:10C9B0000000000000000000000000000000000077
:10C9C0000000000000000000010000000001000065
:10C9D00010270000102700000000000000010000E8
:10C9E0001027000050C300000000000000000000FD
:10C9F0000000000000000000000000000000000037
:10CA00000000000000000000000000000000000026
:10CA100000000000000000001027000000000000DF
:10CA20000000000000000000000000000000000006
:10CA300000000000000000000000000000000000F6
:10CA40000000000000000000FFFF000000000000E8
:10CA500000000000000000000000000000000000D6
:10CA600000000000000000000000000000000000C6
:10CA7000000000000024F40000000000000000009E
:10CA800000000000000000000000000000000000A6
:04000005000180C1B5
:00000001FF
