:020000040003F7
:10C40000E03F0020C1EB0300D3EB03000DC50300A8
:10C41000000000000000000000000000000000001C
:10C42000000000000000000000000000D7EB030047
:10C430000000000000000000D9EB0300DBEB03006C
:10C44000DDEB030059E503007BF80300DDEB03009F
:10C45000DDEB030000000000DDEB0300DDEB03007B
:10C46000DDEB0300DDEB0300DDEB03003DE8030043
:10C47000DDEB0300DDEB0300DDEB0300DDEB030090
:10C48000DDEB0300DDEB0300DDEB0300DDEB030080
:10C4900023E503000DF8030011C50300DDEB0300E5
:10C4A000DDEB0300DDEB03000000000000000000F6
:10C4B000000000000000000000000000000000007C
:10C4C0000348854603F07AFB0048004741C5030056
:10C4D000E03F0020056885F308884068FF2464B2C7
:10C4E000EFF30585002D01D1A646004725460646F7
:10C4F00021273FBAF0B40024002500260027F0B41D
:10C50000F92040B20047000000BEFEE700BEFEE793
:10C5100010B502F048FE10BD10B502F03FFF002834
:10C520000DD04179027909021143264A914206D978
:10C5300001780022C91E89B2001D01F065F910BD05
:10C5400001218A07116020480368002BFCD00024D9
:10C55000046091604368002BFCD044601161C168A5
:10C560000029FCD0C46019490868FF2212049043D6
:10C570000122D2051043086015495010086062B6C8
:10C5800002F073F902F0FEFD1249134801F0EAFFD0
:10C590007F21FF20C902800202F03DFA002802D06C
:10C5A000072000F054FB01F0A7F80C4DE8690028C3
:10C5B00001D100F04CFBEC6101F0ECF802F007F85F
:10C5C00020BFFDE7EFFF00000001004014E400E0A1
:10C5D00000E100E0D6BE898E19C5030000050040C9
:10C5E00070B50022FB4D4418D1004B1999691833DE
:10C5F00000290BD0814201D3A14205D3814205D845
:10C600009E888919814201D9184670BD521C402A62
:10C61000EAD3002070BD70B504460D46881C81B277
:10C62000601EFFF7DDFF00280FD00168A14206D889
:10C630006219511A8288914200D9818070BD828826
:10C64000091B51188180046070BDE2490020C200BE
:10C6500052189269002A06D0401C4028F7D30220C5
:10C6600000F0F5FA70BDC000401884618583DA4897
:10C670008169491C816170BD70B5D64C0125606827
:10C680002168800A890A80028902401A2169AD0264
:10C690004018D14900232A461C3102F0E7FECE485B
:10C6A000FF2229461C3003F057FA0020606170BD5C
:10C6B00010B587218900C74803F055FAC648012103
:10C6C000FF2289021C3003F047FA10BDF0B587B095
:10C6D00017460D460446FFF7EBFF381900092109FC
:10C6E00000010901401A0003000C0690B808800000
:10C6F00000190090A005A60A800DB6020290A5427E
:10C7000006D0002D04D0A0055AD0102007B0F0BDEF
:10C71000002005900490A00507D001200590AE48A8
:10C7200031461C30029A03F005FA0098AA4A810AA1
:10C73000B8088000001980050123800D9B021C327F
:10C740001D1A89028018039101908E4209D101209F
:10C7500004902A460099019803F0ECF9012189021E
:10C7600002E0881B800A8102304602F055FE0598DF
:10C77000002806D0984900231C313046029A02F066
:10C7800075FE0498002803D02A460023019911E081
:10C790000098800511D090482A461C30009903F07B
:10C7A000C9F901218902039802F036FE8A49002363
:10C7B0002A461C31009802F059FE8648446009E080
:10C7C00006988009401C8102A80A800202F024FE1B
:10C7D000804845607F48FF220460069901810C99DA
:10C7E000817206610299C76041617B48012189021B
:10C7F0001C3003F0B1F9002088E7F7B50646800742
:10C8000001D01020FEBD0298800701D00920FEBD96
:10C81000704CB30A22692146900A496980020127B7
:10C82000B5059B024018BF02AD0D934220D1A9422D
:10C8300004D2691A89B2FFF7EEFE07E0A94205D9D2
:10C8400030460299FFF7CCFE00282ED030460299E0
:10C8500000F08DF86048029A1C302818019903F006
:10C8600069F9029861692818814220D308461FE0BF
:10C87000934209D9791A89B2FFF7CDFEFFF7FCFE82
:10C880002069C0192061E1E730460299FFF7A8FE50
:10C8900000280AD000233046029A019902F0E6FDF2
:10C8A0003046029900F063F80AE00820FEBD60619E
:10C8B0003D46A84204D1FFF7DFFE20694019206100
:10C8C0000020FEBD70B514460246830A41480D465D
:10C8D00001699B028B4210D88B4210D19105890DC2
:10C8E00040690B19834208D23B481C300E18214680
:10C8F0001046FFF775FE002805D0002070BD0168C6
:10C900004068511AF2E7002D06D0002C04D02246D0
:10C910003146284603F00EF9012070BDF0B5002322
:10C920000B602C4D1360DC006719BC69002C09D02A
:10C93000844207D30E68B44201D3002E02D10C60AA
:10C94000BC8B14605B1C402BEDD30868002800D022
:10C950000120F0BD10B51F49CA68496802F05BFAB2
:10C9600010BD1C484069002800D085E67047F8B526
:10C9700003460024174F4018E200D2199569183277
:10C98000002D2BD09D420ED193888B4207D80020DA
:10C990001060908010488169491E8161F8BD591A64
:10C9A00091801060F8BD9688AE19864203D1108838
:10C9B000181A9080F8BD9D4210D29E420ED911885F
:10C9C00094885B1B0919091A938089B2FFF723FE2B
:10C9D000F8BD00004020002040220020641C402CB4
:10C9E000CAD3F5E710B5012A09D0022A02D0042AD9
:10C9F00011D10A2203F0C2F800280AD00BE04278D5
:10CA00000378100218434A780B78110219438842C0
:10CA100001D1012010BD002010BDF94A00218B007A
:10CA2000D358834203D10020890050507047491CDD
:10CA30002029F4D3704710B5F14C783CE068002809
:10CA400015D000680068401C11D020680A3003F03F
:10CA5000A2F800280BD02069002806D00068C10782
:10CA600005D0410703D5800701D5012010BD002066
:10CA700010BD30B589B00C4605461D2905D90920E1
:10CA8000E0A2F3210890FFF73FFD7821684641704E
:10CA9000611C017022462946801C03F04BF8684651
:10CAA00002F0CAFE09B030BD30B5D54DA7B0783D13
:10CAB000686900283BD02C46743CE069002837D0D8
:10CAC00002A802F08EF90122611D02A802F0A3F96A
:10CAD00021460422103102A802F09DF921460422C9
:10CAE000183102A802F097F9002069460870012267
:10CAF00002A802F090F9607921466631012819D028
:10CB0000022817D0042803D10A2202A802F083F9D0
:10CB100002A8FFF71FFF1EA902A802F0A4F9B84A55
:10CB20001EA9CC3A686901F099FA002800D00120CA
:10CB300027B030BD0222E8E770B5B14E00240546AB
:10CB4000203E281D03F027F8A1007158884243D0E9
:10CB5000641C082CF5D3A8780107A948090F783878
:10CB6000046801292CD0022921D0042934D1687B02
:10CB7000297B00020843617A227A09021143884224
:10CB80002AD12846083003F006F80646201D03F097
:10CB900002F8864220D128460E3002F0FCFF0546FE
:10CBA00020460A3002F0F7FF854213D814E0287AB5
:10CBB000A178884210D1687AE17888420AD80BE0DF
:10CBC000687A297A000208436178227809021143C1
:10CBD000884201D1012070BD002070BDF8B5054626
:10CBE000807801078648090FEC384679B14201D0B8
:10CBF000002E09D1824F0024203F281D02F0CBFFD8
:10CC0000A1007958884201D10020F8BD641C082C8D
:10CC1000F3D37B492846324686390830FFF7E2FED7
:10CC2000F8BD70B50D46044602F06FFB2078000990
:10CC30000001801C207028460A3060701620A07207
:10CC4000E420E072FE202073ED1C657270BD70B5AB
:10CC50006B4C86B0783C2346E268743B1D68516893
:10CC6000002D00D09969002806D0012804D005289D
:10CC700002D007283BD134E01068FFF7DCFE002823
:10CC80002DD066480268654B0020012180330D4697
:10CC90008540154204D0C606F60E0D46B5401D600F
:10CCA000401C2028F3D35E4B6D460FCB0FC5684662
:10CCB00018DF0490002803D052A25A49FFF724FC41
:10CCC000E068006813DF0490002804D055494DA2A5
:10CCD000C91CFFF719FCE068006802F011FF06B0FC
:10CCE00070BD504947A20C310020FFF70DFCBFF387
:10CCF0004F8F4E494C48C860BFF34F8FFEE7FEB5DB
:10CD00004B4D0746A868002804D001F09EFCA86897
:10CD100002F0C6FA4648083002F06AFA002802D14A
:10CD20000620FFF794FFAC681B210D34204602F06B
:10CD30001AFFFF20019001200090781E022828D8B9
:10CD40000220C0432070000A6070E078C6082C48BA
:10CD5000F600EC3801794907490F0E43E670F721D8
:10CD60000E4001466031497CC907090F0E43E67049
:10CD70000068211D02F019FF2878052812D0EF2045
:10CD800006401F492046E6700A228639083002F024
:10CD9000D1FE002F09D0012F18D0022F1FD0032F52
:10CDA00026D147E010200643EBE71021A868FFF7E3
:10CDB00038FF0120C0432070000A607010480E2226
:10CDC00078380168A01C02F0B5FE11E01221A868B5
:10CDD000FFF727FFA07800090001001D07E00A21E6
:10CDE000A868FFF71EFFA07800090001401CA07092
:10CDF0000023009A0199A86801F0F1FB2046FEBDCE
:10CE0000482700202E2E5C626F6F746C6F61646522
:10CE1000725F6D6573682E630000000000E100E042
:10CE2000ACFC03008B0400000400FA0500ED00E0F8
:10CE3000002000200A21A868FFF7F3FEA07800096F
:10CE40000001801CD3E708B5FE484079012810D0C6
:10CE5000022810D0042807D00620FF21FA4AD23138
:10CE60000090FFF751FB08BD0120FFF748FF12219A
:10CE700005E0022000E00320FFF741FF0A2100281F
:10CE8000F1D0FFF7F6FD08BD70B5EE4B00221A7128
:10CE90009A61DA601C46551E40349A606584A2840B
:10CEA00020342274DA611A605871002903D00120FD
:10CEB000C00300F050FDE54901200870FFF7C3FFF3
:10CEC00070BD38B504464078217800020843E04937
:10CED000DC4D884208D1E078400705D0A078697918
:10CEE0000007000F884206D007200121D64A4902D8
:10CEF0000090FFF709FB201D02F04DFE2860E0784E
:10CF00004007400F2871E0780007C10FCD4860301E
:10CF100041740320C00300F01EFDCC4902200870BC
:10CF2000FFF791FF38BDF0B5052091B0C00300F0C8
:10CF300012FDC64E032030700025FF22042101A8F7
:10CF400002F00AFEBF4C607927467437012804D0EE
:10CF500002282CD004280CD105E078684568019897
:10CF60004008400004E0F86804214568019822E088
:10CF70000190E168A068884207D1386900281CD078
:10CF80000023042201A902F071FAAE482B4660305A
:10CF9000007C0090A269E168A068FFF797FB002879
:10CFA00012D060790121FFF76FFF11B0F0BDB868B2
:10CFB0000221456801988843DAE7012201A904208B
:10CFC00001F052FD3861E0E7B06801F03EFBECE7AC
:10CFD00070B504460520000400F0BDFCE078994DD2
:10CFE0004007400F2871201D02F0D5FD2860214622
:10CFF00028460A220831663002F09CFD934905203C
:10D000000870FFF720FF70BD7CB50D46044602F0A6
:10D0100015F9019000281AD002F01EF9019802F0CB
:10D0200074F98C4B00220321019801F0D8FA0028F2
:10D0300009D08649834C4868EC34C3065B0E019ADC
:10D04000E250401C4860019802F02AF97CBD01A81A
:10D0500002F0CEF8002806D1042013217A4A4901B3
:10D060000090FFF751FA2D1FE8B20090E078A17808
:10D07000020260780A43237801021943231D0198B4
:10D0800002F056F9CAE7F0B5844601247248E4027A
:10D09000046000206B4B0146EC338A009A58002A4A
:10D0A00018D0957B567B2D02354367467E783F78B6
:10D0B00036023E43B5420DD1157CD27B2D0215437D
:10D0C0006246D678927836021643B54202D188007D
:10D0D000185802E0491C2029DFD35F4980390C60D1
:10D0E000F0BDF3B589B00546FFF7CDFF002801D0AC
:10D0F00001F09BFA00200790281D02F04CFD514CD6
:10D100002768B84240D12346E978AC33AA7800209A
:10D110000902114342009A5A8A4235D0401C102815
:10D12000F8D34A4882781607F60E9953521C82703B
:10D13000444E01783246603206922A46083206236F
:10D140004036009202290ED0032979D0052901D05A
:10D15000062919D10370806801F077FA05200004D0
:10D1600000F0F9FB40E1E978AA78090211430DD0FB
:10D17000C178344B4A07D20ECC339F50491CC17042
:10D1800060790121FFF780FE0BB0F0BD60790027C8
:10D19000012818D002281AD0042810D018462A4A8C
:10D1A0002E490393FFF7B0F9009802F0F4FC2549EB
:10D1B0000861009802F0EFFC401C0CD00FE0214801
:10D1C0007430C768F0E71F4874304768ECE71D48C3
:10D1D00074308768E8E73868009902F0E6FC284672
:10D1E0000C30049002F0D7FC8400009802F0D3FCCD
:10D1F0000007000F2018697C401E00092A7C0902E4
:10D20000401C114301D0090908181149891C8842A2
:10D2100000D908467084B084009802F0BCFC094C28
:10D220000646A060049802F0B6FC8000A061697C0C
:10D230002A7C09021143E161A97C0907CA0F0FE0AA
:10D2400030E000005C26002004CE03000020002017
:10D25000FDFF00001BCA030080E100E0BA020000ED
:10D2600006990A7400216161069A11706179022998
:10D270000BD0E66039688E4286D37A6830188918F8
:10D28000884281D8FFF74FFEAEE0FE49C9680A68C0
:10D2900049685118820A9202891A01229202891A57
:10D2A000E160E7E7E878A9780002084317D0B18C7D
:10D2B00088427DD8E26913090A9AC91A083A81425C
:10D2C00010D301280CD0A168000109090901103808
:10D2D000401892B20099FFF790FA002817D067E043
:10D2E000A068F6E7401A401E834261D906990127DB
:10D2F0000978874039425BD100010019203000993C
:10D3000002F018FC0698069900783843087005204A
:10D31000C00300F020FB708C0027401E70840120A9
:10D3200004970397079003AA04A96069FFF7F6FA28
:10D3300000283DD0A0683A46010904980901401A26
:10D34000BA41010912071143E878AA780002104394
:10D35000491C421E914202D3B18C814228D102A8BD
:10D3600001F046FF002800D10EE704200090A068DD
:10D370003A46010904980901401ABA411107000907
:10D380000843401CBF4B82B2743BBF49029801F076
:10D39000CFFF002809D1002301220321029801F0C8
:10D3A0001EF9002801D004986061029801F078FF0E
:10D3B000708C002815D1FFF7D4FAB44900204860DA
:10D3C000B34840680121C90340180002B049000A6F
:10D3D000403148600120AF4940044860AE49042014
:10D3E000087007980028BFD028460A99FFF70CFE5E
:10D3F000CAE6F8B50446A34DA748743D0078274611
:10D400002E460837663600282AD0012841D0022847
:10D4100061D0052823D1A0786A790007000F8242E5
:10D420001DD139463046FFF7DDFA002817D0E078E5
:10D4300029794007400F814207D381420FD1201D37
:10D4400002F0A9FB2968884209D9201D02F0A3FB3C
:10D450002860E0784007400F2871FFF7F4FCF8BD22
:10D46000E0784007FBD0A0780A220007000F68711F
:10D470003946304602F05EFB2046FFF75DFB002890
:10D4800003D02046FFF71DFDF8BD2046FFF7A0FDA5
:10D49000F8BDE0784007FBD02046FFF79FFB00284F
:10D4A00004D12046FFF748FB002809D0A0780A22C3
:10D4B0000007000F68713946304602F03BFBE0E799
:10D4C000204601F0BBFE06227449C01C02F056FB48
:10D4D0000028DAD0F8BD2046FFF780FB0028F9D0FD
:10D4E000E07846072879760F864207D88642F1D140
:10D4F000201D02F050FB29688842EBD92E71201DB7
:10D5000002F049FB2860A8E7F8B5054662480078B4
:10D51000002859D128796A46107069795170594AA2
:10D520001468A27890420FD1E07881420CD9012092
:10D530005849400488605348297912380171697943
:10D540004171012102203DE0E87AA97A00020843F6
:10D55000617A227A0902AE1D1143884234D13046E5
:10D5600002F019FB0746201D02F015FB87422BD164
:10D57000B01D02F010FB064620460A3002F00BFBFD
:10D58000864221D90120434940048860E878A9787F
:10D59000000208433C49C91C88420BD061782278BC
:10D5A00009021143884205D036493439C884012123
:10D5B000084607E033480A22A91D0E3802F0BAFADD
:10D5C00001210420FFF760FCF8BDF8B50646001DF8
:10D5D00002F0E1FA01462B4874380068814224D1F8
:10D5E0002D480078062813D0264FF17800242837DC
:10D5F000B2780902204611438200BA5A8A4215D1F4
:10D600008000C4196188481C608008290DD310E08F
:10D610003046FFF738FD002807D10520000400F050
:10D620009AF908213046FFF7EFFCF8BD401C0428AA
:10D63000E2D3684601F0DCFD0028F6D0F078B1783E
:10D64000009D000208430D35012843D00D4900011B
:10D650007439896809090901081810382946102207
:10D660000831FFF72FF900282ED00520C04328707D
:10D67000000A6870F078B17800020843A870000AC8
:10D68000E8700DE0D0260020FBFF000040B1004014
:10D6900000B5004000B3004000200020A4000010AE
:10D6A000301D02F078FA291D02F07FFA1821009847
:10D6B000FFF7B7FA00231A460321009800F08FFF06
:10D6C00018212846FFF7D5F9009801F0E9FD002C54
:10D6D00003D00EE0A8488068C0E7A84948788207D0
:10D6E000120FD419401C4870F078B178000208433A
:10D6F000208000206080F8BD70B5A04D0024AC6093
:10D700009D482C7004604471FF222021AC3002F04F
:10D7100023FA994810219C3002F025FA96480421FA
:10D720008030C4640465EC70AC706C70FF25AD0291
:10D73000284601F0BDF8904C02217434206128463F
:10D7400001F0B6F820601221284601F0B1F8E0603F
:10D750001121284601F0ACF8A0601021284601F004
:10D76000A7F860600121284601F0A2F860612069F5
:10D77000A8420BD32068A84208D3E068A84205D38A
:10D780006068A84202D3A068A84202D20720FFF72F
:10D790005EFA70BD70B5784C00257434206900784D
:10D7A000C00700281ED02168487809780002084385
:10D7B00018D0E06803C8FFF73EF9002818D0002011
:10D7C000FFF79DFA04460520C00300F0C4F86B483B
:10D7D00074210570684802F0C6F910212046FFF751
:10D7E00048F970BD644800214030C584012008E03C
:10D7F000614821680A226630091D02F09BF9002168
:10D800000420FFF741FB70BD70B542780378120227
:10D810001A435B4BD218130002F0FAF905100D0AF7
:10D8200007042300FFF770FE1BE0FFF7E2FD18E09E
:10D83000FFF757FC15E0FFF7C8FE12E004464F481B
:10D840000D46007806282046F2D1FFF71CFC002880
:10D8500007D10520000400F07EF829462046FFF796
:10D86000D3FB002070BDF0B501204649A3B04004B1
:10D8700088604248404E0078030002F0C9F907056D
:10D880000707090F66660D00012061E004205FE0D4
:10D8900070790121FFF7F8FA23B0F0BDFFF704F922
:10D8A000002854D0EFF31080C707FF0F72B6324C38
:10D8B0000E2274346846216802F03CF92069002584
:10D8C000002805D10E20304A30491190FEF71CFE89
:10D8D00020690068139028487179623001290CD0C2
:10D8E00002292AD0042910D1011D0A2201A802F020
:10D8F00021F91C250421139805E0808869460880D9
:10D900001A2513980121084313900E22694602201C
:10D9100001F0AAF82060012213A9042001F0A4F864
:10D920002061F069002805D01349402220312846A3
:10D9300001F09AF8002F07D007E0808869464880F8
:10D940001B2502211398DEE762B6002000E00320C9
:10D95000FFF77DF9A0E70E4A002151600D494968A3
:10D96000081800020B49000A4031486001200549AF
:10D9700040044860704700005C2600200020002022
:10D980000600FFFF00B3004004CE0300BE04000009
:10D9900040B1004000B50040491E03D48B00C2587E
:10D9A000002AF9D0491C05D08A0010188038C06FB1
:10D9B000002203E0002070474008521C0028FBD1E1
:10D9C000480120388018704710B507229400035989
:10D9D0000C59A34201D9012010BDA34202D200205C
:10D9E000C04310BD521EF1D5002010BDF0B5064653
:10D9F000002003469C000D591759EF193F18BD42EE
:10DA000004D0BD4201D9012000E000205B1C375149
:10DA1000082BEFD3F0BDF0B50646002003469C006E
:10DA20000D591759EF1B3F1ABD4204D0BD4201D218
:10DA3000012000E000205B1C3751082BEFD3F0BD24
:10DA4000F8B51D46174602F0CBF83B682A681C184B
:10DA50004A41069B16461B68201A8E4101D20120BE
:10DA600000E000201918069801602A603C60F8BDAB
:10DA7000F7B50646002084B017460390019004468F
:10DA80000546029001E000250DE002A80090601B11
:10DA9000800039580598AA00805801AB03AAFFF707
:10DAA000CFFF00206D1CA542EFD9A2000399B15011
:10DAB000019903910299641C01910290082CE2D310
:10DAC0000824012501E0E51F0DE002A80090601B7D
:10DAD000800039580598AA00805801AB03AAFFF7C7
:10DAE000AFFF00206D1C082DEFD3A2000399B150A9
:10DAF000019903910299641C019102900F2CE2D3C9
:10DB00000398F06307B0F0BDF0B589B00C46064647
:10DB100000F0D3FB0025029501950095E06A039083
:10DB2000206B0490606B0590A06B0690E06B6A46DA
:10DB3000114607900846FFF759FF074631466A46E7
:10DB40000846FFF753FFC719206B0390606B0490E2
:10DB5000A06B0590E06B6A46114606900795084653
:10DB6000FFF744FFC71931466A460846FFF73EFFF4
:10DB7000C719206A0090606A0190A06A0595049513
:10DB800003950290A06B0690E06B314607906A46C1
:10DB90000846FFF72BFFC719606A0090A06A019042
:10DBA000E06A0290606B0390A06B0490E06B0590BC
:10DBB000606B0690206A314607906A460846FFF778
:10DBC00015FFC719E06A0090206B0190606B059506
:10DBD000049503950290206A0690A06A314607904A
:10DBE0006A460846FFF717FF3F1A206B0090606BEC
:10DBF0000190A06B0290E06B059504950390606A1C
:10DC00000690E06A314607906A460846FFF703FF30
:10DC10003F1A606B0090A06B0190E06B0290206A4D
:10DC20000390606A0490A06A06950590206B3146C7
:10DC300007906A460846FFF7EEFE3F1AA06B009079
:10DC4000E06B02950190606A0390A06A0490E06A1C
:10DC500006950590606B314607906A460846FFF7C7
:10DC6000DAFE3C1A0ED53146FB4A0846FFF7BEFEE7
:10DC70000419F8D409B0F0BD3146F74A0846FFF759
:10DC8000CAFE241A002CF7D13146F348FFF79CFE58
:10DC90000128F1D1EEE7F0B50646A1B015460C46D5
:10DCA000084600F0F5FA002804D0304600F0E8FA03
:10DCB00021B0F0BD2146684600F0FFFA294608A8C9
:10DCC00000F0FBFA10A800F0DBFA0120109018A871
:10DCD00000F0D6FA0124E40768E00099C9072ED0C5
:10DCE0000899C90731D0002837DD694608AA0846D7
:10DCF000FFF791FE684600F0E9FA18A910A8FFF7AF
:10DD000063FE002804DA10A92A460846FFF76EFED3
:10DD100010A918AA0846FFF77EFE1098C00712D077
:10DD200010A92A460846FFF761FE074610A800F032
:10DD3000CDFA002F3AD017982043179036E0684666
:10DD400000F0C4FAE9E710A804E008A800F0BEFA61
:10DD50001BE018A800F0BAFA28E008A96A460846AD
:10DD6000FFF759FE08A800F0B1FA10A918A8FFF7AC
:10DD70002BFE002804DA18A92A460846FFF736FECB
:10DD800018A910AA0846FFF746FE1898C007E0D069
:10DD900018A92A460846FFF729FE074618A800F0EA
:10DDA00095FA002F02D01F9820431F9008A96846BB
:10DDB000FFF70AFE002890D110A9304600F07DFA46
:10DDC00076E7F0B5044691B00E461546104600F0D1
:10DDD0005FFA00287ED132461146684600F0A5FA67
:10DDE0006A46214608A800F0A0FA6A46114608468D
:10DDF00000F09BFA31462A46084600F096FA2A4679
:10DE00001146084600F091FA2146934B2A460846EF
:10DE100000F06BFA2A4611468F4B084600F065FA6F
:10DE20002A468D4B2146104600F072FA21462A46BA
:10DE3000084600F07AFA2246874B1146284600F041
:10DE400054FA2146844B2A46084600F04EFA002137
:10DE5000204600F029FA00280DD021467E4A0846C7
:10DE6000FFF7C4FD0746204600F030FAE069F907E5
:10DE70000843E06102E0204600F028FA22461146FD
:10DE8000284600F052FA2946734B08AA084600F0CB
:10DE90003FFA2946704B08AA084600F039FA08A94B
:10DEA0006D4B2A46084600F033FA214608AA084678
:10DEB00000F03BFA6A46684B2146104600F028FA0B
:10DEC0002946204600F0F9F93146284600F0F5F9D8
:10DED000694600E002E0304600F0EFF911B0F0BD15
:10DEE00070B588B00E46044615461146684600F0E7
:10DEF0001CFA21466A46084600F017FA69462A4687
:10DF0000084600F012FA31466A46084600F00DFA5B
:10DF100008B070BDF0B5174689B01E460C460546E0
:10DF200002464D4B3946684600F0F2F96A46114602
:10DF3000084600F0FAF929466A46084600F0F5F965
:10DF400039466A46084600F0F0F93146424B22460F
:10DF5000084600F0DDF932461146684600F0E5F962
:10DF600069463D4B2A46084600F0D2F969463A4BCD
:10DF70003A46084600F0CCF93946374B2A4608465F
:10DF800000F0C6F921463A46084600F0CEF9324B79
:10DF90006A462946384600F0BBF931463A460846FB
:10DFA00000F0C3F931462C4B2246084600F0B0F988
:10DFB0006946384600F081F95CE6F7B5B4B023A8AD
:10DFC000109013A81190FFF753FD234908A8603162
:10DFD000129000F072F9684600F052F90124002511
:10DFE0000120001B810010A841586E468E46A100FA
:10DFF00040588446002001468B006746FA58F7587F
:10E00000D71B3F1ABA4204D0BA4201D2012000E025
:10E0100000207246491CD7501029EDD3844201D10B
:10E02000012400E00024304600F050F908990798D8
:10E03000C90708430790129800F048F9FF20013003
:10E040006D1C8542CCDDA10010A84158349800F029
:10E0500034F937B0F0BD0000BCFC0300F0B5F5B0FA
:10E060000F46002406460146154617943CA81F9407
:10E0700000F067F9314644A82031064600F061F906
:10E08000294610A800F05DF92946203118A800F0B3
:10E0900058F910A800F0FCF800287DD118A800F06D
:10E0A000F7F80028F9D110A9B148FFF78DFC012835
:10E0B000F3D118A9AE48FFF787FC0128EDD1AC4A8F
:10E0C00018A96846FFF7E7FD394608A80F9400F045
:10E0D00038F908A96A460846FFF76FFF6A4610A993
:10E0E0005CA8FFF76AFF3CA924A800F0E6F82CA87A
:10E0F0003146044600F0E1F89D494CA8403900F053
:10E10000DCF89B4954A8203900F0D7F8984B4CAA6A
:10E11000603B24A9684600F0FBF8234624AA54A9D2
:10E120004CA8FFF7F7FE924A6946603A0846FFF7A7
:10E13000B2FD6A46214624A8FFF7D2FE8C49203161
:10E1400003C920903CA8229024A821912390082163
:10E1500008A8FFF721FC044608215CA8FFF71CFC77
:10E16000844200DD20460446411E08A800F09CF8C9
:10E17000002801D0012500E00025611E5CA800F008
:10E1800093F8002800D0012040000543A80020AEED
:10E19000355834A8294600E06DE000F08EF8294695
:10E1A000203164A800F089F8684600F069F8012081
:10E1B0000090A41E3CD46A4664A934A8FFF701FE6F
:10E1C000214608A800F070F8002801D0012500E0E1
:10E1D000002521465CA800F067F8002800D0012047
:10E1E00040000543A8003558002D1FD029464CA8F3
:10E1F00000F063F82946203154A800F05EF86A4622
:10E2000054A94CA8FFF76CFE594B4CAA603B34A9AB
:10E210006CA800F07DF864AB34AA54A94CA8FFF7B1
:10E2200079FE69466CAA084600F07FF8641EC2D5E4
:10E230004F4A6946603A0846FFF72DFD6A4664A9D1
:10E2400034A8FFF74DFE34A94948FFF7BDFB01286C
:10E2500004D034A9464A0846FFF7DDFB002034AC61
:10E2600010AB07218A00A5589A5855402843491EEB
:10E27000F8D5002802D0002075B0EBE60120FBE7BE
:10E2800000210A468B00491CC2500829FAD3704766
:10E2900000218A008258002A01D000207047491CC2
:10E2A0000829F6D3012070474A1192008058CA0607
:10E2B000D20E012191400840704710B50022930012
:10E2C000CC58521CC450082AF9D310BD10B50022F6
:10E2D0000146203104E00B685C081443DA070C6047
:10E2E0000B46091F8342F6D810BD70B51C46054683
:10E2F000FFF77CFB002805D121462846FFF764FB89
:10E30000002804DB294622460846FFF784FB70BD3F
:10E3100070B51C460546FFF77EFB002804D0294651
:10E3200022460846FFF762FB70BD10B590B0044668
:10E330006846FFF79DFB69462046FFF7E5FB10B0F6
:10E3400010BDF8B50E46074600240720001B8000CC
:10E350008519284601F01FFC00BA000AE97800027E
:10E360000843A100641C7850082CEED3F8BD0000CF
:10E370001CFD03008307FF22DB0E9A408907090E6C
:10E38000994000280BDA0007000F08388308F2488C
:10E390009B001818C36993430B43C36170478308FC
:10E3A000EE489B001B18186890430843186070479C
:10E3B00070B50446807CEA4D002810D0E94800F092
:10E3C000F1F9294601F0A0FB607C6B00E26858433C
:10E3D0004919101808180002000AA06070BD607C7E
:10E3E0002A46DF49824049425618401C8540681839
:10E3F000801B05022D0ADB4800F0D4F96D08294680
:10E4000001F082FB4819E16889194018E3E71FB55C
:10E410000C46009800F06CFF012804D0D2A286219F
:10E420000020FEF771F8002C06D0CE4869469838D7
:10E4300001F014FC002817D000980F220178114336
:10E440000170FF220621C01C01F086FB009800F03D
:10E4500027FF009800F04CFF002804D0C2A29221B0
:10E460000020FEF751F81FBD0120C34900050860D8
:10E470001FBD1FB56946022008700C4601A800F0B8
:10E48000B7FE002805D10420B7A274210390FEF73F
:10E490003BF8002168464170B84802902521684643
:10E4A000817001F07DF8002802D1201D00F0F8FEF7
:10E4B0001FBD10B500F0F4FE10BDB1480078002873
:10E4C00000D0D6E77047F0B5AE484268AE4B501E5C
:10E4D0000102090A0D460020142444431E59002E4F
:10E4E0000BD0E418A4688F1AA61A36023F02360A27
:10E4F0003F0ABE4201D22102090A401C2028EBD368
:10E5000001200004A14B8D4209D05860A04B00208F
:10E5100018609C484030016099488260F0BD986066
:10E52000F0BD38B5964C0FE0009800F0E1FE0128F0
:10E5300004D08DA2C1210020FDF7E6FF616800989C
:10E540008847009800F0ACFE86486946983800F08D
:10E5500011FD0028E8D038BD10B501F03FF810BD1E
:10E560000120704738B5864A00240D4614700521F5
:10E570005060C901844801F0F6FA7A4880380246B2
:10E58000183A1060042050602020546190601046BA
:10E5900000F0E2FC00F024FE724800F02EF900903A
:10E5A000002803D070A2E221FDF7AEFF0221142063
:10E5B000FFF7E0FE012077490005086000210120F7
:10E5C000FFF7D8FE7449284600F099FF38BD6C4823
:10E5D0000178002902D1012101704AE77047FFB597
:10E5E00081B015000E46074601D10C2E1BD8002F16
:10E5F00019D0002000F09FF8040014D0384600F035
:10E600002BFE27602674002060745E484068E0603E
:10E61000A574049860602046FFF7CAFEFFF753FF19
:10E62000012005B0F0BD0020FBE710B552490124E0
:10E63000E40280390C6000F07EF8002802D0C17C32
:10E64000491CC1745348046010BD70B54A49012586
:10E65000ED0280390D6000F06EF8040006D02068ED
:10E6600000F01EFE1421204601F07DFAFFF72BFF7B
:10E670004848056070BDFEB5424847680025BF1C8C
:10E6800014202E46404B46439859002849D03C4A16
:10E69000F418A1689268791ABA1A09021202090AD2
:10E6A000120A91423DD800216A46117001905170C2
:10E6B0003A480290E07C002812D125201146907043
:10E6C000084600F06DFF002803D02F48805900F065
:10E6D000C3FD69468878401CC0B288702728EFD9EE
:10E6E0000020E074607C421CD2B26274FF2805D125
:10E6F0002B4BE068C0180002000AE060207C8242D8
:10E7000015D3FF2813D06168002902D01E48805914
:10E7100088471D48805900F0C3FD2046142101F0B0
:10E7200022FA6D1C202DABD3FFF7CDFEFEBD204697
:10E73000FFF73EFEF5E7144A002114234B43D3585C
:10E74000834203D11420414388187047491C202973
:10E75000F3D300207047000000ED00E000E400E08B
:10E76000CD0C0000E02A00202E2E5C7472616E73C6
:10E77000706F72742E63000000E200E00FE403008B
:10E780000C20002000B50040C827002000B3004046
:10E7900040B1004000E100E0BBE40300B3E403004B
:10E7A000009A190030B5416805240A460368E24121
:10E7B0009A1A83680F251C46EC4161400160C468C9
:10E7C0001B194360A31889188360C160084630BDD7
:10E7D000F0B5164C01232360154A0026154F07E0BB
:10E7E0001568002DFCD0BD68491E89B245541660DD
:10E7F0000029F5D163600020F0BD38B50446002043
:10E80000009004216846FFF7E3FF00280DD10A4875
:10E81000206000986060A0600025E0602046FFF75F
:10E82000C1FF6D1C142DF9D3002038BD00D000406D
:10E8300000D1004000D50040ED5EEAF170B5164C05
:10E840002068164D0026002805D06868C00302D550
:10E850002660FFF710FF6068002805D06868800315
:10E8600002D56660FEF7FFFF70BD0D49002088608D
:10E8700003200A490004403148600A4901208860A9
:10E880000860094801680902090AC20611430160CB
:10E890000649D0140860704740B1004000B3004002
:10E8A00000B5004000B0004008E400E000E100E0F6
:10E8B000F0B5027801251218AD0240190024012696
:10E8C0005388B14D76020EE01788BF00BA18824215
:10E8D00006D8AB4201D18B4202D1641CB44201D9AB
:10E8E0000020F0BD53888B42EED1A84800684078E4
:10E8F00080008018F0BDF7B5FFB0FFB08AB00020EF
:10E90000012108AC0390FF228902204601F024F97E
:10E910009E4F204639680A7801F00CF93868017872
:10E920000D180C190120800208A9081802904BE06C
:10E930006E88954886424DD0002E42D0FFA8406A8E
:10E9400086422BD1FFA80394C06A001D0190800766
:10E95000019803D0001D80088000019020180299C2
:10E960000590884205D9032089A291210790FDF7DF
:10E97000CBFD0198FF228003010C039801800398CE
:10E98000032146800598C01E01F0E6F8FFA8C26A80
:10E99000816A201D01F0CEF8059C12E028888000D5
:10E9A000261801900298864205D9032078A29F215B
:10E9B0000490FDF7A9FD29462046019A01F0BAF816
:10E9C00034462888800045190120396880020818DB
:10E9D0008542ADD30298844201D26B486080012405
:10E9E000A4022146786800F017FD08AD00232246F6
:10E9F0002946786800F03AFD2146386800F00CFDA1
:10EA0000002322462946386800F030FD03987FB085
:10EA10007FB00DB0F0BD70B502460A43920501D03B
:10EA2000102070BD594C03C40178083CFF2904D064
:10EA300000F0A0F8002802D014E00B2070BD606840
:10EA400000F098F8002802D10720FEF700F9012510
:10EA5000AD022946206800F0DFFC03CC00232A46E3
:10EA600000F004FD002070BDF7B5FFB0FFB084B02A
:10EA7000FFA80069454F810A38688902814204D1A4
:10EA800000207FB07FB007B0F0BDFFA9C968FFF7D5
:10EA90000FFF00F061F80646386800F06BF80500DB
:10EAA00009D0FFA840690122396828189202891804
:10EAB0000830884206D3FFA80C3007C8FFF71BFFB9
:10EAC000054644E0A80706D01020FF2130A21A31E5
:10EAD0000090FDF719FDFFA84469241DA00702D08E
:10EAE000241DA408A40002A800190090FF220821F8
:10EAF000001F01F031F8FFA8C16868464181A003FA
:10EB0000010C68460181FFA84269016903A801F070
:10EB100011F800981C4941800023221D02A92846B3
:10EB200000F0A4FC002E12D0B00705D010201EA2C9
:10EB300048210190FDF7E8FC3188684601800021FA
:10EB400041800B4604226946304600F08FFC38684D
:10EB500040788000401994E7002803D001218904FF
:10EB6000884201D100207047084909684978890026
:10EB7000401A704710B50449FFF79AFE002801D0EB
:10EB8000FFF7EAFF10BD0000FF7F00001820002003
:10EB90002E2E5C626F6F746C6F616465725F696E5C
:10EBA000666F2E63000000002E2E5C626F6F746C27
:10EBB0006F616465725F696E666F2E6300000000AE
:10EBC0000748026803210A43026006488047064856
:10EBD0000047FEE7FEE7FEE7FEE7FEE7FEE7000090
:10EBE00024050040EDEB0300C1C4030010B500F0A4
:10EBF0001DF8002805D01F491D484860C8131E494C
:10EC000088611E48018CC9B201290ED1818C090787
:10EC10000BD1018D0906090F042906D1808D00064C
:10EC2000000F02D116490120886010BD1348018CE5
:10EC3000C9B2012917D1818C090714D1018D0906A8
:10EC40000A0F03D1828D1206120F0ED0090F01296F
:10EC500003D1828D1206120F07D0032903D1808DB4
:10EC60000006000F01D0002070470120704700000F
:10EC7000DFFF07C000050040006C0040C00F00F03F
:10EC800000060040F3B50025CDB004462E464E9850
:10EC90008719384600F07FFF00BA010AF8780902A8
:10ECA0000143AA000CA86D1C361D8150102DEED317
:10ECB00021E0A8000CA94318803B996F84461122DB
:10ECC0000846D04113220E46D6417040890A48407A
:10ECD000596C07270E46F94132461227FA414A403D
:10ECE000F1084A4080181A6C596E8918421860461B
:10ECF0000CA90A506D1C402DDBD3206D0B90616D6B
:10ED00000A91A76D0997E26D06920092226E089211
:10ED1000636E07939E46A36E05930193E36E04937F
:10ED2000029300239C4606261346F3410B26154604
:10ED3000F5416B4019261546F5416B40019E75461D
:10ED4000154096436E409E1963469B00794D039390
:10ED5000ED58029BEB18F618039B0CADEB580546DB
:10ED6000F318039302260346F3410D26F5415D4057
:10ED700016260346F3415D400B467B400E4603409A
:10ED80003E407340ED18019B029373469646009AED
:10ED90000193039B00970F460146D218581963460A
:10EDA0005B1C9C46402BBED30B9B181820650A9811
:10EDB000401860650998C019A06500990698401828
:10EDC000E06508988018206607987044606601998D
:10EDD00005984018A066029904984018E0664FB064
:10EDE000F0BD002815D0002101648164C16452493E
:10EDF000016552494165524981655249C16552498F
:10EE0000016652494166524981665249C1660020F5
:10EE100070470E207047F8B516460F46040005D01F
:10EE2000002E1ED0002F01D0002518E00E20F8BDC6
:10EE3000216C785D6054206C401C206440280DD10A
:10EE400021460846FFF71EFF0123A16C5B0200224A
:10EE5000E06CC91822645041A164E0646D1CB542A5
:10EE6000E6D30020F8BD70B50D46040008D0002D93
:10EE700006D0206C802200213828225403D307E0DA
:10EE80000E2070BD2154401C3828FBD30BE02154C8
:10EE9000401C4028FBD321460846FFF7F3FE3821EB
:10EEA000204600F060FE226CA36C510FD200E06C93
:10EEB0009A1848412146A2640606130A2031E064EC
:10EEC0003343CA778B770604130C33434B77030223
:10EED000100E18430877E06CC876020A8A76020C96
:10EEE0004A76000E087621460846FFF7CBFE002141
:10EEF0001823C800226D181AC2406A54666DC640B5
:10EF00006A181671A66DC6401672E66DC640167375
:10EF1000266EC6401674666EC6401675A66EC6404E
:10EF20001676E66EC640491C16770429E1D3002008
:10EF300070BD00004CFD030067E6096A85AE67BB43
:10EF400072F36E3C3AF54FA57F520E518C68059BCB
:10EF5000ABD9831F19CDE05B826820211346491E7F
:10EF6000CB40DB07FAD001228A400021C1608260D9
:10EF70000161704770B50B460446EFF31080C5077A
:10EF8000ED0F72B6E1682069884204D1002D00D1EE
:10EF900062B60E2070BD002B0ED0A1686268491EBB
:10EFA000084021685043411866691846002E01D078
:10EFB000B04701E000F0BEFD2069401C2061002D3B
:10EFC00000D162B6002070BD70B50D46EFF3108120
:10EFD000CC07E40F72B6C36801695B1A934204D888
:10EFE000002C00D162B60E2070BD891882680368BB
:10EFF000521E114042685143C91843692846002BEC
:10F0000001D0984701E000F095FD002C00D162B6D8
:10F01000002070BD0022D7E7C1680069081A704758
:10F020000169C068814201D101207047002070470A
:10F0300030B504464078822289B002280CD00E28D0
:10F040001BD084217828684641706178817024D073
:10F0500003210170C2700CE0684642702178017093
:10F060002278012A04D9A11C801C521E00F062FDE6
:10F07000684600F0E1FB09B030BD00F092FC514958
:10F080004F48086050490120C861BFF34F8F504975
:10F090004E48C860BFF34F8FFEE705210170002086
:10F0A000089008A800F0A4F8002826D0E078A178FD
:10F0B00000020843474900254018030000F0A8FD5E
:10F0C00005040904110D1E0020780A2816D209250E
:10F0D00014E020780928FAD110E020781128F6D120
:10F0E0000CE020790007000F0428207802D00B28BC
:10F0F000EDD103E01328EAD100E01125E078A178F2
:10F100000002084369468880072D2FD006DC002DB9
:10F110002AD0022D34D0052D06D12FE0082D29D07C
:10F12000092D29D0112D2BD08020C870084600F061
:10F1300083FB002D9FD12078401EC1B20898FDF7B7
:10F1400070FD22780898A11C0D30521E00F0F2FCD0
:10F1500020780122401E81B208980D30FEF754FB42
:10F16000089800F09DF886E70020DEE78520C8704B
:10F1700008467EE78320D8E78420D6E79020D4E7AE
:10F180008620D2E710B514480168FF22120291438D
:10F1900003229203114301600120104940050860D9
:10F1A00000F097FB10BD00B589B002E06846FFF79C
:10F1B0003FFF684600F009FC0028F7D109B000BD08
:10F1C0000F000F0000040040000500400400FA0595
:10F1D00000ED00E00600FFFF14E400E000E100E0C5
:10F1E0000020804902460A54401C4328FBD3704744
:10F1F00038B57C4B0021EFF31082D207D20F72B6E4
:10F200005C5C002C02D0002A0CD00CE001245C5481
:10F2100028235943744BC9180160002A00D162B6F3
:10F22000012038BD62B6491C4329E4D304206FA2F3
:10F2300049210090FDF768F9002038BD10B56A4CEF
:10F240002821001B00F060FC432803D228214843FA
:10F25000001910BD002010BDF8B56349401A2821DF
:10F2600000F052FC0446432801D90020F8BDEFF31A
:10F270001080C607F60F72B65A4D285D002801D0DF
:10F28000FF2805D1042059A265210090FDF73CF923
:10F29000285D401C2855002E00D162B60120F8BD23
:10F2A00038B55149401A282100F02EFC43281DD8BA
:10F2B000EFF31081CC07E40F72B64A490A5C002ACA
:10F2C00005D0521ED2B20A54002C0AD00AE00820FF
:10F2D00046A277210090FDF717F9002C06D162B6FF
:10F2E00004E062B6002A01D0012038BD002038BDFC
:10F2F0003D4910B5401A282100F006FC432801D9E9
:10F30000002010BD3749085C10BD10B50446062228
:10F310003F49C01C00F00EFC3D482438006ABF2263
:10F32000C007410E2078104008432070002010BD17
:10F33000FFB581B00A9D1F46060006D03446093449
:10F34000172D04D9092005B0F0BD0E20FBE730468B
:10F35000FFF7DBFF28460E3070703078000900019F
:10F36000801C3070E81D2070162060702948A07045
:10F37000000AE07002982071000A60710398A07181
:10F38000000AE071002D07D0002F05D020462A4644
:10F390003946083000F0CEFB0020D4E770B50100FC
:10F3A0000ED008464A780930062A09D9252A07D8F6
:10F3B0000DE00378451A093D5E19951FAE4201D94B
:10F3C000002070BD5D01EB1A18181F3000E0114CD1
:10F3D0004378162BEDD1C37885781B022B43A342CB
:10F3E000E7D170BD68350020F02A00202E2E5C2E5B
:10F3F0002E5C7262635F6D6573685C7372635C6DD3
:10F400006573685F7061636B65742E630000000054
:10F41000A4000010E4FE0000F8B50124054624070E
:10F4200020690A4681B2206980B28018401E00F02F
:10F430006BFBC3B2002224482449164613E002277E
:10F4400047600F68002FFCD085600F68002FFCD04C
:10F4500046600F68002FFCD027693F04BF0CBF0037
:10F460007D19521CD2B29A42E9D3F8BDF0B50024FE
:10F470009B089B001B182546204622E00F78491C5C
:10F48000FE432E43F5B2124E3755641CE4B2042CF1
:10F4900016D10024002D11D00B4D01276F600B4DAC
:10F4A0002F68002FFCD036681E602E68002EFCD01E
:10F4B000054E002777602E68002EFCD000251B1D0E
:10F4C000401C9042DAD3F0BD00E5014000E4014069
:10F4D00024200020AA4900200860AA49401E886014
:10F4E000A94901200861A949022008700104A8481F
:10F4F000C1604910C1608900C16081607047F8B582
:10F500000F46A4490024CC630122CA63A249CC60FF
:10F5100003230B6102268E609F4B252540335D61DE
:10F52000050E4D620002C861CC620A639B484861C7
:10F530009B4888619B488863FF20043048639A4851
:10F54000C86394205860914D287803280AD19748C1
:10F55000082181600146183101600C21446141603D
:10F56000FFF7FAFC92482E70C460924806609248F9
:10F5700006600121864809046F60C1604900C160CE
:10F580008A48FFF74DFD002802D068688047F8BD23
:10F59000FEF7E6FF0028FAD0864880380660F8BDFE
:10F5A00010B58168002905D00146804800F056FB5F
:10F5B000002801D0002010BDEFF31080C407E40F35
:10F5C00072B6FEF7CDFF002803D07A4902208039B9
:10F5D0000860002C00D162B6012010BDF0B574485F
:10F5E00085B0C168694C002944D074490A68002A72
:10F5F00000D001220192CE68C369642566490022C9
:10F600004031002B02D0C2618B68DDB2C260086954
:10F610000028FCD102A96548FFF7ACFC0090002847
:10F6200004D0FF2166A22E31FCF76EFF049800285B
:10F6300004D1FF2162A23031FCF766FF6846007AF0
:10F64000012810D002280ED0049903988847012180
:10F650004F484904C1604910C1608900C1608160A0
:10F66000022020700DE0049F2B463246019903983A
:10F67000B847ECE700F013F82078022801D00328FF
:10F6800007D169464948FFF7C5FC002803D06068E8
:10F69000804705B0F0BD684600F031F8F9E73EB5A7
:10F6A0004248FFF7B9FC044626E069463F48FFF7A9
:10F6B000B1FC002822D16846007802281ED1694694
:10F6C0003A48FFF757FCFFF705FF33484030016920
:10F6D0000029FCD136490020C8600298002803D1D7
:10F6E00040A26B21FCF710FF00226423D243029D4D
:10F6F00000210198A847641E012CD6D83EBDFEB556
:10F700001F4A13211160827823490A2A02D8530024
:10F710001B1D0EE0242A02D853009B1D09E03A4D20
:10F720006E4638CD38C693006C461B19FF3B013B33
:10F73000DB6E8B605206184B520E40335A614268A2
:10F740004A60104B08225A60194A0025D5605313AD
:10F7500007780F4894135E000122002FC360C46035
:10F76000C66006D084600A63074842600748057097
:10F77000FEBD8360CD620448026004480270FEBD95
:10F78000001200400013004000100040282000201C
:10F7900000050050C01F0040001500400601020097
:10F7A000250003025B06000055555500AC350020CE
:10F7B0000011004080E200E000E100E000140040A1
:10F7C0002E2E5C2E2E5C7262635F6D6573685C73B7
:10F7D00072635C726164696F5F636F6E74726F6C89
:10F7E0002E6300002E2E5C2E2E5C7262635F6D65B0
:10F7F00073685C7372635C726164696F5F636F6E80
:10F8000074726F6C2E6300004CFE030010B5A249A9
:10F81000A248FFF7AFFB00280DD19F48A0494278CE
:10F82000801CA04C00238A60E3619F4C0123A360ED
:10F830009E4BDA61C86010BD10B504468AB0974887
:10F8400000F002FA002802D000200AB010BD00200B
:10F8500069460870227800A821460130521C00F049
:10F8600069F969468D4800F0F9F98D48007800285B
:10F8700001D100F0CAF80120E7E770B58B4E894C42
:10F88000002504E0A560B069C0B200F0CBF8A06824
:10F890000028F7D1E06900280BD0E5618048816835
:10F8A000491E8160491C05D0C1680A78F261491C73
:10F8B000C16070BD7C4A0121D1600178012900D06E
:10F8C00005707648FFF7ACFB0028F2D100F09DF8F8
:10F8D00070BD70B571488AB0042484606F49B4303B
:10F8E00008602726B438002546604561FFF734FBE1
:10F8F0006A481838014645613031846042C0083892
:10F90000FFF72AFB66486A4945700C200860694A7F
:10F9100081019160664903260C390E606449091F14
:10F920000860081F06606448C5630121C1635F4821
:10F930000922C2600B2242610A220261082282600F
:10F940005A4A4032D1625D4A426204605C4A842075
:10F95000506054488560C56153480160594A106839
:10F96000FF231B049843B3051843106056480460F6
:10F970006846047081224270817054480068000714
:10F98000C10F6846C1700471FFF756FF002806D109
:10F99000FF214FA2053130460896FCF7B5FD0AB0AD
:10F9A00070BD70B5EFF31080C507ED0F72B6012082
:10F9B0003B4C607001E0FFF760FF20780028FAD12F
:10F9C0006070002D00D162B670BD10B5044633489A
:10F9D0008AB069461838FFF7CDFA002801D0002018
:10F9E00033E768464278002A04D0411C2046521C66
:10F9F00000F0A0F82A480178012904D10021017003
:10FA000029490120086001201FE725484178002985
:10FA100007D10178022904D0022101700805374975
:10FA20000860704770B51E4C88B061681B4D087047
:10FA3000491C403D481B401E6160272805D2012813
:10FA400028D96978491C814224D81449403908468C
:10FA5000283000F003F9012600280BD00321684666
:10FA6000017084214170A97881708621C170FFF7EF
:10FA7000E3FE03E0012021498005086007481838AB
:10FA800000F0E2F8002802D00748267046600348DC
:10FA90003F38606008B070BDB43700206436002085
:10FAA00030200020002100400020004000250040C0
:10FAB0002C07005000050050C02F004000E0D70187
:10FAC0000023004000E400E000E100E0000400400A
:10FAD0002E2E5C2E2E5C7262635F6D6573685C73A4
:10FAE00072635C73657269616C5F68616E646C659A
:10FAF000725F756172742E630000000000E200E026
:10FB000010B5FCF7E7FC10BD30B50B4601460020F0
:10FB10002022012409E00D46D5409D4205D31D4613
:10FB20009540491B2546954040191546521E002D0B
:10FB3000F1DC30BD03460B439B0703D009E008C945
:10FB4000121F08C0042AFAD203E00B780370401C8D
:10FB5000491C521EF9D27047D2B201E00270401C1B
:10FB6000491EFBD270470022F6E710B513460A463D
:10FB700004461946FFF7F0FF204610BD30B5044695
:10FB80000020034600E05B1C934203D2E05CCD5CA6
:10FB9000401BF8D030BD0321001D401E0378120227
:10FBA0001A43491EF9D510467047034603220870D0
:10FBB000000A491C521EFAD518467047064C01250A
:10FBC000064E05E0E36807CC2B430C3C9847103405
:10FBD000B442F7D3FCF778FC58FE030078FE03002C
:10FBE000F8B5040C8BB2264682B25E430D0C10466B
:10FBF000370C5843360480190021794116466E436C
:10FC0000370C36048019794126466E438919F8BDB0
:10FC100030B47446641E2578641CAB4200D21D4685
:10FC2000635D5B00E31830BC184702E008C8121F90
:10FC300008C1002AFAD170477047002001E001C1D5
:10FC4000121F002AFBD1704782680169C0688918B9
:10FC5000814201D1012070470020704770B50446F1
:10FC6000EFF31080C507ED0F72B6A2682069831804
:10FC7000E068834204D1002D00D162B6042070BD3B
:10FC8000521E1040626823685043C0186369002BFD
:10FC900001D0984701E0FFF74DFFE068401CE060AD
:10FCA000002D00D162B6002070BD000002000000EF
:10FCB000000000000000000000000000FFFFFFFF48
:10FCC000FFFFFFFFFFFFFFFF00000000000000003C
:10FCD0000000000001000000FFFFFFFF96C298D85F
:10FCE0004539A1F4A033EB2D817D0377F240A46365
:10FCF000E5E6BCF847422CE1F2D1176BF551BF376E
:10FD00006840B6CBCE5E316B5733CE2B169E0F7C40
:10FD10004AEBE78E9B7F1AFEE242E34F512563FCDC
:10FD2000C2CAB9F3849E17A7ADFAE6BCFFFFFFFF76
:10FD3000FFFFFFFF00000000FFFFFFFF00000000CB
:10FD4000DCFC03000000000000000000982F8A4245
:10FD500091443771CFFBC0B5A5DBB5E95BC256391D
:10FD6000F111F159A4823F92D55E1CAB98AA07D835
:10FD7000015B8312BE853124C37D0C55745DBE7258
:10FD8000FEB1DE80A706DC9B74F19BC1C1699BE4D8
:10FD90008647BEEFC69DC10FCCA10C246F2CE92D68
:10FDA000AA84744ADCA9B05CDA88F97652513E988C
:10FDB0006DC631A8C82703B0C77F59BFF30BE0C693
:10FDC0004791A7D55163CA0667292914850AB72721
:10FDD00038211B2EFC6D2C4D130D385354730A65BE
:10FDE000BB0A6A762EC9C281852C7292A1E8BFA295
:10FDF0004B661AA8708B4BC2A3516CC719E892D1FD
:10FE0000240699D685350EF470A06A1016C1A4197F
:10FE1000086C371E4C774827B5BCB034B30C1C397E
:10FE20004AAAD84E4FCA9C5BF36F2E68EE828F743D
:10FE30006F63A5781478C8840802C78CFAFFBE9057
:10FE4000EB6C50A4F7A3F9BEF27871C60200000073
:10FE50001A0000005000000078FE0300002000207F
:10FE6000400000002AFC0300B8FE030040200020F0
:10FE7000A01F00003AFC030000000000000000008A
:10FE80000000000000000000000000000000000072
:10FE900000000000000000000024F400000000004A
:10FEA00003000000000000000000000025360020D4
:08FEB00000000000000000004A
:020000041000EA
:0410140000C4030011
:040000050003C4C16F
:00000001FF
