:020000040003F7
:10BC0000E83F0020D1E40300E3E403000DBD03009E
:10BC10000000000000000000000000000000000024
:10BC2000000000000000000000000000E7E4030046
:10BC30000000000000000000E9E40300EBE4030062
:10BC4000EDE4030045DD0300EBF10300EDE4030048
:10BC5000EDE4030000000000EDE40300EDE4030068
:10BC6000EDE40300EDE40300EDE4030029E003004C
:10BC7000EDE40300EDE40300EDE40300EDE4030074
:10BC8000EDE40300EDE40300EDE40300EDE4030064
:10BC90000FDD03007DF1030011BD0300EDE403009F
:10BCA000EDE40300EDE403000000000000000000EC
:10BCB0000000000000000000000000000000000084
:10BCC0000348854603F036FC0048004741BD0300A9
:10BCD000E83F0020056885F308884068FF2464B2C7
:10BCE000EFF30585002D01D1A646004725460646FF
:10BCF00021273FBAF0B40024002500260027F0B425
:10BD0000F92040B20047000000BEFEE700BEFEE79B
:10BD100010B502F0DEFE10BD10B502F0F0FF0028F5
:10BD20000DD04179027909021143264A914206D980
:10BD300001780022C91E89B2001D01F06EF910BD04
:10BD4000012081070860204B1A68002AFCD00022DD
:10BD50001A6088605C68002CFCD05A600861D86862
:10BD60000028FCD0DA6019490868FF2212049043C9
:10BD70000122D2051043086015495010086062B6D0
:10BD800002F069F902F094FE1249134801F0E0FF55
:10BD90007F21FF20C902800202F033FA002802D07E
:10BDA000072000F07DFB01F082F80C48C0690028F4
:10BDB00001D100F075FB01F0F6F801F0FEFF20BFA5
:10BDC000FDE70000EFFF00000001004014E400E088
:10BDD00000E100E0D6BE898E19BD030000050040D9
:10BDE00070B50022F64D4418D1004B1999691833EB
:10BDF00000290BD0814201D3A14205D3814205D84D
:10BE00009E888919814201D9184670BD521C402A6A
:10BE1000EAD3002070BD70B504460D46881C81B27F
:10BE2000601EFFF7DDFF00280FD00168A14206D891
:10BE30006219511A8288914200D9818070BD82882E
:10BE4000091B51188180046070BDDD490020C200CB
:10BE500052189269002A06D0401C4028F7D30220CD
:10BE600000F01EFB70BDC000401884618583D5487A
:10BE70008169491C816170BD70B5D14C0125606834
:10BE80002168800A890A80028902401A2169AD026C
:10BE90004018CC4900232A461C3102F09BFF616800
:10BEA000206881420CD120692946800A8002FFF770
:10BEB00097FF002804D12069800A800202F0BEFAB0
:10BEC000C048FF2229461C3003F002FB00206061BD
:10BED00070BD10B587218900B94803F000FBB9484F
:10BEE0000121FF2289021C3003F0F2FA10BDFFB5D8
:10BEF0008BB017460D460446FFF7EBFF38190009D3
:10BF0000210900010901401A0003000C0690B8083D
:10BF1000800000190190A005A60A800DB6020490C9
:10BF2000A54206D0002D04D0A00566D010200FB089
:10BF3000F0BD00200A900990A00507D001200A90CA
:10BF4000A04831461C30049A03F0B0FA01989D4A8B
:10BF5000810AB8088000001980050123800D9B022A
:10BF60001C321D1A89028018029108908E420CD151
:10BF7000012009902A460199089803F097FA304663
:10BF800002F027FA0121890208E0881B800A014695
:10BF90000390304602F02EFA03988102304602F0F8
:10BFA000EFFE0A98002806D0864900231C3130464F
:10BFB000049A02F00FFF0998002803D02A460023B4
:10BFC000089914E00198800514D07E482A461C3058
:10BFD000019903F06BFA029802F0FBF90121890242
:10BFE000029802F0CDFE774900232A461C310198C1
:10BFF00002F0F0FE7248446010E006988009401C90
:10C000000290A80A80020190029902F0F3F90298C6
:10C010008102019802F0B4FE694845606848FF2239
:10C020000460069901810E99817206610499C760C6
:10C0300041616448012189021C3003F049FA002063
:10C0400075E7F7B50646800701D01020FEBD0298BF
:10C05000800701D00920FEBD594CB70A226921464C
:10C06000900A49698002B505BF024018AD0D97429C
:10C0700020D1A94204D2691A89B2FFF7CCFE07E0A9
:10C08000A94205D930460299FFF7AAFE00283AD006
:10C090003046029900F09EF84A48029A1C3028184F
:10C0A000019903F003FA02986169281881422CD3A0
:10C0B00008462BE097420BD90127BF02791A89B2B3
:10C0C000FFF7A9FEFFF7D8FE2069C0192061DFE75E
:10C0D00030460299FFF784FE002814D00023304632
:10C0E000029A019902F076FE012189023846FFF793
:10C0F00077FE002802D1384602F0A0F930460299B6
:10C1000000F068F80BE00820FEBD60610125AD027B
:10C11000A84204D1FFF7B0FE206940192061002039
:10C12000FEBD70B514460246830A25480D460169D6
:10C130009B028B4210D88B4210D19105890D40692A
:10C140000B19834208D21F481C300E182146104696
:10C15000FFF746FE002805D0002070BD016840684A
:10C16000511AF2E7002D06D0002C04D022463146A9
:10C17000284603F09BF9012070BDF0B500230B6049
:10C180000F4D1360DC006719BC69002C09D0844294
:10C1900007D30E68B44201D3002E02D10C60BC8BD1
:10C1A00014605B1C402BEDD30868002800D00120F0
:10C1B000F0BD10B50249CA68496802F0B4FA10BD72
:10C1C00048200020482200201D484069002800D057
:10C1D00052E67047F8B503460024194F4018E200B4
:10C1E000D21995691832002D26D09D420ED1938820
:10C1F0008B4207D800201060908012488169491E48
:10C200008161F8BD591A91801060F8BD9688AE1909
:10C21000864203D11088181A9080F8BD9D420BD237
:10C220009E4209D9118894885B1B0919091A9380C9
:10C2300089B2FFF7F0FDF8BD641C402CCFD3F8BDE8
:10C24000482000204822002010B5012A09D0022AE7
:10C2500002D0042A11D10A2203F04CF900280AD096
:10C260000BE042780378100218434A780B781102E9
:10C270001943884201D1012010BD002010BDF94AA8
:10C2800000218B00D358834203D1002089005050F5
:10C290007047491C2029F4D3704770B5F14A0C4609
:10C2A0007C3AD3680546002B0FD018680068401C04
:10C2B0000BD010680A3003F02AF9002805D0214677
:10C2C000284602F0E4F8002801D0002070BD0120CB
:10C2D00070BD30B589B00C4605461D2905D9092029
:10C2E000E1A2DD210890FFF70FFD7821684641703B
:10C2F000611C017022462946801C03F0D7F868466D
:10C3000002F052FF09B030BD30B5D64DA5B07C3D2E
:10C310006869002834D02C46743CE069002830D08D
:10C32000684602F0E6F90122611D684602F0FBF959
:10C33000214604221031684602F0F5F92146042214
:10C340001831684602F0EFF960792146663101281C
:10C3500019D0022817D0042803D10A22684602F017
:10C36000E2F96846FFF725FF1CA9684602F003FAC8
:10C37000BC4A1CA9D03A686901F066FA002800D0CE
:10C38000012025B030BD0222E8E770B5B54E00248B
:10C390000546203E281D03F0BAF8A10071588842D6
:10C3A00043D0641C082CF5D3A8780107AD48090FC9
:10C3B0007C38046801292CD0022921D0042934D1E9
:10C3C000687B297B00020843617A227A09021143C3
:10C3D00088422AD12846083003F099F80646201DE5
:10C3E00003F095F8864220D128460E3003F08FF8EE
:10C3F000054620460A3003F08AF8854213D814E037
:10C40000287AA178884210D1687AE17888420AD8DF
:10C410000BE0687A297A00020843617822780902E1
:10C420001143884201D1012070BD002070BDF8B5D4
:10C430000546807801078B48090FF0384679B142EC
:10C4400001D0002E09D1874F0024203F281D03F082
:10C450005EF8A1007958884201D10020F8BD641C23
:10C46000082CF3D37F49284632468A390830FFF733
:10C47000EBFEF8BD70B50D46044602F0F7FB2078E0
:10C4800000090001801C207028460A3060701620C8
:10C49000A072E420E072FE202073ED1C657270BD76
:10C4A00070B5704C86B07C3C2346E268743B1D68D6
:10C4B0005168002D00D09969002806D0012804D0C9
:10C4C000052802D007283BD134E01068FFF7E5FECD
:10C4D00000282DD06A480268694B00200121803372
:10C4E0000D468540154204D0C606F60E0D46B540F1
:10C4F0001D60401C2028F3D3624B6D460FCB0FC547
:10C50000684618DF0490002803D057A25E49FFF761
:10C51000FBFBE068006813DF0490002804D05A4950
:10C5200051A2C91CFFF7F0FBE068006802F0A4FF0D
:10C5300006B070BD54494CA20C310020FFF7E4FB5B
:10C54000BFF34F8F52495148C860BFF34F8FFEE78A
:10C55000FEB5504D0746A868002804D001F06BFCDA
:10C56000A86802F049FB4B48083002F0DFFA0028C7
:10C5700002D10620FFF794FFAC681B210D34204642
:10C5800002F0ADFFFF20019001200090781E0228EC
:10C5900028D80220C0432070000A6070E078C608E6
:10C5A0003048F600F03801794907490F0E43E6702C
:10C5B000F7210E4001466031497CC907090F0E433F
:10C5C000E6700068211D02F0ACFF2878052812D023
:10C5D000EF20064023492046E6700A228A390830B7
:10C5E00002F064FF002F09D0012F18D0022F1FD0B6
:10C5F000032F26D12DE010200643EBE71021A86879
:10C60000FFF738FF0120C0432070000A6070154812
:10C610000E227C380168A01C02F048FF11E01221B4
:10C62000A868FFF727FFA07800090001001D07E0B8
:10C630000A21A868FFF71EFFA07800090001401C2E
:10C64000A0700023009A0199A86801F0BEFB204663
:10C65000FEBD0A21A868FFF70DFFA07800090001C0
:10C66000801CEDE7542700202E2E5C626F6F746CE7
:10C670006F616465725F6D6573682E630000000012
:10C6800000E100E030F603005F0400000400FA055A
:10C6900000ED00E00020002008B5FE4840790128A8
:10C6A00010D0022810D0042807D00620FF21FA4A13
:10C6B000BA310090FFF728FB08BD0120FFF748FFC3
:10C6C000122105E0022000E00320FFF741FF0A21CC
:10C6D0000028F1D0FFF7FDFD08BD70B5ED4B00223D
:10C6E0001A719A61DA601C46551E40349A6065845E
:10C6F000A28420342274DA611A605871002903D0B0
:10C700000120C00300F020FDE44901200870FFF77C
:10C71000C3FF70BD38B50446407821780002084355
:10C72000DF49DC4D884208D1E078400705D0A07889
:10C7300069790007000F884206D00720FF21D64AFA
:10C74000E9310090FFF7E0FA201D02F0E0FE2860DA
:10C75000E0784007400F2871E0780007C10FCD480E
:10C76000603041740320C00300F0EEFCCB4902208E
:10C770000870FFF791FF38BD70B50446052000042E
:10C7800000F0E2FCE078C34D4007400F2871201D07
:10C7900002F0BDFE2860214628460A220831663094
:10C7A00002F084FEBD4905200870FFF775FF70BDDB
:10C7B0007CB50D46044602F0E4F9019000281AD039
:10C7C00002F0EDF9019802F051FAB64B0022032174
:10C7D000019801F0FAFA002809D0B049AD4C486838
:10C7E000F034C3065B0E019AE250401C4860019889
:10C7F00002F002FA7CBD01A802F098F9002805D1E8
:10C800000420A54AA8490090FFF77EFA2D1FE8B240
:10C810000090E078A178020260780A432378010250
:10C820001943231D019802F034FACBE7F0B5844692
:10C8300001249E48E40204600020964B0146F03338
:10C840008A009A58002A18D0957B567B2D023543D2
:10C8500067467E783F7836023E43B5420DD1157C5F
:10C86000D27B2D0215436246D67892783602164363
:10C87000B54202D18800185802E0491C2029DFD3B4
:10C880008A4980390C60F0BDF3B589B00546FFF7E1
:10C89000CDFF002801D001F0BEFA00200790281D2E
:10C8A00002F035FE7B4C2368984241D12646E97858
:10C8B000B036AA780020090211434200B25A8A42D7
:10C8C00036D0401C1028F8D3744882781707FF0E22
:10C8D000F153521C82706F4E2A4637460078083258
:10C8E000062160374036009202280FD003287DD001
:10C8F0006A4A052801D006281AD11170906801F003
:10C900009AFA0520000400F01FFC59E1E878AA78A3
:10C91000000210430ED061495E4DC878D035420701
:10C92000D20EAB50401CC87060790121FFF7D5FED4
:10C930000BB0F0BD002002906079012819D00228C8
:10C940001CD0042811D003915749534A5A310398F7
:10C95000FFF7DAF9009802F0DAFD4E490861009815
:10C9600002F0D5FD401C0DD011E04A487430C0687B
:10C9700002E04848743040680290EBE74548743064
:10C980008068F9E702980099006802F0CAFD28461D
:10C990000C30049002F0BBFD8400009802F0B7FD5B
:10C9A0000007000F2018697C401E00092A7C09023C
:10C9B000401C114301D0090908183949891C8842D3
:10C9C00000D908467084B084009802F0A0FD314C74
:10C9D0000646A060049802F09AFD8000A061697C80
:10C9E0002A7C09021143E161A97C00E039E00907D2
:10C9F000C90F3974002161613970617902291ED033
:10CA0000E660029909688E4292D332180298406813
:10CA1000081882428CD80520C00300F095FB1F4EF9
:10CA2000032030703B7CA269E168A068FFF75FFAE1
:10CA3000002812D060790121FFF74FFEC0E01549B0
:10CA40007431C9680A6849685118820A9202891AC1
:10CA500001229202891AE160D3E7B06801F0EBF994
:10CA6000AEE0E878A9780002084326D0B18C88426D
:10CA700023D8E26913090A9AC91A083A81421FD3D6
:10CA800001281BD0A16800010909090110384018CC
:10CA900092B20DE06426002068C60300002000204A
:10CAA000FDFF00007FC203002302000080E100E0E0
:10CAB0000099FFF7C6FA002816D065E0A068E7E7FE
:10CAC000401A401E83425FD901213B7881400B42CE
:10CAD000049159D1000100192030009902F0E6FCC0
:10CAE00038780499084338700520C00300F02CFB07
:10CAF000708C0027401E70840120039704970790D4
:10CB000004AA03A96069FFF738FB00283CD0A0689D
:10CB10003A46010903980901401ABA41010912076E
:10CB20001143E878AA7800021043491C421E914242
:10CB300002D3B18C814227D102A801F0F7FF00286F
:10CB400000D1F5E604200090A0683A460109039858
:10CB50000901401ABA41110700090843401C82B27A
:10CB6000FD4BFE49029802F094F8002809D10023F9
:10CB700001220321029801F028F9002801D003982E
:10CB80006061029802F038F8708C002815D1FFF728
:10CB90001BFBF34900204860F24840680121C903AB
:10CBA00040180002EF49000A403148600120EE4978
:10CBB00040044860ED490420087007980028C0D060
:10CBC00028460A99FFF7F4FDB2E6F8B50446E748AF
:10CBD000E14D007827462E460837663600282AD0D1
:10CBE000012841D0022861D0052823D1A0786A7994
:10CBF0000007000F82421DD139463046FFF724FB63
:10CC0000002817D0E07829794007400F814207D3E8
:10CC100081420FD1201D02F07AFC2968884209D98F
:10CC2000201D02F074FC2860E0784007400F287156
:10CC3000FFF732FDF8BDE0784007FBD0A0780A226C
:10CC40000007000F68713946304602F02FFC20467D
:10CC5000FFF79BFB002803D02046FFF75BFDF8BDE4
:10CC60002046FFF789FDF8BDE0784007FBD020465D
:10CC7000FFF7DDFB002804D12046FFF786FB0028E4
:10CC800009D0A0780A220007000F687139463046A3
:10CC900002F00CFCE0E7204601F073FF0622B449E5
:10CCA000C01C02F027FC0028DAD0F8BD2046FFF7B0
:10CCB000BEFB0028F9D0E07846072879760F864237
:10CCC00007D88642F1D1201D02F021FC2968884254
:10CCD000EBD92E71201D02F01AFC2860A8E7F8B5E8
:10CCE0000546A248007800285AD128796A46107073
:10CCF00069795170984A74321468A27890420FD1C1
:10CD0000E07881420CD9012097494004886092481C
:10CD100029796230017169794171012102203DE078
:10CD2000E87AA97A00020843617A227A0902AE1DE4
:10CD30001143884234D1304602F0E9FB0746201DFA
:10CD400002F0E5FB87422BD1B01D02F0E0FB064666
:10CD500020460A3002F0DBFB864221D901208249BD
:10CD600040048860E878A978000208437B49C91C20
:10CD700088420BD06178227809021143884205D09D
:10CD800075494031C8840121084607E072480A22EB
:10CD9000A91D663002F08AFB01210420FFF79DFCEB
:10CDA000F8BDF8B50646001D02F0B1FB01466A4821
:10CDB0000068814224D16D480078062813D0664F60
:10CDC000F1780024A037B27809022046114382008E
:10CDD000BA5A8A4215D18000C4196188481C608003
:10CDE00008290DD310E03046FFF720FD002807D1B9
:10CDF0000520000400F0A8F908213046FFF7D8FC10
:10CE0000F8BD401C0428E2D3684601F08FFE0028DC
:10CE1000F6D0F078B178009D000208430D35012866
:10CE200033D04D49000189680909090108181038F3
:10CE3000294610220831FFF774F900281FD0052079
:10CE4000C0432870000A6870F078B1780002084387
:10CE5000A870000AE870301D02F059FB291D02F08D
:10CE600060FB18210098FFF705FB00231A460321F9
:10CE7000009800F0AAFF18212846FFF72AFA009828
:10CE800001F0BAFE002C03D00EE033488068CFE7F3
:10CE9000364948788207120FD419401C4870F07840
:10CEA000B17800020843208000206080F8BD30B5D2
:10CEB0002E4D91B00024AC6027482C700460447162
:10CEC000FF222021B03002F003FB23481021A030C4
:10CED00002F005FB20480421803004654465EC70B5
:10CEE000AC706C70FF25AD02284601F0D7F81A4CE3
:10CEF000022174342061284601F0D0F8206012210C
:10CF0000284601F0CBF8E0601121284601F0C6F870
:10CF1000A0601021284601F0C1F860600121284678
:10CF200001F0BCF860610321284601F0B7F8A06168
:10CF30002069A8420BD32068A84208D3E068A84221
:10CF400005D36068A84202D3A068A84202D2072095
:10CF5000FFF7A6FAA0690DE064260020FBFF0000A1
:10CF600040B1004000B5004000B300400020002068
:10CF7000A4000010A8420FD2FF224021684602F010
:10CF8000A7FA40226946032001F064F9A061A84293
:10CF900002D20720FFF784FAA1690846203101F088
:10CFA00015FA11B030BD70B56F4C002520690078BE
:10CFB000C00700281FD0216848780978000208437C
:10CFC00019D0E06803C8FFF768F9002819D00020DD
:10CFD000FFF7BEFA04460120000400F0B5F86348EC
:10CFE000742105706048743802F079FA10212046E7
:10CFF000FFF76FF970BD5C4800213438C58401200B
:10D0000008E0594821680A220E38091D02F04EFA3C
:10D0100000210420FFF761FB70BD70B542780378F2
:10D0200012021A43524BD218130002F0ADFA051047
:10D030000D0A07042300FFF752FE1BE0FFF7C5FDB2
:10D0400018E0FFF721FC15E0FFF7ABFE12E0044605
:10D0500046480D46007806282046F2D1FFF7E6FB49
:10D06000002807D10520000400F06EF8294620466C
:10D07000FFF79EFB002070BDF0B501203D4991B047
:10D08000400488603948384D0078743D030002F050
:10D090007BFA07050707090F55550D00012050E0E1
:10D0A00004204EE068790121FFF717FB11B0F0BDB5
:10D0B000FFF72AF9002843D0EFF31080C607F60FD8
:10D0C00072B680272C48876027480E220168684680
:10D0D00002F0ECF9244869790024123801290AD0B9
:10D0E00002290DD004290FD1011D0A2201A802F046
:10D0F000DDF91C2408E08088694608801A2403E0D2
:10D100008088694648801B240E226946022001F06F
:10D11000A1F815490860FF200321800201F012F9EF
:10D12000E869002805D0104940225439204601F012
:10D1300091F8002E02D11048C76062B6002000E0CE
:10D140000320FFF7ADF9B1E70C4A002151600C490B
:10D150004968081800020A49000A40314860012065
:10D160000449400448607047D82600200020002071
:10D170000600FFFF00B300400005005040B1004032
:10D1800000B50040491E03D48B00C258002AF9D0D4
:10D19000491C05D08A0010188038C06F002203E0B7
:10D1A000002070474008521C0028FBD1480120385D
:10D1B0008018704710B50722940003590C59A342F8
:10D1C00001D9012010BDA34202D20020C04310BDEE
:10D1D000521EF1D5002010BDF0B5064600200346D2
:10D1E0009C000D591759EF193F18BD4204D0BD429C
:10D1F00001D9012000E000205B1C3751082BEFD340
:10D20000F0BDF0B50646002003469C000D591759A5
:10D21000EF1B3F1ABD4204D0BD4201D2012000E005
:10D2200000205B1C3751082BEFD3F0BDF8B51D462D
:10D23000174602F091F93B682A681C184A41069B80
:10D2400016461B68201A8E4101D2012000E0002002
:10D250001918069801602A603C60F8BDF7B50646CB
:10D26000002084B0174603900190044605460290C2
:10D2700001E000250DE002A80090601B80003958F5
:10D280000598AA00805801AB03AAFFF7CFFF002042
:10D290006D1CA542EFD9A2000399B15001990391E9
:10D2A0000299641C01910290082CE2D30824012504
:10D2B00001E0E51F0DE002A80090601B80003958D6
:10D2C0000598AA00805801AB03AAFFF7AFFF002022
:10D2D0006D1C082DEFD3A2000399B1500199039161
:10D2E0000299641C019102900F2CE2D30398F06321
:10D2F00007B0F0BDF0B589B00C46064600F0D3FB90
:10D300000025029501950095E06A0390206B04903A
:10D31000606B0590A06B0690E06B6A461146079023
:10D320000846FFF759FF074631466A460846FFF7A9
:10D3300053FFC719206B0390606B0490A06B05909E
:10D34000E06B6A461146069007950846FFF744FFD2
:10D35000C71931466A460846FFF73EFFC719206ADB
:10D360000090606A0190A06A05950495039502906B
:10D37000A06B0690E06B314607906A460846FFF7BF
:10D380002BFFC719606A0090A06A0190E06A0290C2
:10D39000606B0390A06B0490E06B0590606B06904F
:10D3A000206A314607906A460846FFF715FFC719FD
:10D3B000E06A0090206B0190606B059504950395E1
:10D3C0000290206A0690A06A314607906A46084695
:10D3D000FFF717FF3F1A206B0090606B0190A06B66
:10D3E0000290E06B059504950390606A0690E06AF0
:10D3F000314607906A460846FFF703FF3F1A606B05
:10D400000090A06B0190E06B0290206A0390606A2C
:10D410000490A06A06950590206B314607906A46F5
:10D420000846FFF7EEFE3F1AA06B0090E06B0295F6
:10D430000190606A0390A06A0490E06A06950590E6
:10D44000606B314607906A460846FFF7DAFE3C1AE1
:10D450000ED53146FB4A0846FFF7BEFE0419F8D444
:10D4600009B0F0BD3146F74A0846FFF7CAFE241A54
:10D47000002CF7D13146F348FFF79CFE0128F1D18B
:10D48000EEE7F0B50646A1B015460C46084600F09A
:10D49000F5FA002804D0304600F0E8FA21B0F0BDDB
:10D4A0002146684600F0FFFA294608A800F0FBFA7A
:10D4B00010A800F0DBFA0120109018A800F0D6FAAE
:10D4C0000124E40768E00099C9072ED00899C9072C
:10D4D00031D0002837DD694608AA0846FFF791FEDB
:10D4E000684600F0E9FA18A910A8FFF763FE0028C3
:10D4F00004DA10A92A460846FFF76EFE10A918AAFA
:10D500000846FFF77EFE1098C00712D010A92A46E1
:10D510000846FFF761FE074610A800F0CDFA002F7D
:10D520003AD017982043179036E0684600F0C4FAC6
:10D53000E9E710A804E008A800F0BEFA1BE018A86C
:10D5400000F0BAFA28E008A96A460846FFF759FE33
:10D5500008A800F0B1FA10A918A8FFF72BFE0028C0
:10D5600004DA18A92A460846FFF736FE18A910AAB9
:10D570000846FFF746FE1898C007E0D018A92A46CB
:10D580000846FFF729FE074618A800F095FA002F75
:10D5900002D01F9820431F9008A96846FFF70AFE93
:10D5A000002890D110A9304600F07DFA76E7F0B55A
:10D5B000044691B00E461546104600F05FFA00286A
:10D5C0007ED132461146684600F0A5FA6A462146E9
:10D5D00008A800F0A0FA6A461146084600F09BFA37
:10D5E00031462A46084600F096FA2A461146084671
:10D5F00000F091FA2146934B2A46084600F06BFA58
:10D600002A4611468F4B084600F065FA2A468D4B94
:10D610002146104600F072FA21462A46084600F0DC
:10D620007AFA2246874B1146284600F054FA2146E2
:10D63000844B2A46084600F04EFA0021204600F0AE
:10D6400029FA00280DD021467E4A0846FFF7C4FD7E
:10D650000746204600F030FAE069F9070843E06128
:10D6600002E0204600F028FA22461146284600F043
:10D6700052FA2946734B08AA084600F03FFA294699
:10D68000704B08AA084600F039FA08A96D4B2A46E3
:10D69000084600F033FA214608AA084600F03BFA93
:10D6A0006A46684B2146104600F028FA2946204673
:10D6B00000F0F9F93146284600F0F5F9694600E036
:10D6C00002E0304600F0EFF911B0F0BD70B588B05F
:10D6D0000E46044615461146684600F01CFA2146DF
:10D6E0006A46084600F017FA69462A46084600F0DE
:10D6F00012FA31466A46084600F00DFA08B070BDCD
:10D70000F0B5174689B01E460C46054602464D4BFD
:10D710003946684600F0F2F96A461146084600F0BC
:10D72000FAF929466A46084600F0F5F939466A468C
:10D73000084600F0F0F93146424B2246084600F018
:10D74000DDF932461146684600F0E5F969463D4B81
:10D750002A46084600F0D2F969463A4B3A4608464E
:10D7600000F0CCF93946374B2A46084600F0C6F996
:10D7700021463A46084600F0CEF9324B6A46294621
:10D78000384600F0BBF931463A46084600F0C3F986
:10D7900031462C4B2246084600F0B0F9694638461F
:10D7A00000F081F95CE6F7B5B4B023A8109013A897
:10D7B0001190FFF753FD234908A86031129000F043
:10D7C00072F9684600F052F9012400250120001B7F
:10D7D000810010A841586E468E46A10040588446EC
:10D7E000002001468B006746FA58F758D71B3F1AAE
:10D7F000BA4204D0BA4201D2012000E000207246B1
:10D80000491CD7501029EDD3844201D1012400E0F6
:10D810000024304600F050F908990798C9070843DA
:10D820000790129800F048F9FF2001306D1C8542E6
:10D83000CCDDA10010A84158349800F034F937B07D
:10D84000F0BD000040F60300F0B5F5B00F4600242F
:10D8500006460146154617943CA81F9400F067F948
:10D86000314644A82031064600F061F9294610A847
:10D8700000F05DF92946203118A800F058F910A8E9
:10D8800000F0FCF800287DD118A800F0F7F8002877
:10D89000F9D110A9B148FFF78DFC0128F3D118A9DF
:10D8A000AE48FFF787FC0128EDD1AC4A18A96846BD
:10D8B000FFF7E7FD394608A80F9400F038F908A9EA
:10D8C0006A460846FFF76FFF6A4610A95CA8FFF793
:10D8D0006AFF3CA924A800F0E6F82CA831460446CB
:10D8E00000F0E1F89D494CA8403900F0DCF89B4974
:10D8F00054A8203900F0D7F8984B4CAA603B24A9D3
:10D90000684600F0FBF8234624AA54A94CA8FFF768
:10D91000F7FE924A6946603A0846FFF7B2FD6A464A
:10D92000214624A8FFF7D2FE8C49203103C920905C
:10D930003CA8229024A821912390082108A8FFF751
:10D9400021FC044608215CA8FFF71CFC844200DD92
:10D9500020460446411E08A800F09CF8002801D08B
:10D96000012500E00025611E5CA800F093F8002866
:10D9700000D0012040000543A80020AE355834A84F
:10D98000294600E06DE000F08EF82946203164A8B9
:10D9900000F089F8684600F069F801200090A41EA4
:10D9A0003CD46A4664A934A8FFF701FE214608A8C2
:10D9B00000F070F8002801D0012500E00025214684
:10D9C0005CA800F067F8002800D001204000054363
:10D9D000A8003558002D1FD029464CA800F063F848
:10D9E0002946203154A800F05EF86A4654A94CA894
:10D9F000FFF76CFE594B4CAA603B34A96CA800F0B1
:10DA00007DF864AB34AA54A94CA8FFF779FE6946A7
:10DA10006CAA084600F07FF8641EC2D54F4A6946DA
:10DA2000603A0846FFF72DFD6A4664A934A8FFF75F
:10DA30004DFE34A94948FFF7BDFB012804D034A9A5
:10DA4000464A0846FFF7DDFB002034AC10AB072147
:10DA50008A00A5589A5855402843491EF8D50028F1
:10DA600002D0002075B0EBE60120FBE700210A465A
:10DA70008B00491CC2500829FAD3704700218A0044
:10DA80008258002A01D000207047491C0829F6D38B
:10DA9000012070474A1192008058CA06D20E012117
:10DAA00091400840704710B500229300CC58521C9A
:10DAB000C450082AF9D310BD10B500220146203108
:10DAC00004E00B685C081443DA070C600B46091F7E
:10DAD0008342F6D810BD70B51C460546FFF77CFBA7
:10DAE000002805D121462846FFF764FB002804DB07
:10DAF000294622460846FFF784FB70BD70B51C46D8
:10DB00000546FFF77EFB002804D02946224608463A
:10DB1000FFF762FB70BD10B590B004466846FFF792
:10DB20009DFB69462046FFF7E5FB10B010BDF8B538
:10DB30000E46074600240720001B80008519284652
:10DB400001F0E5FC00BA000AE97800020843A100F0
:10DB5000641C7850082CEED3F8BD0000A0F603003A
:10DB60008307FF22DB0E9A408907090E994000289F
:10DB70000BDA0007000F08388308F2489B001818DA
:10DB8000C36993430B43C36170478308EE489B000E
:10DB90001B181868904308431860704770B5044616
:10DBA000807CEA4D002810D0E94800F0F1F92946C0
:10DBB00001F066FC607C6B00E2685843491910185C
:10DBC00008180002000AA06070BD607C2A46DF4988
:10DBD000824049425618401C85406818801B050247
:10DBE0002D0ADB4800F0D4F96D08294601F048FC05
:10DBF0004819E16889194018E3E71FB50C460098F9
:10DC000001F027F8012804D0D2A286210020FEF7D7
:10DC10007BF8002C06D0CE486946983801F0DAFC33
:10DC2000002817D000980F22017811430170FF22BD
:10DC30000621C01C01F04CFC009800F0DDFF0098AC
:10DC400001F007F8002804D0C2A292210020FEF7BC
:10DC50005BF81FBD0120C349000508601FBD1FB54B
:10DC60006946022008700C4601A800F05FFF0028FA
:10DC700005D10420B7A274210390FEF745F80021D6
:10DC800068464170B848029025216846817001F0CD
:10DC90003AF9002802D1201D00F0AEFF1FBD10B5DB
:10DCA00000F0AAFF10BDB1480078002800D0D6E7E8
:10DCB0007047F0B5AE484268AE4B501E0102090AEB
:10DCC0000D460020142444431E59002E0BD0E418A6
:10DCD000A4688F1AA61A36023F02360A3F0ABE42CD
:10DCE00001D22102090A401C2028EBD301200004A4
:10DCF000A14B8D4209D05860A04B002018609C4871
:10DD00004030016099488260F0BD9860F0BD38B540
:10DD1000964C0FE0009800F09CFF012804D08DA2E3
:10DD2000C1210020FDF7F0FF616800988847009846
:10DD300000F062FF86486946983800F0A3FD00288D
:10DD4000E8D038BD10B501F000F910BD01207047D2
:10DD500038B5864A00240D46147005215060C9016B
:10DD6000844801F0BCFB7A4880380246183A1060BB
:10DD700004205060202054619060104600F074FD33
:10DD800000F0C4FE724800F02EF90090002803D085
:10DD900070A2E221FDF7B8FF02211420FFF7E0FE98
:10DDA000012077490005086000210120FFF7D8FE17
:10DDB0007449284601F057F838BD6C4801780029AD
:10DDC00002D1012101704AE77047FFB581B015000B
:10DDD0000E46074601D10C2E1BD8002F19D000206B
:10DDE00000F09FF8040014D0384600F0D8FE2760F9
:10DDF0002674002060745E484068E060A574049852
:10DE000060602046FFF7CAFEFFF753FF012005B010
:10DE1000F0BD0020FBE710B552490124E40280392F
:10DE20000C6000F07EF8002802D0C17C491CC1744F
:10DE30005348046010BD70B54A490125ED02803990
:10DE40000D6000F06EF8040006D0206800F0D4FEEB
:10DE50001421204601F043FBFFF72BFF48480560E3
:10DE600070BDFEB5424847680025BF1C14202E46F1
:10DE7000404B46439859002849D03C4AF418A168C1
:10DE80009268791ABA1A09021202090A120A914210
:10DE90003DD800216A461170019051703A480290B5
:10DEA000E07C002812D1252011469070084601F030
:10DEB0002AF8002803D02F48805900F070FE6946E8
:10DEC0008878401CC0B288702728EFD90020E07401
:10DED000607C421CD2B26274FF2805D12B4BE068F3
:10DEE000C0180002000AE060207C824215D3FF289F
:10DEF00013D06168002902D01E48805988471D4808
:10DF0000805900F079FE2046142101F0E8FA6D1CDA
:10DF1000202DABD3FFF7CDFEFEBD2046FFF73EFE22
:10DF2000F5E7144A002114234B43D358834203D10D
:10DF30001420414388187047491C2029F3D300203E
:10DF40007047000000ED00E000E400E0CD0C0000B0
:10DF5000EC2A00202E2E5C7472616E73706F7274E6
:10DF60002E63000000E200E0FBDB03000C20002039
:10DF700000B50040D427002000B3004040B100406D
:10DF800000E100E0A7DC03009FDC0300009A190019
:10DF900030B5416805240A460368E2419A1A83684D
:10DFA0000F251C46EC4161400160C4681B194360A9
:10DFB000A31889188360C160084630BDF0B5164CBF
:10DFC00001232360154A0026154F07E01568002D30
:10DFD000FCD0BD68491E89B2455416600029F5D1B0
:10DFE00063600020F0BD38B5044600200090042195
:10DFF0006846FFF7E3FF00280DD10A48206000982B
:10E000006060A0600025E0602046FFF7C1FF6D1C46
:10E01000142DF9D3002038BD00D0004000D10040BD
:10E0200000D50040ED5EEAF170B5164C2068164D43
:10E030000026002805D06868C00302D52660FFF7D7
:10E0400010FF6068002805D06868800302D566600C
:10E05000FFF712F870BD0D490020886003200A49BF
:10E060000004403148600A4901208860086009487E
:10E0700001680902090AC206114301600649D01469
:10E080000860704740B1004000B3004000B5004058
:10E0900000B0004008E400E000E100E0F0B50278E4
:10E0A00001251218AD024019002401265388B94DEC
:10E0B00076020EE01788BF00BA18824206D8AB423B
:10E0C00001D18B4202D1641CB44201D90020F0BDC1
:10E0D00053888B42EED1B0480068407880008018A9
:10E0E000F0BDF7B5FFB0FFB08AB00020012108AC49
:10E0F0000390FF228902204601F0EAF9A64F20464C
:10E1000039680A7801F0D2F9386801780D180C19CD
:10E110000120800208A9081802904BE06E889D48F3
:10E1200086424DD0002E42D0FFA8406A86422BD1B5
:10E13000FFA80394C06A001D01908007019803D0D6
:10E14000001D8008800001902018029905908842E7
:10E1500005D9032091A291210790FDF7D5FD0198E3
:10E16000FF228003010C039801800398032146805D
:10E170000598C01E01F0ACF9FFA8C26A816A201D93
:10E1800001F094F9059C12E028888000261801907F
:10E190000298864205D9032080A29F210490FDF7B2
:10E1A000B3FD29462046019A01F080F934462888BB
:10E1B0008000451901203968800208188542ADD3D6
:10E1C0000298844201D2734860800124A40221464F
:10E1D000786800F0D5FD08AD00232246294678680E
:10E1E00000F0F8FD2146386800F0CAFD0023224601
:10E1F0002946386800F0EEFD03987FB07FB00DB07F
:10E20000F0BD70B502460A43920501D0102070BDE2
:10E21000614C03C40178083CFF2904D000F0B1F838
:10E22000002802D014E00B2070BD606800F0A9F84F
:10E23000002802D10720FEF733F90125AD02294657
:10E24000206800F09DFD03CC00232A4600F0C2FDAB
:10E25000002070BDF7B5FFB0FFB084B0FFA8006923
:10E260004D4F810A38688902814204D100207FB075
:10E270007FB007B0F0BDFFA9C968FFF70FFF00F03E
:10E2800072F80646386800F07CF8050009D0FFA84F
:10E29000406901223968281892028918083088429A
:10E2A00006D3FFA80C3007C8FFF71BFF054644E064
:10E2B000A80706D01020FF2138A21A310090FDF7E0
:10E2C00023FDFFA84469241DA00702D0241DA40833
:10E2D000A40002A800190090FF220821001F01F0ED
:10E2E000F7F8FFA8C16868464181A003010C6846A1
:10E2F0000181FFA84269016903A801F0D7F80098DD
:10E30000244941800023221D02A9284600F062FD15
:10E31000002E12D0B00705D0102026A2482101906F
:10E32000FDF7F2FC318868460180002141800B46F0
:10E3300004226946304600F04DFD38684078800080
:10E34000401994E708B5FFF7A9FE00F00CF8002883
:10E3500008D0028869460A8000224A8013460422B7
:10E3600000F038FD08BD002803D00121890488424F
:10E3700001D1002070470849096849788900401A8E
:10E38000704710B50349FFF789FE002801D0FFF759
:10E39000EAFF10BDFF7F0000182000202E2E5C62D7
:10E3A0006F6F746C6F616465725F696E666F2E6308
:10E3B000000000002E2E5C626F6F746C6F616465EC
:10E3C000725F696E666F2E63000000003F4A03C2F1
:10E3D0007047800AC206D20E0121914008B540095B
:10E3E000C94383000091394804226946006800F05F
:10E3F000F1FC08BDF0B5A1B00D46840AFF228021D2
:10E40000684601F065F8002069460AE022185309C1
:10E410009B00D706CE58FF0E0122BA409643CE503D
:10E42000401CA842F2D3601940098200274800230B
:10E430000068121D00F0CEFC21B0F0BD800AC206BB
:10E44000D20E0121914008B54009C94383000091D3
:10E450001E4804226946406800F0BCFC08BD70B547
:10E46000820A01234018194C800A0CE051098900E6
:10E470006568D6066958F60E1D46B540294201D09A
:10E48000002070BD521C9042F0D8012070BDF0B544
:10E490000E4A1468002C17D05268002A14D0820A41
:10E4A00043189D0A0EE053099B00E658D706FF0E5D
:10E4B0000123BB401E4204D1FFF7D1FF0121484098
:10E4C000F0BD521C9542EED80020F0BD2020002067
:10E4D0000748026803210A4302600648804706484D
:10E4E0000047FEE7FEE7FEE7FEE7FEE7FEE7000087
:10E4F00024050040FDE40300C1BC030010B500F09A
:10E500001DF8002805D01F491D484860C8131E4942
:10E5100088611E48018CC9B201290ED1818C09077E
:10E520000BD1018D0906090F042906D1808D000643
:10E53000000F02D116490120886010BD1348018CDC
:10E54000C9B2012917D1818C090714D1018D09069F
:10E550000A0F03D1828D1206120F0ED0090F012966
:10E5600003D1828D1206120F07D0032903D1808DAB
:10E570000006000F01D00020704701207047000006
:10E58000DFFF07C000050040006C0040C00F00F036
:10E5900000060040F3B50025CDB004462E464E9847
:10E5A0008719384600F0B3FF00BA010AF87809026B
:10E5B0000143AA000CA86D1C361D8150102DEED30E
:10E5C00021E0A8000CA94318803B996F84461122D2
:10E5D0000846D04113220E46D6417040890A484071
:10E5E000596C07270E46F94132461227FA414A4034
:10E5F000F1084A4080181A6C596E89184218604612
:10E600000CA90A506D1C402DDBD3206D0B90616D61
:10E610000A91A76D0997E26D06920092226E089208
:10E62000636E07939E46A36E05930193E36E049376
:10E63000029300239C4606261346F3410B261546FB
:10E64000F5416B4019261546F5416B40019E754614
:10E65000154096436E409E1963469B00794D039387
:10E66000ED58029BEB18F618039B0CADEB580546D2
:10E67000F318039302260346F3410D26F5415D404E
:10E6800016260346F3415D400B467B400E46034091
:10E690003E407340ED18019B029373469646009AE4
:10E6A0000193039B00970F460146D2185819634601
:10E6B0005B1C9C46402BBED30B9B181820650A9808
:10E6C000401860650998C019A0650099069840181F
:10E6D000E065089880182066079870446066019984
:10E6E00005984018A066029904984018E0664FB05B
:10E6F000F0BD002815D0002101648164C164524935
:10E70000016552494165524981655249C165524985
:10E71000016652494166524981665249C1660020EC
:10E7200070470E207047F8B516460F46040005D016
:10E73000002E1ED0002F01D0002518E00E20F8BDBD
:10E74000216C785D6054206C401C206440280DD101
:10E7500021460846FFF71EFF0123A16C5B02002241
:10E76000E06CC91822645041A164E0646D1CB5429C
:10E77000E6D30020F8BD70B50D46040008D0002D8A
:10E7800006D0206C802200213828225403D307E0D1
:10E790000E2070BD2154401C3828FBD30BE02154BF
:10E7A000401C4028FBD321460846FFF7F3FE3821E2
:10E7B000204600F094FE226CA36C510FD200E06C56
:10E7C0009A1848412146A2640606130A2031E064E3
:10E7D0003343CA778B770604130C33434B7703021A
:10E7E000100E18430877E06CC876020A8A76020C8D
:10E7F0004A76000E087621460846FFF7CBFE002138
:10E800001823C800226D181AC2406A54666DC640AB
:10E810006A181671A66DC6401672E66DC64016736C
:10E82000266EC6401674666EC6401675A66EC64045
:10E830001676E66EC640491C16770429E1D30020FF
:10E8400070BD0000D0F6030067E6096A85AE67BBBD
:10E8500072F36E3C3AF54FA57F520E518C68059BC2
:10E86000ABD9831F19CDE05B826820211346491E76
:10E87000CB40DB07FAD001228A400021C1608260D0
:10E8800001617047F8B50B460446EFF31080C507E9
:10E89000ED0F72B68026304FBE602169E06881427C
:10E8A00005D1002D01D1FE6062B60E20F8BD002B0F
:10E8B00010D0A0682268401E01406068414389185A
:10E8C0006269002A02D01846904703E002461846C3
:10E8D00000F0ECFD2069401C2061002D01D1FE609C
:10E8E00062B60020F8BDF8B50B46EFF31081CC07F7
:10E8F000E40F72B68025184EB560C76801697F1AAB
:10E90000974205D8002C01D1F56062B60E20F8BD03
:10E91000891882680768521E114042685143C9191C
:10E9200047691846002F01D0B84701E000F0BEFD4E
:10E93000002C01D1F56062B60020F8BD0022D2E7BC
:10E94000C1680069081A70470169C068814201D135
:10E9500001207047002070470005005030B5044684
:10E960004078822289B002280CD00E281BD0842146
:10E970007828684641706178817024D00321017045
:10E98000C2700CE068464270217801702278012A3A
:10E9900004D9A11C801C521E00F088FD684600F0BE
:10E9A00003FC09B030BD00F0B3FC51494F4808608A
:10E9B00050490120C861BFF34F8F50494E48C8608D
:10E9C000BFF34F8FFEE7052101700020089008A8D3
:10E9D00000F0ACF8002826D0E078A17800020843C7
:10E9E000474900254018030000F0CEFD0504090446
:10E9F000110D1E0020780A2816D2092514E020786F
:10EA00000928FAD110E020781128F6D10CE02079FD
:10EA10000007000F0428207802D00B28EDD103E076
:10EA20001328EAD100E01125E078A178000208431C
:10EA300069468880072D2FD006DC002D2AD0022DB4
:10EA400034D0052D06D12FE0082D29D0092D29D04D
:10EA5000112D2BD08020C870084600F0A5FB002D9A
:10EA60009FD12078401EC1B20898FDF703FD22789F
:10EA70000898A11C0D30521E00F018FD20780122CC
:10EA8000401E81B208980D30FEF7C7FA089800F0D2
:10EA9000B3F886E70020DEE78520C87008467EE7E9
:10EAA0008320D8E78420D6E79020D4E78620D2E7D9
:10EAB00010B514480168FF22120291430322920309
:10EAC00011430160012010494005086000F0B9FBC6
:10EAD00010BD00B589B002E06846FFF73FFF684609
:10EAE00000F02EFC0028F7D109B000BD0F000F0088
:10EAF00000040040000500400400FA0500ED00E0BD
:10EB00000600FFFF14E400E000E100E0F8B5002497
:10EB10008D4E8E4F2546282060433555C01928213B
:10EB200000F0DDFC641C432CF5D3F8BDF8B50021E2
:10EB3000854D874B8022EFF31084E407E40F72B613
:10EB40009A606E5C002E02D0002C0DD00EE00126E3
:10EB50006E54282569437D4D49190160002C01D16F
:10EB6000DA6062B60120F8BDDA6062B6491C43295A
:10EB7000E1D3042077A24A210090FDF7C5F80020D8
:10EB8000F8BD10B5714C2821001B00F079FC43281A
:10EB900003D228214843001910BD002010BDF8B54C
:10EBA0006A49401A282100F06BFC0446432805D925
:10EBB000102068A260210090FDF7A6F8EFF3108006
:10EBC000C607F60F72B68027614887605E4D285DE4
:10EBD000002801D0FF2805D104205EA26621009004
:10EBE000FDF792F8285D401C2855002E02D15848A8
:10EBF000C76062B60120F8BDF8B55449401A282113
:10EC000000F03EFC432822D8EFF31081CC07E40F3C
:10EC100072B680254E4EB5604B490A5C002A05D07D
:10EC2000521ED2B20A54002C0BD00CE0082049A28C
:10EC300078210090FDF768F8002C08D1F56062B6E5
:10EC400005E0F56062B6002A01D00120F8BD002081
:10EC5000F8BD3E4910B5401A282100F011FC4328A8
:10EC600001D9002010BD3849085C10BD10B504461C
:10EC700006224149C01C00F019FC3F482438006AB4
:10EC8000BF22C007410E20781040084320700020AA
:10EC900010BDFFB581B00A9D1F46060006D0344660
:10ECA0000934172D04D9092005B0F0BD0E20FBE76B
:10ECB0003046FFF7DBFF28460E30707030780009D1
:10ECC0000001801C3070E81D2070162060702B48F9
:10ECD000A070000AE07002982071000A6071039829
:10ECE000A071000AE071002D07D0002F05D020464A
:10ECF0002A463946083000F0D9FB0020D4E770B529
:10ED000001000ED008464A780930062A09D9252A7A
:10ED100007D80DE00378451A093D5E19951FAE42EC
:10ED200001D9002070BD5D01EB1A18181F3000E0FA
:10ED3000124C4378162BEDD1C37885781B022B43F8
:10ED4000A342E7D170BD000074350020FC2A0020EA
:10ED5000000500502E2E5C2E2E5C7262635F6D6586
:10ED600073685C7372635C6D6573685F7061636B1D
:10ED700065742E6300000000A4000010E4FE000093
:10ED8000F8B501240546240720690A4681B22069A6
:10ED900080B28018401E00F073FBC3B200222448EA
:10EDA0002449164613E0022747600F68002FFCD065
:10EDB00085600F68002FFCD046600F68002FFCD0E4
:10EDC00027693F04BF0CBF007D19521CD2B29A4282
:10EDD000E9D3F8BDF0B500249B089B001B1825461D
:10EDE000204622E00F78491CFE432E43F5B2124E16
:10EDF0003755641CE4B2042C16D10024002D11D028
:10EE00000B4D01276F600B4D2F68002FFCD036682B
:10EE10001E602E68002EFCD0054E002777602E68FD
:10EE2000002EFCD000251B1D401C9042DAD3F0BD03
:10EE300000E5014000E401402C200020AC481021F6
:10EE4000C1600821C1602021C1608160A949002002
:10EE50000860A949401E8860A84901200861A849A6
:10EE6000022008707047F3B5A64981B00025CD6334
:10EE70000122CA63A449CD6003230B6102248C6084
:10EE8000A14B252640335E61060E4E620002C8612A
:10EE9000CD620A639D4848619D4888619D488863AA
:10EEA000FF20043048639C48C86394205860944E07
:10EEB00008273078032809D198480146183187601F
:10EEC00001600C2145614160FFF7CEFC944834702D
:10EED000C560944804609448046002987060844857
:10EEE000C7601021C1608D48FFF72EFD002802D0B9
:10EEF00070688047FEBDFEF729FF0028FAD08948D8
:10EF000080380460FEBD70B58168002905D00146D7
:10EF1000824800F05FFB002801D0002070BDEFF3B5
:10EF20001080C407E40F72B68025714EB560FEF7FD
:10EF30000DFF002803D07B49022080390860002C97
:10EF400001D1F56062B6012070BDF0B577488BB095
:10EF50000168002900D001210291C6687048C1688B
:10EF6000002901D0012700E00027C2690021002A02
:10EF700005D0654A40329268C161D5B200E00025F3
:10EF8000002F0DD0C16003A96448FFF77BFC0690F9
:10EF9000002807D0FF2166A22F31FCF7B5FE01E063
:10EFA00000F038F808A95D48FFF7C8FC544C002869
:10EFB0000FD04F481021C1600821C1602021C160DD
:10EFC000816002202070002F16D0059800280AD1F9
:10EFD00003E008A800F04EF8F5E7FF2154A2433102
:10EFE0000020FCF791FE6846007B01280BD0022828
:10EFF00009D00599049888472078022801D16068D3
:10F0000080470BB0F0BD059F2B463246029904980D
:10F01000B847F1E73EB54148FFF792FC044626E0C9
:10F0200069463E48FFF78AFC002822D168460078EE
:10F0300002281ED169463948FFF724FCFFF7FEFE7F
:10F040003148403001690029FCD135490020C860B1
:10F050000298002803D13FA26B21FCF755FE002245
:10F060006423D243029D00210198A847641E012C0D
:10F07000D6D83EBDFEB51F4A1321116082782249C1
:10F080000A2A02D853001B1D0EE0242A02D853007E
:10F090009B1D09E0384D6E4638CD38C693006C464E
:10F0A0001B19FF3B013BDB6E8B605206164B520E69
:10F0B00040335A6142684A600F4A08235360077818
:10F0C00010240B4A002520260120002FD460D36095
:10F0D000D66006D093600863084948600848057008
:10F0E000FEBD9460CD620549086005490870FEBD0B
:10F0F00000050050001200400013004000100040C6
:10F1000030200020C01F0040001500400601020012
:10F11000250003025B06000055555500B835002058
:10F120000011004080E200E000E100E00014004037
:10F130002E2E5C2E2E5C7262635F6D6573685C734D
:10F1400072635C726164696F5F636F6E74726F6C1F
:10F150002E6300002E2E5C2E2E5C7262635F6D6546
:10F1600073685C7372635C726164696F5F636F6E16
:10F1700074726F6C2E630000D0F7030010B5A449C1
:10F18000A448FFF77FFB00280DD1A148A24942788F
:10F19000801CA24C00238A60E361A14C0123A36080
:10F1A000A04BDA61C86010BD10B504468AB099481A
:10F1B00000F006FA002802D000200AB010BD00209E
:10F1C00069460870227800A821460130521C00F0E0
:10F1D0006DF969468F4800F0FDF98F4800780028E6
:10F1E00001D100F0CDF80120E7E770B58D4E8B4CD2
:10F1F000002504E0A560B069C0B200F0CEF8A068B8
:10F200000028F7D1E06900280BD0E56182488168C9
:10F21000491E8160491C05D0C1680A78F261491C09
:10F22000C16070BD7E4A0121D1600178012900D002
:10F2300005707848FFF788FB0028F2D100F0A0F8AD
:10F2400070BD70B573488AB0042484607149B430CD
:10F2500008602726B438002546604561FFF704FBA7
:10F260006C481838014645613031846042C0083826
:10F27000FFF7FAFA68486C4945700C2008606B4A41
:10F2800081019160684903260C390E606649091FA7
:10F290000860081F06606648C5630121C1636148B4
:10F2A0000922C2600B2242610A22026108228260A6
:10F2B0005C4A4032D1625F4A426204605E4A842006
:10F2C000506056488560C561554801605B4A1068CA
:10F2D000FF231B049843B30518431060584804608B
:10F2E00068460470812242708170564800680007A9
:10F2F000C10F6846C1700471FFF756FF002805D1A1
:10F3000051A2FF2130460896FCF7FEFC0AB070BD02
:10F31000F8B5EFF31080C507ED0F72B68026434FA6
:10F32000BE603D4C0120607001E0FFF75EFF207879
:10F330000028FAD16070002D01D1FE6062B6F8BDE0
:10F3400010B5044633488AB069461838FFF79AFA70
:10F35000002801D0002030E768464278002A04D017
:10F36000411C2046521C00F0A1F82B4801780129CD
:10F3700004D1002101702A490120086001201CE706
:10F3800025484178002907D10178022904D00221BB
:10F390000170080537490860704770B51E4C88B089
:10F3A00061681C4D0870491C403D481B401E61604F
:10F3B000272805D2012828D96978491C814224D8F8
:10F3C000144940390846283000F004F90126002885
:10F3D0000BD003216846017084214170A9788170A7
:10F3E0008621C170FFF7E0FE03E00120214980057E
:10F3F00008600848183800F0E3F8002802D00848F0
:10F400002670466003483F38606008B070BD000059
:10F41000C037002070360020382000200021004036
:10F4200000200040002500402C070050000500503F
:10F43000C02F004000E0D7010023004000E400E0BE
:10F4400000E100E0000400402E2E5C2E2E5C726273
:10F45000635F6D6573685C7372635C736572696129
:10F460006C5F68616E646C65725F756172742E6347
:10F470000000000000E200E010B5FCF72BFC10BD1E
:10F4800030B50B46014600202022012409E00D463C
:10F49000D5409D4205D31D469540491B25469540C4
:10F4A00040191546521E002DF1DC30BD03460B43BA
:10F4B0009B0703D009E008C9121F08C0042AFAD22A
:10F4C00003E00B780370401C491C521EF9D27047B0
:10F4D000D2B201E00270401C491EFBD270470022EC
:10F4E000F6E710B513460A4604461946FFF7F0FF43
:10F4F000204610BD30B504460020034600E05B1CEA
:10F50000934203D2E05CCD5C401BF8D030BD0321B8
:10F51000001D401E037812021A43491EF9D51046F9
:10F520007047034603220870000A491C521EFAD590
:10F5300018467047064C0125064E05E0E36807CCE7
:10F540002B430C3C98471034B442F7D3FCF7BCFB78
:10F55000DCF70300FCF70300F8B5040C8BB2264679
:10F5600082B25E430D0C1046370C584336048019A6
:10F570000021794116466E43370C360480197941D3
:10F5800026466E438919F8BD30B47446641E25784A
:10F59000641CAB4200D21D46635D5B00E31830BCC7
:10F5A000184702E008C8121F08C1002AFAD17047A4
:10F5B0007047002001E001C1121F002AFBD17047F3
:10F5C00082680169C0688918814201D101207047B1
:10F5D00000207047F8B50446EFF31080C507ED0F23
:10F5E00072B68026114FBE60A26820698318E06859
:10F5F000834205D1002D01D1FE6062B60420F8BD22
:10F60000521E1040626823685043C0186369002B83
:10F6100001D0984701E0FFF749FFE068401CE06037
:10F62000002D01D1FE6062B60020F8BD000500503B
:10F6300002000000000000000000000000000000C8
:10F64000FFFFFFFFFFFFFFFFFFFFFFFF00000000C6
:10F65000000000000000000001000000FFFFFFFFAD
:10F6600096C298D84539A1F4A033EB2D817D03775C
:10F67000F240A463E5E6BCF847422CE1F2D1176BF7
:10F68000F551BF376840B6CBCE5E316B5733CE2BCA
:10F69000169E0F7C4AEBE78E9B7F1AFEE242E34FF9
:10F6A000512563FCC2CAB9F3849E17A7ADFAE6BC24
:10F6B000FFFFFFFFFFFFFFFF00000000FFFFFFFF56
:10F6C0000000000060F603000000000000000000E1
:10F6D000982F8A4291443771CFFBC0B5A5DBB5E9BD
:10F6E0005BC25639F111F159A4823F92D55E1CAB31
:10F6F00098AA07D8015B8312BE853124C37D0C55BF
:10F70000745DBE72FEB1DE80A706DC9B74F19BC106
:10F71000C1699BE48647BEEFC69DC10FCCA10C24F6
:10F720006F2CE92DAA84744ADCA9B05CDA88F976DA
:10F7300052513E986DC631A8C82703B0C77F59BF44
:10F74000F30BE0C64791A7D55163CA066729291470
:10F75000850AB72738211B2EFC6D2C4D130D38530D
:10F7600054730A65BB0A6A762EC9C281852C7292CF
:10F77000A1E8BFA24B661AA8708B4BC2A3516CC7FD
:10F7800019E892D1240699D685350EF470A06A1036
:10F7900016C1A419086C371E4C774827B5BCB03485
:10F7A000B30C1C394AAAD84E4FCA9C5BF36F2E6823
:10F7B000EE828F746F63A5781478C8840802C78CB2
:10F7C000FAFFBE90EB6C50A4F7A3F9BEF27871C6B5
:10F7D000020000001A00000050000000FCF70300C7
:10F7E0000020002048000000A2F5030044F80300B8
:10F7F00048200020A01F0000B2F503000000000018
:10F8000000000000000000000000000000000000F8
:10F8100000000000000000000000000000000000E8
:10F82000000000000024F4000000000003000000BD
:10F830000000000000000000313600200000000041
:04F8400000000000C4
:020000041000EA
:0410140000BC030019
:040000050003BCC177
:00000001FF
