:020000040001F9
:10F000002034002015F401001DF401001FF401005C
:10F0100021F4010023F4010025F4010000000000A8
:10F0200000000000000000000000000027F40100C4
:10F0300029F40100000000002BF401002DF4010070
:10F04000A5F401002FF401002FF401002FF40100BA
:10F050002FF401002FF401002FF401002FF4010020
:10F060002FF401002FF401002FF401002FF4010010
:10F070002FF401002FF401002FF401002FF4010000
:10F080002FF40100F5F401002FF401002FF401002A
:10F0900029F501002FF4010031F501002FF40100E2
:10F0A0002FF401002FF401002FF401002FF40100D0
:10F0B0002FF401002FF40100000000000000000008
:10F0C0002FF401002FF401002FF401002FF40100B0
:10F0D0002FF401002FF401002FF4010000000000C4
:10F0E0000000000000000000000000000000000020
:10F0F0000000000000000000000000000000000010
:10F1000000000000000000000000000000000000FF
:10F1100000000000000000000000000000000000EF
:10F40000DFF80CD000F018F80048004771FD01004B
:10F41000203400200648804706480047FEE7FEE704
:10F42000FEE7FEE7FEE7FEE7FEE7FEE7FEE7FEE7B4
:10F4300071F5010001F40100064C074D06E0E0689B
:10F4400040F0010394E8070098471034AC42F6D32B
:10F45000FFF7DAFF406202006062020000F01F0264
:10F4600001219140024A430942F8231070470000ED
:10F4700080E200E000F01F02012191404209920069
:10F4800002F1E022C2F800117047000000F01F02F4
:10F4900001219140024A430942F8231070470000BD
:10F4A00000E200E010B54FF4807000F0ABFC60B1FA
:10F4B0004FF4807000F0AFFC012000F0B5FC01209B
:10F4C0000B494870002000F0ADF94FF4827000F055
:10F4D00099FC58B14FF4827000F09DFC022000F0BE
:10F4E000A3FC01200249887000F09CF910BD0000C7
:10F4F0000814002010B500200949086000210948BF
:10F50000C0F84411C0F84811C0F84C11002005495A
:10F51000C1F8000102493C39086000F03DFE10BD11
:10F52000401101400010014010B500F09BFD10BDDE
:10F5300070B50A48006868B108480068804704460A
:10F5400000BF254625B100BF284600F05DF900BF89
:10F5500000BF01E000F0F0FA70BD0000EC130020E5
:10F5600001480249086070470090D003041400204D
:10F5700010B500F0E9F910B17D487E49486700F008
:10F58000FBF928B17C480068C0F342307B49086031
:10F5900000F01CFA28B17A48006820F080707849A1
:10F5A000086000F02BFA48B10020764908604FF05F
:10F5B0008041C1F810017149091F086000F048FA44
:10F5C00018B103206D496431086000F059FA68B140
:10F5D00005206D49086001206B49783108600020E2
:10F5E0006949083108603F20091F086000F060FA8F
:10F5F000002855D065480068654908606348001DCB
:10F600000068091D0860614808300068091D08602D
:10F610005E480C300068091D08605C4810300068C6
:10F62000091D0860594814300068091D08605748D2
:10F630001830006856492031086054481C30006872
:10F64000091D0860514820300068091D08604F48B6
:10F6500024300068091D08604C4828300068091DE6
:10F6600008604A482C300068091D0860474830305F
:10F670000068474940310860444834300068091D3B
:10F680000860424838300068091D08603F483C3037
:10F690000068091D08603D4840300068091D086089
:10F6A00037487438006840F4700035497439086090
:10F6B00000BF00BF00BFBFF34F8F00BF00BF00BF40
:10F6C00000BF00BF00BFBFF36F8F00BF00BF00BF10
:10F6D0003048006800F0004030B92E48001D006836
:10F6E00000F00040002840D001202B49086000BFF6
:10F6F0002A4800680028FBD015202649086000BF72
:10F70000264800680028FBD015212248001D016012
:10F7100000BF224800680028FBD000201E49086076
:10F7200000BF1E4800680028FBD000BF00BF00BF1C
:10F7300000BF00BFBFF34F8F00BF00BF00BF104826
:10F74000F038006800F4E06015490843001D0C49DA
:10F75000F039086000BF00BF00BFBFF34F8F00BF8C
:10F7600000BF00BF00BF00BFFDE7FFF7F9FE10BDFF
:10F770000DF0ADBA00C00740440200103C05004047
:10F78000FCED00E00C0100401056004004040010A5
:10F7900020C500400012001004E5014000E40140D3
:10F7A0000000FA0502E008C8121F08C1002AFAD1B9
:10F7B00070477047002001E001C1121F002AFBD1F1
:10F7C0007047000000BF00BF00BF00BF00BFBFF315
:10F7D0004F8F00BF00BF00BF0948006800F4E06021
:10F7E00008490843001D0649086000BF00BF00BF6C
:10F7F000BFF34F8F00BF00BF00BF00BF00BFFDE7DA
:10F800000CED00E00000FA053EB504460020009033
:10F810000190029002946A46002144F20100FFF731
:10F82000D1FF3EBD70B505460DB9094C01E0084C4D
:10F83000083409E0204600F0DBF9064606B904E08A
:10F8400028467168884700BFF4E700BF70BD00001C
:10F85000101400202DE9F04782461F480068002858
:10F8600036D01D480068056800F08AFB07461B4833
:10F8700004682146384600F0D3FBC61C18480078BF
:10F8800008B900F083FBAE4201D2284600E03046C2
:10F89000044424F07F44204600F06CFB00F070FB31
:10F8A00080463946404600F0BBFB00F1030939466B
:10F8B000204600F0B5FB814509D900F061FB814687
:10F8C00000F058FB2F2000F001FB00F0B1FC01E03C
:10F8D00000F07AFBBDE8F087D0130020D41300209D
:10F8E000E8130020014614480078144A1278904228
:10F8F0001DD011480078401C0F4A10701046007847
:10F90000022801D1002010700D480B4A127850F8DF
:10F91000220008600B4A086812681044094A106007
:10F920001046006820F07F401060012070470020E2
:10F93000086000BFFAE70000E0130020E113002098
:10F94000D8130020D41300200A48007806280ED1CE
:10F950000848001D007800F00F0040B90548083045
:10F96000007800F0F000302801D10120704700201D
:10F97000FCE70000E00F00F013480078062820D1D3
:10F980001148001D007800F00F00D0B90E48083073
:10F99000007800F0F000302801D1012070470A48BB
:10F9A0000830007800F0F000402801D10120F5E790
:10F9B00005480830007800F0F000502801D10120FF
:10F9C000ECE70020EAE70000E00F00F00A480078CA
:10F9D00006280ED10848001D007800F00F0040B93D
:10F9E00005480830007800F0F000302801D10120EF
:10F9F00070470020FCE70000E00F00F0134800789B
:10FA0000062820D11148001D007800F00F00D0B961
:10FA10000E480830007800F0F000302801D10120B5
:10FA200070470A480830007800F0F000402801D103
:10FA30000120F5E705480830007800F0F000502874
:10FA400001D10120ECE70020EAE70000E00F00F020
:10FA50000A48007806280ED10848001D007800F0FA
:10FA60000F0040B905480830007800F0F000302859
:10FA700001D1012070470020FCE70000E00F00F0FA
:10FA80000A48007806280ED10848001D007800F0CA
:10FA90000F0040B905480830007800F0F000302829
:10FAA00001D1012070470020FCE70000E00F00F0CA
:10FAB0000A48007806280ED10848001D007800F09A
:10FAC0000F0040B905480830007800F0F0005028D9
:10FAD00001D1012070470020FCE70000E00F00F09A
:10FAE000F0B5034600241FE0124E306806689E42BF
:10FAF00003D90668F61A06601AE006689B1B0668BA
:10FB00003444002606600B4E35680A4FC6693E60D5
:10FB1000C66846B10E1926F07F464660C668866004
:10FB20001668C661156000BF024800680028DBD176
:10FB300000BFF0BDD0130020F8B52748007800B909
:10FB4000F8BD00252548006808B9012000E0002024
:10FB5000064600BFDDB92248007800B1F0E76846EC
:10FB600048DF0446052C01D101250FE024B100BF78
:10FB70002046FFF749FE09E0009800F0F3F9194824
:10FB8000006818B1174900980968884700BFDEB9B6
:10FB90001348007800B1D3E7134800880090694605
:10FBA0001248006861DF0446052C01D101260AE0F5
:10FBB00024B100BF2046FFF727FE04E00B48006891
:10FBC00006490968884700BF0DB106B100E0C1E7EA
:10FBD00000BF00BFB4E70000F0130020FC130020BA
:10FBE000F113002000140020F8130020F41300206B
:10FBF0000146086808B102680A60704770B51C4881
:10FC000004781C48066827E01948406804EB440162
:10FC100000EBC105601CC4B215488078A04200D139
:10FC200000242878022802D0032812D103E0686853
:10FC300000F07CFA0EE007E00E490868002101742C
:10FC40000C4AC169116000BF0A4800680028F3D15E
:10FC500000E000BF00BF00BF05484078A042D3D1FC
:10FC600004480068B04201D0012070BD0020FCE7CC
:10FC7000C8130020D01300202DE9F0410546374875
:10FC800007685AE015B12C46E56929E0344949680E
:10FC9000334A127802EB420201EBC2003049097884
:10FCA000491C2F4A1170114609789278914202D16D
:10FCB00000212B4A117044680178012901D1217C6F
:10FCC00001B13AE081686160C168A1600169E160E9
:10FCD0004169A1612349097809B10021616000BF30
:10FCE000214960680968401A20F07F401F49884216
:10FCF00008D21D496068096800F092F9A1680844BB
:10FD000020600FE018486168006800F089F9064635
:10FD1000A068B04203D9A068801B206001E00020E9
:10FD2000206000BF00206060A060012020740020DF
:10FD3000E061204600F0C6F900BF002DA2D10848BE
:10FD400000780749497888429CD104480068B84245
:10FD500002D00120BDE8F0810020FBE7D013002095
:10FD6000C8130020E9130020D4130020FFFF7F00F8
:10FD700000BF002019E00121814001F4F01199B188
:10FD800000BF01210A4600231D461C4641EA4206E7
:10FD900046EA830646EA052646EA0447164E46F832
:10FDA000207000BF00BF00BF401C2028E3D300BF6D
:10FDB00020E000241CE000BF1049086810490A5DDB
:10FDC0000121914081430D4A121D11600C490A5DC9
:10FDD000012191400140094A0832116000BF4FF4EF
:10FDE000FA75690015FB01F000F024F800BF641CEF
:10FDF000022CE0DBDDE700000007005004050050A6
:10FE00003C02020001464FF08040405808B10120FA
:10FE100070470020FCE708B500224FF080410A50EF
:10FE20000958009100BF08BD0149086070470000F3
:10FE30000803004000B9704700BF00BF00BF00BF0B
:10FE400000BF00BF00BF00BF00BF1E4909681E4AB7
:10FE5000914200D130E000BF00BF00BF00BF00BF33
:10FE600000BF00BF00BF00BF00BF00BF00BF00BF9A
:10FE700000BF00BF00BF00BF00BF00BF00BF00BF8A
:10FE800000BF00BF00BF00BF00BF00BF00BF00BF7A
:10FE900000BF00BF00BF00BF00BF00BF00BF00BF6A
:10FEA00000BF00BF00BF00BF00BF00BF00BF00BF5A
:10FEB00000BF00BF00BF00BF401E00D0BDE700BFB5
:10FEC000B9E70000041400200024F40000B97047D2
:10FED00000BF00BF00BF00BF00BF00BF00BF00BF2A
:10FEE00000BF1E4909681E4A914200D130E000BFA0
:10FEF00000BF00BF00BF00BF00BF00BF00BF00BF0A
:10FF000000BF00BF00BF00BF00BF00BF00BF00BFF9
:10FF100000BF00BF00BF00BF00BF00BF00BF00BFE9
:10FF200000BF00BF00BF00BF00BF00BF00BF00BFD9
:10FF300000BF00BF00BF00BF00BF00BF00BF00BFC9
:10FF400000BF00BF00BF00BF00BF00BF00BF00BFB9
:10FF5000401E00D0BDE700BFB9E700000414002038
:10FF60000024F40010B5044614B90020FFF75AFC31
:10FF700010BD0000014908607047000040150140B5
:10FF800001480068704700000415014010B54FF4A7
:10FF900080300A4908600A49C1F804031120FFF7BC
:10FFA0005DFA1120FFF766FA0120054908602F204D
:10FFB000FFF78CFF01200349087010BD4413014076
:10FFC00000100140E813002010B5112001218140EC
:10FFD0000E4A430942F8231000BF4FF480300C4909
:10FFE00008600C49C1F80803012048602F20FFF782
:10FFF0006DFF0120074988600020074908602F2015
:020000040002F8
:10000000FFF764FF00200549087010BD80E100E0A3
:100010004813014000100140D4130020E8130020D1
:100020000246501A20F07F407047000070B5044629
:100030000B48006878B10A4AD4E905011268904774
:10004000054600BF2E4626B100BF3046FFF7DCFB59
:1000500000BF00BF02E0D4E90510884770BD000072
:10006000E41300202DE9FC41002001900F480468B2
:100070000F4807686846FFF735FC0546FFF7BEFDE9
:1000800006462DB101AA21460098FFF729FD012659
:100090000198FFF7F1FD00B1012616B13846FFF7D0
:1000A000D9FB002003490870BDE8FC81D41300206F
:1000B000D0130020E913002010B51420FFF7E6F953
:1000C00010BD000010B51849096811B9164908603B
:1000D00028E0154A01681268126891420DD8124949
:1000E000096809680268891A0F4A126811600E4986
:1000F0000968C1610C49086014E002680A4C236871
:10010000216803E00C68121B0B46C96911B10C6829
:100110009442F7D311B10C68A41A0C600260C1615B
:10012000D86100BF10BD0000D013002030B50246DA
:10013000154C2168084604E0904200D103E00146D6
:10014000C0690028F8D100BF00B930BD814210D18C
:100150000D4C2468E4690C4D2C602C46246844B98D
:1001600001240A4DAC600024094D2C600124094D86
:100170002C700368C469CC61C86910B104681C4460
:10018000046000BFE1E70000D01300200010014030
:10019000D4130020E91300202DE9F0411F48006826
:1001A000002838D00027FFF7EBFE80461C48016886
:1001B0004046FFF735FF06461848056810E02868F6
:1001C000B04200D90EE02868361A286807442C4649
:1001D000ED69207C20B1002020742046FFF726FF27
:1001E000002DECD100BF0F4800780F4909788842F4
:1001F00009D10D480078401CC0B20B490870022894
:1002000001D10020087009480749097840F8217099
:10021000FFF752FF00BFBDE8F0810000D0130020BF
:10022000D4130020E0130020E1130020D813002095
:1002300010B51120FFF72AF910BD00001112131498
:1002400000000000000000000000000000000000AE
:10025000000000000000000000000000000000009E
:10026000000000000000000000000000000000008E
:10027000000000000000000000000000000000007E
:1062400060620200C813002040000000A4F70100B3
:10625000A06202000814002018200000B4F701001A
:10626000000000000000000000000000000000002E
:10627000000000000000000000000000000000001E
:10628000000000000000000000000000000000000E
:106290000000000000000000000000000090D0039B
:040000050001F40101
:00000001FF
