:020000040001F9
:10800000C03D002091810100A38101001188010081
:108010000000000000000000000000000000000060
:10802000000000000000000000000000A781010027
:108030000000000000000000A9810100AB810100E8
:10804000AD810100AD810100398D0100AD810100DC
:10805000AD81010000000000AD810100AD81010093
:10806000AD810100AD810100AD810100AD81010054
:10807000AD810100AD810100AD810100AD81010044
:10808000AD8101008989010055890100AD810100A0
:10809000AD810100AD810100C58C0100AD81010001
:1080A000AD810100AD810100000000000000000072
:1080B00000000000000000000000000000000000C0
:1080C00000F002F800F038F80CA030C80838241886
:1080D0002D18A246671EAB4654465D46AC4201D100
:1080E00000F02AF87E460F3E0FCCB64601263342FA
:1080F00000D0FB1AA246AB46334318470C78000069
:108100002C7800000023002400250026103A01D31B
:1081100078C1FBD8520700D330C100D50B6070473F
:1081200010B5642902D100F0B7F810BD002010BDD1
:108130001FB51FBD10B510BD00F00DFB1146FFF7B8
:10814000F7FF03F0E9FA00F025FB03B4FFF7F2FFB5
:1081500003BC00F02BFB000070B505460C4616462C
:1081600002E00FCC0FC5103E102EFAD2082E02D31B
:1081700003CC03C5083E042E07D301CC01C5361F2E
:1081800003E021782970641C6D1C761EF9D270BD45
:108190000A48026803210A430260094880470948E7
:1081A0000047FEE7FEE7FEE7FEE7FEE7FEE700002A
:1081B00005480649044A064B704700002405004064
:1081C000018D0100C1800100C0350020C03D0020AC
:1081D000C03500204343514330B55C18010C130CEB
:1081E0000D4692B25D4380B251432C19054655436A
:1081F0000A0C09044D1962415843010C000440194E
:10820000514130BD0FB41CB5074B06AA7B446946EB
:108210000090059800F073FA0020694600F082FA99
:108220001CBC08BC04B0184715050000F8B50E4684
:108230000446002020622046E1688847002829D0B3
:10824000252802D06268A16820E0E1682046002766
:10825000884705001ED028464138192802D8012732
:10826000FF0220353246204627602946FFF758FF97
:10827000002808D0012804D0F61DF608F6000836BC
:10828000D9E7361DD7E762682846A1689047206A7B
:10829000401CCFE7206AF8BDF7B5002575291068A6
:1082A000009914A611D0C046C046002802DA404208
:1082B00011A608E0009909688A0701D50FA602E017
:1082C000490704D50EA6012501E0C046C046009F1F
:1082D0000024243704E000F02AFA30313955641CB8
:1082E0000028F8D12B4632462146009800F0AAF922
:1082F000FEBD0000000000002D0000002B0000006B
:1083000020000000034610B50B439B070FD1042A41
:108310000DD308C810C9121FA342F8D018BA21BA49
:10832000884201D9012010BD0020C04310BD002AA1
:1083300003D0D30703D0521C07E0002010BD037800
:108340000C78401C491C1B1B07D103780C78401C7F
:10835000491C1B1B01D1921EF1D1184610BD000013
:10836000034670B502460B439B070FD10E4CE60146
:1083700000E008C208C91D1B9D433542F9D0D9B29F
:108380001170521C00290DD01B0AF8E70B78491C0C
:108390001370521C002B05D00B78491C1370521C13
:1083A000002BF3D170BD00000101010130B5441C68
:1083B00003E00178401C00290DD08107F9D10B4B57
:1083C000DD0104C8D11A91432940FAD0001B0A06E6
:1083D00003D0C01E30BD001B30BD0A0401D0801E7A
:1083E00030BD0902FCD0401E30BD0000010101017A
:1083F000F8B5042A2CD3830712D00B78491C0370DC
:10840000401C521E83070BD00B78491C0370401C84
:10841000521E830704D00B78491C0370401C521E67
:108420008B079B0F05D0C91ADF002023DE1B08C96C
:108430000AE0FFF791FEF8BD1D4608C9FD401C4645
:10844000B4402C4310C0121F042AF5D2F308C91AF5
:10845000521EF0D40B78491C0370401C521EEAD403
:108460000B78491C0370401C012AE4D40978017080
:10847000F8BD01E004C0091F0429FBD28B0701D518
:108480000280801CC90700D00270704700290BD001
:10849000C30702D00270401C491E022904D383077F
:1084A00002D50280801C891EE3E70022EEE700224D
:1084B000DFE70378C2781946437812061B02194396
:1084C0008378C0781B04194311430902090A000686
:1084D00008437047020A08704A70020C8A70020E44
:1084E000CA707047002203098B422CD3030A8B42C7
:1084F00011D300239C464EE003460B433CD400229C
:1085000043088B4231D303098B421CD3030A8B42AD
:1085100001D394463FE0C3098B4201D3CB01C01A7B
:10852000524183098B4201D38B01C01A5241430946
:108530008B4201D34B01C01A524103098B4201D334
:108540000B01C01A5241C3088B4201D3CB00C01AA1
:10855000524183088B4201D38B00C01A5241430819
:108560008B4201D34B00C01A5241411A00D201463E
:108570005241104670475DE0CA0F00D049420310D7
:1085800000D34042534000229C4603098B422DD326
:10859000030A8B4212D3FC22890112BA030A8B42CE
:1085A0000CD3890192118B4208D3890192118B421D
:1085B00004D389013AD0921100E08909C3098B42A2
:1085C00001D3CB01C01A524183098B4201D38B01E5
:1085D000C01A524143098B4201D34B01C01A524188
:1085E00003098B4201D30B01C01A5241C3088B42CD
:1085F00001D3CB00C01A524183088B4201D38B00B8
:10860000C01A5241D9D243088B4201D34B00C01A41
:108610005241411A00D20146634652415B10104656
:1086200001D34042002B00D54942704763465B109E
:1086300000D3404201B50020C046C04602BD70478D
:1086400070477047FFB504460D4681B02430009056
:108650002168880604D51022E0699143216000E07A
:108660000120A84201DD471B00E000270498A16912
:108670007A191018081AA0612078C00602D4204682
:10868000C046C046002608E003986268A168805D85
:108690009047206A401C761C206204988642F3DBD7
:1086A0002078C0060AD52046C046C04606E062686B
:1086B000A16830209047206A401C206238467F1E07
:1086C0000028F4DC07E000986268A168405D9047EC
:1086D000206A401C206228466D1E0028F3DC2046DC
:1086E000C046C0462078000602D5022005B0F0BD85
:1086F0000120FBE701694A1C02610878704700B558
:108700008FB00291002105910549019379440391AD
:10871000114604906846FFF789FD0FB000BD0000C8
:10872000E5FFFFFF0A681070521C0A60704701469F
:108730008008081A02091018020A1018020C1018F2
:10874000C008820012185200891A01E0401C0A3940
:108750000A29FBD27047754600F024F8AE460500A2
:1087600069465346C008C000854618B020B5FFF7DB
:108770001FFD60BC00274908B6460026C0C5C0C51D
:10878000C0C5C0C5C0C5C0C5C0C5C0C5403D490005
:108790008D46704710B50446C046C0462046FFF7D8
:1087A000D4FC10BD004870475C35002001491820FA
:1087B000ABBEFEE726000200704770B58C18057846
:1087C000401C6B075B0F01D10378401C2A1106D1B6
:1087D0000278401C03E00678401C0E70491C5B1EAA
:1087E000F9D12B0705D40023521E0DD40B70491C60
:1087F000FAE70378401CCB1A921C03E01D780D7039
:10880000491C5B1C521EF9D5A142D8D3002070BD73
:1088100001F0C8FEC206D20E01219140014A11604A
:108820007047000000E100E0C206D20E0121914035
:10883000014A11607047000000E200E0C206D20E5B
:1088400001219140014A11607047000000E200E000
:10885000C206D20E01219140014A1160704700000A
:1088600000E200E010B5002819DA1A4A03071B0FCE
:10887000083B9B089B00D2588307DC0EFF23A340D4
:108880009A438B071B0E8407E40EA3401A43114B37
:108890000407240F083CA408A4001A5118E00E4A4B
:1088A00003231B02D21883089B00D2588307DC0ED7
:1088B000FF23A3409A438B071B0E8407E40EA340BB
:1088C0001A43054B032424021B198408A4001A51DF
:1088D00010BD00001CED00E000E100E010B5002834
:1088E00019DA1A4A03071B0F083B9B089B00D25852
:1088F0008307DC0EFF23A3409A438B071B0E8407DC
:10890000E40EA3401A43114B0407240F083CA408AB
:10891000A4001A5118E00E4A03231B02D218830840
:108920009B00D2588307DC0EFF23A3409A438B079A
:108930001B0E8407E40EA3401A43054B03242402B4
:108940001B198408A4001A5110BD00001CED00E0A2
:1089500000E100E010B510E00024094801F036FE07
:10896000044306F04DF8002803D0064801F02EFE1F
:108970000443002C00D101E000BFEDE700BF10BDB3
:10898000B8250020702600201248406801281FD119
:10899000002110484160406801200F49886000BFF5
:1089A0000E4948680121090681430C4A9160012162
:1089B00009060140D16000BF00BF1146486801218F
:1089C000C905814391600121C9050140D16000BF03
:1089D00070470000401101400010014000050050A8
:1089E000F8B504460D46164600BF07480078002833
:1089F00001D100F0EBF900BF32462946204600F0D5
:108A000005F807463846F8BDE4340020F7B582B0D3
:108A10000746164603980190182078431B494018D2
:108A2000009000984069002804D0012811D0022845
:108A300026D11EE0009800F001FA0546B54201D2A9
:108A4000002405E0344632460199009800F079FB95
:108A500018E0009800F0F2F90546B54201D2284628
:108A600000E03046044622460199009800F069FB78
:108A700008E032460199009800F026FB044601E028
:108A8000002400BF00BF204605B0F0BDFC3400202C
:108A90000FB438B5044606A800906A4620460599EA
:108AA00000F004F838BC08BC04B01847F7B59AB019
:108AB0000D46144602A815904020169000201790ED
:108AC0001A9819900020189000BF2E786D1C002E67
:108AD00000D1E4E0252E79D100270120149000BFB9
:108AE0002E78232E12D02B2E0CD02D2E02D0302EED
:108AF00010D103E0012007436D1C0EE00220074364
:108B00006D1C0AE0042007436D1C06E008200743A3
:108B10006D1C02E00020149000BF00BF14980028D4
:108B2000DED1129000BF2E78302E01DB392E00DD11
:108B300008E06D1C0A21129848433146303940182C
:108B40001290F0E700BF002013902E782E2E11D146
:108B50006D1C00BF2E78302E01DB392E00DD08E0C1
:108B60006D1C0A2113984843314630394018139040
:108B7000F0E700BF2E7800BF6C2E01D0682E02D126
:108B80002E786D1C00E000E0F6E700BF702E63D089
:108B900008DC252E72D0582E38D0632E09D0642ED2
:108BA00071D114E0732E40D0752E1FD0782E6AD16B
:108BB0002BE02168081D2060086814901498C0B24A
:108BC000019015A8019900F05DFA5DE05FE0216871
:108BD000081D2060086814901298019700900A22DE
:108BE00015A8139B149900F037F94DE02168081D72
:108BF0002060086814901298019700900A2215A826
:108C0000139B149900F0B0F93EE000BF2168081DE5
:108C1000206008681490129801970090102215A8FF
:108C2000139B149900F0A0F92EE02168081D206024
:108C30000868019000BF019806780198401C0190D7
:108C4000002E00D106E0314615A800F01BFA189856
:108C50000028F0DA00BF17E02168081D20600868CE
:108C60001490002008210B4610220091019015A8B5
:108C7000149900F079F907E000E004E0252115A837
:108C800000F000FA00E000BF00BF6D1C03E03146B9
:108C900015A800F0F7F91898002800DB15E700BFC9
:108CA000189800280BDD1798002804D002A9179AFD
:108CB0001A98FFF795FE1799189840181890189869
:108CC0001DB0F0BD70B50C480068002811D00A48EE
:108CD00000688047044600BF2546002D07D000BF2E
:108CE000064AFF212A31284600F082FB00BF00BF60
:108CF00001E002F00BFC70BD30210020B0F8010053
:108D000010B502F07FFC002805D0074807494860ED
:108D1000C8130749886102F059FC002802D00120DD
:108D20000449886010BD0000DFFF07C00005004057
:108D3000006C00400006004010B509E000201C490E
:108D40008860084680681B498969C8B200F0DEFC6B
:108D5000174880680028F1D11548C069002826D03E
:108D600000201349C861144801680068401E124A77
:108D7000106000290AD01148006800780D49C861C8
:108D80000E480068401C0D49086010E001200C49A5
:108D9000C8600C480078012802D0002009490870FA
:108DA000094801F0E1FC002801D104F069FC10BD84
:108DB0000021004000250040E4200020E8200020A1
:108DC00000200040E02000201824002010B5124CA4
:108DD00002202061606111A0A0611349E1610121BD
:108DE000C90221620021A1626162E1620BA0A0645C
:108DF0000E49E164102121650021A1656165E165ED
:108E00000BA1E01DFFF7ACFA0AA12046FFF7A8FA74
:108E10002020A07110BD0000E43400205465726D64
:108E2000696E616C00000000D42C0020D434002056
:108E300052545400534547474552000010B501466F
:108E40000A69CB689A4204D88C68641EE41AA01898
:108E500001E0D41A601E10BDFFB585B006460F466E
:108E60000F9D0E9C002F01DA784200E038460390F7
:108E70000120049007E007990398FFF73DFB03905A
:108E80000498401C0490079903988842F3DA0499E7
:108E90000898884201D908980490002C06D0002F29
:108EA00003DB04202840042800D1641E022028404F
:108EB000002802D00898002815D0E807C00F002825
:108EC00011D1002C0FD008E0641E2021304600F0A4
:108ED000D9F8F068002800DA04E0002C02D00498E9
:108EE000A042F1D300BFF06800283ADB002F05DA7A
:108EF0007F422D21304600F0C5F807E004202840CD
:108F0000042803D12B21304600F0BCF8F06800287B
:108F100027DB02202840022818D1E807C00F0028CC
:108F200014D10898002811D1002C0FD008E0641E3D
:108F30003021304600F0A6F8F068002800DA04E09E
:108F4000002C02D00498A042F1D300BFF0680028A2
:108F500007DB0195009439463046089B079A00F0DC
:108F600003F809B0F0BD0000FFB585B0064617460E
:108F70001D460E9C0698029001200390019007E088
:108F800039460298FFF7AEFA02900198401C019012
:108F90000298B842F4D20198854200D901950F9801
:108FA000C007C00F00281DD1002C1BD002210F9834
:108FB0000840022804D1002D02D13020009001E0A9
:108FC0002020009008E0641E3046009900F05AF816
:108FD000F068002800DA04E0002C02D00198A042DA
:108FE000F1D300BFF068002848DB0FE0012D01D964
:108FF0006D1E08E003990698FFF774FA0490049830
:10900000B84200D203E0039878430390EEE700BF34
:1090100000BF03990698FFF765FA04900399049836
:1090200048430699081A0690154A0498115C304680
:1090300000F028F8F068002800DA07E039460398C5
:10904000FFF750FA039003980028E2D100BF0F9871
:10905000C007C00F002811D0002C0FD008E0641EFC
:109060002021304600F00EF8F068002800DA04E015
:10907000002C02D00198A042F1D300BF09B0F0BD8E
:10908000A0F8010070B504460E46A568681C61682A
:10909000814206D320684655681CA060E068401CE9
:1090A000E0606168A06888420DD1A26821682069EB
:1090B000FFF796FCA168884203D00020C043E0601F
:1090C00001E00020A06070BDF7B582B004461746ED
:1090D00000200190E56800BF206900900098A84238
:1090E00003D90098401B461E04E0A1680098281A86
:1090F000401C0E1AA068401BB04201D9304601E066
:10910000A068401B0646BE4201D2304600E0384609
:1091100006466168481932460399FFF769F90198D4
:1091200080190190039880190390BF1BAD19A068A6
:10913000A84200D10025E560002FCDD1019805B0EF
:10914000F0BDF7B582B004461546E668A068871BF7
:10915000AF4208D9616888192A460399FFF748F990
:109160007019E06010E0019761688819019A03990D
:10917000FFF73EF9E81B0190039AD1196068019A44
:10918000FFF736F90198E06005B0F0BD30B47446E1
:10919000641E2578641CAB4204D3635D5B00E31856
:1091A00030BC18471D46F8E730B58DB004460D4673
:1091B000224613A10020FFF76BFC232168460177AC
:1091C00007A800F037FC092168460170144841786F
:1091D0006846417112480178684601710A221049B7
:1091E000891C801DFFF704F90621684601740E21D1
:1091F0000B48FFF75CF9684603F0FCFF0DB030BD8B
:109200001B5B306D41424F52542054696D656F7540
:1092100074206669726564204025640A00000000BD
:10922000C42C0020124A1268002A07D0104B026892
:109230001B681B68D21A0F4B9A4205D90C4A126858
:1092400002610B4A10607047094A116800E0096921
:109250000A69002A06D00A6912680368D21A054B07
:109260009A42F4D80A690261086100BFEBE7000086
:1092700014210020FFFFFF7FF8B504460F46154676
:109280000026002028702078002809D02A46394678
:10929000204603F05DF90646002E01D03046F8BDA9
:1092A000A078002808D02946384600F0A3F80646E2
:1092B000002E01D03046F2E7E07800280ED00221DF
:1092C0002A78501C2870B95401212A78501C287023
:1092D000B954E1782A78501C2870B9546068002885
:1092E0000BD00020616808562A46394605F0F8FD83
:1092F0000646002E01D03046D1E7208900280CDD3B
:109300003B460622022120460830009505F0B3FEB8
:109310000646002E01D03046C1E7208A00280CDD29
:109320003B460722032120461030009505F0A3FE9E
:109330000646002E01D03046B1E7208B00280CDD18
:109340003B461522142120461830009505F093FE67
:109350000646002E01D03046A1E7206A002809D039
:109360002A463946206A00F097FA0646002E01D0B8
:10937000304694E7606A002809D02A463946606A78
:1093800002F04EFA0646002E01D0304687E72C2028
:10939000005D002809DD2A463946204604F0B8FD64
:1093A0000646002E01D0304679E7304677E7014681
:1093B000C87804221040002801D1072070470020FF
:1093C000FCE7000010B5074801F0CEF9002807D0EF
:1093D0000548006805490968884201D1012010BD8F
:1093E0000020FCE7B822002044200020402000207C
:1093F00001F0D8F8F8B505460C462078001D1F2866
:1094000001DD0C20F8BD684679DF0646002E01D04C
:109410003046F7E703212278501C2070A954192107
:109420002278501C2070A954207841196846008881
:1094300005F018FE2178401820700020E2E70000B7
:1094400070B5044620780300FFF7A0FE0504401C19
:10945000343A59000321C9036068884204D30121CA
:1094600049076068884209D900BF102500BF25A2BE
:1094700042211020FFF7BCFF00BF00BF6168A06859
:1094800088473DE00321C9036068884204D3012175
:1094900049076068884209D900BF102500BF19A29A
:1094A00046211020FFF7A4FF00BF00BF6168A0683D
:1094B000884725E0237C201D07C804F0B1FE1FE08B
:1094C000E279A179A08801F09FFC19E00321C9038A
:1094D0006068884204D3012149076068884209D93D
:1094E00000BF102500BF07A255211020FFF780FF05
:1094F00000BF00BF6268E168A068904700E000BF5D
:1095000000BF70BD2E2E5C2E2E5C2E2E5C72626310
:109510005F6D6573685C7372635C6576656E745FBE
:1095200068616E646C65722E6300000070B504465D
:1095300005F016F80546204604F032F8284604F0F7
:109540007DFD70BD70B5044605F00AF8064620465C
:1095500004F026F82046FFF765FEEFF31080C507FC
:10956000ED0F72B607484068401E06494860002D5E
:1095700000D162B6304601F0ADF9304604F05EFD30
:1095800070BD00001421002070B588B005462E463D
:10959000304602F001FE044600200090002C27D047
:1095A00061792279090211430846694605F0CEFF28
:1095B00000281DD168460078002819D0042069468B
:1095C00008716079217900020843694608812046C4
:1095D000083003902078C01FC1B201A8017304F0C5
:1095E000BFFF059001A803F005FE01A802F065F990
:1095F000304602F089FE08B070BDF3B593B00D4659
:109600000021129111911398002814D01398FFF79C
:10961000CEFE0446002C02D0204615B0F0BD12AAA2
:1096200009A91398FFF728FE0446002C01D0204614
:10963000F3E709AE00E00026002D13D0284604F021
:1096400077FD0446002C01D02046E6E711AA01A9C7
:109650002846FFF711FE0446002C01D02046DCE727
:1096600001AF00E0002710A803793A46017A30469E
:1096700072DFD2E770B50446208810380300FFF788
:1096800085FD0906071E0A1E1E1E1D1C1E0017E072
:109690000C4873DF14E000BFA08800230A4A194673
:1096A0007FDF0546002D06D000BF08A272212846A4
:1096B000FFF79EFE00BF00BF02E001E000E000BF38
:1096C00000BF70BD00200020182000202E2E5C6EF0
:1096D00072665F6164765F636F6E6E2E630000007A
:1096E00010B50446208850280BD0512802D05228AB
:1096F00008D100E007E0A08800231A461946A9DF38
:1097000001E000E000BF00BF10BD000030B589B02F
:10971000054623480068057021480068401C204920
:109720000860084601681F480C1A272C06D2012C35
:1097300033D9401E4078401CA0422ED81949491EFA
:10974000194801F092F800280FD0032168460171F2
:10975000842141711348401E8178684681718621B9
:1097600001A8C17004F026FB0AE0022069460874D3
:109770000E4805900021069104A800F0B3FF00BF39
:10978000094800F0FAFF002804D0012008490870B9
:109790000849486003480249086009B030BD00002C
:1097A000F02000209025002000240020A5B8010012
:1097B000E02000200020004070B504460D46201D2A
:1097C000FEF777FE281A1A4988422FD8204605F05E
:1097D000A3FA00282AD020460830FEF76AFE154971
:1097E0000968154A1268514388420AD22046083057
:1097F000FEF75FFE4600214608313046FEF76AFE5E
:1098000009E00C4909680C4A126851430846214690
:109810000831FEF75FFE0020207320460830FEF777
:1098200048FE4619211D3046FEF754FE70BD00006B
:10983000FFFFFF7FC4200020C020002001460888D1
:10984000062808DB08881922D201904205DD088825
:10985000104A904201D0072070474888062808DB4C
:1098600048881922D201904205DD4888094A904271
:1098700001D00720F0E70888064A904208D04888BF
:10988000904205D008884A88904201DD0720E3E72E
:109890000020E1E7FFFF0000F8B506460D4614463C
:1098A0002078801D1F2801D90C20F8BD3046FFF715
:1098B000C5FF0746002F01D03846F6E7052122787C
:1098C000501C2070A95412212278501C2070A954D9
:1098D00022785119308805F0C5FB21784018207096
:1098E00022785119708805F0BDFB2178401820704E
:1098F0000020DAE770B53148068815E0142070437F
:109900002F494018006900280DD1142171432C4AB9
:109910008818002105F044FA28480088401C27498F
:109920000880B0B270BD761C022EE7D325480468CB
:109930000CE000BF0A20604323494018C08844045B
:10994000640C00BF032C01D10220EBE70A20604326
:109950001D49401800890228EBD00A2060434018B6
:10996000C088C00B0028E4D10A2060434018058954
:1099700000BF022D01D2012000E000200646002E8B
:1099800005D100BF11A28E21FFF732FD00BF00BF3D
:1099900002210A2060430C4A801801811421694386
:1099A000074A881800F026F814216943044A8818E9
:1099B000002105F0F5F9A8B2B4E700000C21002061
:1099C000042C002008210020E42B00202E2E5C2EE9
:1099D0002E5C2E2E5C7262635F6D6573685C7372C1
:1099E000635C68616E646C655F73746F72616765F8
:1099F0002E63000010B50446002C00D110BD206974
:109A0000002804D0206902F07FFC0020206120465D
:109A100005F05FF900BFF1E730B587B004462421B7
:109A200068460171047201A800F004F80546284652
:109A300007B030BD70B504460A480068002804D15C
:109A400009A1FFF725F8082070BD012002F05CF89D
:109A500020460449096888470546002002F054F86A
:109A60002846F1E71C2100201B5B306D1B5B323B5D
:109A700033316D4552524F523A204E6F20434D4480
:109A80002068616E646C6572210A000070B588B050
:109A900004462278FEA10020FEF7FAFF2078252850
:109AA0007CD012DC212848D008DC00281ED00128F8
:109AB00075D0022874D0202873D11DE0222855D0FB
:109AC00023286FD02428F7D1AEE061286BD006DCC4
:109AD000502869D0512868D06028EDD12DE1622846
:109AE00072D0702871D07128E6D101E3221DEDA15A
:109AF0000020FEF7CDFF10E32279EEA10020FEF753
:109B0000C7FF092168460171F248417801A84171F7
:109B1000F0480178684601720A22EE49891C0A3031
:109B2000FEF766FC217901A801740E21E948FEF7D1
:109B3000BEFC01A803F05EFBEFE2E7A10020FEF708
:109B4000A7FF052168460171617901720A22A11DF2
:109B50000930FEF74DFC607904A9033100F06EFF77
:109B6000002802D101A803F045FBD6E2DFA10020C6
:109B7000FEF78EFF2079022802D003281CD115E0C1
:109B8000062168460171A17901720A22E11D09309E
:109B9000FEF72EFCA17901A8C17310E059E0B0E2F4
:109BA00077E0B4E212E061E289E0AAE007216846CA
:109BB0000171A179017202E0062008B070BD00BFFA
:109BC00001A803F017FBA8E255E272E2CEA1002043
:109BD000FEF75EFF2079012803D10420BD490873F8
:109BE00005E02079022802D10820BA49087308212B
:109BF00068460171617901A841710A22A11D801D89
:109C0000FEF7F6FB21796846017201A803F0F2FA2B
:109C1000C148C249486004F0A3FCC149451829461F
:109C2000BE4804F0F3FDC8E7E188A28864235A43E4
:109C30001046FEF757FCA7494873B748B749486034
:109C400004F08EFCB74945182946B44804F0DEFDFF
:109C5000B3E7B5A10020FEF71BFF0921684601719B
:109C6000617901A841710A22A11D801DFEF7C0FB88
:109C7000002101A801742179684601720E219548DE
:109C8000FEF715FC01A803F0B5FAA44804F0A4FD02
:109C900043E2A9A10020FEF7FBFE0A2168460171FC
:109CA000217901720A22A11D0930FEF7A1FB617919
:109CB00001A80176E169059103F09CFA2DE20121EA
:109CC000090760680969491E0840002801D0102072
:109CD00073E701210907A0680969491E08400028A7
:109CE00001D0092069E7211D022001F0C7FE0546C9
:109CF000002D04D197A1A3686268FEF7C9FE28462B
:109D00005BE720798007800F002801D0102054E7FE
:109D1000207B8007800F002801D009204DE7211DFE
:109D2000012001F0ABFE0546002D04D193A1E368AC
:109D30006268FEF7ADFE28463FE76168487809781B
:109D400000020843217B002901D196A100E098A1DF
:109D500000910190637BA27B98A10020FEF798FE02
:109D6000A07B0C214843A449085800280ED0A07BB2
:109D70000C214843A0490D580021A07B0C225043E0
:109D80009D4A1150284602F0BFFA00BFA17B0C2269
:109D90005143994A881802F0BDF9002876D004F0A2
:109DA000DFFB0546A17B0C225143934A505802F039
:109DB00039FBA07B0C2148438F49085800780009E3
:109DC0000001801CA17B0C2251438B4A5158087022
:109DD000207A0A30C1B2A07B0C225043864A105828
:109DE00041701621A07B0C225043834A1058817287
:109DF000E421A07B0C2250437F4A1058C172FE21FF
:109E0000A07B0C2250437C4A10580173207AC01C5E
:109E1000C1B2A07B0C225043774A10584172A37BF9
:109E20000C267343744EF35818460D30A2686168CF
:109E3000FEF7DEFA217BA07B0C22504332468018CD
:109E40000172617BA07B0C22504332468018417224
:109E50000021A07B0C225043324680188172674853
:109E600003F012F980B27D21C90069184118A07B66
:109E70000C22504332468018416061480078002827
:109E800005D0A07B0C2148431146BBE0EBE0DDE0B0
:109E90001B5B306D424C2045565420283078257885
:109EA000290A00001B5B306D094563686F3A202565
:109EB000730A00001B5B306D0941626F727420658C
:109EC00076656E742E20526561736F6E3A2030781D
:109ED00025780A00C42C00201B5B306D094E657785
:109EE000206669726D77617265210A001B5B306DB7
:109EF00009536F757263652F72656C6179207265A5
:109F00007175657374210A001B5B306D09444655F9
:109F10002073746172740A00A99101002C2C002036
:109F200080F0FA02809698001B5B306D094446551C
:109F300020454E44210A00001B5B306D0944465504
:109F40002042414E4B20415641494C41424C450A2A
:109F5000000000001B5B306D09457261736520666F
:109F60006C6173682061743A203078257820286C01
:109F7000656E677468202564290A00001B5B306DDC
:109F800009577269746520666C6173682061743A60
:109F9000203078257820286C656E677468202564E9
:109FA000290A00006578706F6E656E7469616C00D7
:109FB000706572696F646963000000001B5B306D3F
:109FC00009524144494F2054582120534C4F5420AA
:109FD00025642C20636F756E742025642C20696EB7
:109FE00074657276616C3A2025732C2068616E640A
:109FF0006C653A2025780A00542C0020B42C0020EF
:10A000002021002040184068401B4549884207D95C
:10A01000A07B0C214843114640184068281A06E0EE
:10A02000A07B0C2148433F4940184068401B3E49F3
:10A030000968491B3A4A914203D93B490968691AA0
:10A0400002E039490968491B88420BD2012037498F
:10A050000870A07B0C225043324A80184168324875
:10A0600004F0D4FB01E00420A7E556E030A1002075
:10A07000FEF70EFD51E02079082801DB07209CE562
:10A0800020790C21484327490858002801D108208D
:10A0900093E520790C21484322490D58002120796D
:10A0A0000C2250431F4A1150284602F02DF900207F
:10A0B00083E524482449486004F052FAA168451811
:10A0C00000BF2946204804F0A1FB0646002E06D01A
:10A0D00000BF1EA225493046FFF78AF900BF00BF26
:10A0E0002B4623A10020A268FEF7D2FC002064E5E5
:10A0F00028A100206268FEF7CBFC134804F06CFB3B
:10A100005BE5A268E1686068FFF772F905E027A1E6
:10A110000020FEF7BDFC06204FE500BF00204CE507
:10A12000FFFFFF7F542C0020402C00202021002026
:10A130001B5B306D0953455249414C205458210A4C
:10A1400000000000D9E801002C2C00202E2E5C2EEF
:10A150002E5C2E2E5C7262635F6D6573685C737239
:10A16000635C6466755F6170702E6300CA020000F4
:10A170001B5B306D0954494D4552207365743A207C
:10A18000257575732064656C6179202840257529D3
:10A190000A0000001B5B306D0954494D4552206197
:10A1A000626F72743A2025640A0000001B5B306DF8
:10A1B00009554E535550504F52544544204556452D
:10A1C0004E540A0010B592B001200007806B0121A7
:10A1D0000907496B48430121490740188038C06F7F
:10A1E0003549086008460068002810D001200007A3
:10A1F000406901210907096948432F4909688842D4
:10A2000005D92E4840692C49096888420BD92A484B
:10A210002BA102680020FEF73BFC002026490860C5
:10A22000062012B010BD324802F04AFF31483249D0
:10A23000486000208860C860086130483049486044
:10A2400000208860C860086101202E490870002045
:10A250002D49087025204870072088700020C8709C
:10A260002A4801F08BFB182229490CA8FDF774FF3E
:10A270000CA8FFF7DFFB0446002C01D02046D0E7F6
:10A28000302168460176022181830021089106A8C9
:10A29000FFF7D0FB0446002C01D02046C1E71D4942
:10A2A0000898086018221A4918316846FDF754FFCB
:10A2B0006846FFF7BFFBB4E71C2100200010001028
:10A2C0001B5B306D1B5B323B33316D4552524F523D
:10A2D0002C20636F6D6D616E642068616E646C65C7
:10A2E000722040307825780A1B5B323B33376D0093
:10A2F000B42C0020D9E801002C2C002011EF010023
:10A30000402C0020202100202121002061A90100F3
:10A3100058F801002821002070B586B004460E468A
:10A32000002E02D10E2006B070BD212168460170BA
:10A3300004710A223146401DFEF75AF800210491AB
:10A340006846FFF777FB0546002D0DD1074844709E
:10A350000A223146801CFEF74BF80320034908739C
:10A3600002200870002048732846DCE7C42C002037
:10A37000F0B587B004460E461746002E02D10E20D7
:10A3800007B0F0BD20216846017104720A223146EF
:10A390000930FEF72DF8059701A8FFF74BFB05469E
:10A3A000002D0DD1074844700A223146801CFEF76B
:10A3B0001FF8022003490873012008700020487329
:10A3C0002846DDE7C42C002030B587B004460D4692
:10A3D00060782178000208430B49884202DC102093
:10A3E00007B030BD01F0B8FA002801D01120F7E71E
:10A3F0001822064901A8FDF7AFFE0294039501A8B3
:10A40000FFF718FBECE70000EFFF000088F8010001
:10A4100010B504460F49104800F0F6F9002817D18E
:10A420000C4840780D4908600A48401C0C490860F7
:10A4300000200C49C86101200B4988600848006869
:10A4400000780A49C86106480068401C0449086051
:10A4500010BD00006825002018240020E420002002
:10A46000E82000200021004000200040002500409E
:10A470000121014A117070479F20002010B5064944
:10A480000968064A1268514308460549FEF72AF84A
:10A490007D21C900401810BD90200020A42000207C
:10A4A00040420F00F0B585B004460E4617461B49E2
:10A4B0003068884201D2316800E01849049104995B
:10A4C0000846FF38F5381649FEF70CF88502606833
:10A4D000A84200D26568002D04D0FF21F531049810
:10A4E000884203D20020386005B0F0BD3D600220F4
:10A4F00069460870206801900295684602F01EFACD
:10A500006068401B6060206840192060684602F067
:10A5100047FA3168081A306000BFE5E7A0860100FD
:10A520002256000010B5044621460220084A12684F
:10A53000904708480068401C06490860FEF742FF43
:10A54000002804D000210320014A1268904710BD62
:10A5500034200020442000200146072912D008DCC6
:10A5600000290DD0022913D0052915D0062917D1AD
:10A570000CE0082908D009290CD0112910D10DE0D0
:10A58000002070478520FCE78320FAE78220F8E767
:10A590008620F6E78420F4E79020F2E78620F0E7B3
:10A5A0008020EEE70121002001F062F80121022065
:10A5B00001F05EF80121032001F05AF8012108465C
:10A5C00001F056F872B600E020BFFDE730B585B067
:10A5D00004466946204600F017F90546002D05D1CE
:10A5E0006846FEF72DFF012005B030BD0020FBE7D7
:10A5F000EFF31080C107C90F72B6094802680068FE
:10A60000401C074B1860002A06D11220012282400C
:10A61000044B1A6000BF00BF002900D162B670472A
:10A62000F820002080E100E010B5EFF31080C407AF
:10A63000E40F72B606480068401E0549086000280D
:10A6400002D11220FEF7E6F8002C00D162B610BD50
:10A65000F820002010B514480078002800D010BD64
:10A6600008201249886012480860142048600020C1
:10A670004861084600F067F808200E4988600E48D7
:10A6800008601420486000204861084600F05BF82C
:10A690001220FEF7BFF803211220FEF71FF9012058
:10A6A0000149087000BFDAE7F4200020B825002037
:10A6B000D0250020702600208826002010B50748ED
:10A6C00000F052F8002804D0054800F04DF80028AA
:10A6D00002D11220FEF7BCF810BD0000B825002002
:10A6E0007026002070B50446002C01D10E2070BDEC
:10A6F000002620780300FEF749FD0509070405063A
:10A700000B0000BF00BF00BF0A4E03E00A4E01E08D
:10A710000720ECE700BF2146304600F0A6F80546CA
:10A72000002D01D02846E2E71220FEF791F8002024
:10A73000DDE70000B82500207026002001460A69E8
:10A74000C868801A7047202100BF4B1E19468268D6
:10A75000DA40D207D20F002AF7D001228A40826065
:10A760000022C260026170470146CA6808699042CF
:10A7700001D1012070470020FCE701468A68086982
:10A780008018CA68904201D1012070470020FCE780
:10A7900070B504460D4600222946204600F001F817
:10A7A00070BDF8B504460D461646002D01D10E20A9
:10A7B000F8BDEFF31080C707FF0F72B62046FFF712
:10A7C000BDFFB04204D8002F00D162B60E20EFE7E3
:10A7D00020698019A168491E0840616848432168C2
:10A7E000401800906069002804D0626928460099EA
:10A7F000904704E0626828460099FDF7F9FD002FB4
:10A8000000D162B60020D3E7F8B504460D46EFF359
:10A810001080C607F60F72B6E1682069884204D13D
:10A82000002E00D162B60E20F8BD002D15D0A16813
:10A83000491E2069084061684843216847186069DB
:10A84000002804D0394628466269904704E039461A
:10A8500028466268FDF7CCFD00BF2069401C2061DE
:10A86000002E00D162B60020DEE7F8B504460E46A1
:10A87000002E01D10E20F8BDEFF31080C507ED0FBB
:10A8800072B6A16820694018E168884204D1002DA1
:10A8900000D162B60420EEE7A168491EE0680840D6
:10A8A00061684843216847186069002804D0314630
:10A8B00038466269904704E0314638466268FDF7E1
:10A8C00097FDE068401CE060002D00D162B60020DA
:10A8D000D1E7000030B585B005461F484068002824
:10A8E00001D005B030BD27E01B480468012069464F
:10A8F000087060680190E168039102956846FFF76F
:10A90000F1FE002800D0ECE7134920690860002020
:10A910002061A06800280ED000BFA1682068401800
:10A920002060284664302168081A0C498842F4D80F
:10A930002046FEF777FC00BF07480068002808D0D3
:10A9400005480068016828466430081A03498842AF
:10A95000CAD800BFC5E7000014210020FFFFFF7F19
:10A9600070B586B005460C46012D04D0022D0CD0E2
:10A97000032D1CD113E06020694608700194224623
:10A9800013A10020FEF784F81CE0612069460870DE
:10A990000194224615A10020FEF77AF812E0622009
:10A9A0006946087018A10020FEF772F80AE000BF9F
:10A9B000072600BF19A2E9210720FEF719FD00BFF5
:10A9C00000BF00BF00BF6846FFF734F806B070BD97
:10A9D0001B5B306D577269746520636F6D706C65B9
:10A9E0007465202830782578290A00001B5B306DBB
:10A9F000457261736520636F6D706C6574652028A6
:10AA000030782578290A00001B5B306D466C617335
:10AA1000682069646C652E0A000000002E2E5C2EF2
:10AA20002E5C2E2E5C7262635F6D6573685C737260
:10AA3000635C6466755F6170702E630070B5054677
:10AA40000C46012D04D0022D0CD0042D19D110E09C
:10AA50000E48016848780978000208432070000A0F
:10AA6000607010E00948006881782170C0786070DB
:10AA700009E00A2205480168091D2046FDF7B8FCD7
:10AA800001E0062070BD00BF0020FBE72821002068
:10AA900010B51821152001F043FF002007E0014602
:10AAA000153101228A40054B9A6000BF401C0428E2
:10AAB000F5D32021092001F033FF10BD000500501F
:10AAC00070B505460E46FFF793FD002E14D01D48C5
:10AAD0000088A84210D11C48008803280CDA1A48C4
:10AAE00000880A2148431949085AA84204D1FFF7AF
:10AAF0009BFD1548008870BD1548008884B210E0A1
:10AB000014480068A04203D1FFF78EFD0320F2E74E
:10AB100000BF0A2060430D49401880884404640C3B
:10AB200000BF0A2060430949085AA842E8D1002E14
:10AB300003D00448058004480480FFF775FD2046D3
:10AB4000D9E70000102100200E210020E42B002076
:10AB5000042100200821002070B505460121284667
:10AB6000FFF7AEFF0446032C43D18348008884B22C
:10AB70000CE000BF0A20604380494018C0884404AC
:10AB8000640C00BF032C01D1204670BD0A20604335
:10AB90007A494018C088C00B0028EAD10A206043D7
:10ABA0000D520A206043401880880121C903884360
:10ABB0000A216143714A8918888000210A20604374
:10ABC000801841800A2060431146401800890228FD
:10ABD0000FD00A2161438918098914225143684A18
:10ABE0008818FEF707FF02210A206043634A801895
:10ABF000018161480068844225D06248006884422F
:10AC000037D00A2060435D49401880884004400CDA
:10AC10000A21484359494018C088C00BC0030A2183
:10AC20006143564A8918C9884904490C08430A21D6
:10AC30006143891889884904490C0A2251434F4AC3
:10AC40008918C88015E00A2060434C494018C08824
:10AC50004004400C484908600A20604347494018B6
:10AC60008088C00BC003C01C0A216143434A891875
:10AC700088804448006884425AD00A2060433F4993
:10AC80004018C0884004400C03281FD00A206043AD
:10AC90004018C0884004400C0A21484337494018F6
:10ACA0008088C00BC0030A216143344A891889880F
:10ACB0004904490C08430A2161438918C988490499
:10ACC000490C0A2251432D4A891888800A20604382
:10ACD0002A494018C088C00BC003C01C0A21614328
:10ACE000264A8918C8800A20604311464018808887
:10ACF000C00BC003234909884904490C08430A21B1
:10AD00006143891888801F4800680A21484311461A
:10AD10004018C088C00BC0036104490C084319499E
:10AD200009680A225143154A8918C88015480460E9
:10AD3000144800680A21484310494018C088C00BD5
:10AD4000C003C01C0F4909680A2251430B4A8918E5
:10AD5000C880094800680A21484311464018808885
:10AD6000C00BC003C01C044909680A225143034AAE
:10AD700089188880204608E708210020E42B00205D
:10AD8000042C002004210020F8B507460E46154685
:10AD9000032E01DB0720F8BD002D01D10E20FAE7BC
:10ADA0001748874201D11020F5E7FFF721FC002169
:10ADB0003846FFF785FE0446032C03D1FFF734FC29
:10ADC0000520E8E7002E02D0012E10D107E00A206E
:10ADD00060430C494018C088C00B28700BE00A2063
:10ADE0006043084940188088C00B287003E0FFF7D3
:10ADF0001BFC0720CFE700BFFFF716FC0020CAE7C7
:10AE0000FFFF0000E42B0020F7B582B00E46154688
:10AE1000032E02DB072005B0F0BD66490298884288
:10AE200001D11020F7E701210298FFF749FE0446FF
:10AE3000002E04D0012E1FD0022E6ED139E0032C3B
:10AE400007D10298FFF788FE0446032C01D10420A5
:10AE5000E1E70A20604358494018C0880121C9032E
:10AE60008843E9030122D203114008430A216143C8
:10AE7000514A8918C88099E0032C07D10298FFF73E
:10AE80006BFE0446032C01D10420C4E70A20604372
:10AE90004949401880880121C9038843E9030122F8
:10AEA000D203114008430A216143434A891888802C
:10AEB0007CE0002D18D0032C01D10020ABE70A2044
:10AEC00060433D4940180089022801D10020A2E7D3
:10AED0000A216143384A8918098914225143374AA3
:10AEE000881803F0F3FE5EE00020019001A801F055
:10AEF00011F9002801D104208DE700200346024605
:10AF000000900299019801F097F90746002F05D0AB
:10AF1000019801F0F9F938467DE745E0032C04D1AA
:10AF2000019800F0BFFB002075E70A20604322492A
:10AF30004018008902280FD1FEF7DCFC0A2161438A
:10AF40001D4A891808810A2060431146401800896B
:10AF5000022801D104205EE70A2060431649401808
:10AF6000008914214843154940180069002803D07E
:10AF7000019801F0C9F90AE00A2060430E4A8018DE
:10AF80000089142250430D4A8018019901610A2159
:10AF90006143094A8918098914225143074A8818CC
:10AFA00003F097FE00BF01E0072034E700BF002058
:10AFB00031E70000FFFF0000E42B0020042C0020FC
:10AFC00070B586B004460E461546042168460171E8
:10AFD000048101A88671C571FFF784FB06B070BDBE
:10AFE00070B506460D46002D01D10E2070BD002023
:10AFF000286068601D48864201D11020F6E7FFF7FF
:10B00000F7FA00213046FFF75BFD0446032C03D11D
:10B01000FFF70AFB0520E9E70A20604314494018BE
:10B02000408828800A20604340180089022818D0F0
:10B030000A2161430E4A89180989142251430D4A95
:10B040008918086901F0AAF900280AD00A2060438B
:10B0500007494018008914214843064940180069EF
:10B060006860FFF7E1FA0020C0E70000FFFF000082
:10B07000E42B0020042C0020F8B507460E46002ED5
:10B0800001D10E20F8BD2A48874201D11020F9E7EE
:10B0900001213846FFF714FD0446032C07D138463A
:10B0A000FFF75AFD0446032C01D10420EAE70A20E9
:10B0B0006043204940180589022D0BD1FEF71AFC88
:10B0C0000546022D01D10420DCE70A20604319491E
:10B0D0004018058103F044FA14216943164A009090
:10B0E0008818009903F05CFE31880A206043114AF9
:10B0F00080184180142068430F49401800690028D7
:10B1000006D0142169430C4A8918086901F0FCF83B
:10B11000706801F043F90A206043064A80180089EC
:10B1200014225043044A8018716801610020A9E785
:10B13000FFFF0000E42B0020042C002070B5054622
:10B14000FFF756FA284600F0ADF80446002C03D06D
:10B15000FFF76AFA204670BD002006E000221421A5
:10B1600041433E4BC9180A61401C0228F6D3002017
:10B1700046E00022D2430A214143394B5A52002271
:10B180000A214143C9184A800A2141431A468918B5
:10B19000C9880122D20391430A224243D218D180A6
:10B1A0000A2141431A46891889880122D203914312
:10B1B0000A224243D218918002220A214143C9182F
:10B1C0000A810A2141431A468918C988C90BC90353
:10B1D000421E5204520C11430A224243D218D1801B
:10B1E0000A2141431A4689188988C90BC903421CA0
:10B1F0005204520C11430A224243D2189180401C3F
:10B200000328B6D3002017490860022016490860B9
:10B21000144800680A21484311494018C088C00BEF
:10B22000C003C01C0F4909680A2251430C4A8918FF
:10B23000C8800D4800680A2148431146401880889C
:10B24000C00BC003C01C084909680A225143044AC4
:10B2500089188880FFF7E8F900207CE7042C00209B
:10B26000E42B0020042100200821002030B585B007
:10B270000446002C02D10E2005B030BD02206946E4
:10B2800008700294064801906846FFF72BFA0546BD
:10B29000002D02D1204601F081F82846ECE700009D
:10B2A000A5B6010010B504460748844202D30748FA
:10B2B000844201D9072010BD03220121C902204682
:10B2C00003F058FD0020F6E7881300000087930381
:10B2D00070B5054600260020287000241FE01421C8
:10B2E0006143114A881803F017FD002816D0142076
:10B2F00060430D494018006900280FD028780028C5
:10B3000006D0142060430858801B0849884205D99C
:10B31000012028701420604303490E58641C022C3D
:10B32000DDD3304670BD0000042C0020FFFFFF7FFE
:10B33000F8B506460F461048864201D11020F8BDE8
:10B3400001213046FFF7BCFB0446032C01D1052048
:10B35000F5E70A206043094940180589022D01D10B
:10B360000520ECE714216943054A8818394603F0A3
:10B37000DBFC0020E3E70000FFFF0000E42B0020DF
:10B38000042C0020F8B506460F461048864201D12D
:10B390001020F8BD01213046FFF792FB0446032C34
:10B3A00001D10520F5E70A206043094940180589C5
:10B3B000022D01D10520ECE714216943054A8818C4
:10B3C000394603F0C5FC0020E3E70000FFFF000062
:10B3D000E42B0020042C0020F8B506460F46104848
:10B3E000864201D11020F8BD01213046FFF768FBED
:10B3F0000446032C01D10520F5E70A2060430949E2
:10B4000040180589022D01D10520ECE7142169437C
:10B41000054A8818394603F0DBFC0020E3E700000A
:10B42000FFFF0000E42B0020042C0020F7B582B0C1
:10B4300004461546002600275DE004E030480088F9
:10B44000801E2F4908802E4800880228F6DA2C48F2
:10B450000088142148432B4940180069002844D033
:10B460002749098814225143264A881803F054FCBE
:10B4700000283AD02248008814214843214908581E
:10B48000201A2149884230D8002101911C4909889D
:10B49000142251431B4A8818224601A903F0AEFC2E
:10B4A0006846007900281FD01549098814225143A5
:10B4B000144A8918086900F071FF114800881421A6
:10B4C00048431049401802693046761C81000398B1
:10B4D00042502868B04207D109480088401C0849FA
:10B4E0000880002005B0F0BD00BF05480088401C62
:10B4F000034908807F1C022F9FD32E600020F1E7B4
:10B5000012210020042C0020FFFFFF7FF8B52948FE
:10B510000078002800D1F8BD27480068002801D134
:10B52000012000E00020054624480068002801D1E1
:10B53000012000E00020064600BF002D14D168461F
:10B5400051DF0446052C01D101250CE0002C06D06A
:10B5500000BF1B4A65212046FDF74AFF03E016495C
:10B5600000980968884700BF002E1AD11548008846
:10B57000009069461448006861DF0446052C01D13B
:10B5800001260DE0002C06D000BF0D4A7C2120468C
:10B59000FDF72EFF04E00C48006808490968884759
:10B5A00000BF002D02D0002E00D000E0C5E700BF94
:10B5B00000BFB0E7342100204421002040210020BA
:10B5C000B0F801003C210020382100200C48008CFC
:10B5D000C0B2012812D10A48808C0007000F002851
:10B5E0000CD10748806AF0210840402806D1044861
:10B5F000C06A0840002801D1012070470020FCE704
:10B60000C00F00F01948008CC0B201282CD1174897
:10B61000808C0007000F002826D11448806AF02192
:10B620000840002806D11148C06A0840002801D10E
:10B63000012070470D48806AF0210840102806D18B
:10B640000A48C06A0840002801D10120F1E70748F4
:10B65000806AF0210840302806D10448C06A0840BA
:10B66000002801D10120E4E70020E2E7C00F00F04C
:10B67000002906D10246153201239340044A936003
:10B6800005E00246153201239340014AD36070471A
:10B690000005005010B5182001F030F9172001F016
:10B6A0002DF910BDFEB505462E46304600F074FD5E
:10B6B0000446002C29D0E079A179000208436946AC
:10B6C0000880019661792279090211430846012117
:10B6D000FFF7F6F90746032F09D00A2078430D49F2
:10B6E0004018408869460880684603F077FD684640
:10B6F0000088A071000AE071617922790902114382
:10B7000008466946FFF7B8FC00BF304600F0FCFD74
:10B71000FEBD0000E42B00208EB0FFF7B9F900BF9A
:10B72000002348223749052002F0C2FC054600BF2D
:10B730002E46002E05D000BF33A2EA213046FDF789
:10B7400057FE00BF00BF334802F0A6FC324802F0AB
:10B75000E3FC00F0ACF83148099064200B902621FE
:10B7600008A8017205200C90002108A801750D9809
:10B77000009009A80FC801F095FD044600BF2546BA
:10B78000002D05D000BF20A2FF212846FDF730FE86
:10B7900000BF002510E0A8B201F09AFE044600BFE9
:10B7A0002646002E06D000BF17A2FF2106313046E4
:10B7B000FDF71EFE00BF6D1C022DECD300F08CFFC8
:10B7C00000BF00F0AAF80546002D06D000BF0EA26B
:10B7D000FF210C312846FDF70BFE00BFFFF75AFF93
:10B7E00001F008FF012002F0ABFC0AE002A801F022
:10B7F000B7FC002805D102A801F0C8FC02A801F09E
:10B8000031FDF3E7482100202E2E5C6D61696E2E1C
:10B8100063000000C9D6010019D40100D6BE898E8C
:10B82000F8B505460E4614462879801CC7B2207824
:10B83000801CC0191F2801DD0C20F8BD781CC1B286
:10B840002278501C2070B154FF212278501C2070A7
:10B85000B15422789119288803F004FC217840180B
:10B860002070A88800280EDDA868002801D10720D4
:10B87000E3E7AA8823789819A968FCF7B9FD20782E
:10B880002979401820700020D7E700B589B002E080
:10B8900001A801F055FF01A802F05AFA0028F7D1DB
:10B8A00009B000BD10B50446FFF7EFFF10BD10B59D
:10B8B000FEF7D0FE02F0A4FA10BD10B588B0044621
:10B8C000207800280ED0012804D0022806D00428B1
:10B8D00010D10BE0B520694648700CE0B3206946F2
:10B8E000487008E0B4206946487004E0B620694614
:10B8F000487000E000BF00BF207BC01CC1B268469A
:10B900000170A1884180227B01A8A168FCF770FD2D
:10B91000684602F04FFA08B010BD00B589B00421A6
:10B920006846017181214171022181713DDF082149
:10B9300000980840C10801A8C17002F033FAC1B2F2
:10B9400001A8017102F036FA002802D1042009B0E2
:10B9500000BD0020FBE7000010B50648FEF704FF1D
:10B96000002803D004480078002801D0012010BD31
:10B970000020FCE7B82200205023002010B5044628
:10B98000002C01D10E2010BD084809490860102084
:10B990004860082088600846FEF7D5FE0548046028
:10B9A00000200549087000BFEDE70000D02200200C
:10B9B000B8220020342000205023002011B581B08F
:10B9C00044E023480078002800D01CBD214800F046
:10B9D000E7FF002809D101F081FE002800D1F4E73B
:10B9E00000F002FE002800D1EFE700200090194887
:10B9F0000078012808D002280DD16A4601A915480F
:10BA0000001DFEF74FFD12E06A4601A91148001D16
:10BA100003F0AAFE0BE000BF002400BF0EA2FF212E
:10BA200074310020FDF7E4FC00BF00BF00BF00BF81
:10BA3000FF21F5310198884202D90098002800D1F1
:10BA4000C3E70198FF38F538019000BFB9E700005F
:10BA50003C200020502300202E2E5C2E2E5C2E2E0B
:10BA60005C7262635F6D6573685C7372635C6D6565
:10BA700073685F666C6173682E6300007FB505466E
:10BA80000C461F480068002802D1082004B070BD91
:10BA9000002C01D10E20F9E7012D15D12078800767
:10BAA000800F002804D120798007800F002801D062
:10BAB0001020EBE7207A8007800F002802D1A068D1
:10BAC000002811D10920E1E7022D0BD12088800543
:10BAD000800D002801D01020D8E76068002803D12D
:10BAE0000920D3E70720D1E768460570204607C83C
:10BAF00001AB07C369460348FEF7B7FEC6E700007F
:10BB000034200020B822002070B50446EFF31080E6
:10BB1000C507ED0F72B600BF002C03D112480068B4
:10BB2000002801D0012000E000200646002E06D1AA
:10BB300000BF0EA2FF218531FDF75AFC00BF00BFF8
:10BB40006000401E08490968401807490860084617
:10BB50000068002801D0012000E000200C49087096
:10BB6000002D00D162B670BD482000202E2E5C2E24
:10BB70002E5C2E2E5C7262635F6D6573685C7372FF
:10BB8000635C6D6573685F666C6173682E6300004B
:10BB90003C20002070B586B004460E4625460220A3
:10BBA000694608702878C01E0290281D01906846DA
:10BBB000FDF740FF06B070BD30B587B004460D46B6
:10BBC0001121684601704470857000F003F807B0D9
:10BBD00030BD000030B587B00446254800882549AF
:10BBE000884202D1244807B030BD2448807800281C
:10BBF00002D12148401EF6E706A862DFC5B2002D3B
:10BC000001D01120EFE76846007E002802D11A48D3
:10BC1000801CE8E719488189684601810121817209
:10BC200000218181207802280FD004DC002807D071
:10BC3000012811D108E011280BD012280CD105E001
:10BC4000E078001D01900AE000BF00BF05200190D0
:10BC500005E00320019002E00120019000BF00BF39
:10BC600001A80490059402A901480088A6DFBAE75C
:10BC7000D2200020FFFF000002300000EC23002053
:10BC8000F0B585B005460E46174601950297684601
:10BC900006730121817012490180124A6946012010
:10BCA000A0DF0446002C02D0032005B0F0BD0E49F1
:10BCB0000E4863DF0446002C01D02046F5E701A8BA
:10BCC00000F082F90446002C01D02046EDE700F098
:10BCD000D3FB0446002C01D02046E6E70020E4E731
:10BCE000E4FE0000EC230020D020002034F8010006
:10BCF000F0B589B00546288850287DD1E8889B4951
:10BD00008989884279D12C4620342078002804D0B3
:10BD1000012841D0022871D190E0A1786278080210
:10BD200010439349884204D12078F221FFF744FF61
:10BD3000ECE0E278A3786778190239430846211DC0
:10BD400003F08EFA0646002E21D169460872201DA6
:10BD50000490E17802A80173A17862780802104388
:10BD600069468881012102A8C18202F0F9FB08908E
:10BD700002A801F03FFA002804D02078F021FFF754
:10BD80001BFF03E020788021FFF716FF03E02078F7
:10BD9000F021FFF711FFB9E0E078002802D0012878
:10BDA00045D118E02279002A01D0012200E00022CA
:10BDB0001146A37866781802304303F0BBFC0028D4
:10BDC00004D02078F221FFF7F7FE35E020788021BB
:10BDD000FFF7F2FE30E02079002815D0A2786378D2
:10BDE00011021943084603F00BFC002807D0207805
:10BDF000F221FFF7E1FE1FE0A8E089E081E0207872
:10BE00008021FFF7D9FE11E0A2786378110219436F
:10BE1000084603F0D7FB002804D02078F221FFF772
:10BE2000CBFE09E020788021FFF7C6FE04E02078F1
:10BE3000F321FFF7C1FE00BF00BF67E0E0780028F4
:10BE400002D0012856D131E0A1786278080210436F
:10BE50004749884204D12078F221FFF7ADFE4EE039
:10BE600000200890A278637811021943084608A9B7
:10BE700003F042FC002804D02078F121FFF79CFE5B
:10BE80003DE0122168460171A17860780902014302
:10BE900068464171090A8171E17801A8C17008A85A
:10BEA000017801A80171FFF795FE28E0A278637878
:10BEB00011021943084608A903F0F8FB002804D032
:10BEC0002078F221FFF778FE19E01221684601710F
:10BED000A17860780902014368464171090A8171BD
:10BEE000E17801A8C17008A8017801A80171FFF7E5
:10BEF00071FE04E02078F321FFF75EFE00BF00BF73
:10BF000004E02078F421FFF757FE00BF00BF2BE0CC
:10BF1000E88816498988884209D12C462034217A3C
:10BF2000206802F011FA606803F0CEF91CE0E9889D
:10BF30000E48008A814217D12020405D002801D0A0
:10BF4000012000E00020094988700DE028881028B1
:10BF500003D1A8880749088006E02888112803D162
:10BF60000020C0430349088009B0F0BDEC23002045
:10BF7000FFFF0000D220002070B588B005460E46B5
:10BF80001446172C02DD092008B070BD0B4800884C
:10BF90000B49884210D00021684601714571290A79
:10BFA000817101A8C4702246314602A8FCF720FA2C
:10BFB00001A8FFF70FFEE7E70248E5E7D2200020DF
:10BFC000FFFF00000230000030B593B004460020AF
:10BFD000129000BF10A8007A01090901491C10A89D
:10BFE0000172007AF0218843103010A9087200BF56
:10BFF00000BF10A8407A01090901491C10A841722C
:10C00000407AF0218843103010A9487200BF10A870
:10C01000807A06218843811C10A881721C210BA8FC
:10C02000FCF745FA08A8007B02218843811C08A878
:10C030000173007B10218843411808A80173002078
:10C040000E9012A8109000200C900F900A9008A853
:10C05000007AF02188430146103108A80172007A65
:10C0600001090901491C08A80172407AF02188439E
:10C070000146103108A84172407A01090901491CA2
:10C0800008A84172807A08218843014608A8817275
:10C09000807A10218843014608A88172807A41087D
:10C0A000490008A88172807A06218843811C08A86B
:10C0B00081721648017808A881710421684681843C
:10C0C0002068069060680790217A08A80170142102
:10C0D00001A8FCF7ECF90921684681810021C181A2
:10C0E0000921018209A8019006A805900AA80290DA
:10C0F000074908880B1D01AA0BA9A2DF0546002DE0
:10C1000002D0032013B030BD0020FBE7D020002078
:10C11000EC23002070B50546002119E0EFF31080F4
:10C12000C407E40F72B61148405C00280CD101200E
:10C130000E4A5054282048430D4A80182860002C8D
:10C1400000D162B6012070BD002C00D162B6491C3E
:10C150001D29E3D300BF042600BF06A2442104200A
:10C16000FDF746F900BF00BF0020ECE7C42B00201C
:10C170003C2700202E2E5C2E2E5C2E2E5C726263DD
:10C180005F6D6573685C7372635C6D6573685F7027
:10C1900061636B65742E63000246002A00D170470C
:10C1A000114609315078062802DD5078252801DD36
:10C1B0000020F4E70FE00B7810460930081A1B182E
:10C1C0005078801F834201D90020E8E70878401C9E
:10C1D0004301181A091848781628ECD1C8788B78CA
:10C1E00000021843024B9842E5D10846D7E7000009
:10C1F000E4FE000030B504462046FFF7CDFF0546BB
:10C20000002D01D10B2030BD2046093085420ED0D3
:10C210002878401CC1B2002004E02B5C2246093281
:10C220001354401C8842F8D32546093500BF2878AE
:10C23000C01D60700020E6E7FFB581B005461F46CF
:10C240000A9E002D02D10E2005B0F0BD2C46093407
:10C25000172E01DD0920F7E7284600F0E3F8304605
:10C260000E306870287800090001801C2870F01DCD
:10C270002070162060700D48A070000AE0700298CF
:10C280002071000A60710398A071000AE071002E0D
:10C2900009DD002F07D0172E05DC3246394620462F
:10C2A0000830FCF7A5F80020CEE70000E4FE00000F
:10C2B00002461146093110E04878162806D1C878A0
:10C2C0008B7800021843094B984201D00120704737
:10C2D0000878401C4301181A09185078C01F1346EB
:10C2E0000933C0188842E7D80020F0E7E4FE0000D8
:10C2F000002003E00021034A1154401C1D28F9D3FB
:10C3000070470000C42B0020F8B506461849701A83
:10C310002821FCF7E7F804461D2C01D30020F8BDC6
:10C32000EFF31080C507ED0F72B61248005D0028CC
:10C330000ED100BF082700BF0FA276210820FDF70D
:10C3400057F800BF00BF002D00D162B60020E6E71D
:10C350000848005D401E07490855002D00D162B60F
:10C360000448005D002801DD0120D8E70020D6E761
:10C370003C270020C42B00202E2E5C2E2E5C2E2E5F
:10C380005C7262635F6D6573685C7372635C6D653C
:10C3900073685F7061636B65742E6300F8B5054662
:10C3A0001549681A2821FCF79DF804461D2C01D375
:10C3B0000020F8BDEFF31080C607F60F72B60F48E5
:10C3C000005D002803D00D48005DFF2809D100BFA3
:10C3D000042700BF0AA262210420FDF709F800BF6C
:10C3E00000BF0648005D401C04490855002E00D1DE
:10C3F00062B60120DDE700003C270020C42B0020AE
:10C400002E2E5C2E2E5C2E2E5C7262635F6D657329
:10C41000685C7372635C6D6573685F7061636B65A4
:10C42000742E63007CB50446684671DF0546002D16
:10C4300001D028467CBD2078402188436946097890
:10C4400089014022114008432070062200A90131D1
:10C45000E01CFBF7CDFF0020ECE710B504462046BA
:10C46000FFF726FF002802D02046FFF7C3FE204634
:10C47000FFF7D8FF10BD000010B590B01C2109A82F
:10C48000FCF715F808A8007904218843011D08A8C5
:10C490000171007910218843411808A8017100201A
:10C4A0000E900F900A900D90089008A84078F02107
:10C4B00088430146103108A84170407801090901FC
:10C4C000491C08A84170807806218843811C08A86F
:10C4D0008170807808218843014608A8817080789F
:10C4E00010218843014608A88170807841084900DE
:10C4F000491C08A881701448017868468177052195
:10C50000818300210191142102A8FBF7D0FF0121B2
:10C5100068460182002141821B21818208A8039084
:10C5200007A8029001A80690084908880B460C331A
:10C5300002AA09A9A2DF0446002C02D0032010B0F1
:10C5400010BD0020FBE70000D0200020EC230020DD
:10C55000F7B584B004460F4606980678B01C1F282D
:10C5600003DC6078801C1F2802DD0C2007B0F0BDC2
:10C570001F20801B801E85B20295B11C781802A96D
:10C580007DDF03900398002801D00398EEE7207820
:10C59000022808D168460089A84204DC09200190DD
:10C5A000684605890BE0082001906078002804D0D7
:10C5B0006078A84201DC657801E068460589681C5E
:10C5C000C2B23046711CCEB23A543046721CD6B25A
:10C5D0000199395406980178A81C0818C1B2069828
:10C5E00001700020C2E7000010B518491848FEF796
:10C5F0000BF9002803D000201449087010BD00BFBB
:10C6000012480078002801D0012000E000200446F4
:10C61000002C05D100BF0FA2FC21FCF7E9FE00BFF2
:10C6200000BF15480068401C13490860074800789F
:10C63000012804D1054880681049086003E00348D8
:10C6400040680E4908600120D8E700005023002010
:10C65000B82200202E2E5C2E2E5C2E2E5C72626381
:10C660005F6D6573685C7372635C6D6573685F664C
:10C670006C6173682E630000402000203820002089
:10C680000146087A002808D18B7A01209840401E84
:10C69000054B58434A6810187047887A024B584334
:10C6A0004A681018F8E70000A086010010B504469B
:10C6B0002088F0210840102802D0502808D103E03B
:10C6C0002046FCF7D7FF04E02046FDF709F800E01C
:10C6D00000BF00BF10BD000070B596B000201590DF
:10C6E00010A9087414A860DF0446002C0DD0082C93
:10C6F0000BD000BF2646002E06D000BF32A29621E6
:10C700003046FCF775FE00BF00BF062530213348D8
:10C71000FBF7CDFE3148C570022030490870304823
:10C720000068139011A871DF044600BF2646002E52
:10C7300006D000BF24A2A9213046FCF759FE00BF55
:10C7400000BF11A84079000211A989790843024667
:10C7500024A101A8FBF756FD01A8FBF727FE86B22E
:10C76000324601A913A87CDF044600BF2646002EEE
:10C7700006D000BF14A2B0213046FCF739FE00BF3E
:10C7800000BF00211548FCF738FF044600BF2646CD
:10C79000002E06D000BF0CA2B4213046FCF728FEC4
:10C7A00000BF00BF134873DF044600BF2646002EBB
:10C7B00006D000BF04A2B8213046FCF719FE00BF26
:10C7C00000BF16B070BD00002E2E5C6E72665F61F9
:10C7D00064765F636F6E6E2E630000009021002010
:10C7E00024F801007262635F6D657368202325641D
:10C7F000000000000020002070B504460D46012214
:10C800001207126991B201221207126992B25219EB
:10C81000501EFBF767FEC6B200201FE00221114A3E
:10C82000516000BF104909680029FBD00D498C6098
:10C8300000BF0D4909680029FBD00021094A516059
:10C8400000BF094909680029FBD0012109070969CE
:10C850000904890C89000C19411CC8B2B042DDDB07
:10C8600070BD000000E5014000E40140FFB5002478
:10C870000022039B9B089B00181800232AE00D78D8
:10C88000ED431543EAB20E782546671CFCB2134F00
:10C890007E55491C042C1CD10024002A17D00125E8
:10C8A0000F4E756000BF0F4D2D68002DFBD00B4D56
:10C8B0002D68056000BF0B4D2D68002DFBD00025B5
:10C8C000074E756000BF074D2D68002DFBD000227C
:10C8D000001D5B1C029DAB42D1D3FFBD3020002068
:10C8E00000E5014000E4014010B58A0005231B0764
:10C8F000072424021B1984001A5110BD03210522AC
:10C90000120707231B02D2188300D150704703215E
:10C910000522120707231B02D2188300D15070474B
:10C9200010B508E0032205231B07072424021B1966
:10C9300084001A51401C8842F4D910BD70B50446D9
:10C940002078012806D002280AD1A1686068FFF784
:10C9500053FF10E00023201D07C8FFF787FF0AE000
:10C9600000BF0B2500BF05A285210B20FCF740FD71
:10C9700000BF00BF00BF00BF70BD00002E2E5C2EA8
:10C980002E5C2E2E5C7262635F6D6573685C7372E1
:10C99000635C6D6573685F666C6173682E6300002D
:10C9A00001460878002813D0012802D0022811D1AE
:10C9B00005E0C868C01C800830225043704701223F
:10C9C000920288688018401E800A044A5043F5E7A6
:10C9D0000020F3E70020C043F0E7000022560000EB
:10C9E00038B505466846FEF773FC0446684600788D
:10C9F000002800D138BD7D20C0002818844203D211
:10CA0000204602F067FC08E02146054801F0FEFEE2
:10CA1000002802D0204602F05DFC00BFEAE70000DB
:10CA2000282700201CB50221684641710948017978
:10CA300068468171FFF76EFB002800D11CBD684677
:10CA400000F0C2F9002802D00098FFF75DFC00BF9B
:10CA5000F4E70000D420002070B504460D46002CF9
:10CA600005D0002D03D020782978884201D00120FC
:10CA700070BD2078C21F2946083120460830FBF7D8
:10CA800041FC002801D00120F2E70020F0E700007F
:10CA90007CB51648FDF752FE044622E0694613486D
:10CAA000FDF776FE00281AD168464079022816D193
:10CAB00000210E48FDF7A8FE00F04CF800BF0C481E
:10CAC00000690028FBD10B49C86064230022D243CF
:10CAD0000021094D00982D68A847641E00E002E07F
:10CAE00000BF012CDAD800BF7CBD0000602300200D
:10CAF000401500400011004054200020014908600A
:10CB0000704700005C2000200EB50A2804DC4100BC
:10CB1000091D0E4A916013E0242804DC4100891DA0
:10CB20000A4A91600CE00A4B0ECB029301920091ED
:10CB30000146253989006A465158044A916000BF70
:10CB40004106490E014A403251610EBD00150040B8
:10CB500028F80100002007490860401E0649886047
:10CB600001200649086102200549087000BF00BF86
:10CB70007047000000120040001300400010004009
:10CB80004C200020FEB53048C068002843D02F4814
:10CB90000068002801D0012000E0002002902B480E
:10CBA000C56864262848C069002805D000202649A9
:10CBB000C86127488068C6B200202349C86069461A
:10CBC0002448FDF721FE044600BF2746002F07D06A
:10CBD00000BF21A2FF2149313846FCF709FC00BF04
:10CBE00000BF68464079012803D068464079022892
:10CBF00007D133462A46224F029900983F68B8472A
:10CC000003E0204900980968884700BF00BF022060
:10CC10001D49087001E0FFF73BFF1B480078022820
:10CC200003D01948007803280DD101A90948FDF760
:10CC3000AFFD002803D101A801F0B0F902E01348CC
:10CC40000068804700BFFEBD001100400014004096
:10CC500040150040602300202E2E5C2E2E5C2E2ED0
:10CC60005C7262635F6D6573685C7372635C726152
:10CC700064696F5F636F6E74726F6C2E6300000087
:10CC800054200020582000204C200020502000205C
:10CC900010B503484079002801D1FFF7C3FE10BD4D
:10CCA000D420002070B504460D46164600203549B4
:10CCB000C8630120C86300203349C86003200861AD
:10CCC0000220886025203049403148618E202E495D
:10CCD00048622E48C8612E480068000E88622C48C1
:10CCE00000680002000A000208620020C8620120F9
:10CCF0000863284848612848886128488863FF20DD
:10CD0000043048632648C86394201F494031486076
:10CD10002448007803280BD1082023498860234841
:10CD2000086008204860002048610846FDF70BFDB8
:10CD300002201C49087000201D49C8600120012103
:10CD400081401C4A116000BF00BF012181401A4A86
:10CD5000116000BF19480460194805601948066051
:10CD60001148FDF701FD002803D0144800688047F2
:10CD700006E001F045FE002802D00120FBF754FD3B
:10CD800070BD0000C01F00400015004000D6BE89E5
:10CD90005C20002006010200250003025B06000063
:10CDA000555555004C20002060230020782300209A
:10CDB0000011004080E200E000E100E0502000208F
:10CDC000542000205820002070B50446002C01D1CA
:10CDD0000E2070BD6079002804D12079012801DD82
:10CDE0001020F6E721460C48FDF73FFD002801D052
:10CDF0000420EEE7EFF31080C507ED0F72B601F0E7
:10CE0000FFFD002802D00120FBF70EFD002D00D110
:10CE100062B60020DDE700006023002070B5044604
:10CE200001207049087070480078012802D002285B
:10CE300014D109E002206D49087000206C49086097
:10CE400001F06AFD694870BD6A4802F015F801F00A
:10CE500063FD0020644908706448F4E700BF00BF28
:10CE60000020624908702300FCF790F905043A3766
:10CE70007E3D8E0001206049087000205F490870E7
:10CE80005F49086001F06AF9FDF718FC5D48006829
:10CE900001F08CFB01F0B6F956485B49086001F0DF
:10CEA00071FE5A4909684618FDF7E8FA351A032356
:10CEB000574A2946002001F04BFC5348006801F016
:10CEC000BFFF4B480068401C49490860002803D157
:10CED00008460068401C086062E0FFF753FE5FE010
:10CEE00001F0C8FA5CE0494800684A4909684018FE
:10CEF0004649086000204749086041480068401CD6
:10CF00003F490860002001F06FFA01F03BFE3F4905
:10CF100009684618FDF7B2FA351A03233C4A294638
:10CF2000002001F015FC00203049087030480068EE
:10CF300001280CD1354800683349096840182D494B
:10CF4000884210D23048006801F07AFF0BE02F4889
:10CF500000682D49096840182F49884203D22A48A1
:10CF6000006801F06DFF1BE0274800684008264973
:10CF70000860084600687D21C900884203D922481C
:10CF8000006801F05DFF0BE000BF002500BF23A299
:10CF9000FF215F310020FCF72BFA00BF00BF00BF6C
:10CFA00000BF16480078002805D0124801F064FF41
:10CFB00001F0B2FC10E00D480078012804D10B48C4
:10CFC00040681449086007E001F020FD0546FEF7BF
:10CFD000F5FC00200F490860002002490870034852
:10CFE00031E700009C200020A020002088200020A5
:10CFF000A8200020102700009D2000209F20002056
:10D00000BC200020942000209820002090200020A8
:10D0100071A40100B8200020809698002E2E5C2E6E
:10D020002E5C2E2E5C7262635F6D6573685C73723A
:10D03000635C74696D65736C6F742E63000000002F
:10D04000F8B507460D4600241AE000BF684639DFF0
:10D05000684600780028F9D0281B6946097888427C
:10D0600002D2281BC0B200903819694609783ADF0D
:10D070000646002E01D00320F8BD6846007824182B
:10D08000AC42E2D30020F7E701460879C0064B68BE
:10D090005B0918430B681A1A088940048B68DB0B7C
:10D0A00018434B6858400860CB688868C0184860CF
:10D0B000C8688018886008688018C860C8687047A9
:10D0C000F8B504460020009004216846FFF7B8FF39
:10D0D0000546002D01D02846F8BD0948206000987B
:10D0E00060600098A0600098E060002603E02046A1
:10D0F000FFF7CAFF761C142EF9D30020ECE70000DE
:10D10000ED5EEAF1014605480078002801D10820CB
:10D1100070470348006808600020F9E720200020DD
:10D120002420002010B5044604480078002800D1CF
:10D1300010BD2046FEF7DCFD00BFF9E720200020EF
:10D14000014605480078002801D1082070470348AF
:10D15000007808700020F9E7202000202820002017
:10D1600010B5044607480078002801D1082010BDFA
:10D1700021460548FDF748FB002801D00520F6E7C9
:10D180000020F4E720200020C021002010B5044634
:10D1900020780300FBF7FAFF0B09070814131B2282
:10D1A000292728172A0000BF00BFA088012800DD1A
:10D1B0001DE0A26811782079FEF75AFA17E016E010
:10D1C000FFF78AFA13E02079FCF726FC0FE02079BC
:10D1D00013225203611DFDF7CBF808E02079611D91
:10D1E000FDF79AF803E000BF01E000E000BF00BFD8
:10D1F00010BD000070B5044618480078002801D121
:10D20000082070BD002C01D10E20FAE721461448F9
:10D21000FDF72BFB0546002D1ED1A06800281BD072
:10D220002078002807D0012806D0022802D0042840
:10D2300010D108E000BF00BFA068002802D0A0689D
:10D24000FFF7ACF807E0A068002802D0A068FFF75D
:10D25000A5F800E000BF00BF2846D2E7202000204C
:10D26000C021002010B504462078002806D00128EF
:10D2700006D0022803D0042810D108E000BF00BF68
:10D28000A068002802D0A068FFF73EF807E0A06879
:10D29000002802D0A068FFF737F800E000BF00BF09
:10D2A00010BD00000FB4FEB50021029102A812DFEC
:10D2B0006846007A002804D10220FEBC08BC04B0F5
:10D2C000184732480078002801D00820F5E70A986E
:10D2D000052803D32E490A98884201D90720ECE794
:10D2E00001F08EFAFDF7B6F9FFF702F808AD2979DB
:10D2F000089800F079FF2B7C2A797D26F6000A9D9C
:10D3000075432846089901F077FF0446002C01D0A8
:10D310002046D2E7002000900190019069460870F5
:10D32000684660DF0446002C03D0082C01D020465C
:10D33000C3E708AB19790A9A0898FEF7A1FC0446DE
:10D34000002C01D02046B8E70B9801F00DFB1149E5
:10D350000898086008A800790F4908700F490A98D2
:10D36000086001200949087008200D4988600D48AF
:10D3700008601C204860002048610846FDF7E3F97A
:10D3800001F088FBFCF71EFF97E70000202000203B
:10D3900060EA000024200020282000202C2000200B
:10D3A000C0210020D821002001460548007800282F
:10D3B00001D1082070470348006808600020F9E7A1
:10D3C000202000202C20002070B504460D46054882
:10D3D000844201DD102070BD2946204602F08CF900
:10D3E000F9E70000EFFF000070B504460D4608485D
:10D3F0000078002801D1082070BD0648844201DD74
:10D400001020F9E72946204602F094F9F4E70000DD
:10D4100020200020EFFF000010B50446204601F058
:10D420006FFB10BD10B506480078022801D0082017
:10D4300010BD01F02FFB0120014908700020F7E723
:10D440002020002010B506480078012801D00820CF
:10D4500010BD01F09DFB0220014908700020F7E794
:10D460002020002070B504460D460548844201DDA9
:10D47000102070BD2946204602F068F8F9E7000048
:10D48000EFFF000070B504460D46084800780028FC
:10D4900001D1082070BD0648844201DD1020F9E763
:10D4A0002946204602F070F8F4E700002020002012
:10D4B000EFFF000010B504460448844201DD10204F
:10D4C00010BD204602F07EF8FAE70000EFFF0000F2
:10D4D00010B504460448844201DD102010BD2046EA
:10D4E00002F08EF8FAE70000EFFF000070B5044686
:10D4F0000D4616460548844201DD102070BD3246B7
:10D500002946204602F096F8F8E70000EFFF0000F9
:10D5100070B505460E4614460A480078002801D129
:10D52000082070BD0848854201DD1020F9E7E2B20D
:10D5300031462846FEF720FDE2B23146284601F08A
:10D540008FFEEEE720200020EFFF0000FEB504462E
:10D550000D4610480068281A0F49884201D90D4825
:10D5600005680C4805600D48FFF78EFD01902046C8
:10D570000830FAF79EFF4608201DFAF79AFF871930
:10D5800031460198FAF7AEFF781821460090FAF775
:10D59000A1FFFEBDCC200020FFFFFF7FDC23002089
:10D5A000014612480068884205D1104B086918608E
:10D5B0000020086170470D48026808E01069884241
:10D5C00004D10869106100200861F3E71269002A9C
:10D5D00009D01069002806D0086813691B68C01AB2
:10D5E000034B9842EAD90520E4E70000142100200B
:10D5F000FFFFFF7FFF20483008498860012008496D
:10D6000088600021074841600120400406494860C5
:10D610000321112033DF11202EDF70470015014058
:10D62000001001404011014000130140F0B585B0E9
:10D6300004460D4616461F46002D18D06078252852
:10D6400015DC0320694608700194029600F088FFFB
:10D65000039068460774FDF745F8002803D00120C1
:10D660000649487102E02046FEF798FE00E000BF40
:10D670002046FEF749FE05B0F0BD0000D420002092
:10D6800000B585B00D480078002815D10C48007809
:10D69000022811D002200A4908706946087009481A
:10D6A0000190002102916846FDF71CF8002802D085
:10D6B00000200349087000BF05B000BDEC20002029
:10D6C000E020002011A4010010B504462046FFF719
:10D6D00029FD2046FEF7EAFF10BD000000B585B029
:10D6E00012480068002803D011480078002802D1B1
:10D6F000012005B000BD0220694608700C48007882
:10D70000022805D10B4801900B480168029104E002
:10D710000A4801900848016802916846FCF7E2FF58
:10D72000002801D00020E4E70120E2E740200020AB
:10D730005023002025A5010038200020F1F701002A
:10D74000F0B595B00446FBA10020FBF7A1F92646F1
:10D75000002705E0F25DFBA10020FBF799F97F1C93
:10D760002078B842F6D2FAA10020FBF791F9607850
:10D7700076287BD012DC722879D008DC022817D0FA
:10D780000E282CD0702833D0712871D199E07328DD
:10D790006FD074286FD07528F7D17FE077380300F9
:10D7A000FBF7F4FC09FCFB66FAF9F8F766F666008D
:10D7B000822108A84175217801752078012806DDAD
:10D7C0002078421EA11C0DA80230FAF711FEE2A13A
:10D7D0000020FBF75DF90DA800F0ECFA95E200F0EF
:10D7E0007DFB0020C0433EDF012044DF35DF8CE2BB
:10D7F000842108A84175617881750321017520781D
:10D800000A2804D084210DA8C170092519E0A01CA4
:10D81000FAF74FFE0190A07A69460872A01DFAF748
:10D8200048FE0390012004900598009001A80FC8BD
:10D83000FFF738FD05462846FCF78EFE0DA9C87097
:10D8400000BF002D0ED11C2106A8FAF730FE0320E0
:10D850006946087606A8FFF7CDFC0746FCF77CFE74
:10D860000DA9C8700DA800F0A5FA4EE294E181E080
:10D870003AE2A5E0FFE7842108A841756178817547
:10D8800003210175FFF7CEFD05462846FCF764FE2F
:10D890000DA9C8700DA800F08DFA36E2842108A801
:10D8A00041756178817503210175FFF7CBFD054650
:10D8B0002846FCF751FE0DA9C8700DA800F07AFAB1
:10D8C00023E2842108A841756178817503210175DF
:10D8D00005A8FEF71FFC002843D02078C01EC7B261
:10D8E00020781A2804D984210DA8C17009250EE0DA
:10D8F000E178A2780902114308463A46211DFFF754
:10D9000007FE05462846FCF727FE0DA9C870002D26
:10D9100026D13A46211D05980930FAF769FD1C21E8
:10D9200006A8FAF7C4FD0020694608760598093074
:10D93000089006A80773E078A178000208436946BA
:10D94000888300F00DFE0C9006A8FFF753FC0546F7
:10D950000598FEF7D9FC2846FCF7FEFD0DA9C87016
:10D9600004E01120FCF7F8FD0DA9C8700DA800F027
:10D9700021FACAE1842108A84175617881750321E3
:10D980000175207803280AD084210DA8C17013E006
:10D99000C1E0A0E07FE063E031E082E13AE1E178DC
:10D9A000A278090211430846FFF792FD0546284672
:10D9B000FCF7D2FD0DA9C8700DA800F0FBF9A4E199
:10D9C000842108A84175617881750321017520784B
:10D9D000032803D084210DA8C1700CE0E178A2785F
:10D9E000090211430846FFF765FD05462846FCF786
:10D9F000B3FD0DA9C8700DA800F0DCF985E1842104
:10DA000008A8417561788175172101752078032870
:10DA100003D084210DA8C1701BE0E178A27809022F
:10DA2000114308460DAA911DFFF760FD07463846D1
:10DA3000FCF792FD0DA9C870E078A17800020843B8
:10DA40000DA9888008A8007D401DC1B208A80175F5
:10DA500000BF842008A948750DA800F0ABF954E177
:10DA6000842108A8417561788175062101752078A7
:10DA7000012803D084210DA8C17008E000210DA861
:10DA8000017108214171052181710021C1700DA82A
:10DA900000F090F939E1842108A841756178817519
:10DAA000072101752078012803D084210DA8C170B9
:10DAB0000DE005A8FFF726FB05460EA90598FAF725
:10DAC00009FD2846FCF748FD0DA9C87000BF0DA848
:10DAD00000F070F919E1842108A841756178817519
